:100000000C9482010C949F010C949F010C94591A3A
:100010000C949F010C949F010C949F010C949F01E0
:100020000C949F010C949F010C9431220C94032397
:100030000C949F1C0C949F010C949F010C949F01A5
:100040000C949F010C949F010C949F010C949F01B0
:100050000C949F010C94441D0C949F010C949F01DF
:100060000C949F010C949F010C949F010C949F0190
:100070000C949F010C949F010C949F010C949F0180
:100080000C949F010C949F010C949F010C949F0170
:100090000C949F010C949F010C949F010C949F0160
:1000A0000C949F010C949F010C949F0161086108BE
:1000B0008D088D08DF09DF09DF09DF09F5086B0905
:1000C0007C097C096B2392238A2492238A24DE23D1
:1000D00001248A24582467240A00253464000A0075
:1000E0001E001F002000210022001D0014001A0025
:1000F0000800150017001B00040016000700090087
:100100000A00060027002600250024002300110015
:10011000130012000C0018001C00050010000F0056
:100120000E000D000B00190044454255473A20646B
:10013000697361626C65642E0A0044454255473A12
:1001400020656E61626C65642E0A000A00253032FB
:1001500058006C65645F7461736B3A20004F6E6584
:1001600073686F743A206163746976653A20256418
:100170000A000A0025303862003A20002530325843
:10018000000A722F632030313233343536370A009B
:1001900054617267657420636F6E6E656374656425
:1001A0000D0A0054617267657420646973636F6E31
:1001B0006E65637465642C207468726F74746C6906
:1001C0006E6720636F6E6E656374696F6E20617415
:1001D00074656D7074730D0A004661696C65642006
:1001E000746F20657865637574652025730A000A4D
:1001F000002530325820006B6579626F6172645F50
:100200007265706F72743A20005B735D005B575DBE
:10021000005B535D005B525D005B445D005B435DD2
:10022000000E036D0069006E006900650063000048
:1002300000160367006F0072006F00700069006BAA
:100240000061007200690000000403090409024211
:1002500000020100A0FA09040000010301010009E5
:100260002111010001224000070581030800010956
:1002700004010002030000000921110100012222F3
:100280000007058203200001070502032000011278
:1002900001000200000008EDFE0000000101020064
:1002A000010631FF0974A1010975150026FF0095AB
:1002B00020750881020976150026FF009520750833
:1002C0009102C005010906A101050719E029E715FA
:1002D00000250195087501810295017508810105C8
:1002E00007190029FF150026FF00950675088100F3
:1002F00005081901290595057501910295017503F8
:100300009101C00011241FBECFEFDAE0DEBFCDBFE8
:1003100011E0A0E0B1E0E0EDFDE402C005900D9237
:10032000A435B107D9F724E0A4E5B1E001C01D92DE
:10033000A736B207E1F70E942F170C94E6260C941B
:100340000000FF93EF93E0915401F0915501309735
:1003500009F00995EF91FF910895FC018591803096
:1003600011F0EFDFFBCF0895FF27E0E230E247FF17
:100370000CC0419597FF09C0EDE26095709580959E
:100380009095611D711D811D911D27FF02C0219552
:1003900030E350E2AA27660F771F881F991FAA1F14
:1003A000A41710F0A41B63955A95A9F7AA3008F07A
:1003B000A95FA05DAF93F395611571058105910566
:1003C00041F7ED3211F4EF93F395F21718F43F93E0
:1003D000F395FBCF8F91B5DFFA95E1F70895E99199
:1003E000F9918591803021F0853219F0AADFF9CF9B
:1003F000089520E0E89455915532C1F3503311F43B
:10040000689455915A3348F4505390F3220F022EBA
:10041000220F220F200D250FF4CF0EF42195899184
:100420009991533619F3533729F1533559F1BC01DA
:1004300088279927E8945C3621F4899199916894EA
:100440005591543639F446EF7EF077FF0DC08FEFAB
:100450009FEF0AC055374AE039F0583540E121F0A6
:10046000523642E009F00895FF93EF937DDFEF915C
:10047000FF91B7CFFF93EF93FC0181918030B9F3E7
:1004800060DFFBCFFF93EF9368DFF1CFDF93CF9374
:10049000CDB7DEB72596A3DFCF91DF910895807C9D
:1004A000809300010895873941F178F4863349F14A
:1004B00030F4843321F1853331F584E208958439B1
:1004C000D1F0863901F581E20895843F71F030F46E
:1004D000803FD9F0813FB9F481E00895863F49F02B
:1004E00030F0873F81F487E0089584E0089585E047
:1004F000089586E0089580E2089582E2089583E2F7
:10050000089585E208958FE1089580E0089596E8C2
:1005100090937A00982F9072906890937B008F71DF
:1005200090910001892B80937C0080917A008064F7
:1005300080937A0080917A0086FDFCCF80917800CC
:100540002091790090917A009F7790937A0090E0C3
:10055000922B08950E9453020E94870208954F92A1
:100560005F926F927F928F929F92AF92BF92CF9243
:10057000DF92EF92FF92CF93DF93EC016A017B0150
:100580008889882349F0488759876A877B874C8701
:100590005D876E877F87188A8C809D80AE80BF8044
:1005A000288539854A855B85C501B4010E94C4252B
:1005B0002B013C01A5019401C701B6010E94C4258D
:1005C0009B01AC01C301B2010E94CA244B015C0132
:1005D0002C853D854E855F85688179818A819B81E7
:1005E0000E94C4259B01AC01C501B4010E94CA242C
:1005F000C886D986EA86FB866C877D878E879F872B
:10060000DF91CF91FF90EF90DF90CF90BF90AF90B0
:100610009F908F907F906F905F904F900895A4E08F
:10062000B0E0E5E1F3E00C94672669837A838B837D
:100630009C8389819A81AB81BC81892B8A2B8B2BEE
:1006400061F089819A81AB81BC810197A109B109CF
:1006500089839A83AB83BC83ECCF2496E2E00C942D
:100660008326219AE62FF0E0E05DFE4F908190FF17
:1006700002C02E9A01C02E9891FF02C02A9A01C092
:100680002A9892FF02C02B9A01C02B98A6E3B1E0F2
:1006900061E070E021E0A933B20789F09D91E92F74
:1006A000E295EF70F0E022A19F70AB0101C0440F12
:1006B0009A95EAF7942F9095922392A3EBCFF89412
:1006C00021982998E82FF0E0EA5CFE4F9081E92F0D
:1006D000E295EF70F0E032A1292F2F7081E090E0D9
:1006E00001C0880F2A95EAF7832B82A386EF0E9428
:1006F000AA027894811524E0920728F496958795AC
:100700009695879508958FEF90E00895A4E0B0E066
:10071000ECE8F3E00C945D2619821A821B821C829D
:1007200089819A81AB81BC8100E010E036E0E32E44
:10073000F12CC801B7010E943D260E943103A0E0C0
:10074000B0E089839A83AB83BC836AE070E080E089
:1007500090E00E940F030F5F1F4F0231110549F710
:1007600094E1A92EB12C26E0822E912C86E5C82E8C
:1007700081E0D82E760100E010E0C801B4010E94AB
:100780003D260E943103D7012D913C91820F931F8A
:10079000F701819391937F016AE070E080E090E03F
:1007A0000E940F030F5F1F4F0231110531F7F1E077
:1007B000AF1AB108D9F6E0ECF3E020E530E0D6015D
:1007C0008D919D916D018115B0E59B0720F4B901D4
:1007D0000E943D2601C06FEF6083168261836283B1
:1007E000638364836583379644E0EE33F40739F717
:1007F0002496ECE00C947926FC0180819181A28101
:10080000B3818093C2019093C301A093C401B093BC
:10081000C5012998219A80E40E944F02A6E3B1E025
:1008200041E050E071E0A933B707B1F08D91E82FB6
:10083000E295EF70F0E021A18F70BA0102C0660F5F
:10084000771F8A95E2F7CB01922F982B91A392A163
:100850008095892382A3E6CFADE2B1E021E030E0CC
:1008600071E0A033B70789F08D91E82FE295EF7022
:10087000F0E041A18F70B90102C0660F771F8A9521
:10088000E2F7CB01842B81A3EBCF219829980E941A
:10089000860380E090E00895CF93DF93DC015C91C4
:1008A000852F90E0042E02C0959587950A94E2F773
:1008B00080FF11C08091C2019091C30128173907B0
:1008C000D8F521E030E001C0220F4A95EAF72095E3
:1008D00025232C931EC0E62FEE0FE60FE40FCE2F3C
:1008E000D0E087E0E89FF0011124E054FC4F6081E4
:1008F0008091C4019091C501860F911D82179307C5
:1009000050F481E090E001C0880F4A95EAF7852B0A
:100910008C9381E012C0B90180E090E00E943625FE
:10092000AB01BC0121E12C9FC0012D9F900D112432
:1009300082579D4F0E94AF0280E0DF91CF910895D2
:10094000A0E0B0E0E6EAF4E00C945F265C018AE700
:10095000C82E81E0D82E10E000E07601C0E0D0E0A3
:10096000612F8C2F0E943103F701918380839C01BA
:10097000412F6C2FC5018C0F9D1F0E944C04082B2A
:100980002196FCE0EF0EF11CC330D10549F782E05F
:10099000C80ED11C1F5F163001F7802FCDB7DEB710
:1009A000EAE00C947B26A0E0B0E0E9EDF4E00C94E2
:1009B0006126CAE7D1E08AEDE82E80E0F82E98EDB6
:1009C000C92E90E0D92E81E0CE39D807F1F000E0B1
:1009D00010E0FE01E00FF11F81818F9380818F93E2
:1009E000FF92EF920E9446020E5F1F4F0F900F90F2
:1009F0000F900F900C30110561F7DF92CF920E949B
:100A000046022C960F900F90DECFCDB7DEB7E8E010
:100A10000C947D260895A4E0B0E0E1E1F5E00C94AB
:100A2000672655985D98209828980E940F15809108
:100A3000290190912A01A0912B01B0912C01898369
:100A40009A83AB83BC83CE0101960E94FC03809104
:100A50000301811102C093E001C090E09093430430
:100A600083E0891B809342040E941F152496E2E0D4
:100A70000C948326CF930E94A004C82F8091C601B6
:100A80009091C7019C012F5F3F4F8C32914029F01C
:100A90003093C7012093C6010AC01092C70110927B
:100AA000C6010E94D3048EED90E00E94AD018C2F10
:100AB000CF910895CF938AE494E00E943A05C82F1D
:100AC0006091430470E0605B7B4F282F43E08AE431
:100AD00094E00E94BB140E9443148C2FCF91089580
:100AE0000E94EC1008950E94EF10089581E008958F
:100AF00081E008950E947805089508950E947D057B
:100B00000895A5E0B0E0E7E8F5E00C946626498397
:100B10005A833091CD0189819A81311114C06623A5
:100B200059F0222349F00E94B50B182F682F8981B4
:100B30009A810E94910B03C00E94A30B182F698118
:100B40007A81812F04C00E94B50B69817A810E944D
:100B500078122596E3E00C948226FC01262F408132
:100B600051816281738184810E948105089581E0B1
:100B70000895CF93DF93EC0160E00E94AD05BE01C4
:100B80000E947E05DF91CF9108950E943D14089543
:100B90000E943714089508950E94560A0E94CB05BA
:100BA0002FEF84E39CE0215080409040E1F700C0AB
:100BB000000008950E94CC050E946A1D08950E94BD
:100BC000CC050E947B1D08950F931F93CF93DF9355
:100BD0008C0161E00E94AD05EC01B8010E947A052C
:100BE000882309F45CC0B801CE010E946C198823E7
:100BF00009F455C0B801CE010E945417882309F4A6
:100C00004EC0B801CE010E94D218882309F447C013
:100C1000F80182818823F1F1CB358DE5D807A9F160
:100C200070F4C130FCE5DF0799F0CF3D8CE5D807C3
:100C300021F1C115DC4571F50E94DA0530C0CD35D2
:100C4000FDE5DF07F9F020F1C83ADD45C1F022C02B
:100C500080914202C82FC095C170C0FB80F980937B
:100C60004202CC2329F08AE391E00E94AD0117C033
:100C700088E291E00E94AD0113C00E94BF100E9463
:100C8000DF050DC00E94FA0F05C00E94041002C0CB
:100C90000E940810C8010E947605C82F01C0C0E05C
:100CA0008C2FDF91CF911F910F9108950E94781C96
:100CB0000E94850608950E9489060E94811C08955D
:100CC0008295982F937344E0949F900111248C7C1B
:100CD00086958695282B822F8575880F2A7A2695EA
:100CE000822B089508950E947206089581E0089568
:100CF0000E94760608950895CF93C82F0E94730628
:100D00008C2F0E947806CF91089580E00E947C0687
:100D100008950E94841B0E947C060895CF930E9430
:100D2000841BC82F8091C801C81789F1C093C801DE
:100D30000E940D1D6093C9017093CA018093CB017D
:100D40009093CC018091420282FF1EC080FF04C0BC
:100D500082E591E00E94AD018091420280FF0CC0CB
:100D60001F92CF938DE491E09F938F930E94460250
:100D70000F900F900F900F908091420280FF04C05F
:100D80008BE491E00E94AD018C2F0E947C06CF91F4
:100D90000895ABE0B0E0EFECF6E00C9467264F83EB
:100DA000588769877A878B8761110E942E0F9E0171
:100DB0002F5F3F4F86E0F90111928A95E9F785E0B0
:100DC000FE013796D90101900D928A95E1F789814C
:100DD0009A814C815D81452B31F09F3F31F491E048
:100DE0008F3F19F403C091E001C090E090FF09C06B
:100DF00049815A816B817C818D819E810E945A0E2E
:100E000005C0C9010E94B7058111F2CF2B96E2E01F
:100E10000C948326FC01808191810E94E70B089548
:100E2000CF93882309F481C0C82F8238C1F40E946F
:100E3000841B81FD7AC069E38091010190910201D8
:100E40000E94471C0E94520F2FEF87EE93E0215023
:100E500080409040E1F700C0000069E333C0833870
:100E6000C1F40E94841B80FD60C063E58091010194
:100E7000909102010E94471C0E94520F2FEF81EEB9
:100E800094E0215080409040E1F700C0000063E50D
:100E900019C08438F1F40E94841B82FD46C067E4C7
:100EA00080910101909102010E94471C0E94520F03
:100EB0002FEF81EE94E0215080409040E1F700C098
:100EC000000067E480910101909102010E944A1C98
:100ED0002AC08CEF8C0F813AD0F46C2F80910101E5
:100EE000909102010E94111C882349F06C2F80917F
:100EF0000101909102010E944A1C0E94520F6C2F26
:100F000080910101909102010E94471C0CC080E277
:100F10008C0F883050F4C77081E001C0880FCA95EB
:100F2000EAF70E94110F0E94520FCF910895882373
:100F300009F45DC0682F823879F40E94841B81FF18
:100F400056C069E380910101909102010E94471C03
:100F50000E94520F69E310C08338B9F40E94841BC9
:100F600080FF45C063E580910101909102010E94DC
:100F7000471C0E94520F63E580910101909102018C
:100F80000E944A1C0E94520F0895843879F40E94EE
:100F9000841B82FF2CC067E48091010190910201C3
:100FA0000E94471C0E94520F67E4E6CF8CEF860F29
:100FB000813A10F380E2860F883048F4677081E050
:100FC00001C0880F6A95EAF70E94170FDBCF8BE507
:100FD000860F833028F480E090E00E94D91B0895AA
:100FE000685A673120F480E090E00E94EF1B08957A
:100FF0001F93CF93DF93182FEB010E9410072097C8
:1010000041F08FE99FE00197F1F700C000002197C0
:10101000F6CF812F0E949707DF91CF911F910895FE
:10102000893319F060E070E002C060E570E00E9472
:10103000F8070895882321F00E94110F0E94520F93
:101040000895882321F00E94170F0E94520F0895DF
:10105000A0E0B0E0EEE2F8E00C9461267C01D62F2F
:10106000C72FFC011281058102950F700E94070FA6
:101070008823B9F01123A9F08C2F807F803421F0D0
:1010800080E28D0F883068F08091490482FF09C0AA
:1010900082E00E94B40F0E94070F91E0D82ED9265B
:1010A00001C0D12CCC2EC2948FE0C8228C2D90E0B0
:1010B0008C30910508F083C1FC01EA5AFF4F0C9473
:1010C00051268C2F807FCF70882311F0C295C07F6E
:1010D000112399F0CC2309F45EC180E28D0F883092
:1010E00010F0D11104C08C2F0E94110F03C08C2F5F
:1010F0000E94210F0E94520F4EC18D2F0E94970710
:10110000CC2309F45CC180E28D0F883038F1DD23F7
:1011100029F18C2F0E94270F24C08C2F807FCF7045
:10112000803211F0C295C07FDD2319F0D130A1F1DA
:101130003DC08091490482FD17C0112349F0CC23A2
:1011400029F08C2F0E94110F0E94520F80E024C1C1
:1011500080E00E949707CC2309F431C18C2F0E94B4
:10116000170F0E94520F2BC1112371F0002341F081
:10117000013031F40E94310F8C2B0E943B0F1FC1B4
:101180000E94310F8C2B1DC0002319F0013009F48F
:1011900016C10E94480F25C0112321F0063008F027
:1011A0000EC10EC0053008F00AC11BC0112361F04A
:1011B000002331F0F701858180FFEDC08F708583BA
:1011C0008C2F0E941A08FBC0002359F0D93309F074
:1011D000F3C0FFEF27EE83E0F15020408040E1F7BD
:1011E000E9C08C2F0E942108EAC08C2F8370B1F5D2
:1011F0001111E9C04D2F429546954770440F440F99
:101200008D2F8F7090E09C01042E02C0220F331F9F
:101210000A94E2F7D4FF0AC08FE090E002C0880F82
:10122000991F4A95E2F78095909502C080E090E082
:10123000C695C695C370822B932BC23049F058F4E3
:10124000C13019F00E94C20ABEC00E94B90ABBC0D8
:101250000E94CB0AB8C00E94B60AB5C0112319F08B
:101260008C2F817001C08695882309F4ACC04D2F66
:10127000429546954770440F440F8D2F8F7090E034
:101280009C01042E02C0220F331F0A94E2F7D4FF00
:101290000AC08FE090E002C0880F991F4A95E2F7DC
:1012A0008095909502C080E090E0C695C695C37089
:1012B000822B932BC23049F058F4C13019F00E94B0
:1012C0002C0B81C00E94230B7EC00E94350B7BC07B
:1012D0000E94D70A78C0CF70112339F08C2F0E945A
:1012E000F10A8D2F0E941A086EC08D2F0E942108CE
:1012F0008C2F0E94010B67C0D23F21F128F4D03F10
:1013000041F0D13FC1F043C0D33F19F1D43F79F050
:101310003EC0112341F0053008F051C08C2F8F7171
:101320000E94130B4CC0063008F049C0F7CF8091E3
:10133000490482FD18C0112339F08C2F8F710E944F
:10134000F10A3DC01123C9F38C2F8F710E94010B4C
:1013500036C0112329F08C2F8F710E94E50A2FC00F
:101360000E94E00A2CC0112349F0CF718C2F0E94FB
:10137000F10A63E08C2F0E94960F21C081E00E9449
:10138000B40F0230E0F082E00E94B40F18C01123C5
:1013900031F0002391F28D2F0E94100710C000231E
:1013A00099F2D93349F49FEFE7EEF3E09150E04032
:1013B000F040E1F700C000008D2F0E94970788EFF2
:1013C0008C0D843020F40E94841B0E947C06DD205A
:1013D00089F00E94030F80FD0DC0F70112820E9468
:1013E000FD0E0E94F10AC7010E94170A0E94FD0E1D
:1013F0000E94010BCDB7DEB7E8E00C947D260F9379
:101400001F93CF93DF93EC01688179818A810E94D9
:10141000F20B8C010E943E0B0E94A50AB801CE017E
:101420000E942808DF91CF911F910F910895CF93CB
:10143000DF93EC01988189812B813C81232B31F052
:101440008F3F31F481E09F3F19F403C081E001C078
:1014500080E080FD1AC0CE010E94E40581110FC01A
:101460000E94070F882389F08A81882371F0809178
:10147000490482FF0AC082E00E94B40F06C0CE0178
:101480000E94FF09CE010E94B905DF91CF91089516
:101490000E942E0F0E94520F089580910101909199
:1014A00002010E944D1C0E94480A08950E941E0FCE
:1014B0000E944D0A089592959F70963079F010F42D
:1014C000925001C09A50923068F4803F69F018F44D
:1014D000883E40F409C0843F29F406C0883E20F0CD
:1014E000813F11F080E0089581E00895FC01908132
:1014F000818123813481232B31F08F3F31F481E0CE
:101500009F3F19F403C081E001C080E080FD07C067
:10151000808191810E94E70B0E945B0A089580E020
:101520000895A5E0B0E0E7E9FAE00C946726259677
:10153000E2E00C948326A6E0B0E0E1EAFAE00C9445
:1015400067262696E2E00C948326089508950E946B
:10155000A60A08950E94A70A08950E94AA0A9093D5
:10156000E5018093E4010E94480A08950E94AD0AB3
:1015700008952091E4013091E501822B932B0E9484
:10158000AD0A08952091E4013091E501822393236F
:101590000E94AD0A08952091E4013091E50182276F
:1015A00093270E94AD0A08950E94A60A08950E94FA
:1015B000D40A9093E3018093E2010E94480A0895BF
:1015C00080E090E00E94D70A089521E030E0A90170
:1015D00002C0440F551F8A95E2F7CA010E94D70A3C
:1015E000089521E030E002C0220F331F8A95E2F710
:1015F0008091E2019091E301822B932B0E94D70A04
:10160000089521E030E002C0220F331F8A95E2F7EF
:10161000209530958091E2019091E30182239323FC
:101620000E94D70A089521E030E002C0220F331F44
:101630008A95E2F78091E2019091E3018227932756
:101640000E94D70A08952091E2013091E301822B94
:10165000932B0E94D70A08952091E2013091E30173
:10166000822393230E94D70A08952091E2013091AA
:10167000E301822793270E94D70A08950895962FA1
:101680009770A1E001C0AA0F9A95EAF793E07695CA
:1016900067959A95E1F7660F771F660F771FFA0136
:1016A000E60FF71F40E050E0682F70E090819B014B
:1016B000042E02C0369527950A94E2F721702195F1
:1016C00029272A23292721934F5F5F4F4430510553
:1016D00069F70895FB01782F777023E09695879539
:1016E0002A95E1F7880F991F880F991FE80FF91FB6
:1016F00040E050E080E0219130E0072E02C03695B6
:1017000027950A94E2F721703327042E01C0220F97
:101710000A94EAF7822B4F5F5F4F4430510559F727
:101720000895282F963070F4863060F4862F622F4B
:1017300070E026E0929F600D711D11244EEC51E087
:101740000E943F0B0895963070F4863060F4292F84
:1017500090E06EEC71E036E0239F800D911D112426
:101760000E946A0B089580E00895A0E0B0E0EBEBE2
:10177000FBE00C9460267C010091E2011091E301F2
:101780008091E4019091E501082B192BCFE0D0E086
:10179000CC24C394D12CC6010C2E02C0880F991FF3
:1017A0000A94E2F780239123892B21F4219798F75B
:1017B000B12C07C0BC2EB7018C2F0E94911201974B
:1017C000A9F38B2DCDB7DEB7E9E00C947C26CF933F
:1017D000DF93EC010E94B50BBE010E949112DF91D4
:1017E000CF9108951F93CF93DF93EB019091CD019B
:1017F000992321F0CB010E94E70B13C0882349F005
:10180000CB010E94B50B182F682FCE010E94910BBF
:1018100004C0CB010E94A30B182FBE01812F0E9490
:101820009112DF91CF911F9108951F93CF93DF9372
:10183000C091E60116E08091E701C81799F0D0E069
:101840001C9FF0011D9FF00D1124E851FE4F4081B7
:10185000518162817381848195810E949B0A2196C6
:10186000C770E9CFDF91CF911F9108954091180281
:101870005091190260911A0270911B0280911C0212
:1018800090911D020E949B0A08950F931F93CF937E
:10189000DF9380911D0282958F7009F05AC080916C
:1018A0001A02882309F455C08091E6011091E701DE
:1018B0006091180270911902C0911B02D0911C0214
:1018C00091E06F3F09F090E0292F06E0811709F4BD
:1018D00040C0209721F07F3F21F030E003C031E08D
:1018E00001C0322F90E030FD31C0089FF001099F08
:1018F000F00D1124DF01A851BE4F11963C911197B4
:10190000371324C03C91361321C012963C91129794
:1019100031111CC013964D915C9114974C1B5D0BBB
:10192000483C510598F480911D028F70806180932E
:101930001D02E351FE4F80818F708061808388E1BA
:1019400092E00E94170A0E94150C03C0019687704E
:10195000BDCFDF91CF911F910F910895A1E1B0E02C
:10196000E4EBFCE00C945E268C0185E0F801DE01DE
:101970001D9601900D928A95E1F7F801E280909111
:1019800018026091190220911B0230911C0221154E
:10199000310531F06F3F31F481E09F3F19F403C00E
:1019A00081E001C080E0F82FF1709F2E80FD40C1E2
:1019B000F80140815181A380B48088E1C82E82E083
:1019C000D82EF0901A02F501E21BF30BFF2009F468
:1019D000DAC080911D02E83CF10508F096C0282F7E
:1019E000207F09F053C0561313C0491311C0FE2CB9
:1019F000E1100EC08F70806180931D020E94360C32
:101A0000C6010E94170A80911D02F80185834DC10D
:101A1000A114B10431F05F3F31F481E04F3F19F47C
:101A200003C081E001C080E080FD03C081E08E251D
:101A300002C080E090E0F82FF170FF2E80FF1CC004
:101A40008091E6012091E70136E0821709F40BC18D
:101A500090E0389FF001399FF00D1124E851FE4FBE
:101A60006181561306C06081461303C06281E6128D
:101A700003C001968770E9CFFE2CEE2009F415C152
:101A800080911D02816080931D0254C0561306C0D0
:101A9000491304C0E11002C0F80199C0C8010E94B6
:101AA000760A882361F1EE2051F120911D02822FE8
:101AB00082958F7090E0029774F080911802909157
:101AC000190298878F831986BB86AA862C87CE0138
:101AD00007960E94170A86E0F801A8E1B2E001909B
:101AE0000D928A95E1F70E94450C0E94360C0AC0BF
:101AF000561711F1C8010E94760A81112CC0C80145
:101B00000E94170AFF24F394D0C0282F207F81F76A
:101B10007A2DB98AA88A6E2D89890E94910A88E156
:101B200092E00E94170A86E0F60111928A95E9F781
:101B30000E94360CF12CB9C04913DCCFE110DACF8A
:101B4000F8018583C8010E94170A86E0F601119208
:101B50008A95E9F7AAC0EE2091F220911D02822F0A
:101B600082958F7090E002970CF4B5CF80911802A7
:101B7000909119029A8389831B82BD82AC822E8345
:101B8000CE010196A6CFE83CF10508F044C0FE2C3A
:101B9000EE2009F4B4CF561330C049132EC0209163
:101BA0001D0220FD21C0822F82958F70482F50E0AA
:101BB00041155105C9F0F80125834F30510541F019
:101BC0008F5F982F9295907F822F8F70892B8583BE
:101BD000C8010E94170A86E0F801A8E1B2E001906E
:101BE0000D928A95E1F73CC086E0F801A8E1B2E0E9
:101BF00001900D928A95E1F758C0C8010E94760ABB
:101C0000811169CF80911D02816080931D02C801FE
:101C10000E94170A4AC07A2DB98AA88A6E2D89892E
:101C20000E94910A86E0F60111928A95E9F718C0A0
:101C3000EE2009F464CFC8010E94760AF82E8823AA
:101C400009F45DCF86E0F801A8E1B2E001900D92C1
:101C50008A95E1F788E192E00E940A070E94450C0C
:101C60000E94360C22C04D875E878D859E850E941E
:101C7000E70B292F22952F70223028F49F7039F01E
:101C8000811105C00BC0243028F49F7049F4805E98
:101C9000883020F0C8010E94170A9F2CF92C05C03B
:101CA000F8019581907F99F7F9CF8F2D6196EBE040
:101CB0000C947A26ACE0B0E0E0E6FEE00C946626F8
:101CC0004F83588769877A878B879C87CE010796D1
:101CD0000E94AE0C8823D1F09F8188852A853B85A0
:101CE000232B31F08F3F31F481E09F3F19F403C083
:101CF00081E001C080E080FD47C04F815885698543
:101D00007A858B859C850E949B0A3EC086E0FE01F9
:101D10003796DE01119601900D928A95E1F7FF81C9
:101D2000E8856A857B856115710531F0EF3F31F4F7
:101D300081E0FF3F19F403C081E001C080E080FD35
:101D400023C02091E70130E0C901019687709927EF
:101D50004091E60150E084179507F1F1F983EA8399
:101D60007D836C8396E0929FD001939FB00D1124E8
:101D7000A851BE4FFE01319601900D929A95E1F760
:101D80008093E7010E94150C16E08091E601909186
:101D9000E701891771F1189FC001112488519E4FE6
:101DA0000E94AE0C882329F1E091E6011E9FF0010C
:101DB0001124E851FE4F40815181628173818481F9
:101DC00095810E949B0A8091E60190E001968770C0
:101DD00099278093E601D9CF0E94560A1092E70115
:101DE0001092E601E8E1F2E086E0DF011D928A95BB
:101DF000E9F72C96E3E00C948226809126028595E3
:101E00008595859508958091260287700895909113
:101E10002602977081E009F480E0089580913102F4
:101E2000089590913102892B809331020895809515
:101E300090913102892380933102089510923102EA
:101E4000089590913002892B8093300208958095F7
:101E500090913002892380933002089510923002CD
:101E6000089580912702089508950E94340F0895DF
:101E70000E94350F08959091490492FF08C09091F7
:101E80002702981721F0809327020E94380F0895A7
:101E900080912702882329F01092270280E00E9477
:101EA000380F0895CF93DF93E0910101F091020183
:101EB000809131028083E0910101F09102019081D3
:101EC00080913002892B808380912702882381F0C2
:101ED000E0910101F09102019081892B8083809132
:101EE0000101909102010E94051C81110E94480F7E
:101EF000C0910101D091020148E050E06EE172E032
:101F0000CE010E948E26892B59F088E0FE01AEE1B9
:101F1000B2E001900D928A95E1F7CE010E94981BE4
:101F2000DF91CF9108950E94340F08959091490454
:101F300092FF11C098E0899F90011124262B2093D5
:101F400026020E94F10A8091260285958595859545
:101F50000E94930F08950E94F10A0895109226029C
:101F600080E00E94930F089520912602809582239D
:101F700080932602982F977099F430E0482F082E0E
:101F8000000C550B2417350759F09091490492FF26
:101F900007C08595859585950E94010B0E94AE0F1F
:101FA0000895CF939091490492FB222720F9281796
:101FB000F9F0C82F892FC0FB82F9809349048091E2
:101FC0004804909149040E94391082E00E94B40FA5
:101FD0008091420280FF0CC01F92CF938DE591E06B
:101FE0009F938F930E9446020F900F900F900F9037
:101FF000CF9108958091490482FB882780F991E070
:1020000089270E94D10F089581E00E94D10F089581
:1020100080E00E94D10F08956FEF7FEF80E090E0A5
:102020000E94D026089580E090E00E94AC2621E036
:10203000883E9E4F09F020E0822F089582E090E0D4
:102040000E94A426089583E090E00E94A4260895AB
:10205000CF9384E090E00E94A426C82F82E290E013
:102060000E94A4262C2F30E0A901582BCA01CF9141
:102070000895CF93C92F682F84E090E00E94B22684
:102080006C2F82E290E00E94B226CF910895AB01BE
:10209000BC018FE090E00E94C4260895AB01BC0112
:1020A00083E190E00E94C426089560E070E0CB01D7
:1020B0000E944E10089560E070E0CB010E9447102E
:1020C0000E945510089568EE7EEF80E090E00E9437
:1020D000D02660E082E090E00E94B22660E083E0DB
:1020E00090E00E94B2261092E5011092E40160E0B7
:1020F00084E090E00E94B22664E082E290E00E94D8
:10210000B22660E085E090E00E94B22660E086E0C2
:1021100090E00E94B2266FEF87E090E00E94B22626
:1021200040E050E0BA0188E090E00E94C42660E000
:102130008DE090E00E94B22640E050E0BA0188E1D4
:1021400090E00E94C42660E087E190E00E94B22601
:1021500040E050E0BA018CE190E00E94C42660E0CB
:1021600070E080E290E00E94D02640E050E0BA01AA
:1021700088E190E00E94C4260E945B1008950E94AE
:10218000631008958EE090E00E94A42691E08111F2
:1021900001C090E0892F0895682F8EE090E00E94A2
:1021A000B22608950E940D1D60933E0270933F0277
:1021B000809340029093410260933A0270933B02F5
:1021C00080933C0290933D0208950E94F714089575
:1021D00008950E94E81008950E94E81008950E9452
:1021E000E81008950E94E81008958AE09FE10E9497
:1021F0007A1B0E94F2100E94730508950E94E91054
:102200000E94E81008950E94CF130E947B06089553
:102210000E94F81C0E9475130E940F150E949B14C7
:102220000E9403110E943C170E941F150E94700516
:102230000895AAE0B0E0EFE1F1E10C945F260E947E
:102240005A0584E3E82E82E0F82E670100E0F601EB
:1022500011916F01802F0E94ED1381270F5F0630CF
:1022600019F08823A1F322C0811120C00E94011D12
:102270008C0180913202909133020817190709F4FA
:1022800050C08FEF89838A831B820E94011D816069
:10229000782F9D838C8349815A816B818D810E9427
:1022A000C90610933302009332023BC08091420270
:1022B00081FD0E94F3130E94E510A82E10E0812FEB
:1022C0000E94ED13B82EF701C080C82611F100E07E
:1022D000DD24D3948C2D8D21B1F0AA20A1F00E83A2
:1022E0001F8391E08B2D8D2109F490E098870E9447
:1022F000011D8160782F9A8789874E815F8168856B
:102300008A850E94C9060F5FDD0C063019F7F701B8
:10231000B0821F5FFFEFEF1AFF0A163081F60E94AE
:10232000D2100E94F7140E948E062A96EAE00C94BE
:102330007B26CF93DF930E949612EC01811523E553
:102340009207A8F5811532E5930708F093C0C115EF
:1023500080E2D807C8F4C11521E0D20708F0C4C054
:10236000C53AD10550F4C430D10508F0BDC021975D
:1023700009F0B7C081E090E0B8C0CE01805E91095D
:10238000089708F4B1C0ADC0C11531E5D30708F016
:102390006BC0C11580E5D80708F050C0C11520E416
:1023A000D20708F49EC0DF70CE01906A9EC08115EE
:1023B00036E5930700F5C11585E5D80708F075C027
:1023C000C11524E5D20708F06AC0CE0183709927B1
:1023D00021E030E002C0220F331F8A95E2F79C2FE4
:1023E0009695969580E2989FE0011124C22BD32BFD
:1023F000CE019A687AC081153AE5930780F4C11539
:1024000089E5D80708F05BC0C11528E5D20708F4B4
:1024100068C0DC2FCC27CE01806F906A66C09056D2
:102420008115904208F05DC08D2F8F710E9432138C
:10243000DD27D0628F719E01382B51C0CE01837091
:10244000992721E030E002C0220F331F8A95E2F77E
:102450009C2F9695969580E2989FE0011124C22BBF
:10246000D32BCE019D6841C0DC2FCC27CE01816FDC
:10247000906A3BC08370992721E030E002C0220FB0
:10248000331F8A95E2F79C2F9695969580E2989F48
:10249000E0011124C22BD32BCE019C6826C0DC2F77
:1024A000CC27CE01846F906A20C08C2F0E943213FB
:1024B0008F7190E0D82FCC27CE01906216C08C2F60
:1024C0008F700E94321394E0D695C7959A95E1F7E4
:1024D000CF70D0E0DC2FCC27D0699E01282BC9011A
:1024E00004C080E090E001C0CE01DF91CF9108955B
:1024F0007630A0F4663090F494E2899FF0011124C4
:1025000086E0789FE00DF11D1124E60FF11DEE0F1E
:10251000FF1FE052FF4F85919491089580E090E075
:1025200008950E9478120E949911089582389105A9
:1025300069F1B0F48133910509F475C048F489322A
:10254000910509F467C08A32910509F471C00895B4
:102550008533910509F459C089339105B9F008957F
:10256000833E910589F138F4803E9105D1F0823E99
:10257000910529F10895863E9105C9F1873E91059F
:10258000D9F1843E910509F06CC027C02091480420
:1025900020FD57C021FD55C02091490423FD5BC09B
:1025A00008958091480480FD48C08091490480FFCF
:1025B00048C08091480484FD46C083EE51C080919C
:1025C000480482FF3CC0F5CF8091480482FD37C0AB
:1025D0008091490480FD35C0ECCF8091490481FF92
:1025E00036C08091480484FD2EC087EE39C08091AA
:1025F000480483FF2AC0F5CF8091480483FD25C09D
:102600008091490481FD23C0ECCF8091480485FD71
:1026100022C01FC08091480485FD1BC080914904E1
:1026200083FF19C00AC08091480486FD16C017C0F8
:102630008091480486FD13C010C089E311C082EE6A
:102640000FC080EE0DC080E00BC086EE09C084EEA6
:1026500007C085E305C089E203C08AE201C081E3C7
:1026600090E008959091480492FF0DC0282F2871A2
:10267000283019F4877F846006C0282F2471243005
:1026800011F48B7F886093FF0DC0282F28712831AB
:1026900019F4877E846106C0282F2471243111F437
:1026A0008B7E88612091490420FF0DC0382F38713E
:1026B000383019F4877F816006C0382F317131308E
:1026C00011F48E7F886021FF0DC0282F28712831DA
:1026D00019F4877E816106C0282F2171213111F400
:1026E0008E7E886194FD877E089510924404109236
:1026F000450410924604109247040895CF92DF9249
:10270000EF92FF926B017C010E94F71481110EC0C1
:102710000E940D1DC61AD70AE80AF90AC09244049D
:10272000D0924504E0924604F0924704FF90EF9067
:10273000DF90CF9008950F931F930E94F714882382
:1027400019F00E940D1D0EC00E940D1D0091440441
:10275000109145042091460430914704600F711F89
:10276000821F931F1F910F9108950E940C100895CE
:102770000E945A058FE39CE90197F1F700C0000021
:102780000E945A0580E00E94ED1380FF04C00E9461
:10279000B5130E946A1D08950E94B81308950E94FF
:1027A0001310811102C00E94BF100E941E1080935E
:1027B00042020E94281090934904809348040E948A
:1027C000CC130E94231090E00E94B60A8091E2018F
:1027D0009091E3010E94D40A0895E82FF0E0E05BB5
:1027E000FB4F80810895A0E0B0E0E9EFF3E10C94A5
:1027F000612681E891E00E94AD0180E5E82E84E049
:10280000F82EC0E0D0E09CE7C92E91E0D92E04E775
:1028100011E0DF93CF93DF92CF920E94460289E7C7
:1028200091E00E94AD01F70181917F010E94600655
:102830001F928F931F930F930E94460282E791E0AD
:102840000E94AD0121968DB79EB708960FB6F894F9
:102850009EBF0FBE8DBFC630D105D9F6CDB7DEB74E
:10286000E8E00C947D2608950E94331408950E9498
:10287000341408950E94331408950E943A14089560
:102880000E940A050895A3E0B0E0E9E4F4E10C94A5
:1028900065260E94F714609143048823D1F11982C0
:1028A0001A821B82862F90E08E010F5F1F4FB801A6
:1028B000805B9B4F0E942D15882389F080914204F4
:1028C00090E043E050E0B801805B9B4F0E948E2671
:1028D00021E020934302892B69F410E017C0809116
:1028E00043028823D1F383E0F80111928A95E9F736
:1028F00010924302E0914204F0E0E05BFB4F8981DB
:102900009A81AB8180839183A28311E00E94C805E4
:102910000DC070E0605B7B4F8091420490E0805B73
:102920009B4F0E94C8150E94401410E0812F2396EF
:10293000E4E00C94812680910301811102C093E0B0
:1029400001C090E09093430483E0891B809342048C
:102950000E940B05EAE4F4E0A0E5B4E011921D92B8
:1029600084E0E035F807D1F783E00E94BA140E94B2
:10297000C50508950895EF92FF920F931F93CF938B
:10298000DF937C018B01C42F222349F081E08093E7
:1029900046020E94011D909345028093440280915B
:1029A0004602811102C080E01AC0809144029091D9
:1029B00045020E94191D0597B0F3D0E0AE01B701A2
:1029C000C8010E948E26892B39F0AE01B701C801DB
:1029D0000E949B2681E001C080E010924602CDB7A4
:1029E000DEB7E6E00C947F260E94C2100895809125
:1029F000490281110DC00E94BC24811102C082E0F5
:102A000001C081E080934902823011F40E94B72412
:102A100081E090914902913009F080E008950E9490
:102A20001310811102C00E94BF100E94F414809301
:102A300003010E94F71481110E94771508950E94E6
:102A4000F714811102C00E947A15089581E09091D7
:102A50004A029A3008F080E00895EF92FF920F93B7
:102A60001F93CF938C017B01C0914A02CA3038F486
:102A7000B701C8010E94C515811126C00AC0809106
:102A80004702909148020E94191D843F914080F7AF
:102A900019C080914A028F3F19F08F5F80934A02DC
:102AA00080914A028A30E0F00E94011D9093480212
:102AB000809347028091420280FF04C083EA91E044
:102AC0000E94AD0180E00DC0CA3040F0809142020A
:102AD00080FF04C080E991E00E94AD0110924A029B
:102AE00081E0CF911F910F91FF90EF9008950E9488
:102AF000141A08950E94171A0895A0E0B0E0E3E8C0
:102B0000F5E10C9462267901C82F880FDD0B411581
:102B10005105A9F0FE0193E0EE0FFF1F9A95E1F732
:102B2000EC5FFE4F81819281855B9D4F208130E07B
:102B30004217530708F49A01A9010E949B26CE016F
:102B40000E94FF1AD82E8823D1F001151105B9F083
:102B500083E0CC0FDD1F8A95E1F7FE01EC5FFE4FAD
:102B6000438150E00417150708F4A801CC5FDE4F3D
:102B70006C817D81655B7D4FC7010E949B268D2DF9
:102B8000CDB7DEB7E7E00C947E260E94D0160895FC
:102B90000E94EB160895A4E0B0E0E1EDF5E10C949D
:102BA000652660915E0270915F0280916002909153
:102BB00061020E94281D643671058105910528F186
:102BC0000E949B13DC01CB010296A11DB11D8983DC
:102BD0009A83AB83BC8300E010E020E030E044E067
:102BE00050E0BE016F5F7F4F82E00E947D15182F7D
:102BF000882361F00E940D1D60935E0270935F0256
:102C0000809360029093610201C011E0812F2496AD
:102C1000E4E00C948126A0E0B0E0E1E1F6E10C9460
:102C20005D267C015B01942E852E69010E9426158C
:102C3000811103C001E010E002C00AE010E0C1E031
:102C4000D0E0B501C701F6010995811129C021968F
:102C50000C171D078CF0CC9F9001CD9F300D300DCF
:102C6000112480E090E045E34A95F1F700000196D9
:102C700028173907C1F7E5CF90914202892F81705B
:102C800090FF0FC08F929F9289ED91E09F938F9359
:102C90000E9446020F900F900F900F9080E001C0AD
:102CA00081E0CDB7DEB7ECE00C947926A4E0B0E08B
:102CB000ECE5F6E10C945F265B01E0903901F090C1
:102CC0003A0101E010E09E012C5F3F4F40E050E0F0
:102CD00060E070E080E00E947D15182F882309F4E1
:102CE0003EC067018FEFC81AD80A60915A027091EE
:102CF0005B0280915C0290915D020E94281D643607
:102D000071058105910518F103E010E09E012F5F28
:102D10003F4F40E050E060E070E081E00E947D15B0
:102D2000182F63E070E0C6010E943D1791E02C81EE
:102D3000281390E0192329F10E940D1D60935A0277
:102D400070935B0280935C0290935D020FC063E01E
:102D500070E0C6010E943D179C818913D5CFF70111
:102D600081819281A38189839A83AB83112349F066
:102D700089819A81AB818093570290935802A093E6
:102D800059028091570290915802A0915902F50181
:102D900080839183A283812F2496EAE00C947B2682
:102DA0000F931F93CF93DF93EC018B0126E536E160
:102DB0004BE351E00E940B16882341F02BEC35E1E8
:102DC00048E451E0B801CE010E940B16DF91CF918B
:102DD0001F910F9108950F931F93CF93DF93C0918D
:102DE0003901D0913A01CE01019623E0FB01DC01CB
:102DF00001900D922A95E1F763E070E00E943D1783
:102E000088836C817D818E819F8100915302109116
:102E100054022091550230915602601771078207C3
:102E2000930751F0609353027093540280935502BC
:102E3000909356020E947E13DF91CF911F910F91C4
:102E400008950E94871F0E9408110E94941F0895F0
:102E50000E94991F0E9419110E94B71F08950E9495
:102E6000981C0E946D1F0E94F5100E9421170E945D
:102E700028170E94FE10FBCF0895FC01680F791FF0
:102E80008FEF91E3E617F70771F02191822728E091
:102E900030E087FF03C0880F892701C0880F2150C9
:102EA0003109B9F7EFCF0895CF93DF93EC01FB0120
:102EB0008281882309F472C1C430FDE5DF0760F424
:102EC000CB3F9CE5D907D0F49E0122503C452431EC
:102ED000310508F064C112C0C63AEDE5DE0771F0B5
:102EE00030F4C2369DE5D90709F059C107C09E01EB
:102EF0002E5A3D452330310508F051C10E9428105B
:102F00009093490480934804C231ECE5DE0709F44C
:102F100005C108F04BC0C9308CE5D80709F4D2C010
:102F200000F5C530ECE5DE0709F4B9C078F4C3302C
:102F30008CE5D80709F4AAC008F0AEC0C230DC4561
:102F400009F022C1809148048160A3C0C730FCE52C
:102F5000DF0709F4AFC008F0B1C080914804806178
:102F600098C0CD309CE5D90709F4C2C058F4CB30E5
:102F7000FCE5DF0709F4B0C008F0B6C08091480452
:102F80008860A6C0CF309CE5D90709F4BFC008F41B
:102F9000B2C0C031FCE5DF0709F4BCC0C131DC457B
:102FA00009F0F2C0809148048F7B73C0C1159DE584
:102FB000D90709F4BEC088F5CB3FFCE5DF0709F46B
:102FC00072C0B8F4C4319CE5D90709F4C1C008F453
:102FD000ABC0C531DC4509F0D7C08091480482FB05
:102FE000222720F991E0922790FB82F990FB83F948
:102FF00050C0CD3F8CE5D80709F481C008F456C015
:10300000CE3FECE5DE0709F47DC0CF3FDC4509F09B
:10301000BBC08091490482605DC0C2368DE5D8078F
:1030200009F4A6C068F4C230EDE5DE0709F49CC0DF
:1030300008F484C0C330DD4509F0A6C080E095C027
:10304000CE3A9DE5D907F1F058F4C63ADD4509F0CE
:103050009BC080914804982F909590FB80F919C0EF
:10306000CF3A8DE5D807E1F1C03BDD4509F08CC0D2
:103070008091490483FB222720F991E0922790FB5D
:1030800083F980C08091490488607CC080914804A5
:1030900082608093480478C08091480419C0809170
:1030A00048048860F6CF8091490414C08091490497
:1030B000826068C0809148048062EBCF80914804B0
:1030C0008064E7CF0E94560A809148048068E1CF6F
:1030D0008460DFCF816056C0809148048E7FD9CF55
:1030E00080914904877F4EC0809148048D7FD1CF65
:1030F000809148041CC080914804877FCACF80918A
:1031000049041AC0809149048D7F3CC080914804D5
:103110008F7EBFCF809148048F7DBBCF0E94560A1F
:10312000809148048F77B5CF80914804877F8B7F4B
:10313000B0CF809149048D7F8E7F24C08091490457
:10314000982F909591708E7F892B90FB81F91AC0F2
:103150000E94560A8091480487FB222720F991E0BB
:10316000922790FB87F995CF81E00E94CC100CC08C
:103170008091480484FB222720F991E0922790FB5C
:1031800084F987CF80934904809148049091490441
:103190000E9439100E94560A80E001C081E0DF9150
:1031A000CF910895CF93DF9386319C4541F5EB0194
:1031B0000E940E0F982F8A81209101013091020107
:1031C000882379F09A7A81E009F480E080936202A2
:1031D000911102C069E201C065E3C9010E94471C68
:1031E0000AC080916202811102C069E201C065E3F8
:1031F000C9010E944A1C0E94520F80E001C081E078
:10320000DF91CF9108950F931F93CF93DF93C42F36
:10321000D22FFC0182818823B1F0409365020E9485
:10322000011D909364028093630280E28C0F8830CA
:1032300008F04DC0C77081E001C0880FCA95EAF759
:103240000E941A0844C080916502481330C08091E2
:103250006302909164020E94191D883C910538F523
:1032600010E21D0FCD17B9F080E28C0F883040F4CA
:10327000C77081E001C0880FCA95EAF70E94210853
:10328000183010F581E09D2F977001C0880F9A9536
:10329000EAF70E941A08802F0E9410081830B8F42C
:1032A000D77081E001C0880FDA95EAF70AC080E2A2
:1032B0008C0F883060F4C77081E001C0880FCA9518
:1032C000EAF70E94210803C0802F0E941008DF91B6
:1032D000CF911F910F9108950F939C01CB01243F33
:1032E0004CE5340731F188F4293DFCE53F07D9F07E
:1032F0002A3D4CE5340779F1283D3C45A9F506E225
:1033000021EE41EE68ED7CE52BC0263FFCE53F0752
:10331000E1F0A8F0273F3C4539F507E225EE46EEFF
:1033200067EF7CE51DC007E225EE45EE69ED7CE523
:1033300017C006E221EE40EE64EF7CE511C007E223
:1033400025EE44EE65EF7CE50BC006E221EE42EE91
:1033500066EF7CE505C008E221E045EE6AED7CE51C
:103360000E94031980E008C0FC018281882319F0C3
:103370001092650201C081E00F9108958EE14A9B91
:1033800002C08150E1F74A9BFECF08955A9880E22F
:103390008A95F1F75A9A0895FC012AE02A95F1F7E7
:1033A00028E090E080E031E040E14A95F1F7880FB5
:1033B0004A9B02C08160932700C0000040E14A950B
:1033C000F1F7215089F720E12A95F1F729B100C0E2
:1033D000000030E13A95F1F722FB222720F99227ED
:1033E0002081920F90830895A1E0B0E0EAEFF9E127
:1033F0000C94632619828C017C01E60EF11C0E15DB
:103400001F0551F00E94BE19CE0101960E94CC19F1
:10341000F80181938F01F3CF81E09981911180E0D0
:103420002196E6E00C947F26529A5A9A0895529873
:103430005A9AEA9AE9E6F0E080818F7C80830895C9
:10344000615091E001C0990F6A95EAF720E031E000
:10345000992361F0492F482319F05A9A232701C074
:103460005A9840E24A95F1F79695F2CF222311F04F
:103470005A9A01C05A9880E28A95F1F75A980895AD
:10348000FF920F931F93CF93DF93EC018C01060FF4
:10349000111DC017D10741F0F9900E94C61968E0CC
:1034A0008F2D0E94201AF5CFCDB7DEB7E5E00C9442
:1034B00080261F920F920FB60F9211240F931F9325
:1034C0002F933F934F935F936F937F938F939F932C
:1034D000AF93BF93EF93FF93CF93DF931F92CDB73B
:1034E000DEB719820E94BE19CE0101960E94CC1946
:1034F000082F069506950695902F96959570202F86
:103500002570920F292F237096959695920F8770AC
:1035100089135FC0898181115CC0043008F059C0F3
:1035200080E18A95F1F75A9A529A82E08A95F1F7EA
:1035300000C05A9888E0089F80011124D801AC5F30
:10354000BE4F1696ED91FC9117973097A9F06091B8
:10355000390170913A0114962D913C911597260FDF
:10356000371F11968D919C911297680F791F1396B2
:103570004C9113978C910995F801EC5FFE4F638194
:10358000662351F08091390190913A01248135816F
:10359000820F931F0E94401A0E94C61980E18A95EB
:1035A000F1F75A9852985A9A80E18A95F1F7F80102
:1035B000EC5FFE4F6081662351F08091390190915C
:1035C0003A0121813281820F931F0E94F4190E94D7
:1035D000BE190F90DF91CF91FF91EF91BF91AF9105
:1035E0009F918F917F916F915F914F913F912F911B
:1035F0001F910F910F900FBE0F901F9018950F9372
:103600001F93CF93DF93843091050CF06DC0EC01D4
:10361000F894529A5A9885E08A95F1F700009C2F09
:10362000969595702C2F2570920F892F8370969503
:10363000969523E0CC0FDD1F2A95E1F7980F8E01B8
:10364000092B0E94C61984E08A95F1F700C068E052
:10365000802F0E94201A80E18A95F1F752985A9A99
:103660004A9902C000C0FCCF87E090E04A9B08C0A6
:10367000019721F4529A5A9A789436C000C0F6CF36
:10368000FE01EC5FFE4F6381662381F0809139017A
:1036900090913A0124813581820F931F0E94F41981
:1036A000811104C0529A5A9A78941FC00E94BE1980
:1036B00080E28A95F1F75A98529A80E18A95F1F75B
:1036C000CC5FDE4F6881662351F080913901909183
:1036D0003A0129813A81820F931F0E94401A0E9469
:1036E000C619789481E001C080E0DF91CF911F91ED
:1036F0000F910895909355018093540108959093EC
:103700006C0280936B0208950E94F714811103C02C
:10371000809166020895E0916B02F0916C023097FF
:1037200029F00190F081E02D0995089580E0089539
:10373000EF92FF920F931F93CF93DF93E0916B0271
:10374000F0916C02309781F18C010280F381E02DC1
:1037500009958091420282FF27C080FF04C087EF55
:1037600091E00E94AD01E80118E081EFE82E81E0D0
:10377000F82E8091420280FF0BC088811F928F93A8
:10378000FF92EF920E9446020F900F900F900F90C1
:10379000115021961111EDCF8091420280FF04C09B
:1037A0008FEE91E00E94AD01CDB7DEB7E6E00C945C
:1037B0007F262091690230916A022817390771F03B
:1037C00090936A0280936902E0916B02F0916C021F
:1037D000309721F00680F781E02D0995089520911A
:1037E0006702309168022817390771F090936802D8
:1037F00080936702E0916B02F0916C02309721F0A8
:103800000084F185E02D09950895FC01329697E03A
:1038100080E0915029F021912223D9F38F5FF9CFD5
:103820000895662349F0FC013296089621916217AB
:1038300029F0E817F907D1F780E0089581E00895AD
:103840009C01FC0132969FEF80E04191461789F080
:103850009F3F19F4411101C0982F8F5F8630A9F75F
:103860009F3F39F0F901E90FF11D97FDFA95628349
:10387000089508959C012A5F3F4FFC014281461341
:1038800001C01282019682179307B9F708950E942A
:10389000201C08950E943A1C0895029626E0FC011F
:1038A00011922A95E9F7089508950E94541C0895ED
:1038B00083E080936D020E94551C0895811102C01F
:1038C00081E001C082E080936D020E94551C089542
:1038D0000E945E1C089581E080936D020E94551C39
:1038E00008950E946B1C089508950E94741C089509
:1038F0000E94751C08950E94741C08950E94741CF7
:1039000008950E94741C0895CF930E947E1C0E940B
:103910005A050E947B1CC0E08C2F0E94ED13811180
:1039200004C0CF5FC630C1F701C081E0CF910895D8
:1039300085B7806885BF85B7806885BF08951F9269
:103940000F920FB60F9211248F939F93AF93BF9353
:1039500080916E02811113C080915604909157049A
:10396000A0915804B09159044196A11DB11D8093B6
:10397000560490935704A0935804B0935904BF91F0
:10398000AF919F918F910F900FBE0F901F90189540
:1039900080915E04843031F10E94560610926E02CE
:1039A00020E488E190E00FB6F894A8958093600039
:1039B0000FBE2093600083B7817F846083BF83B78D
:1039C000816083BF7894889583B78E7F83BF0FB65D
:1039D000F894A895809160008861809360001092AF
:1039E00060000FBE08950E94560A0E945B0608956B
:1039F00082E084BD93E095BD9AEF97BD80936E0001
:103A000008952FB7F8948091560490915704A0918F
:103A10005804B09159042FBF08952FB7F8946091BE
:103A200056047091570480915804909159042FBF07
:103A300008959C014FB7F8948091560490915704D3
:103A4000A0915804B09159044FBF821B930B089565
:103A5000CF92DF92EF92FF922FB7F894C090560466
:103A6000D0905704E0905804F09059042FBFA7015C
:103A70009601261B370B480B590BCA01B901FF9061
:103A8000EF90DF90CF90089578941F920F920FB629
:103A90000F9211248F939F93AF93BF9380915604FD
:103AA00090915704A0915804B09159040196A11D1A
:103AB000B11D8093560490935704A0935804B0937B
:103AC0005904BF91AF919F918F910F900FBE0F90AE
:103AD0001F90189587E797E7909301088093000857
:103AE0009AE088E10FB6F894A895809360000FBE25
:103AF00090936000FFCF9AE088E10FB6F894A89504
:103B0000809360000FBE90936000FFCF80917A0297
:103B1000089508950895CF93DF9321E02093E9005D
:103B20002FEF3091E800215035FD06C035ED3A9574
:103B3000F1F700002111F5CF2091E80025FF14C016
:103B4000EC0140E050E068E070E00E942A208091A3
:103B5000E8008E778093E80088E0FE01A2E7B2E0FB
:103B600001900D928A95E1F7DF91CF910895089524
:103B700008958DE192E00E94AD0180915D04811174
:103B800009C00E94B5210E9412228091E200846047
:103B90008093E200089589E192E00E94AD011092C5
:103BA0005D04089585E192E00E94AD010E94711CC0
:103BB000089581E192E00E94AD0160915A0481E094
:103BC000611101C080E00E94581C08958DE092E0D0
:103BD0000E94AD0190915E0481E0943009F080E094
:103BE00060915A040E945E1C0895209170022F5F1C
:103BF000822F62E30E943126992319F020937002EC
:103C000008951092700280917102882371F1809161
:103C10005E04843041F58091E9008F702091EC00C2
:103C2000922F917020FD90E8892B92E09093E9000B
:103C30009091EB0090FF14C09091EE0097FF10C0A0
:103C40009091E80095FF03C01092F100F9CF909198
:103C5000E80090FF05C09091E8009E779093E800FF
:103C60008F708093E90010927102089542E061EC38
:103C700081E00E942E2142E261EC82E00E942E212E
:103C800090915E0481E0943009F080E060915A04E4
:103C90000E94681C089580916004833009F461C01B
:103CA00030F4813071F0823009F49BC008958A307D
:103CB00009F487C08B3009F46CC0893009F0A9C0C1
:103CC00020C080915F04813A09F0A3C08091E80090
:103CD000877F8093E8008091630490916404892B2E
:103CE00021F468E082E792E003C060E080E090E0C9
:103CF00070E00E946F208091E8008B778093E8004D
:103D0000089580915F04813209F083C0809163043B
:103D100090916404892B09F07CC08091E800877F32
:103D20008093E8008091E80082FD05C080915E04E8
:103D30008111F8CF6EC02091F3008091F20090E0E5
:103D4000922B029731F48091F100813011F086308E
:103D500021F48091F10080937A028091E8008B77C2
:103D600054C080915F04813A09F053C0809163048C
:103D700090916404892B09F04CC08091E800877F02
:103D80008093E8008091E80080FFFCCF80912801BB
:103D900037C080915F048132E1F580916304909196
:103DA0006404892BB1F58091E800877F8093E80057
:103DB0000E94632180916104809328010E94560A29
:103DC000089580915F04813221F58091E800877F1A
:103DD0008093E8000E9463218091620480937B02BB
:103DE000089580915F04813AA1F48091E800877F73
:103DF0008093E8008091E80080FFFCCF80917B02F7
:103E00008093F1008091E8008E778093E8000E9413
:103E1000632108959FB7F894109271029FBF90910B
:103E20005E04943009F057C09091E9009F70309182
:103E3000EC00232F217030FD20E8922B22E020930C
:103E4000E9002091EB0020FF43C02091EE0027FF06
:103E50003FC020916F02222321F02091E80025FF2E
:103E600037C010926F0226E03091E80035FD15C092
:103E700030915E04343061F53091EB0035FD28C09F
:103E8000215021F481E080936F0222C0EFE9FFE02E
:103E90003197F1F700C00000E7CF8093F1008091E7
:103EA000E80085FD0AC08091E80080FFFCCF80918A
:103EB000E8008E778093E80006C08FB7F89421E081
:103EC000209371028FBF9F709093E90080E0089566
:103ED0009F709093E9008FEF089584B7877F84BF28
:103EE0000FB6F894A8958091600088618093600077
:103EF000109260000FBE90E080E80FB6F8948093B7
:103F00006100909361000FBE0E946B1C08950E9497
:103F1000B5210E941222E2EEF0E08081846080836D
:103F200078940E949C2408958CE191E00E947F1B6C
:103F3000089580915E048530C9F489E092E00E9482
:103F4000AD0180915E04853079F40E94C81C809197
:103F50005C048823B1F30E94841C882391F30E949F
:103F600014200E94560AEDCF0E94F31C0895089574
:103F70000E94BB1F0895292F332723303105C9F034
:103F800060F42130310581F02230310509F044C060
:103F900082E490E02DE432E043C021323105E1F0CB
:103FA0002232310549F138C082E190E02FE832E059
:103FB00037C099278130910549F028F0029761F5C3
:103FC000E1E2F2E005C0E9E4F2E002C0E1E3F2E0A0
:103FD000849190E09F0124C06115710541F061302A
:103FE0007105D1F489E090E028E732E019C089E05A
:103FF00090E02FE532E014C06115710541F06130A9
:10400000710551F482E290E021EA32E009C080E4D7
:1040100090E023EC32E004C080E090E020E030E06B
:10402000FA0131832083089580E189BD82E189BD51
:1040300009B400FEFDCF8091D8008F7D8093D80019
:104040008091E00082608093E0008091E00081FD3B
:10405000FCCF0895A0E0B0E0E0E3F0E20C9461262C
:10406000EC018B017A010E948221811133C0E1149D
:10407000F10439F0F70180819181081B190BC80FF9
:10408000D91FC12CD12C0115110519F18091E8001F
:1040900085FD16C08091E8008E778093E800E114DA
:1040A000F10449F0F70180819181C80ED91ED182B7
:1040B000C08285E00FC00E948221882321F30AC0BC
:1040C00089918093F10001501109FFEFCF1ADF0AA7
:1040D000DACF80E0CDB7DEB7E8E00C947D26209102
:1040E0006504309166042617370748F0611571059D
:1040F00039F42091E8002E772093E80001C0B9013F
:10410000FC0120E06115710579F180915E0488233E
:10411000F1F18530F1F18091E80083FD3CC08091A0
:10412000E80082FD2EC08091E80080FFEBCF209157
:10413000F3008091F20090E0922B6115710551F02F
:104140008830910538F421912093F1006150710974
:104150000196F3CF21E0089709F020E08091E80074
:104160008E778093E800CECF2111CFCF0AC0809107
:104170005E04882361F0853061F08091E80083FD62
:104180000AC08091E80082FFF2CF80E0089582E0CB
:10419000089583E0089581E00895209165043091A9
:1041A00066042617370748F06115710539F4209128
:1041B000E8002E772093E80001C0B901FC0120E05F
:1041C0006115710591F180915E04882309F440C066
:1041D000853009F43FC08091E80083FD3DC08091A7
:1041E000E80082FD2FC08091E80080FFE9CF209198
:1041F000F3008091F20090E0922B6115710559F067
:104200008830910540F424912093F100319661505B
:1042100071090196F2CF21E0089709F020E0809122
:10422000E8008E778093E800CBCF2111CCCF0AC075
:1042300080915E04882361F0853061F08091E80010
:1042400083FD0AC08091E80082FFF2CF80E00895EC
:1042500082E0089583E0089581E00895982F9730D3
:1042600068F59093E900981739F07091EC0020916F
:10427000ED005091F00003C0242F762F50E021FD77
:1042800002C09F5FECCF3091EB003E7F3093EB009C
:104290003091ED003D7F3093ED003091EB003160C7
:1042A0003093EB007093EC002093ED005093F000FE
:1042B0002091EE0027FDE5CF80E008958F70809378
:1042C000E90081E0089580915F0487FF11C080912B
:1042D000E80082FD05C080915E048111F8CF11C015
:1042E0008091E8008B770BC080915E04882349F0B1
:1042F0008091E80080FFF8CF8091E8008E7780936E
:10430000E80008952091E4003091E50095E64091A1
:10431000EC00842F817040FF23C08091E80080FD75
:104320001DC080915E04882399F0853099F08091BA
:10433000EB0085FD11C04091E4005091E500241789
:10434000350729F3915011F09A01E1CF84E00895E7
:1043500082E0089583E0089581E0089580E0089563
:104360004091E80042FFDDCF08950E9424220E9480
:104370002C22E0EEF0E0808181608083E8EDF0E0C7
:1043800080818F77808319BCA7EDB0E08C918E7F00
:104390008C9380818F7E808310925D0408950F93AB
:1043A0001F93CF93DF930E9424220E942C22C8EDFA
:1043B000D0E088818F77888388818068888388812E
:1043C0008F7D888319BC10925E0410925A0410925B
:1043D0005C0410925B0400EE10E0F80180818B7F9A
:1043E000808388818160888342E060E080E00E9471
:1043F0002E21E1EEF0E080818E7F8083E2EEF0E01E
:10440000808181608083808188608083F8018081E1
:104410008E7F8083888180618883DF91CF911F9117
:104420000F910895E8EDF0E080818F7E8083E7EDC5
:10443000F0E080818160808384E082BF81E08093AE
:104440005D040E94CF210895E8EDF0E080818E7F29
:1044500080831092E20008951092DA001092E10039
:1044600008951F920F920FB60F9211242F933F932E
:104470004F935F936F937F938F939F93AF93BF936C
:10448000EF93FF938091E10082FF0BC08091E200E7
:1044900082FF07C08091E1008B7F8093E1000E9442
:1044A000F51D8091DA0080FF1FC08091D80080FF49
:1044B0001BC08091DA008E7F8093DA008091D90052
:1044C00080FF0DC080E189BD82E189BD09B400FE95
:1044D000FDCF81E080935E040E94B91D05C019BC28
:1044E00010925E040E94CB1D8091E10080FF19C0F4
:1044F0008091E20080FF15C08091E2008E7F809362
:10450000E2008091E20080618093E2008091D80017
:1045100080628093D80019BC85E080935E040E947D
:10452000D91D8091E10084FF30C08091E20084FFBA
:104530002CC080E189BD82E189BD09B400FEFDCFB8
:104540008091D8008F7D8093D8008091E1008F7E8C
:104550008093E1008091E2008F7E8093E200809161
:10456000E20081608093E20080915A04882311F078
:1045700084E007C08091E30087FD02C081E001C0B4
:1045800083E080935E040E94E61D8091E10083FF3A
:1045900029C08091E20083FF25C08091E100877FE0
:1045A0008093E10082E080935E0410925A0480912F
:1045B000E1008E7F8093E1008091E2008E7F809306
:1045C000E2008091E20080618093E20042E060E0DE
:1045D00080E00E942E218091F00088608093F0009E
:1045E0000E94D21DFF91EF91BF91AF919F918F914A
:1045F0007F916F915F914F913F912F910F900FBEDF
:104600000F901F9018951F920F920FB60F921124C2
:104610002F933F934F935F936F937F938F939F93CA
:10462000AF93BF93CF93DF93EF93FF93C091E900D4
:10463000CF708091EC00D82FD17080FDD0E810921F
:10464000E9008091F000877F8093F00078940E94C9
:1046500047231092E9008091F00088608093F00079
:10466000CD2BCF70C093E900FF91EF91DF91CF91F7
:10467000BF91AF919F918F917F916F915F914F917A
:104680003F912F910F900FBE0F901F901895AAE2A7
:10469000B0E0EDE4F3E20C946626EFE5F4E08091FF
:1046A000F100819324E0E736F207C9F70E944B1E20
:1046B0008091E80083FF2EC180915F049091600497
:1046C000492F50E04A30510508F024C1FA01EE5953
:1046D000FF4F0C945126803821F0823809F01AC11E
:1046E00008C080915B0490915C04992389F08260FA
:1046F0000FC0809163048F70873008F00BC18093E6
:10470000E9008091EB0085FB882780F91092E90091
:104710009091E800977F9093E8008093F1001092C9
:10472000F100D1C0282F2D7F09F0F4C0882319F0A3
:10473000823061F0EFC080916104813009F0EAC0FD
:10474000933009F080E080935C042EC08091610476
:1047500081112AC0809163048F702FEF280F2630BB
:1047600008F0D8C08093E9002091EB0020FF1CC026
:10477000933021F48091EB00806214C09091EB00A3
:1047800090619093EB0021E030E0A90102C0440F5A
:10479000551F8A95E2F74093EA001092EA00809153
:1047A000EB0088608093EB001092E9008091E800B4
:1047B000877F8093E8000E946321ACC08111AAC06A
:1047C000109161041F778091E3008078812B8093A2
:1047D000E3008091E800877F8093E8000E946321D6
:1047E0008091E80080FFFCCF8091E3008068809397
:1047F000E300111102C082E001C083E080935E04F7
:1048000089C08058823008F085C080916104909101
:1048100062048C3D53E0950779F583E08A838AE250
:1048200089834FB7F894DE01139620E03EE051E211
:10483000E32FF0E050935700E49120FF03C0E2958E
:10484000EF703F5FEF708E2F90E0EA3010F0C79668
:1048500001C0C0968D939D932F5F243149F74FBFC0
:104860008091E800877F8093E8006AE270E0CE01E3
:1048700001960E946F2016C06091630470916404D9
:10488000AE014F5F5F4F0E94B81FBC01892B09F436
:1048900041C09091E800977F9093E80089819A81C8
:1048A0000E94CD208091E8008B778093E80032C091
:1048B000803881F58091E800877F8093E8008091BF
:1048C0005A048093F1008091E8008E7772CF8111B5
:1048D00021C0809161049091620499270297D4F4D9
:1048E0008091E800877F8093E80080916104809345
:1048F0005A040E94632180915A04811106C080915C
:10490000E30087FD02C081E001C084E080935E0483
:104910000E94361E8091E80083FF0AC08091E80063
:10492000877F8093E8008091EB0080628093EB00AA
:10493000AA96E3E00C948226CF9380915E048823AC
:10494000A1F0C091E900CF709091EC00892F8170A7
:1049500090FD80E8C82B1092E9008091E80083FD6B
:104960000E944723CF70C093E900CF9108950E9421
:10497000B52110925E040895E8EDF0E08081806139
:1049800080838AE18A95F1F700C08091D900817017
:1049900008955058BB27AA270E94E1240C948A2529
:1049A0000E947C2538F00E94832520F039F49F3F37
:1049B00019F426F40C9479250EF4E095E7FB0C9499
:1049C0007325E92F0E949B2558F3BA1762077307D6
:1049D0008407950720F079F4A6F50C94BD250EF414
:1049E000E0950B2EBA2FA02D0B01B90190010C01FF
:1049F000CA01A0011124FF27591B99F0593F50F417
:104A0000503E68F11A16F040A22F232F342F44276E
:104A1000585FF3CF469537952795A795F040539566
:104A2000C9F77EF41F16BA0B620B730B840BBAF036
:104A30009150A1F0FF0FBB1F661F771F881FC2F7A1
:104A40000EC0BA0F621F731F841F48F487957795B5
:104A50006795B795F7959E3F08F0B0CF9395880F6F
:104A600008F09927EE0F979587950895E89409C067
:104A700097FB3EF490958095709561957F4F8F4F91
:104A80009F4F9923A9F0F92F96E9BB279395F695A7
:104A9000879577956795B795F111F8CFFAF4BB0F25
:104AA00011F460FF1BC06F5F7F4F8F4F9F4F16C089
:104AB000882311F096E911C0772321F09EE8872F13
:104AC000762F05C0662371F096E8862F70E060E0CF
:104AD0002AF09A95660F771F881FDAF7880F969548
:104AE000879597F9089597F99F6780E870E060E0EF
:104AF00008959FEF80EC089500240A941616170677
:104B000018060906089500240A94121613061406BE
:104B100005060895092E0394000C11F4882352F021
:104B2000BB0F40F4BF2B11F460FF04C06F5F7F4FD9
:104B30008F4F9F4F089557FD9058440F551F59F0C0
:104B40005F3F71F04795880F97FB991F61F09F3F7A
:104B500079F087950895121613061406551FF2CFA3
:104B60004695F1DF08C0161617061806991FF1CFF3
:104B700086957105610508940895E894BB2766271A
:104B80007727CB0197F908950E94D7250C948A25A1
:104B90000E947C2538F00E94832520F0952311F097
:104BA0000C9473250C94792511240C94BE250E9435
:104BB0009B2570F3959FC1F3950F50E0551F629FA1
:104BC000F001729FBB27F00DB11D639FAA27F00D66
:104BD000B11DAA1F649F6627B00DA11D661F829F8D
:104BE0002227B00DA11D621F739FB00DA11D621F72
:104BF000839FA00D611D221F749F3327A00D611D8F
:104C0000231F849F600D211D822F762F6A2F112470
:104C10009F5750409AF0F1F088234AF0EE0FFF1FA3
:104C2000BB1F661F771F881F91505040A9F79E3FFA
:104C3000510580F00C9473250C94BE255F3FE4F37E
:104C4000983ED4F3869577956795B795F795E79550
:104C50009F5FC1F7FE2B880F911D9695879597F959
:104C60000895991B79E004C0991F961708F0961BC8
:104C7000881F7A95C9F780950895AA1BBB1B51E13F
:104C800007C0AA1FBB1FA617B70710F0A61BB70BBC
:104C9000881F991F5A95A9F780959095BC01CD0161
:104CA0000895EE0FFF1F0590F491E02D09942F92C7
:104CB0003F924F925F926F927F928F929F92AF92AC
:104CC000BF92CF92DF92EF92FF920F931F93CF93F9
:104CD000DF93CDB7DEB7CA1BDB0B0FB6F894DEBF90
:104CE0000FBECDBF09942A88398848885F846E84B6
:104CF0007D848C849B84AA84B984C884DF80EE8000
:104D0000FD800C811B81AA81B981CE0FD11D0FB608
:104D1000F894DEBF0FBECDBFED010895FB01DC01AD
:104D200004C08D910190801921F441505040C8F782
:104D3000881B990B0895FB01DC0102C001900D92C4
:104D400041505040D8F70895F999FECF92BD81BDEA
:104D5000F89A992780B50895A8E1B0E042E050E0C4
:104D60000C94D826262FF999FECF92BD81BDF89AD2
:104D7000019700B4021639F01FBA20BD0FB6F8949F
:104D8000FA9AF99A0FBE08950396272F0E94B32628
:104D90000E94B226252F0E94B326242F0C94B326FE
:104DA0000196272F0E94B3260C94B226DC01CB017A
:104DB000FC01F999FECF06C0F2BDE1BDF89A31962B
:104DC00000B40D9241505040B8F70895F894FFCFC9
:104DD0004028020100000001000000000000000364
:104DE000010000000404000000000000861D8B1D6F
:104DF000B71DB81D891D8A1D011E002D00363233D6
:104E00000100030507029466974B02736C61766597
:104E10005F6D61747269780073796E635F74696D38
:044E200065720000B7
:00000001FF
