:100000000C9417020C9434020C9434020C94761A5B
:100010000C9434020C9434020C9434020C94340288
:100020000C9434020C9434020C9431220C9403236B
:100030000C94901C0C9434020C9434020C943402F2
:100040000C9434020C9434020C9434020C94340258
:100050000C9434020C94351D0C9434020C9434022C
:100060000C9434020C9434020C9434020C94340238
:100070000C9434020C9434020C9434020C94340228
:100080000C9434020C9434020C9434020C94340218
:100090000C9434020C9434020C9434020C94340208
:1000A0000C9434020C9434020C9434023E093E0940
:1000B0006A096A09AF0AAF0AAF0AAF0AC009360A6D
:1000C000470A470A6A18DC1872183C184018761854
:1000D0004318791884184E18D218521888185618D0
:1000E0008C18B6185A189018C01860189618A018CE
:1000F00047187D184A18801865189B18AC18CC183A
:10010000CE1838186E18E518B019B619A419AA191E
:10011000BC19C219C8196B2392238A2492238A24FA
:10012000DE2301248A24582467240A00253464002D
:100130000A0034003600370013001C002938040080
:100140001200080018000C002D41330014000D00AF
:100150000E001B00E0000F00150006000A00090059
:1001600000001600110017000B0007002C221D00D4
:1001700019001A001000050028421E021F0220026A
:1001800021022202E7002B2104001D0006001B00B3
:10019000215200000000000000000000E6002702DD
:1001A000260252002402230200002A004F005100C0
:1001B00050004A002C224C0030002F0028004D0037
:1001C00023521E001F00200021002200E700230010
:1001D00024002500260027002352E000E100000053
:1001E00000000000E600380238002B0030002F002D
:1001F0000000E5002E003500310031020000E5006E
:10020000000035022E02280000001E021F022002FC
:100210002102220200000000000000000000000097
:1002200000003A003B003C003D003E000000300072
:100230002F00250224022302000030022F020000BA
:1002400031003102000043004200410040003F0005
:10025000000044454255473A2064697361626C6509
:10026000642E0A0044454255473A20656E61626C2F
:1002700065642E0A000A0025303258006C65645F00
:100280007461736B3A20004F6E6573686F743A2027
:100290006163746976653A2025640A000A00253096
:1002A0003862003A200025303258000A722F63204D
:1002B00030313233343536370A0054617267657431
:1002C00020636F6E6E65637465640D0A005461721D
:1002D00067657420646973636F6E6E6563746564CB
:1002E0002C207468726F74746C696E6720636F6E13
:1002F0006E656374696F6E20617474656D7074737C
:100300000D0A004661696C656420746F206578652C
:10031000637574652025730A000A00253032582061
:10032000006B6579626F6172645F7265706F727481
:100330003A20005B735D005B575D005B535D005BC3
:10034000525D005B445D005B435D000E036D006920
:10035000006E006900650063000000160367006F0F
:100360000072006F00700069006B0061007200692C
:100370000000000403090409024200020100A0FA7F
:1003800009040000010301010009211101000122FB
:100390004000070581030800010904010002030071
:1003A000000009211101000122220007058203201B
:1003B00000010705020320000112010002000000F5
:1003C00008EDFE00000001010200010631FF097482
:1003D000A1010975150026FF009520750881020905
:1003E00076150026FF00952075089102C0050109C9
:1003F00006A101050719E029E715002501950875F3
:100400000181029501750881010507190029FF1571
:100410000026FF00950675088100050819012905C9
:10042000950575019102950175039101C000112494
:100430001FBECFEFDAE0DEBFCDBF11E0A0E0B1E03C
:10044000E0EFFDE402C005900D92AC34B107D9F79E
:1004500024E0ACE4B1E001C01D92A93AB207E1F793
:100460000E94EF170C94F6260C940000FF93EF9374
:10047000E0914C01F0914D01309709F00995EF9111
:10048000FF910895FC018591803011F0EFDFFBCFE3
:100490000895FF27E0E230E247FF0CC0419597FF47
:1004A00009C0EDE26095709580959095611D711D74
:1004B000811D911D27FF02C0219530E350E2AA273C
:1004C000660F771F881F991FAA1FA41710F0A41B7F
:1004D00063955A95A9F7AA3008F0A95FA05DAF937C
:1004E000F395611571058105910541F7ED3211F420
:1004F000EF93F395F21718F43F93F395FBCF8F9199
:10050000B5DFFA95E1F70895E991F9918591803089
:1005100021F0853219F0AADFF9CF089520E0E894A0
:1005200055915532C1F3503311F4689455915A33B3
:1005300048F4505390F3220F022E220F220F200D69
:10054000250FF4CF0EF4219589919991533619F323
:10055000533729F1533559F1BC0188279927E8947D
:100560005C3621F48991999168945591543639F407
:1005700046EF7EF077FF0DC08FEF9FEF0AC0553733
:100580004AE039F0583540E121F0523642E009F0B6
:100590000895FF93EF937DDFEF91FF91B7CFFF9326
:1005A000EF93FC0181918030B9F360DFFBCFFF93C3
:1005B000EF9368DFF1CFDF93CF93CDB7DEB725960A
:1005C000A3DFCF91DF910895807C8093000108958F
:1005D000873941F178F4863349F130F4843321F1DD
:1005E000853331F584E208958439D1F0863901F5F7
:1005F00081E20895843F71F030F4803FD9F0813F6B
:10060000B9F481E00895863F49F030F0873F81F4E6
:1006100087E0089584E0089585E0089586E00895D0
:1006200080E2089582E2089583E2089585E20895C4
:100630008FE1089580E0089596E890937A00982FCE
:100640009072906890937B008F7190910001892B3C
:1006500080937C0080917A00806480937A008091FE
:100660007A0086FDFCCF80917800209179009091EE
:100670007A009F7790937A0090E0922B08950E94E1
:10068000E8020E941C0308954F925F926F927F923E
:100690008F929F92AF92BF92CF92DF92EF92FF9292
:1006A000CF93DF93EC016A017B018889882349F0AD
:1006B000488759876A877B874C875D876E877F87E6
:1006C000188A8C809D80AE80BF80288539854A85B8
:1006D0005B85C501B4010E94C4252B013C01A50125
:1006E0009401C701B6010E94C4259B01AC01C3015E
:1006F000B2010E94CA244B015C012C853D854E85C8
:100700005F85688179818A819B810E94C4259B01D4
:10071000AC01C501B4010E94CA24C886D986EA8604
:10072000FB866C877D878E879F87DF91CF91FF90B7
:10073000EF90DF90CF90BF90AF909F908F907F9081
:100740006F905F904F900895A4E0B0E0EAEAF3E084
:100750000C94672669837A838B839C8389819A8131
:10076000AB81BC81892B8A2B8B2B61F089819A818B
:10077000AB81BC810197A109B10989839A83AB83BD
:10078000BC83ECCF2496E2E00C948326219AE62FDA
:10079000F0E0E85DFE4F908190FF02C02E9A01C00C
:1007A0002E9891FF02C02A9A01C02A9892FF02C097
:1007B0002B9A01C02B98AEE2B1E061E070E021E03D
:1007C000A133B20789F09D91E92FE295EF70F0E037
:1007D00022A19F70AB0101C0440F9A95EAF7942FB4
:1007E0009095922392A3EBCFF89421982998E82F23
:1007F000F0E0E25DFE4F9081E92FE295EF70F0E0CE
:1008000032A1292F2F7081E090E001C0880F2A9536
:10081000EAF7832B82A386EF0E943F037894811529
:1008200024E0920728F496958795969587950895E4
:100830008FEF90E00895A4E0B0E0E1E2F4E00C94E2
:100840005D2619821A821B821C8289819A81AB8162
:10085000BC8100E010E036E0E32EF12CC801B701C6
:100860000E943D260E94C603A0E0B0E089839A83DF
:10087000AB83BC836AE070E080E090E00E94A40358
:100880000F5F1F4F0231110549F794E1A92EB12CDA
:1008900026E0822E912C8EE4C82E81E0D82E76019F
:1008A00000E010E0C801B4010E943D260E94C6038A
:1008B000D7012D913C91820F931FF7018193919362
:1008C0007F016AE070E080E090E00E94A4030F5F87
:1008D0001F4F0231110531F7F1E0AF1AB108D9F617
:1008E000E2E0F4E020E530E0D6018D919D916D01CC
:1008F0008115B0E59B0720F4B9010E943D2601C097
:100900006FEF608316826183628363836483658390
:10091000379644E0E038F40739F72496ECE00C947D
:100920007926FC0198E4AAEBB1E001900D929A952A
:10093000E1F72998219A80E40E94E402AEE2B1E056
:1009400041E050E071E0A133B707B1F08D91E82F9D
:10095000E295EF70F0E021A18F70BA0102C0660F3E
:10096000771F8A95E2F7CB01922F982B91A392A142
:100970008095892382A3E6CFA5E2B1E021E030E0B3
:1009800071E0A832B70789F08D91E82FE295EF70FA
:10099000F0E041A18F70B90102C0660F771F8A9500
:1009A000E2F7CB01842B81A3EBCF219829980E94F9
:1009B0001B0480E090E008950F931F93CF93DF9383
:1009C000FC015081A42FB0E0E52FF0E0042E02C01E
:1009D000F595E7950A94E2F7062F10E0E0FF1BC0BB
:1009E000E6E0E09FB001E19F700D1124A60FB71F54
:1009F000AA0FBB1FA654BE4F6D917C9126173707D7
:100A000008F045C021E030E001C0220F4A95EAF726
:100A10002095252327C0E62FEE0FE60FE40FCE2FFB
:100A2000D0E067E0E69FF0011124EE5FFB4FE0812C
:100A3000F6E0F09FB001F19F700D1124A60FB71FD3
:100A4000AA0FBB1FA252BE4F6D917C916E0F711DFC
:100A50006217730758F421E030E001C0220F4A9575
:100A6000EAF7252BFC01208381E012C0B90180E068
:100A700090E00E943625AB01BC0121E12C9FC00112
:100A80002D9F900D112480539D4F0E94440380E0C0
:100A9000DF91CF911F910F910895A0E0B0E0E3E5C1
:100AA000F5E00C945F265C0182E7C82E81E0D82E29
:100AB00010E000E07601C0E0D0E0612F8C2F0E94B2
:100AC000C603F701918380839C01412F6C2FC501E0
:100AD0008C0F9D1F0E94DC04082B2196FCE0EF0E7A
:100AE000F11CC330D10549F782E0C80ED11C1F5F4D
:100AF000163001F7802FCDB7DEB7EAE00C947B26E5
:100B0000A0E0B0E0E6E8F5E00C946126C2E7D1E0B1
:100B10008CE2E82E81E0F82E9AE2C92E91E0D92EDF
:100B200081E0C639D807F1F000E010E0FE01E00FE7
:100B3000F11F81818F9380818F93FF92EF920E94AA
:100B4000DB020E5F1F4F0F900F900F900F900C3035
:100B5000110561F7DF92CF920E94DB022C960F9075
:100B60000F90DECFCDB7DEB7E8E00C947D26089578
:100B7000A8E4B0E0EEEBF5E00C94652655985D989E
:100B8000209828980E94CD159E012F5F3F4FBE01EF
:100B90006B5D7F4FC901A9E1B0E003E210E0F9010C
:100BA00040E050E0A193B19313A302A34F5F5F4FC6
:100BB00046305105B9F7245F3F4F2617370779F7BD
:100BC000209103010E94910480910301811102C0D0
:100BD00093E001C090E09093850483E0891B8093AB
:100BE00084040E94DF15C85BDF4FE4E00C9481268B
:100BF000CF930E944D05C82F80910202909103026D
:100C00009C012F5F3F4F8C32914029F030930302BB
:100C1000209302020AC010920302109202020E9464
:100C2000800580E391E00E9442028C2FCF910895CD
:100C3000CF938CE894E00E94F805C82F609185045A
:100C400070E06E567B4F282F43E08CE894E00E94C2
:100C500078150E9400158C2FCF9108950E94B51130
:100C600008950E94B81108958430B0F46630A0F45D
:100C7000463090F494E2899FF001112486E0689F49
:100C8000E00DF11D1124E40FF11DEE0FFF1FEE5CCE
:100C9000FE4F85919491089581E090E008950E941F
:100CA0003406089581E0089581E008950E94540675
:100CB00008950E94560608950E94540608950895C6
:100CC0000E945F060895A6E0B0E0E9E6F6E00C9425
:100CD000662649835A839E833091090289819A81CD
:100CE000311115C03E81332359F0222349F00E946F
:100CF000650C182F682F89819A810E94410C03C0CE
:100D00000E94530C182F69817A81812F04C00E94A0
:100D1000650C69817A810E9442132696E3E00C9467
:100D20008226FC01262F408151816281738184815A
:100D300095810E9463060895CF93DF93EC0161E0F3
:100D40000E949106BE010E945906DF91CF9108953D
:100D5000CF93DF93EC0160E00E949106BE010E94F8
:100D60006006DF91CF91089508950E94180B0E94AC
:100D7000B4062FEF84E39CE0215080409040E1F7DF
:100D800000C0000008950E94B5060E945B1D0895F2
:100D90000E94B5060E946C1D08950F931F93CF9378
:100DA000DF938C0161E00E949106EC01B8010E9482
:100DB0005C06882309F45BC0B801CE010E94981933
:100DC000882309F454C0B801CE010E941418882366
:100DD00009F44DC0B801CE010E94FE18882309F421
:100DE00046C0F80185818823E9F1C3308CE7D80734
:100DF00079F158F4C130FCE7DF0761F1A0F4C115C7
:100E0000DC4781F50E94C30632C0CB35FCE7DF0723
:100E100039F1CC358CE7D80701F1CA35DC4711F53B
:100E20000E94BF101FC080918802C82FC095C1705A
:100E3000C0FB80F980938802CC2329F084E692E0FD
:100E40000E94420214C082E592E00E94420210C059
:100E50000E94C7100E94C8060AC00E94B51002C0B6
:100E60000E94C310C8010E945206C82F01C0C0E0F2
:100E70008C2FDF91CF911F910F9108950E94691CD3
:100E80000E94770708950E947B070E94721C0895B4
:100E90008295982F937344E0949F900111248C7C49
:100EA00086958695282B822F8575880F2A7A269518
:100EB000822B0895089581E008950895CF93DF93DC
:100EC000D82F0E945B07C82F882319F08D2F0E940E
:100ED0005D078C2FDF91CF9108950895CF93C82F90
:100EE0000E945A078C2F0E945E07CF91089580E0E0
:100EF0000E946E0708950E94A11B0E946E0708952C
:100F0000CF930E94A11BC82F80910402C81789F1BA
:100F1000C09304020E94FE1C6093050270930602B7
:100F200080930702909308028091880282FF1EC07E
:100F300080FF04C08CE792E00E9442028091880208
:100F400080FF0CC01F92CF9387E792E09F938F930F
:100F50000E94DB020F900F900F900F9080918802FB
:100F600080FF04C085E792E00E9442028C2F0E941D
:100F70006E07CF910895ADE0B0E0E1ECF7E00C949E
:100F80006726488759876A877B878C879D87911159
:100F90000E94D50FCE01019627E0FC0111922A95FF
:100FA000E9F726E0FE013896DC0101900D922A95C2
:100FB000E1F72D8121110AC029813A814B815C81A1
:100FC0006D817E818F810E941F0F04C00E949C064C
:100FD0008111F2CF2D96E2E00C948326FC0124814E
:100FE000213021F4808191810E94970C0895CF9344
:100FF000882309F481C0C82F8238C1F40E94A11B44
:1010000081FD7AC069E380910101909102010E9403
:10101000381C0E9401102FEF87EE93E02150804092
:101020009040E1F700C0000069E333C08338C1F4A9
:101030000E94A11B80FD60C063E580910101909139
:1010400002010E94381C0E9401102FEF81EE94E0F3
:10105000215080409040E1F700C0000063E519C0D6
:101060008438F1F40E94A11B82FD46C067E48091A0
:101070000101909102010E94381C0E9401102FEF83
:1010800081EE94E0215080409040E1F700C00000E4
:1010900067E480910101909102010E943B1C2AC0EB
:1010A0008CEF8C0F813AD0F46C2F809101019091DC
:1010B00002010E94021C882349F06C2F80910101DB
:1010C000909102010E943B1C0E9401106C2F8091A4
:1010D0000101909102010E94381C0CC080E28C0F2B
:1010E000883050F4C77081E001C0880FCA95EAF7D4
:1010F0000E94B80F0E940110CF910895882309F42F
:101100004DC0682F823879F40E94A11B81FF46C030
:1011100069E380910101909102010E94381C0E94B4
:10112000011069E326C0833879F40E94A11B80FF77
:1011300035C063E580910101909102010E94381C45
:101140000E94011063E515C0843879F40E94A11B48
:1011500082FF24C067E480910101909102010E9406
:10116000381C0E94011067E404C08CEF860F813A9E
:1011700038F480910101909102010E943B1C0CC047
:1011800080E2860F883050F4677081E001C0880FDC
:101190006A95EAF70E94BE0F0E94011008951F93FE
:1011A000CF93DF93182FEB010E94F707209741F0B0
:1011B0008FE99FE00197F1F700C000002197F6CF7B
:1011C000812F0E947E08DF91CF911F91089589336E
:1011D00019F065E070E002C060E570E00E94CF08A1
:1011E0000895882321F00E94B80F0E9401100895ED
:1011F000882321F00E94BE0F0E9401100895A0E0F4
:10120000B0E0E5E0F9E00C9461267C01D62FC72F11
:10121000FC011581068102950F700E94AE0F882394
:10122000E9F01123D9F08C2F807F803451F080E2D7
:101230008D0F883098F0011104C08C2F807E803291
:1012400069F080918B0482FF09C082E00E947510D2
:101250000E94AE0F91E0D82ED92601C0D12CCC2E01
:10126000C2948FE0C8228C2D90E08C30910508F05C
:1012700076C1FC01EA5AFF4F0C9451268C2F807FD7
:10128000CF70882311F0C295C07F112399F0CC2331
:1012900009F44CC180E28D0F883010F0D11104C0E8
:1012A0008C2F0E94B80F03C08C2F0E94C80F0E9481
:1012B00001103CC18D2F0E947E08CC2309F44FC140
:1012C00080E28D0F883038F1DD2329F18C2F0E94C8
:1012D000CE0F24C08C2F807FCF70803211F0C2954A
:1012E000C07FDD2319F0D13099F13CC080918B048F
:1012F00082FD17C0112349F0CC2329F08C2F0E94C6
:10130000B80F0E94011080E012C180E00E947E08A8
:10131000CC2309F424C18C2F0E94BE0F0E9401101F
:101320001EC1112349F0002309F1013009F017C152
:101330008C2F0E94DF0F13C1011111C18C2F0E944D
:10134000F8088C2F0E94EB0F8C2F0E94481007C1C9
:10135000112321F0063008F002C108C0053008F062
:10136000FEC00AC0112331F00111E0C08C2F0E9491
:10137000F108F5C00111E0C08C2F0E94F808EFC001
:101380008C2F8370B1F51111EEC04D2F429546950B
:101390004770440F440F8D2F8F7090E09C01042EF6
:1013A00002C0220F331F0A94E2F7D4FF0AC08FE075
:1013B00090E002C0880F991F4A95E2F780959095BA
:1013C00002C080E090E0C695C695C370822B932B37
:1013D000C23049F058F4C13019F00E94740BC3C0F8
:1013E0000E946B0BC0C00E947D0BBDC00E94680BA9
:1013F000BAC0112319F08C2F817001C08695882303
:1014000009F4B1C04D2F429546954770440F440FE3
:101410008D2F8F7090E09C01042E02C0220F331F8D
:101420000A94E2F7D4FF0AC08FE090E002C0880F70
:10143000991F4A95E2F78095909502C080E090E070
:10144000C695C695C370822B932BC23049F058F4D1
:10145000C13019F00E94DC0B86C00E94D30B83C000
:101460000E94E50B80C00E94890B7DC0CF701123C4
:1014700039F08C2F0E94A10B8D2F0E94F10873C0B0
:101480008D2F0E94F8088C2F0E94B10B6CC0D23FA8
:1014900021F128F4D03F41F0D13FC1F043C0D33F08
:1014A00019F1D43F79F03EC0112341F0053008F026
:1014B00056C08C2F8F710E94C30B51C0063008F0AC
:1014C0004EC0F7CF80918B0482FD18C0112339F0F4
:1014D0008C2F8F710E94A10B42C01123C9F38C2F56
:1014E0008F710E94B10B3BC0112329F08C2F8F719B
:1014F0000E94950B34C00E94900B31C0112349F01B
:10150000CF718C2F0E94A10B63E08C2F0E9457108B
:1015100026C081E00E947510023008F182E00E942E
:1015200075101DC0112331F0002391F28D2F0E9400
:10153000F70715C0002399F2D93341F4FFEF27EEE6
:1015400083E0F15020408040E1F704C0EFE1FEE489
:101550003197F1F700C000008D2F0E947E0888EFC0
:101560008C0D843020F40E94A11B0E946E07DD20A8
:1015700089F00E94AA0F80FD0DC0F70115820E941C
:10158000A40F0E94A10BC7010E94E70A0E94A40FAA
:101590000E94B10BCDB7DEB7E8E00C947D260F9327
:1015A0001F93CF93DF93EC01688179818D810E9435
:1015B000A20C8C010E94EE0B0E94590BB801CE01C7
:1015C0000E94FF08DF91CF911F910F910895CF9353
:1015D000DF93FC0124812223D1F0EC010E94CD068F
:1015E00081110FC00E94AE0F882389F08D8188235E
:1015F00071F080918B0482FF0AC082E00E94751016
:1016000006C0CE010E94CF0ACE010E94A806DF913B
:10161000CF9108950E94D50F0E94011008958091E6
:101620000101909102010E943E1C0E940A0B089544
:101630000E94C50F0E940F0B089592959F709630DF
:1016400079F010F4925001C09A50923068F4803FC3
:1016500069F018F4883E40F409C0843F29F406C0BC
:10166000883E20F0813F11F080E0089581E00895E8
:10167000FC012481222339F0808191810E94970C02
:101680000E941D0B089580E00895A6E0B0E0EBE411
:10169000FBE00C9467262696E2E00C948326A7E0F4
:1016A000B0E0E5E5FBE00C9467262796E2E00C94B9
:1016B0008326089508950E945A0B08950E945B0B9B
:1016C00008950E945E0B909321028093200208955A
:1016D0000E94610B08952091200230912102822BFB
:1016E000932B0E94610B08952091200230912102DA
:1016F000822393230E94610B089520912002309150
:101700002102822793270E94610B08950E945A0BA1
:1017100008950E94860B90931F0280931E020895E5
:1017200080E090E00E94890B089521E030E0A9015B
:1017300002C0440F551F8A95E2F7CA010E94890B27
:10174000089521E030E002C0220F331F8A95E2F7AE
:1017500080911E0290911F02822B932B0E94890B75
:10176000089521E030E002C0220F331F8A95E2F78E
:101770002095309580911E0290911F028223932321
:101780000E94890B089521E030E002C0220F331F30
:101790008A95E2F780911E0290911F02822793277B
:1017A0000E94890B089520911E0230911F02822B06
:1017B000932B0E94890B089520911E0230911F02E5
:1017C000822393230E94890B089520911E02309159
:1017D0001F02822793270E94890B08950895962F50
:1017E0009770A1E001C0AA0F9A95EAF793E0769569
:1017F00067959A95E1F7660F771F660F771FFA01D5
:10180000E60FF71F40E050E0682F70E090819B01E9
:10181000042E02C0369527950A94E2F7217021958F
:1018200029272A23292721934F5F5F4F44305105F1
:1018300069F70895FB01782F777023E096958795D7
:101840002A95E1F7880F991F880F991FE80FF91F54
:1018500040E050E080E0219130E0072E02C0369554
:1018600027950A94E2F721703327042E01C0220F36
:101870000A94EAF7822B4F5F5F4F4430510559F7C6
:101880000895282F963070F4863060F4862F622FEA
:1018900070E026E0929F600D711D11244AE052E035
:1018A0000E94EF0B0895963070F4863060F4292F73
:1018B00090E06AE072E036E0239F800D911D1124D4
:1018C0000E941A0C089580E00895A0E0B0E0EBE6D5
:1018D000FCE00C9460267C0100911E0210911F0216
:1018E0008091200290912102082B192BCFE0D0E0AB
:1018F000CC24C394D12CC6010C2E02C0880F991F92
:101900000A94E2F780239123892B21F4219798F7F9
:10191000B12C07C0BC2EB7018C2F0E944E1301972B
:10192000A9F38B2DCDB7DEB7E9E00C947C26CF93DD
:10193000DF93EC010E94650CBE010E944E13DF9103
:10194000CF9108951F93CF93DF93EB0190910902FC
:10195000992321F0CB010E94970C13C0882349F0F2
:10196000CB010E94650C182F682FCE010E94410CFC
:1019700004C0CB010E94530C182FBE01812F0E947E
:101980004E13DF91CF911F9108951F93CF93DF9353
:10199000C091220217E080912302C817A1F0D0E085
:1019A0001C9FF0011D9FF00D1124EC5DFD4F208167
:1019B0003181428153816481758186810E944F0B00
:1019C0002196C770E8CFDF91CF911F9108952091A4
:1019D0005C0230915D0240915E0250915F02609125
:1019E000600270916102809162020E944F0B089523
:1019F000CF93DF938091620282958F7009F04EC081
:101A000080916102882309F449C0809122024091AB
:101A1000230250915D0260915C02C0915E02D09100
:101A20005F0277E08417D1F190E0789FF001799F11
:101A3000F00D1124DF01AC5DBD4F14962C9114976D
:101A4000222349F111962C911197251324C02C9132
:101A5000261321C015962C91159721111CC01296A2
:101A60002D913C9113972C1B3D0B2D37310598F48C
:101A7000809162028F70806180936202E65DFD4F0B
:101A800080818F70806180838CE592E00E94E70AFC
:101A90000E94C50C03C001968770C4CFDF91CF911F
:101AA0000895209122029091230257E02917A9F06E
:101AB00030E0529FF001539FF00D1124EC5DFD4F7B
:101AC0007181761306C07081781303C07581741319
:101AD00006C02F5F3F4F2770E9CF80E0089581E077
:101AE0000895A4E1B0E0E7E7FDE00C945D268C01E9
:101AF00086E0F801DE011F9601900D928A95E1F7CC
:101B0000D80114968C9114971596EC909CE5A92E0B
:101B100092E0B92E90916002911118C0882309F4C7
:101B200078C1EE20D9F1C8010E94380BF82E882325
:101B3000A9F187E0F801D50101900D928A95E1F7AE
:101B4000C5010E94EE070E94F80C95C0F801C08004
:101B5000D18082809380F090610220915E0230916A
:101B60005F02A401421B530BFF2009F400C14D3753
:101B7000510508F0ACC0882309F45CC18091620271
:101B8000282F207F90915D02222361F09D1509F49A
:101B90005EC0C8010E94380B811170C0C8010E944C
:101BA000E70A37C19D1116C090915C029C1112C0CA
:101BB000E11010C08F708061809362020E94E70C78
:101BC0008CE592E00E94E70A80916202D8011696A5
:101BD0008C932FC1E11035C040E06D2D8C2D0E94FB
:101BE000510DE82E811118C1CF86D88A8F8598892A
:101BF0000E94970C292F22952F70243020F49F707B
:101C0000223028F009C02A50223080F014C09923D5
:101C100049F0811107C013C0992321F0F801968182
:101C2000907F69F0805E883030F409C0803F38F0E2
:101C3000815F833020F0C8010E94E70AEF2CFE2C60
:101C4000F9C080916202816080936202F2C090913B
:101C50005C029C119ECFE1109CCFD80116968C930C
:101C6000C8010E94E70A87E0F801ACE5B2E0019004
:101C70000D928A95E1F70E94E70CDCC0EE2009F492
:101C80008DCF20916202822F82958F7090E0029713
:101C90008CF080915C0290915D02998788879B8689
:101CA0008A86809160028C871D862E87CE010896D9
:101CB0000E94E70A87E0F801ACE5B2E001900D92DE
:101CC0008A95E1F70E94F80C0E94E70CA2C090915F
:101CD0006202292F207F91F4682D9A8A898AA601B1
:101CE0007A899E2D0E94450B8CE592E00E94E70ABE
:101CF00087E0F50111928A95E9F799C0882309F4E4
:101D000099C080915D028D1110C080915C028C1190
:101D10000CC0E1100AC09683C8010E94E70A87E060
:101D2000F50111928A95E9F785C0C8010E94380B28
:101D3000882309F433CFEE2009F430CF20916202DA
:101D4000822F82958F7090E002970CF4B3CF809130
:101D50005C0290915D029A8389839C828B82809140
:101D600060028D831E822F83CE010196A1CF4D3755
:101D7000510508F040C0882309F44BC0FE2CEE202A
:101D800009F40CCF80915D028D1127C080915C0217
:101D90008C1123C09091620290FD16C0892F82950C
:101DA0008F70282F30E02115310571F0D80196830E
:101DB0002F30310509F454CF8F5F982F9295907F83
:101DC00086818F70892B4ACF87E0F801ACE5B2E0BD
:101DD00001900D928A95E1F72DC0C8010E94380B41
:101DE000811168CF80916202816080936202C80194
:101DF0000E94E70A1FC0682D9A8A898AA6017A89FB
:101E00009E2D0E94450B87E0F50111928A95E9F716
:101E100032CFFF24F3940EC08CE592E00E94E70AD3
:101E2000ECE5F2E087E0DF011D928A95E9F70E9478
:101E3000E70CF12C8F2D6496ECE00C947926AEE043
:101E4000B0E0E5E2FFE00C946626288739874A87F0
:101E50005B876C877D878E87CE0108960E94710D07
:101E6000882361F06C856623A9F1288539854A8528
:101E70005B857D858E850E944F0B2CC087E0FE011F
:101E80003896DE01119601900D928A95E1F76C85E6
:101E9000662301F12091230230E0C9010196877089
:101EA00099274091220250E084179507E1F16D8354
:101EB00097E0929FD001939FB00D1124AC5DBD4F70
:101EC000FE01319601900D929A95E1F780932302DD
:101ED0000E94C50C17E0809122029091230289177D
:101EE00079F1189FC00111248C5D9D4F0E94710DE6
:101EF000882331F1E09122021E9FF0011124EC5D54
:101F0000FD4F2081318142815381648175818681B9
:101F10000E944F0B8091220290E0019687709927D2
:101F200080932202D8CF0E94180B109223021092A5
:101F30002202ECE5F2E087E0DF011D928A95E9F7E5
:101F40002E96E3E00C94822680916B02869586950E
:101F50008695089580916B028770089590916B0229
:101F6000977081E009F480E00895809177020895E8
:101F700090917702892B80937702089580959091B4
:101F8000770289238093770208951092770208954B
:101F900090917602892B8093760208958095909196
:101FA000760289238093760208951092760208952E
:101FB00008950E94D80F08950E94D90F0895909116
:101FC0006D02292F2823821729F0982B90936D02F8
:101FD0000E94DC0F089590916D02292F282331F083
:101FE0008095892380936D020E94DC0F0895809173
:101FF0006D02882329F010926D0280E00E94DC0FB0
:102000000895CF93DF93E0910101F0910201809157
:1020100077028083E0910101F0910201908180912B
:102020007602892B808380916D02882381F0E09174
:102030000101F09102019081892B8083809101013F
:10204000909102010E94F61B81110E94F70FC0912E
:102050000101D091020148E050E063E672E0CE0158
:102060000E948E26892B59F088E0FE01A3E6B2E09B
:1020700001900D928A95E1F7CE010E94B51BDF9188
:10208000CF9108950E94D80F08950E94421008959C
:1020900090916C02292F282331F080958923809319
:1020A0006C020E94451008950E94D80F08959091E7
:1020B0008B0492FF11C098E0899F90011124262B78
:1020C00020936B020E94A10B80916B0286958695EE
:1020D00086950E94541008950E94A10B08951092B5
:1020E0006B0280E00E945410089590916B028095DD
:1020F000892380936B02282F277069F4981759F071
:1021000090918B0492FF07C08695869586950E94D4
:10211000B10B0E946F100895CF9390918B0492FBA6
:10212000222720F92817F9F0C82F892FC0FB82F940
:1021300080938B0480918A0490918B040E94E81014
:1021400082E00E9475108091880280FF0CC01F926F
:10215000CF9387E892E09F938F930E94DB020F90CA
:102160000F900F900F90CF91089580918B0482FB78
:10217000882780F991E089270E948C10089581E0DA
:102180000E948C10089580E00E948C1008956FEFDB
:102190007FEF80E090E00E94E026089580E090E0EC
:1021A0000E94AC2621E0863E9E4F09F020E0822F5F
:1021B000089582E090E00E94A426089583E090E0D4
:1021C0000E94A426089584E090E00E94AC26089521
:1021D000BC0184E090E00E94E0260895AB01BC01C0
:1021E0008FE090E00E94D4260895AB01BC0183E10A
:1021F00090E00E94D426089560E070E0CB010E9438
:10220000F510089560E070E0CB010E94EE100E948E
:10221000FC100895A8E0B0E0E0E1F1E10C9467263D
:1022200066EE7EEF80E090E00E94E02660E082E0D3
:1022300090E00E94C22660E083E090E00E94C22607
:10224000109221021092200260E074E184E090E09C
:102250000E94E02660E086E090E00E94C2266FEFD8
:1022600087E090E00E94C22640E050E0BA0188E09A
:1022700090E00E94D42660E084E290E00E94C226B2
:1022800060E087E190E00E94C22660E08CE090E090
:102290000E94C22660E08DE090E00E94C226198272
:1022A0001A821B821C821D821E821F82188648E0B1
:1022B00050E068E170E0CE0101960E94B22640E055
:1022C00050E0BA0180E290E00E94D4260E94021100
:1022D0002896E2E00C9483260E940A110895682F44
:1022E0008EE090E00E94C2260895A6E0B0E0EBE701
:1022F000F1E10C9465260E94F21C8C018091780219
:10230000909179020817190781F019821A820E94A8
:10231000F21C682F49815A81792F80E090E00E9459
:10232000BB0710937902009378022696E4E00C94A0
:1023300081260E94581460938402709385028093D2
:10234000860290938702609380027093810280934B
:10235000820290938302089581E008950E94B5154A
:10236000089508950E94B11108950E94B111089531
:102370000E94B11108950E94B111089585E09FE176
:102380000E94971B0E94BB110E94310608950E9473
:10239000B2110E94B11108950E948C140E946D0721
:1023A00008950E94E91C0E9432140E94CD150E94DB
:1023B00058150E94CC110E94FC170E94DF150E9444
:1023C0002E060895A6E0B0E0E8EEF1E10C945E265A
:1023D0000E94AC11811103C00E94751153C00E946C
:1023E00018068AE7E82E82E0F82E670100E0F60181
:1023F00011916F01802F0E94AA1481270F5F063070
:1024000019F08823A1F302C0882331F38091880258
:1024100081FD0E94B0140E94AE11A82E10E09924F4
:102420009394812F0E94AA14B82EF701C080C82669
:1024300009F100E0DD24D3948C2D8D21A9F0AA2090
:1024400099F009831A830E94F21C9C838B839D82DE
:1024500091E08B2D8D2109F490E049815A816B81A7
:102460007C818D810E94BB070F5FDD0C063021F758
:10247000F701B0821F5FFFEFEF1AFF0A163089F6EF
:102480000E9499110E94B5150E9480072696EBE0E4
:102490000C947A261F93CF93DF930E945313EC0181
:1024A000C11582E5D807C8F5C11590E5D90708F030
:1024B000BBC0C83ED105C0F4C03ED10508F0DDC0A8
:1024C000C53AD10550F4C430D10508F0D6C02197E3
:1024D00009F0D0C081E090E0D1C0CD3CD10508F436
:1024E000C9C0CE019065CAC0C11580E4D80708F004
:1024F0005AC0C11590E2D90708F0AFC0C11581E0FC
:10250000D80708F4B7C08D2F0E94EF13182FCE0103
:1025100099270E9453131F71ABC0C03892E5D907A9
:1025200020F5C03682E5D80708F061C0C03492E5D6
:10253000D90708F04AC0C03282E5D807F0F54C2F21
:102540004695469590E2499FA0011124C37021E071
:1025500030E0C90102C0880F991FCA95E2F7EA016D
:10256000C82BD92BCE019D6889C0C03C92E5D90704
:1025700068F48C2F8F71C03AD24508F04CC090E0BF
:10258000D82FCC27CE01846F906A78C0C03E82E5F8
:10259000D80708F06FC0CF71DD27DC2FCC27CE0124
:1025A000806F906A6BC0CE0199270E945313CC278D
:1025B000DF70D06A8C2B9D2B61C0CF71D0E0DC2FF7
:1025C000CC27CE01816F906A59C08C2F8F71869570
:1025D000869590E2899F90011124C37081E090E07C
:1025E00002C0880F991FCA95E2F79C6811C08C2F12
:1025F0008F718695869590E2899F90011124C37012
:1026000081E090E002C0880F991FCA95E2F79A68AE
:10261000822B932B33C00E94EF138F7190E0D82F41
:10262000CC27CE0190622AC08C2F8F710E94EF13AD
:1026300095E0D695C7959A95E1F7CF70D0E0DC2F5D
:10264000CC27282F30E084FF05C084E0220F331F01
:102650008A95E1F7D069CE01DBCF8D2F8F710E9473
:10266000EF13182FCE0199270E9453131F71906208
:10267000912B04C080E090E001C0CE01DF91CF91AA
:102680001F910895763038F4663028F4462F672F6E
:102690000E944F06089580E090E008950E94421342
:1026A0000E944A1208958238910569F1B0F481338D
:1026B000910509F475C048F48932910509F467C0A1
:1026C0008A32910509F471C008958533910509F4A2
:1026D00059C089339105B9F00895833E910589F178
:1026E00038F4803E9105D1F0823E910529F108959C
:1026F000863E9105C9F1873E9105D9F1843E910549
:1027000009F06CC027C020918A0420FD57C021FD2C
:1027100055C020918B0423FD5BC0089580918A04ED
:1027200080FD48C080918B0480FF48C080918A045E
:1027300084FD46C083EE51C080918A0482FF3CC074
:10274000F5CF80918A0482FD37C080918B0480FD93
:1027500035C0ECCF80918B0481FF36C080918A0414
:1027600084FD2EC087EE39C080918A0483FF2AC081
:10277000F5CF80918A0483FD25C080918B0481FD73
:1027800023C0ECCF80918A0485FD22C01FC08091B8
:102790008A0485FD1BC080918B0483FF19C00AC089
:1027A00080918A0486FD16C017C080918A0486FD38
:1027B00013C010C089E311C082EE0FC080EE0DC0BF
:1027C00080E00BC086EE09C084EE07C085E305C03B
:1027D00089E203C08AE201C081E390E0089590910C
:1027E0008A0492FF0DC0282F2871283019F4877FA2
:1027F000846006C0282F2471243011F48B7F8860F8
:1028000093FF0DC0282F2871283119F4877E846129
:1028100006C0282F2471243111F48B7E8861209109
:102820008B0420FF0DC0382F3871383019F4877FA2
:10283000816006C0382F3171313011F48E7F88608D
:1028400021FF0DC0282F2871283119F4877E81615E
:1028500006C0282F2171213111F48E7E886194FDEC
:10286000877E08951092860410928704109288043F
:10287000109289040895CF92DF92EF92FF926B013C
:102880007C010E94B51581110EC00E94FE1CC61A63
:10289000D70AE80AF90AC0928604D0928704E09227
:1028A0008804F0928904FF90EF90DF90CF90089514
:1028B0000F931F930E94B515882319F00E94FE1CE8
:1028C0000EC00E94FE1C0091860410918704209186
:1028D000880430918904600F711F821F931F1F911C
:1028E0000F9108950E94C71008950E9418068FE363
:1028F0009CE90197F1F700C000000E94180680E0F3
:102900000E94AA1480FF04C00E9472140E945B1DE2
:1029100008950E94751408950E94CE10811102C07E
:102920000E946C110E94D910809388020E94E310CB
:1029300090938B0480938A040E9489140E94DE1075
:1029400090E00E94680B80911E0290911F020E94ED
:10295000860B0895E82FF0E0EE56FB4F8081089536
:10296000A0E0B0E0E6EBF4E10C9461268BEA92E0A3
:102970000E94420282E9E82E84E0F82EC0E0D0E016
:1029800096EAC92E92E0D92E0EE912E0DF93CF939A
:10299000DF92CF920E94DB0283EA92E00E94420221
:1029A000F70181917F010E9448071F928F931F9327
:1029B0000F930E94DB028CE992E00E944202219672
:1029C0008DB79EB708960FB6F8949EBF0FBE8DBF09
:1029D000C630D105D9F6CDB7DEB7E8E00C947D2638
:1029E00008950E94F01408950E94F11408950E9421
:1029F000F01408950E94F71408950E94B7050895F1
:102A0000A3E0B0E0E6E0F5E10C9465260E94B51580
:102A1000609185048823D1F119821A821B82862F46
:102A200090E08E010F5F1F4FB8018E569B4F0E94A2
:102A3000ED15882389F08091840490E043E050E014
:102A4000B8018E569B4F0E948E2621E0209389026A
:102A5000892B69F410E017C0809189028823D1F393
:102A600083E0F80111928A95E9F710928902E091CA
:102A70008404F0E0EE56FB4F89819A81AB8180831C
:102A80009183A28311E00E94F4140DC070E06E5691
:102A90007B4F8091840490E08E569B4F0E94881655
:102AA0000E94FD1410E0812F2396E4E00C9481260F
:102AB00080910301811102C093E001C090E09093E6
:102AC000850483E0891B809384040E94B805ECE8A8
:102AD000F4E0A2E9B4E011921D9284E0E239F80733
:102AE000D1F783E00E9477150E94FA1408950895A3
:102AF000EF92FF920F931F93CF93DF937C018B0193
:102B0000C42F222349F081E080938C020E94F21CA2
:102B100090938B0280938A0280918C02811102C073
:102B200080E01AC080918A0290918B020E940A1D57
:102B30000597B0F3D0E0AE01B701C8010E948E2620
:102B4000892B39F0AE01B701C8010E949B2681E0B4
:102B500001C080E010928C02CDB7DEB7E6E00C94A5
:102B60007F268FB182958170089580918F028111A7
:102B70000DC00E94BC24811102C082E001C081E02E
:102B800080938F02823011F40E94B72481E09091EB
:102B90008F02913009F080E0089584988C988FE836
:102BA00091E00197F1F700C000000E94B1158093F9
:102BB00003010E94B51581110E94371608950E94E5
:102BC000B515811102C00E943A16089581E09091D6
:102BD00090029A3008F080E00895EF92FF920F93F0
:102BE0001F93CF938C017B01C0919002CA3038F4BF
:102BF000B701C8010E948516811126C00AC08091C4
:102C00008D0290918E020E940A1D843F914080F7B0
:102C100019C0809190028F3F19F08F5F80939002CE
:102C2000809190028A30E0F00E94F21C90938E0214
:102C300080938D028091880280FF04C08DEC92E029
:102C40000E94420280E00DC0CA3040F080918802AC
:102C500080FF04C08AEB92E00E9442021092900230
:102C600081E0CF911F910F91FF90EF9008950E9406
:102C7000311A08950E94341A0895A0E0B0E0E3E408
:102C8000F6E10C9462267901C82F880FDD0B4115FF
:102C90005105A9F0FE0193E0EE0FFF1F9A95E1F7B1
:102CA000EC5FFE4F818192818F569D4F208130E0F5
:102CB0004217530708F49A01A9010E949B26CE01EE
:102CC0000E941C1BD82E8823D1F001151105B9F0E4
:102CD00083E0CC0FDD1F8A95E1F7FE01EC5FFE4F2C
:102CE000438150E00417150708F4A801CC5FDE4FBC
:102CF0006C817D816F567D4FC7010E949B268D2D73
:102D0000CDB7DEB7E7E00C947E260E9490170895B9
:102D10000E94AB170895A4E0B0E0E1E9F6E10C945D
:102D200065266091A4027091A5028091A6029091FF
:102D3000A7020E94191D643671058105910528F1CD
:102D40000E945814DC01CB010296A11DB11D89839C
:102D50009A83AB83BC8300E010E020E030E044E0E5
:102D600050E0BE016F5F7F4F82E00E943D16182F3A
:102D7000882361F00E94FE1C6093A4027093A50258
:102D80008093A6029093A70201C011E0812F2496A0
:102D9000E4E00C948126A0E0B0E0E1EDF6E10C94D3
:102DA0005D267C015B01942E852E69010E94E6154B
:102DB000811103C001E010E002C00AE010E0C1E0B0
:102DC000D0E0B501C701F6010995811129C021960E
:102DD0000C171D078CF0CC9F9001CD9F300D300D4E
:102DE000112480E090E045E34A95F1F70000019658
:102DF00028173907C1F7E5CF90918802892F817094
:102E000090FF0FC08F929F9283E093E09F938F93E8
:102E10000E94DB020F900F900F900F9080E001C096
:102E200081E0CDB7DEB7ECE00C947926A4E0B0E009
:102E3000ECE1F7E10C945F265B01E0903101F0904A
:102E4000320101E010E09E012C5F3F4F40E050E076
:102E500060E070E080E00E943D16182F882309F49E
:102E60003EC067018FEFC81AD80A6091A002709126
:102E7000A1028091A2029091A3020E94191D6436C2
:102E800071058105910518F103E010E09E012F5FA7
:102E90003F4F40E050E060E070E081E00E943D166E
:102EA000182F63E070E0C6010E94FD1791E02C81AD
:102EB000281390E0192329F10E94FE1C6093A002C0
:102EC0007093A1028093A2029093A3020FC063E0CB
:102ED00070E0C6010E94FD179C818913D5CFF701D0
:102EE00081819281A38189839A83AB83112349F0E5
:102EF00089819A81AB8180939D0290939E02A093D9
:102F00009F0280919D0290919E02A0919F02F501E7
:102F100080839183A283812F2496EAE00C947B2600
:102F20000F931F93CF93DF93EC018B0126E137E1E1
:102F300043E351E00E94CB16882341F02BE836E1B1
:102F400040E451E0B801CE010E94CB16DF91CF9151
:102F50001F910F9108950F931F93CF93DF93C0910B
:102F60003101D0913201CE01019623E0FB01DC0159
:102F700001900D922A95E1F763E070E00E94FD1741
:102F800088836C817D818E819F810091990210914F
:102F90009A0220919B0230919C0260177107820770
:102FA000930751F06093990270939A0280939B0269
:102FB00090939C020E943B14DF91CF911F910F913F
:102FC00008950E94821F0E94D1110E948F1F0895B0
:102FD0000E94941F0E94E2110E94B21F08950E9455
:102FE000891C0E94681F0E94BE110E94E1170E9466
:102FF000E8170E94C711FBCF0895FC01680F791FE5
:103000008FEF91E3E617F70771F02191822728E00F
:1030100030E087FF03C0880F892701C0880F215047
:103020003109B9F7EFCF0895CF93DF93FC01DB01AE
:1030300015968C91882309F4DDC09F013057233207
:10304000310508F0D8C0EF010E94E31090938B0483
:1030500080938A04FE01E150F047E232F10520F44A
:10306000EE59FF4F0C94512680918A048160AAC0CA
:1030700080918B048860B2C080918A048260A2C073
:1030800080918A0420C080918A0488609BC08091CE
:103090008B041EC080918B048260A0C080918A0442
:1030A000806190C080918A0480628CC080918A0483
:1030B000806488C00E94180B80918A04806882C056
:1030C00080918A04886084607DC080918B048260D6
:1030D000816084C080918A048E7F74C080918B044B
:1030E000877F7CC080918A048D7F6CC080918A0428
:1030F00020C080918A04877F65C080918B041EC0A8
:1031000080918B048D7F6AC080918A048F7E5AC023
:1031100080918A048F7D56C080918A048F7B52C033
:103120000E94180B80918A048F774CC080918A048A
:10313000877F8B7F47C080918B048D7F8E7F4EC0B1
:1031400080918A0482FB222720F991E0922790FB4C
:1031500082F990FB83F936C080918B04982F90956B
:1031600091708E7F892B90FB81F938C080918A0401
:1031700086FB222720F991E0922790FB86F922C056
:103180000E94180B80918A0487FB222720F991E086
:10319000922790FB87F916C081E001C080E00E9471
:1031A0006F111EC080918A0484FB222720F991E0D0
:1031B000922790FB84F906C080918A04982F9095FD
:1031C00090FB80F980938A040BC080918B0483FB71
:1031D000222720F991E0922790FB83F980938B04BA
:1031E00080918A0490918B040E94E8100E94180B31
:1031F00080E001C081E0DF91CF910895CF93DF930C
:1032000086319C4741F5EB010E94B50F982F8D81C7
:103210002091010130910201882379F09A7A81E0AE
:1032200009F480E08093A802911102C069E201C014
:1032300065E3C9010E94381C0AC08091A80281116F
:1032400002C069E201C065E3C9010E943B1C0E9403
:10325000011080E001C081E0DF91CF9108950F93CC
:103260001F93CF93DF93C42FD22FFC018581882336
:10327000B1F04093AB020E94F21C9093AA0280939B
:10328000A90280E28C0F883008F04DC0C77081E041
:1032900001C0880FCA95EAF70E94F10844C08091E6
:1032A000AB02481330C08091A9029091AA020E94FB
:1032B0000A1D8D37910538F510E21D0FCD17B9F0B5
:1032C00080E28C0F883040F4C77081E001C0880F25
:1032D000CA95EAF70E94F808183010F581E09D2F92
:1032E000977001C0880F9A95EAF70E94F108802F25
:1032F0000E94E7081830B8F4D77081E001C0880F49
:10330000DA95EAF70AC080E28C0F883060F4C77063
:1033100081E001C0880FCA95EAF70E94F80803C04F
:10332000802F0E94E708DF91CF911F910F910895A0
:103330000F93FC01E851FC47E730F10590F5CB0114
:10334000EC57FF4F0C94512606E221EE41EE6AE164
:103350007CE723C007E225EE45EE6BE17CE71DC06C
:1033600006E221EE40EE68E17CE717C007E225EEB9
:1033700044EE69E17CE711C006E221EE42EE6CE129
:103380007CE70BC007E225EE46EE6DE17CE705C069
:1033900008E221E045EE6EE17CE70E942F1980E013
:1033A00008C0FB018581882319F01092AB0201C08F
:1033B00081E00F9108958EE14A9B02C08150E1F7B0
:1033C0004A9BFECF08955A9880E28A95F1F75A9A5F
:1033D0000895FC012AE02A95F1F728E090E080E0CA
:1033E00031E040E14A95F1F7880F4A9B02C08160C5
:1033F000932700C0000040E14A95F1F7215089F77A
:1034000020E12A95F1F729B100C0000030E13A959A
:10341000F1F722FB222720F992272081920F908337
:103420000895A1E0B0E0E7E1FAE10C946326198287
:103430008C017C01E60EF11C0E151F0551F00E9457
:10344000DB19CE0101960E94E919F80181938F01E1
:10345000F3CF81E09981911180E02196E6E00C9410
:103460007F26529A5A9A089552985A9AEA9AE9E609
:10347000F0E080818F7C80830895615091E001C0ED
:10348000990F6A95EAF720E031E0992361F0492F1E
:10349000482319F05A9A232701C05A9840E24A95C6
:1034A000F1F79695F2CF222311F05A9A01C05A985B
:1034B00080E28A95F1F75A980895FF920F931F932F
:1034C000CF93DF93EC018C01060F111DC017D107BC
:1034D00041F0F9900E94E31968E08F2D0E943D1A97
:1034E000F5CFCDB7DEB7E5E00C9480261F920F92A2
:1034F0000FB60F9211240F931F932F933F934F9367
:103500005F936F937F938F939F93AF93BF93EF934B
:10351000FF93CF93DF931F92CDB7DEB719820E943E
:10352000DB19CE0101960E94E919082F0695069530
:103530000695902F96959570202F2570920F292F24
:10354000237096959695920F877089135FC0898135
:1035500081115CC0043008F059C080E18A95F1F710
:103560005A9A529A82E08A95F1F700C05A9888E0F8
:10357000089F80011124D801AC5FBE4F1696ED91D3
:10358000FC9117973097A9F0609131017091320149
:1035900014962D913C911597260F371F11968D91FA
:1035A0009C911297680F791F13964C9113978C91E9
:1035B0000995F801EC5FFE4F6381662351F080911D
:1035C00031019091320124813581820F931F0E9435
:1035D0005D1A0E94E31980E18A95F1F75A98529892
:1035E0005A9A80E18A95F1F7F801EC5FFE4F60810D
:1035F000662351F080913101909132012181328115
:10360000820F931F0E94111A0E94DB190F90DF9105
:10361000CF91FF91EF91BF91AF919F918F917F914A
:103620006F915F914F913F912F911F910F910F904B
:103630000FBE0F901F9018950F931F93CF93DF939A
:10364000843091050CF06DC0EC01F894529A5A98B0
:1036500085E08A95F1F700009C2F969595702C2FA8
:103660002570920F892F83709695969523E0CC0F45
:10367000DD1F2A95E1F7980F8E01092B0E94E319AF
:1036800084E08A95F1F700C068E0802F0E943D1A1F
:1036900080E18A95F1F752985A9A4A9902C000C07F
:1036A000FCCF87E090E04A9B08C0019721F4529A32
:1036B0005A9A789436C000C0F6CFFE01EC5FFE4FF8
:1036C0006381662381F080913101909132012481E0
:1036D0003581820F931F0E94111A811104C0529AE2
:1036E0005A9A78941FC00E94DB1980E28A95F1F7FC
:1036F0005A98529A80E18A95F1F7CC5FDE4F688143
:10370000662351F0809131019091320129813A81F3
:10371000820F931F0E945D1A0E94E319789481E042
:1037200001C080E0DF91CF911F910F910895909398
:103730004D0180934C0108959093AE028093AD02A9
:1037400008950E94B515811103C08091AC020895BF
:10375000E091AD02F091AE02309729F00190F08136
:10376000E02D0995089580E00895EF92FF920F9360
:103770001F93CF93DF93E091AD02F091AE023097AB
:1037800081F18C010280F381E02D099580918802FE
:1037900082FF27C080FF04C081E293E00E944202C2
:1037A000E80118E08BE1E82E83E0F82E8091880292
:1037B00080FF0BC088811F928F93FF92EF920E942F
:1037C000DB020F900F900F900F9011502196111166
:1037D000EDCF8091880280FF04C089E193E00E94D0
:1037E0004202CDB7DEB7E6E00C947F26FC013296AC
:1037F00097E080E0915029F021912223D9F38F5F47
:10380000F9CF0895662349F0FC013296089621917C
:10381000621729F0E817F907D1F780E0089581E0F1
:1038200008959C01FC0132969FEF80E0419146177C
:1038300089F09F3F19F4411101C0982F8F5F8630A6
:10384000A9F79F3F39F0F901E90FF11D97FDFA95AE
:103850006283089508959C012A5F3F4FFC014281D5
:10386000461301C01282019682179307B9F7089593
:103870000E94111C08950E942B1C0895029626E0B8
:10388000FC0111922A95E9F7089508950E94451CBC
:10389000089583E08093AF020E94461C0895811131
:1038A00002C081E001C082E08093AF020E94461C0A
:1038B00008950E944F1C089581E08093AF020E94FA
:1038C000461C08950E945C1C089508950E94651C82
:1038D00008950E94661C08950E94651C08950E9428
:1038E000651C08950E94651C0895CF930E946F1C6B
:1038F0000E9418060E946C1CC0E08C2F0E94AA1423
:10390000811104C0CF5FC630C1F701C081E0CF9103
:10391000089585B7806885BF85B7806885BF08959D
:103920001F920F920FB60F9211248F939F93AF9314
:10393000BF938091B002811113C08091980490913F
:103940009904A0919A04B0919B044196A11DB11DC8
:103950008093980490939904A0939A04B0939B0445
:10396000BF91AF919F918F910F900FBE0F901F90BD
:1039700018958091A004843031F10E943E07109286
:10398000B00220E488E190E00FB6F894A895809307
:1039900060000FBE2093600083B7817F846083BF87
:1039A00083B7816083BF7894889583B78E7F83BF08
:1039B0000FB6F894A89580916000886180936000AC
:1039C000109260000FBE08950E94180B0E944307DA
:1039D000089582E084BD93E095BD9AEF97BD8093F2
:1039E0006E0008952FB7F8948091980490919904EF
:1039F000A0919A04B0919B042FBF08952FB7F8941B
:103A0000609198047091990480919A0490919B041C
:103A10002FBF08959C014FB7F8948091980490911E
:103A20009904A0919A04B0919B044FBF821B930B01
:103A30000895CF92DF92EF92FF922FB7F894C09043
:103A40009804D0909904E0909A04F0909B042FBFC2
:103A5000A7019601261B370B480B590BCA01B90168
:103A6000FF90EF90DF90CF90089578941F920F927F
:103A70000FB60F9211248F939F93AF93BF938091B2
:103A8000980490919904A0919A04B0919B04019696
:103A9000A11DB11D8093980490939904A0939A045A
:103AA000B0939B04BF91AF919F918F910F900FBEE8
:103AB0000F901F90189587E797E7909301088093E0
:103AC00000089AE088E10FB6F894A895809360000A
:103AD0000FBE90936000FFCF9AE088E10FB6F89494
:103AE000A895809360000FBE90936000FFCF8091F7
:103AF000BC020895089508959B019091A00494300C
:103B0000F1F48F708093E9008FEF9091E80081507D
:103B100095FD06C095ED9A95F1F700008111F5CF5E
:103B20008091E80085FF0BC0BA01C90140E050E078
:103B30000E942A208091E8008E778093E800089503
:103B4000CF93DF93EC0148E050E0BC0181E00E949C
:103B50007C1D88E0FE01A4EBB2E001900D928A95F5
:103B6000E1F7DF91CF91089587E493E00E9442024C
:103B700080919F04811109C00E94B5210E941222E8
:103B80008091E20084608093E200089583E493E0F2
:103B90000E94420210929F0408958FE393E00E94D6
:103BA00042020E94621C08958BE393E00E9442024D
:103BB00060919C0481E0611101C080E00E94491C79
:103BC000089587E393E00E9442029091A00481E06F
:103BD000943009F080E060919C040E944F1C08958D
:103BE0002091B2022F5F822F62E30E943126992337
:103BF00019F02093B20208951092B2028091B3029C
:103C0000882371F18091A004843041F58091E9000E
:103C10008F702091EC00922F917020FD90E8892BFD
:103C200092E09093E9009091EB0090FF14C0909186
:103C3000EE0097FF10C09091E80095FF03C010922E
:103C4000F100F9CF9091E80090FF05C09091E80055
:103C50009E779093E8008F708093E9001092B302F2
:103C6000089542E061EC81E00E942E2142E261EC85
:103C700082E00E942E219091A00481E0943009F00E
:103C800080E060919C040E94591C08958091A204D8
:103C9000833009F461C030F4813071F0823009F46E
:103CA0009BC008958A3009F487C08B3009F46CC03A
:103CB000893009F0A9C020C08091A104813A09F09F
:103CC000A3C08091E800877F8093E8008091A504DD
:103CD0009091A604892B21F468E084EB92E003C064
:103CE00060E080E090E070E00E946F208091E8004A
:103CF0008B778093E80008958091A104813209F0C8
:103D000083C08091A5049091A604892B09F07CC002
:103D10008091E800877F8093E8008091E80082FD31
:103D200005C08091A0048111F8CF6EC02091F300EE
:103D30008091F20090E0922B029731F48091F10093
:103D4000813011F0863021F48091F1008093BC0223
:103D50008091E8008B7754C08091A104813A09F0EA
:103D600053C08091A5049091A604892B09F04CC002
:103D70008091E800877F8093E8008091E80080FFD1
:103D8000FCCF8091240137C08091A1048132E1F5FC
:103D90008091A5049091A604892BB1F58091E8004B
:103DA000877F8093E8000E9463218091A304809321
:103DB00024010E94180B08958091A104813221F5FD
:103DC0008091E800877F8093E8000E9463218091C2
:103DD000A4048093BD0208958091A104813AA1F4C6
:103DE0008091E800877F8093E8008091E80080FF61
:103DF000FCCF8091BD028093F1008091E8008E7726
:103E00008093E8000E94632108959FB7F894109270
:103E1000B3029FBF9091A004943009F057C09091D5
:103E2000E9009F703091EC00232F217030FD20E8D5
:103E3000922B22E02093E9002091EB0020FF43C069
:103E40002091EE0027FF3FC02091B102222321F0F4
:103E50002091E80025FF37C01092B10226E0309192
:103E6000E80035FD15C03091A004343061F5309183
:103E7000EB0035FD28C0215021F481E08093B10290
:103E800022C0EFE9FFE03197F1F700C00000E7CF73
:103E90008093F1008091E80085FD0AC08091E800E0
:103EA00080FFFCCF8091E8008E778093E80006C009
:103EB0008FB7F89421E02093B3028FBF9F70909347
:103EC000E90080E008959F709093E9008FEF0895D6
:103ED00084B7877F84BF0FB6F894A895809160005F
:103EE000886180936000109260000FBE90E080E8CF
:103EF0000FB6F89480936100909361000FBE0E940A
:103F00005C1C08950E94B5210E941222E2EEF0E0AE
:103F100080818460808378940E949C2408958CE141
:103F200091E00E949C1B08958091A0048530C9F403
:103F300083E393E00E9442028091A004853079F4EB
:103F40000E94B91C80919E048823B1F30E94751CC5
:103F5000882391F30E9414200E94180BEDCF0E9439
:103F6000E41C089508959A014091A7045091A80473
:103F70000E94BB1F0895492F552743305105C9F0B2
:103F800060F44130510581F04230510509F044C0E0
:103F900082E490E047E753E043C041325105E1F04D
:103FA0004232510549F138C082E190E049EB53E0DB
:103FB00037C099278130910549F028F0029761F5C3
:103FC000EBE4F3E005C0E3E7F3E002C0EBE5F3E088
:103FD000849190E0AF0124C06115710541F061301A
:103FE0007105D1F489E090E042EA53E019C089E01C
:103FF00090E049E853E014C06115710541F061306B
:10400000710551F482E290E04BEC53E009C080E48A
:1040100090E04DEE53E004C080E090E040E050E0DE
:10402000F90151834083089580E189BD82E189BD12
:1040300009B400FEFDCF8091D8008F7D8093D80019
:104040008091E00082608093E0008091E00081FD3B
:10405000FCCF0895A0E0B0E0E0E3F0E20C9461262C
:10406000EC018B017A010E948221811133C0E1149D
:10407000F10439F0F70180819181081B190BC80FF9
:10408000D91FC12CD12C0115110519F18091E8001F
:1040900085FD16C08091E8008E778093E800E114DA
:1040A000F10449F0F70180819181C80ED91ED182B7
:1040B000C08285E00FC00E948221882321F30AC0BC
:1040C00089918093F10001501109FFEFCF1ADF0AA7
:1040D000DACF80E0CDB7DEB7E8E00C947D26209102
:1040E000A7043091A8042617370748F06115710519
:1040F00039F42091E8002E772093E80001C0B9013F
:10410000FC0120E06115710579F18091A0048823FC
:10411000F1F18530F1F18091E80083FD3CC08091A0
:10412000E80082FD2EC08091E80080FFEBCF209157
:10413000F3008091F20090E0922B6115710551F02F
:104140008830910538F421912093F1006150710974
:104150000196F3CF21E0089709F020E08091E80074
:104160008E778093E800CECF2111CFCF0AC0809107
:10417000A004882361F0853061F08091E80083FD20
:104180000AC08091E80082FFF2CF80E0089582E0CB
:10419000089583E0089581E008952091A704309167
:1041A000A8042617370748F06115710539F42091E6
:1041B000E8002E772093E80001C0B901FC0120E05F
:1041C0006115710591F18091A004882309F440C024
:1041D000853009F43FC08091E80083FD3DC08091A7
:1041E000E80082FD2FC08091E80080FFE9CF209198
:1041F000F3008091F20090E0922B6115710559F067
:104200008830910540F424912093F100319661505B
:1042100071090196F2CF21E0089709F020E0809122
:10422000E8008E778093E800CBCF2111CCCF0AC075
:104230008091A004882361F0853061F08091E800CE
:1042400083FD0AC08091E80082FFF2CF80E00895EC
:1042500082E0089583E0089581E00895982F9730D3
:1042600068F59093E900981739F07091EC0020916F
:10427000ED005091F00003C0242F762F50E021FD77
:1042800002C09F5FECCF3091EB003E7F3093EB009C
:104290003091ED003D7F3093ED003091EB003160C7
:1042A0003093EB007093EC002093ED005093F000FE
:1042B0002091EE0027FDE5CF80E008958F70809378
:1042C000E90081E008958091A10487FF11C08091E9
:1042D000E80082FD05C08091A0048111F8CF11C0D3
:1042E0008091E8008B770BC08091A004882349F06F
:1042F0008091E80080FFF8CF8091E8008E7780936E
:10430000E80008952091E4003091E50095E64091A1
:10431000EC00842F817040FF23C08091E80080FD75
:104320001DC08091A004882399F0853099F0809178
:10433000EB0085FD11C04091E4005091E500241789
:10434000350729F3915011F09A01E1CF84E00895E7
:1043500082E0089583E0089581E0089580E0089563
:104360004091E80042FFDDCF08950E9424220E9480
:104370002C22E0EEF0E0808181608083E8EDF0E0C7
:1043800080818F77808319BCA7EDB0E08C918E7F00
:104390008C9380818F7E808310929F0408950F9369
:1043A0001F93CF93DF930E9424220E942C22C8EDFA
:1043B000D0E088818F77888388818068888388812E
:1043C0008F7D888319BC1092A00410929C041092D7
:1043D0009E0410929D0400EE10E0F80180818B7F16
:1043E000808388818160888342E060E080E00E9471
:1043F0002E21E1EEF0E080818E7F8083E2EEF0E01E
:10440000808181608083808188608083F8018081E1
:104410008E7F8083888180618883DF91CF911F9117
:104420000F910895E8EDF0E080818F7E8083E7EDC5
:10443000F0E080818160808384E082BF81E08093AE
:104440009F040E94CF210895E8EDF0E080818E7FE7
:1044500080831092E20008951092DA001092E10039
:1044600008951F920F920FB60F9211242F933F932E
:104470004F935F936F937F938F939F93AF93BF936C
:10448000EF93FF938091E10082FF0BC08091E200E7
:1044900082FF07C08091E1008B7F8093E1000E9442
:1044A000F01D8091DA0080FF1FC08091D80080FF4E
:1044B0001BC08091DA008E7F8093DA008091D90052
:1044C00080FF0DC080E189BD82E189BD09B400FE95
:1044D000FDCF81E08093A0040E94B41D05C019BCEB
:1044E0001092A0040E94C61D8091E10080FF19C0B7
:1044F0008091E20080FF15C08091E2008E7F809362
:10450000E2008091E20080618093E2008091D80017
:1045100080628093D80019BC85E08093A0040E943B
:10452000D41D8091E10084FF30C08091E20084FFBF
:104530002CC080E189BD82E189BD09B400FEFDCFB8
:104540008091D8008F7D8093D8008091E1008F7E8C
:104550008093E1008091E2008F7E8093E200809161
:10456000E20081608093E20080919C04882311F036
:1045700084E007C08091E30087FD02C081E001C0B4
:1045800083E08093A0040E94E11D8091E10083FFFD
:1045900029C08091E20083FF25C08091E100877FE0
:1045A0008093E10082E08093A00410929C048091AB
:1045B000E1008E7F8093E1008091E2008E7F809306
:1045C000E2008091E20080618093E20042E060E0DE
:1045D00080E00E942E218091F00088608093F0009E
:1045E0000E94CD1DFF91EF91BF91AF919F918F914F
:1045F0007F916F915F914F913F912F910F900FBEDF
:104600000F901F9018951F920F920FB60F921124C2
:104610002F933F934F935F936F937F938F939F93CA
:10462000AF93BF93CF93DF93EF93FF93C091E900D4
:10463000CF708091EC00D82FD17080FDD0E810921F
:10464000E9008091F000877F8093F00078940E94C9
:1046500047231092E9008091F00088608093F00079
:10466000CD2BCF70C093E900FF91EF91DF91CF91F7
:10467000BF91AF919F918F917F916F915F914F917A
:104680003F912F910F900FBE0F901F901895AAE2A7
:10469000B0E0EDE4F3E20C946626E1EAF4E0809108
:1046A000F100819324E0E93AF207C9F70E94461E1F
:1046B0008091E80083FF2EC18091A1049091A20413
:1046C000492F50E04A30510508F024C1FA01E5575E
:1046D000FF4F0C945126803821F0823809F01AC11E
:1046E00008C080919D0490919E04992389F0826076
:1046F0000FC08091A5048F70873008F00BC18093A4
:10470000E9008091EB0085FB882780F91092E90091
:104710009091E800977F9093E8008093F1001092C9
:10472000F100D1C0282F2D7F09F0F4C0882319F0A3
:10473000823061F0EFC08091A304813009F0EAC0BB
:10474000933009F080E080939E042EC08091A304F2
:1047500081112AC08091A5048F702FEF280F263079
:1047600008F0D8C08093E9002091EB0020FF1CC026
:10477000933021F48091EB00806214C09091EB00A3
:1047800090619093EB0021E030E0A90102C0440F5A
:10479000551F8A95E2F74093EA001092EA00809153
:1047A000EB0088608093EB001092E9008091E800B4
:1047B000877F8093E8000E946321ACC08111AAC06A
:1047C0001091A3041F778091E3008078812B809360
:1047D000E3008091E800877F8093E8000E946321D6
:1047E0008091E80080FFFCCF8091E3008068809397
:1047F000E300111102C082E001C083E08093A004B5
:1048000089C08058823008F085C08091A3049091BF
:10481000A4048C3D53E0950779F583E08A838AE20E
:1048200089834FB7F894DE01139620E03EE051E211
:10483000E32FF0E050935700E49120FF03C0E2958E
:10484000EF703F5FEF708E2F90E0EA3010F0C79668
:1048500001C0C0968D939D932F5F243149F74FBFC0
:104860008091E800877F8093E8006AE270E0CE01E3
:1048700001960E946F2016C06091A5047091A60455
:10488000AE014F5F5F4F0E94B31FBC01892B09F43B
:1048900041C09091E800977F9093E80089819A81C8
:1048A0000E94CD208091E8008B778093E80032C091
:1048B000803881F58091E800877F8093E8008091BF
:1048C0009C048093F1008091E8008E7772CF811173
:1048D00021C08091A3049091A40499270297D4F455
:1048E0008091E800877F8093E8008091A304809303
:1048F0009C040E94632180919C04811106C08091D8
:10490000E30087FD02C081E001C084E08093A00441
:104910000E94311E8091E80083FF0AC08091E80068
:10492000877F8093E8008091EB0080628093EB00AA
:10493000AA96E3E00C948226CF938091A00488236A
:10494000A1F0C091E900CF709091EC00892F8170A7
:1049500090FD80E8C82B1092E9008091E80083FD6B
:104960000E944723CF70C093E900CF9108950E9421
:10497000B5211092A0040895E8EDF0E080818061F7
:1049800080838AE18A95F1F700C08091D900817017
:1049900008955058BB27AA270E94E1240C948A2529
:1049A0000E947C2538F00E94832520F039F49F3F37
:1049B00019F426F40C9479250EF4E095E7FB0C9499
:1049C0007325E92F0E949B2558F3BA1762077307D6
:1049D0008407950720F079F4A6F50C94BD250EF414
:1049E000E0950B2EBA2FA02D0B01B90190010C01FF
:1049F000CA01A0011124FF27591B99F0593F50F417
:104A0000503E68F11A16F040A22F232F342F44276E
:104A1000585FF3CF469537952795A795F040539566
:104A2000C9F77EF41F16BA0B620B730B840BBAF036
:104A30009150A1F0FF0FBB1F661F771F881FC2F7A1
:104A40000EC0BA0F621F731F841F48F487957795B5
:104A50006795B795F7959E3F08F0B0CF9395880F6F
:104A600008F09927EE0F979587950895E89409C067
:104A700097FB3EF490958095709561957F4F8F4F91
:104A80009F4F9923A9F0F92F96E9BB279395F695A7
:104A9000879577956795B795F111F8CFFAF4BB0F25
:104AA00011F460FF1BC06F5F7F4F8F4F9F4F16C089
:104AB000882311F096E911C0772321F09EE8872F13
:104AC000762F05C0662371F096E8862F70E060E0CF
:104AD0002AF09A95660F771F881FDAF7880F969548
:104AE000879597F9089597F99F6780E870E060E0EF
:104AF00008959FEF80EC089500240A941616170677
:104B000018060906089500240A94121613061406BE
:104B100005060895092E0394000C11F4882352F021
:104B2000BB0F40F4BF2B11F460FF04C06F5F7F4FD9
:104B30008F4F9F4F089557FD9058440F551F59F0C0
:104B40005F3F71F04795880F97FB991F61F09F3F7A
:104B500079F087950895121613061406551FF2CFA3
:104B60004695F1DF08C0161617061806991FF1CFF3
:104B700086957105610508940895E894BB2766271A
:104B80007727CB0197F908950E94D7250C948A25A1
:104B90000E947C2538F00E94832520F0952311F097
:104BA0000C9473250C94792511240C94BE250E9435
:104BB0009B2570F3959FC1F3950F50E0551F629FA1
:104BC000F001729FBB27F00DB11D639FAA27F00D66
:104BD000B11DAA1F649F6627B00DA11D661F829F8D
:104BE0002227B00DA11D621F739FB00DA11D621F72
:104BF000839FA00D611D221F749F3327A00D611D8F
:104C0000231F849F600D211D822F762F6A2F112470
:104C10009F5750409AF0F1F088234AF0EE0FFF1FA3
:104C2000BB1F661F771F881F91505040A9F79E3FFA
:104C3000510580F00C9473250C94BE255F3FE4F37E
:104C4000983ED4F3869577956795B795F795E79550
:104C50009F5FC1F7FE2B880F911D9695879597F959
:104C60000895991B79E004C0991F961708F0961BC8
:104C7000881F7A95C9F780950895AA1BBB1B51E13F
:104C800007C0AA1FBB1FA617B70710F0A61BB70BBC
:104C9000881F991F5A95A9F780959095BC01CD0161
:104CA0000895EE0FFF1F0590F491E02D09942F92C7
:104CB0003F924F925F926F927F928F929F92AF92AC
:104CC000BF92CF92DF92EF92FF920F931F93CF93F9
:104CD000DF93CDB7DEB7CA1BDB0B0FB6F894DEBF90
:104CE0000FBECDBF09942A88398848885F846E84B6
:104CF0007D848C849B84AA84B984C884DF80EE8000
:104D0000FD800C811B81AA81B981CE0FD11D0FB608
:104D1000F894DEBF0FBECDBFED010895FB01DC01AD
:104D200004C08D910190801921F441505040C8F782
:104D3000881B990B0895FB01DC0102C001900D92C4
:104D400041505040D8F70895F999FECF92BD81BDEA
:104D5000F89A992780B50895A8E1B0E042E050E0C4
:104D60000C94E826DC01A40FB51F4150504048F0D8
:104D7000CB01840F951F2E910E94C32641505040B5
:104D8000D0F70895262FF999FECF92BD81BDF89AEC
:104D9000019700B4021639F01FBA20BD0FB6F8947F
:104DA000FA9AF99A0FBE08950396272F0E94C326F8
:104DB0000E94C226252F0E94C326242F0C94C326AE
:104DC0000196272F0E94C3260C94C226DC01CB013A
:104DD000FC01F999FECF06C0F2BDE1BDF89A31960B
:104DE00000B40D9241505040B8F70895F894FFCFA9
:104DF000406E0201000000010000000000000003FE
:104E0000010000000404000000000000771DA01D48
:104E10007A1D7B1D013632330100030507029466BB
:104E2000979102736C6176655F6D61747269780049
:0C4E300073796E635F74696D6572000039
:00000001FF
