:100000000C94B9010C94D6010C94D6010C94901B5D
:100010000C94D6010C94D6010C94D6010C94D60104
:100020000C94D6010C94D6010C94D2210C94A422E9
:100030000C940E1A0C94D6010C94D6010C94D60193
:100040000C94D6010C94D6010C94D6010C94D601D4
:100050000C94D6010C94B31A0C94D6010C94D601CE
:100060000C94D6010C94D6010C94D6010C94D601B4
:100070000C94D6010C94D6010C94D6010C94D601A4
:100080000C94D6010C94D6010C94D6010C94D60194
:100090000C94D6010C94D6010C94D6010C94D60184
:1000A0000C94D6010C94D6010C94D6015B085B0825
:1000B00087088708CC09CC09CC09CC09DD0853098D
:1000C00064096409B9172B18C1178B178F17C51747
:1000D0009217C817D3179D172118A117D717A5175F
:1000E000DB170518A917DF170F18AF17E517EF175C
:1000F0009617CC179917CF17B417EA17FB171B18C9
:100100001D188717BD173418CE18D418C218C81870
:10011000DA18E018E6180C2333232B2433232B247E
:100120007F23A2232B24F92308240A00253464000A
:100130000A000000000000000000000000000000B5
:1001400000000000000000000000000000000000AF
:10015000000000000000000000000000000000009F
:10016000000000000000000000000000000000008F
:100170000000000000000000000044454255473ADE
:100180002064697361626C65642E0A0044454255BF
:10019000473A20656E61626C65642E0A000A00258C
:1001A000303258006C65645F7461736B3A20004FA5
:1001B0006E6573686F743A206163746976653A207E
:1001C00025640A000A0025303862003A20002530F4
:1001D0003258000A722F63203031323334353637CB
:1001E0000A0054617267657420636F6E6E65637494
:1001F00065640D0A005461726765742064697363F5
:100200006F6E6E65637465642C207468726F7474AD
:100210006C696E6720636F6E6E656374696F6E20C4
:10022000617474656D7074730D0A004661696C6564
:100230006420746F20657865637574652025730A82
:10024000000A002530325820006B6579626F6172B8
:10025000645F7265706F72743A2025303258207C6A
:10026000200073757370656E64696E67206B6579C5
:10027000626F6172640D0A005B575D005B535D0045
:100280005B525D005B445D005B435D000E036D00EF
:1002900069006E00690065006300000016036700D6
:1002A0006F0072006F00700069006B0061007200E7
:1002B000690000000403090409024200020100A0D1
:1002C000FA090400000103010100092111010001E4
:1002D000224400070581030800010904010002030C
:1002E00000000009211101000122220007058203FC
:1002F0002000010705020320000112010002000096
:100300000008EDFE01000001010200010631FF09B5
:1003100074A1010975150026FF009520750881025A
:100320000976150026FF00952075089102C0050189
:100330000906A101050719E029E71500250195081F
:10034000750181029501750881010507190029FFD2
:10035000150026FF0095067508810005081901297A
:10036000051500250195057501910295017503910B
:1003700001C011241FBECFEFDAE0DEBFCDBF11E018
:10038000A0E0B1E0E2E3FDE402C005900D92AE34DE
:10039000B107D9F724E0AEE4B1E001C01D92AC3A58
:1003A000B207E1F70E940F170C9497260C940000F7
:1003B000FF93EF93E0914E01F0914F01309709F0D8
:1003C0000995EF91FF910895FC018591803011F01E
:1003D000EFDFFBCF0895FF27E0E230E247FF0CC0DC
:1003E000419597FF09C0EDE26095709580959095D5
:1003F000611D711D811D911D27FF02C0219530E3F4
:1004000050E2AA27660F771F881F991FAA1FA417FB
:1004100010F0A41B63955A95A9F7AA3008F0A95FBC
:10042000A05DAF93F395611571058105910541F7C5
:10043000ED3211F4EF93F395F21718F43F93F3951F
:10044000FBCF8F91B5DFFA95E1F70895E991F99126
:100450008591803021F0853219F0AADFF9CF089517
:1004600020E0E89455915532C1F3503311F468946B
:1004700055915A3348F4505390F3220F022E220F15
:10048000220F200D250FF4CF0EF42195899199911B
:10049000533619F3533729F1533559F1BC018827E5
:1004A0009927E8945C3621F4899199916894559143
:1004B000543639F446EF7EF077FF0DC08FEF9FEF93
:1004C0000AC055374AE039F0583540E121F052363C
:1004D00042E009F00895FF93EF937DDFEF91FF91E4
:1004E000B7CFFF93EF93FC0181918030B9F360DFC8
:1004F000FBCFFF93EF9368DFF1CFDF93CF93CDB7BF
:10050000DEB72596A3DFCF91DF9108954F925F92DA
:100510006F927F928F929F92AF92BF92CF92DF9213
:10052000EF92FF92CF93DF93EC016A017B01888900
:10053000882349F0488759876A877B874C875D877E
:100540006E877F87188A8C809D80AE80BF802885CB
:1005500039854A855B85C501B4010E9465252B015B
:100560003C01A5019401C701B6010E9465259B01CC
:10057000AC01C301B2010E946B244B015C012C85CC
:100580003D854E855F85688179818A819B810E9446
:1005900065259B01AC01C501B4010E946B24C8868E
:1005A000D986EA86FB866C877D878E879F87DF9159
:1005B000CF91FF90EF90DF90CF90BF90AF909F9042
:1005C0008F907F906F905F904F900895A4E0B0E07F
:1005D000ECEEF2E00C94082669837A838B839C838B
:1005E00089819A81AB81BC81892B8A2B8B2B61F00D
:1005F00089819A81AB81BC810197A109B109898365
:100600009A83AB83BC83ECCF2496E2E00C9424263F
:10061000219AE62FF0E0E65DFE4F908190FF02C048
:100620002E9A01C02E9891FF02C02A9A01C02A98E2
:1006300092FF02C02B9A01C02B98A0E3B1E061E0C9
:1006400070E021E0A333B20789F09D91E92FE29594
:10065000EF70F0E022A19F70AB0101C0440F9A95AA
:10066000EAF7942F9095922392A3EBCFF8942198D8
:100670002998E82FF0E0E05DFE4F9081E92FE295A8
:10068000EF70F0E032A1292F2F7081E090E001C0DF
:10069000880F2A95EAF7832B82A386EF0E940C1D10
:1006A0007894811524E0920728F49695879596957D
:1006B000879508958FEF90E00895A4E0B0E0E3E619
:1006C000F3E00C94FE2519821A821B821C82898118
:1006D0009A81AB81BC8100E010E036E0E32EF12C82
:1006E000C801B7010E94DE250E940803A0E0B0E027
:1006F00089839A83AB83BC836AE070E080E090E0FA
:100700000E94E6020F5F1F4F0231110549F794E185
:10071000A92EB12C26E0822E912C80E5C82E81E0F6
:10072000D82E760100E010E0C801B4010E94DE2559
:100730000E940803D7012D913C91820F931FF7016E
:10074000819391937F016AE070E080E090E00E94E5
:10075000E6020F5F1F4F0231110531F7F1E0AF1ACA
:10076000B108D9F6E5E0F4E020E530E0D6018D915E
:100770009D916D018115B0E59B0720F4B9010E94A0
:10078000DE2501C06FEF608316826183628363831D
:1007900064836583379644E0E338F40739F7249699
:1007A000ECE00C941A26FC0198E4ACEBB1E001906B
:1007B0000D929A95E1F72998219A80E40E94B11C44
:1007C000A0E3B1E041E050E071E0A333B707B1F03E
:1007D0008D91E82FE295EF70F0E021A18F70BA01C2
:1007E00002C0660F771F8A95E2F7CB01922F982BF4
:1007F00091A392A18095892382A3E6CFA7E2B1E0DD
:1008000021E030E071E0AA32B70789F08D91E82F3E
:10081000E295EF70F0E041A18F70B90102C0660F60
:10082000771F8A95E2F7CB01842B81A3EBCF219828
:1008300029980E945D0380E090E008950F931F9334
:10084000CF93DF93FC015081A42FB0E0E52FF0E0BF
:10085000042E02C0F595E7950A94E2F7062F10E002
:10086000E0FF1BC0E6E0E09FB001E19F700D1124A6
:10087000A60FB71FAA0FBB1FA454BE4F6D917C914A
:100880002617370708F045C021E030E001C0220FED
:100890004A95EAF72095252327C0E62FEE0FE60FAD
:1008A000E40FCE2FD0E067E0E69FF0011124EB5F6C
:1008B000FB4FE081F6E0F09FB001F19F700D112435
:1008C000A60FB71FAA0FBB1FA052BE4F6D917C9100
:1008D0006E0F711D6217730758F421E030E001C0FC
:1008E000220F4A95EAF7252BFC01208381E012C0F4
:1008F000B90180E090E00E94D724AB01BC0121E166
:100900002C9FC0012D9F900D11248D529D4F0E9450
:10091000860280E0DF91CF911F910F910895A0E0B2
:10092000B0E0E5E9F4E00C9400265C0184E7C82E11
:1009300081E0D82E10E000E07601C0E0D0E0612F29
:100940008C2F0E940803F701918380839C01412F23
:100950006C2FC5018C0F9D1F0E941E04082B219631
:10096000FCE0EF0EF11CC330D10549F782E0C80E60
:10097000D11C1F5F163001F7802FCDB7DEB7EAE03C
:100980000C941C26A0E0B0E0E8ECF4E00C94022605
:10099000C4E7D1E08CE2E82E81E0F82E9AE2C92E7D
:1009A00091E0D92E81E0C839D807F1F000E010E0DD
:1009B000FE01E00FF11F81818F9380818F93FF9261
:1009C000EF920E947D020E5F1F4F0F900F900F90CD
:1009D0000F900C30110561F7DF92CF920E947D02DB
:1009E0002C960F900F90DECFCDB7DEB7E8E00C94D9
:1009F0001E260895A8E4B0E0E0E0F5E00C94062699
:100A000055985D98209828980E94ED149E012F5FBC
:100A10003F4FBE016B5D7F4FC901A9E1B0E003E22A
:100A200010E0F90140E050E0A193B19313A302A3B9
:100A30004F5F5F4F46305105B9F7245F3F4F261790
:100A4000370779F7209102010E94D30380910201B8
:100A5000811102C093E001C090E09093880483E08C
:100A6000891B809387040E94FF14C85BDF4FE4E07A
:100A70000C942226CF930E948F04C82F80910402E9
:100A8000909105029C012F5F3F4F8C32914029F0DD
:100A900030930502209304020AC0109205021092BE
:100AA00004020E94C20480E391E00E94E4018C2FC2
:100AB000CF910895CF938FE894E00E943A05C82F14
:100AC0006091880470E06B567B4F282F43E08FE8DD
:100AD00094E00E9496140E941E148C2FCF910895CA
:100AE0000E94C71008950E94CA100895811112C073
:100AF000663080F4463070F4E42FF0E086E0689FC2
:100B0000E00DF11D1124EE0FFF1FEE5CFE4F8591ED
:100B10009491089581E090E008950E9476050895EB
:100B200081E0089581E008950E94920508950E9451
:100B3000940508950E949205089508950E949D05C8
:100B40000895A6E0B0E0E7EAF5E00C9407264983B3
:100B50005A839E8330910B0289819A81311115C08D
:100B60003E81332359F0222349F00E947E0B182F37
:100B7000682F89819A810E945A0B03C00E946C0BD6
:100B8000182F69817A81812F04C00E947E0B6981B0
:100B90007A810E9454122696E3E00C942326FC01ED
:100BA000262F4081518162817381848195810E94C9
:100BB000A1050895CF93DF93EC0161E00E94CF057A
:100BC000BE010E949705DF91CF910895CF93DF93E7
:100BD000EC0160E00E94CF05BE010E949E05DF91FE
:100BE000CF91089581E008950E94F2050895CF9372
:100BF000C82F0E94310A8C2F0E94F4052FEF84E346
:100C00009CE0215080409040E1F700C00000CF916F
:100C1000089581E00E94F7050E94D91A089580E0A6
:100C20000E94F7050E94EA1A08950F931F93CF932D
:100C3000DF938C0161E00E94CF05EC01B8010E94B6
:100C40009A05882309F45BC0B801CE010E94B6184A
:100C5000882309F454C0B801CE010E946317882389
:100C600009F44DC0B801CE010E943917882309F458
:100C700046C0F80185818823E9F1C3308CE7D807A5
:100C800079F158F4C130FCE7DF0761F1A0F4C11538
:100C9000DC4781F50E94090632C0CB35FCE7DF074F
:100CA00039F1CC358CE7D80701F1CA35DC4711F5AD
:100CB0000E94CF0F1FC080918A02C82FC095C170BB
:100CC000C0FB80F980938A02CC2329F08CE891E064
:100CD0000E94E40114C08AE791E00E94E40110C080
:100CE0000E94D70F0E940F060AC00E94C50F02C0C3
:100CF0000E94D30FC8010E949005C82F01C0C0E018
:100D00008C2FDF91CF911F910F9108950E94E719C9
:100D10000E94BF0608950E94C3060E94F01908951C
:100D20008295982F937344E0949F900111248C7CBA
:100D300086958695282B822F8575880F2A7A269589
:100D4000822B0895089581E008950895CF93DF934D
:100D5000D82F0E94A306C82F882319F08D2F0E9438
:100D6000A5068C2FDF91CF9108950895CF93C82FBA
:100D70000E94A2068C2F0E94A606CF91089580E0C3
:100D80000E94B60608950E94FE180E94B6060895B5
:100D9000CF930E94FE18C82F80910602C81789F1D0
:100DA000C09306020E947C1A6093070270930802A7
:100DB0008093090290930A0280918A0282FF1EC0EA
:100DC00080FF04C084EA91E00E94E40180918A02DD
:100DD00080FF0CC01F92CF938FE991E09F938F9378
:100DE0000E947D020F900F900F900F9080918A02C9
:100DF00080FF04C08DE991E00E94E4018C2F0E94E5
:100E0000B606CF910895ADE0B0E0E9E0F7E00C94CC
:100E10000826488759876A877B878C879D87911129
:100E20000E94ED0ECE01019627E0FC0111922A9559
:100E3000E9F726E0FE013896DC0101900D922A9533
:100E4000E1F72D8121110AC029813A814B815C8112
:100E50006D817E818F810E94370E04C00E94DA0569
:100E60008111F2CF2D96E2E00C942426FC0124811E
:100E7000213021F4808191810E94B00B0895CF939D
:100E8000882309F465C0C82F8238A1F40E94121982
:100E900081FD5EC089E30E94A8190E944F0F2FEFC9
:100EA00087EE93E0215080409040E1F700C00000C1
:100EB00089E32BC08338A1F40E94121980FD48C039
:100EC00083E50E94A8190E944F0F2FEF81EE94E056
:100ED000215080409040E1F700C0000083E515C03C
:100EE0008438B1F40E94121982FD32C087E40E9456
:100EF000A8190E944F0F2FEF81EE94E021508040FF
:100F00009040E1F700C0000087E40E94B0191EC0C5
:100F10008CEF8C0F813A70F48C2F0E946D1988230E
:100F200029F08C2F0E94B0190E944F0F8C2F0E9425
:100F3000A8190CC080E28C0F883050F4C77081E093
:100F400001C0880FCA95EAF70E94D00E0E944F0F89
:100F5000CF9108958823E9F1823859F40E9412193B
:100F600081FF37C089E30E94A8190E944F0F89E3CF
:100F70001EC0833859F40E94121980FF2AC083E5ED
:100F80000E94A8190E944F0F83E511C0843859F4BC
:100F90000E94121982FF1DC087E40E94A8190E94B6
:100FA0004F0F87E404C09CEF980F913A18F40E9409
:100FB000B0190DC090E2980F983058F4877091E006
:100FC00001C0990F8A95EAF7892F0E94D60E0E94D8
:100FD0004F0F08951F93CF93DF93182FEB010E94BB
:100FE0003F07209741F08FE99FE00197F1F700C09C
:100FF00000002197F6CF812F0E94AA07DF91CF91A1
:101000001F910895893319F065E070E002C060E532
:1010100070E00E94EA070895882321F00E94D00E14
:101020000E944F0F0895882321F00E94D60E0E943F
:101030004F0F0895A0E0B0E0E0E2F8E00C94022643
:101040007C01D62FC72FFC011581068102950F70F8
:101050000E94C60E8823F9F01123E9F08C2F807FBF
:10106000803461F080E28D0F8830A8F08C2F807E74
:10107000803221F4D23078F0002369F080918E0420
:1010800082FF09C082E00E94850F0E94C60E91E097
:10109000D82ED92601C0D12CCC2EC2948FE0C822E4
:1010A0008C2D90E08C30910508F076C1FC01EA5A55
:1010B000FF4F0C94F2258C2F807FCF70882311F086
:1010C000C295C07F112399F0CC2309F44CC180E272
:1010D0008D0F883010F0D11104C08C2F0E94D00EDB
:1010E00003C08C2F0E94E00E0E944F0F3CC18D2F39
:1010F0000E94AA07CC2309F44FC180E28D0F8830EB
:1011000038F1DD2329F18C2F0E94E60E24C08C2FAC
:10111000807FCF70803211F0C295C07FDD2319F03F
:10112000D13099F13CC080918E0482FD17C011230B
:1011300049F0CC2329F08C2F0E94D00E0E944F0F33
:1011400080E012C180E00E94AA07CC2309F424C1E8
:101150008C2F0E94D60E0E944F0F1EC1112349F002
:10116000002309F1013009F017C18C2F0E94F70EFE
:1011700013C1011111C18C2F0E9413088C2F0E94E2
:10118000030F8C2F0E94580F07C1112321F0063046
:1011900008F002C108C0053008F0FEC00AC01123E3
:1011A00031F00111E0C08C2F0E940C08F5C0011134
:1011B000E0C08C2F0E941308EFC08C2F8370B1F514
:1011C0001111EEC04D2F429546954770440F440FC4
:1011D0008D2F8F7090E09C01042E02C0220F331FD0
:1011E0000A94E2F7D4FF0AC08FE090E002C0880FB3
:1011F000991F4A95E2F78095909502C080E090E0B3
:10120000C695C695C370822B932BC23049F058F413
:10121000C13019F00E948D0AC3C00E94840AC0C068
:101220000E94960ABDC00E94810ABAC0112319F01B
:101230008C2F817001C08695882309F4B1C04D2F91
:10124000429546954770440F440F8D2F8F7090E064
:101250009C01042E02C0220F331F0A94E2F7D4FF30
:101260000AC08FE090E002C0880F991F4A95E2F70C
:101270008095909502C080E090E0C695C695C370B9
:10128000822B932BC23049F058F4C13019F00E94E0
:10129000F50A86C00E94EC0A83C00E94FE0A80C044
:1012A0000E94A20A7DC0CF70112339F08C2F0E94BA
:1012B000BA0A8D2F0E940C0873C08D2F0E9413084C
:1012C0008C2F0E94CA0A6CC0D23F21F128F4D03F73
:1012D00041F0D13FC1F043C0D33F19F1D43F79F081
:1012E0003EC0112341F0053008F056C08C2F8F719D
:1012F0000E94DC0A51C0063008F04EC0F7CF809142
:101300008E0482FD18C0112339F08C2F8F710E943A
:10131000BA0A42C01123C9F38C2F8F710E94CA0AE6
:101320003BC0112329F08C2F8F710E94AE0A34C06C
:101330000E94A90A31C0112349F0CF718C2F0E945D
:10134000BA0A63E08C2F0E94670F26C081E00E94DA
:10135000850F023008F182E00E94850F1DC0112325
:1013600031F0002391F28D2F0E943F0715C000231A
:1013700099F2D93341F4FFEF27EE83E0F15020409A
:101380008040E1F704C0EFE1FEE43197F1F700C0DF
:1013900000008D2F0E94AA0788EF8C0D843020F466
:1013A0000E94FE180E94B606DD2089F00E94C20E3F
:1013B00080FD0DC0F70115820E94BC0E0E94BA0A82
:1013C000C7010E94040A0E94BC0E0E94CA0ACDB73F
:1013D000DEB7E8E00C941E260F931F93CF93DF93A4
:1013E000EC01688179818D810E94BB0B8C010E9488
:1013F000070B0E94720AB801CE010E941A08DF9101
:10140000CF911F910F910895CF93DF93FC01248119
:101410002223D1F0EC010E94150681110FC00E9419
:10142000C60E882389F08D81882371F080918E0407
:1014300082FF0AC082E00E94850F06C0CE010E9492
:10144000EC09CE010E94E605DF91CF9108950E943C
:10145000ED0E0E944F0F08950E94B8190E94270AAE
:1014600008950E94DD0E0E942C0A089592959F70A7
:10147000963079F010F4925001C09A50923068F48E
:10148000803F69F018F4883E40F409C0843F29F495
:1014900006C0883E20F0813F11F080E0089581E091
:1014A0000895FC012481222339F0808191810E94DA
:1014B000B00B0E94360A089580E00895A6E0B0E0DF
:1014C000E4E6FAE00C9408262696E2E00C94242642
:1014D000A7E0B0E0EEE6FAE00C9408262796E2E0FA
:1014E0000C942426089508950E94730A08950E947A
:1014F000740A08950E94770A90932302809322022F
:1015000008950E947A0A08952091220230912302C0
:10151000822B932B0E947A0A089520912202309107
:101520002302822393230E947A0A089520912202A3
:1015300030912302822793270E947A0A08950E94FD
:10154000730A08950E949F0A9093210280932002BB
:10155000089580E090E00E94A20A089521E030E022
:10156000A90102C0440F551F8A95E2F7CA010E94E3
:10157000A20A089521E030E002C0220F331F8A95AD
:10158000E2F78091200290912102822B932B0E94FE
:10159000A20A089521E030E002C0220F331F8A958D
:1015A000E2F72095309580912002909121028223CC
:1015B00093230E94A20A089521E030E002C0220F86
:1015C000331F8A95E2F780912002909121028227B1
:1015D00093270E94A20A08952091200230912102AF
:1015E000822B932B0E94A20A089520912002309111
:1015F0002102822393230E94A20A089520912002AF
:1016000030912102822793270E94A20A089508950B
:10161000962F9770A1E001C0AA0F9A95EAF793E080
:10162000769567959A95E1F7660F771F660F771F96
:10163000FA01E60FF71F40E050E0682F70E090815C
:101640009B01042E02C0369527950A94E2F721707B
:10165000219529272A23292721934F5F5F4F443063
:10166000510569F70895FB01782F777023E096956F
:1016700087952A95E1F7880F991F880F991FE80F22
:10168000F91F40E050E080E0219130E0072E02C0D9
:10169000369527950A94E2F721703327042E01C06E
:1016A000220F0A94EAF7822B4F5F5F4F44305105B7
:1016B00059F70895282F963070F4863060F4862FFD
:1016C000622F70E026E0929F600D711D11244CE0A6
:1016D00052E00E94080B0895963070F4863060F452
:1016E000292F90E06CE072E036E0239F800D911D81
:1016F00011240E94330B089580E00895A0E0B0E02B
:10170000E4E8FBE00C9401267C010091200210919A
:1017100021028091220290912302082B192BCFE005
:10172000D0E0CC24C394D12CC6010C2E02C0880F6B
:10173000991F0A94E2F780239123892B21F42197A2
:1017400098F7B12C07C0BC2EB7018C2F0E946012F5
:101750000197A9F38B2DCDB7DEB7E9E00C941D26D8
:10176000CF93DF93EC010E947E0BBE010E946012BA
:10177000DF91CF9108951F93CF93DF93EB01909169
:101780000B02992321F0CB010E94B00B13C08823D8
:1017900049F0CB010E947E0B182F682FCE010E94CA
:1017A0005A0B04C0CB010E946C0B182FBE01812F75
:1017B0000E946012DF91CF911F9108951F93CF93E4
:1017C000DF93C091240217E080912502C817A1F091
:1017D000D0E01C9FF0011D9FF00D1124EA5DFD4F2C
:1017E00020813181428153816481758186810E948B
:1017F000680A2196C770E8CFDF91CF911F910895B5
:1018000020915E0230915F0240916002509161022E
:101810006091620270916302809164020E94680A82
:101820000895CF93DF938091640282958F7009F0C1
:101830004EC080916302882309F449C0809124023C
:101840004091250250915F0260915E02C09160025A
:10185000D091610277E08417D1F190E0789FF00198
:10186000799FF00D1124DF01AA5DBD4F14962C91D4
:101870001497222349F111962C911197251324C016
:101880002C91261321C015962C91159721111CC05F
:1018900012962D913C9113972C1B3D0B2D37310542
:1018A00098F4809164028F70806180936402E45D9B
:1018B000FD4F80818F70806180838EE592E00E9471
:1018C000040A0E94DE0B03C001968770C4CFDF912B
:1018D000CF910895209124029091250257E0291775
:1018E000A9F030E0529FF001539FF00D1124EA5D02
:1018F000FD4F7181761306C07081781303C0758126
:10190000741306C02F5F3F4F2770E9CF80E0089522
:1019100081E00895A4E1B0E0E0E9FCE00C94FE254C
:101920008C0186E0F801DE011F9601900D928A95E8
:10193000E1F7D80114968C9114971596EC909EE5DA
:10194000A92E92E0B92E90916202911118C08823BD
:1019500009F486C1EE20D9F1C8010E94510AF82E7F
:101960008823A9F187E0F801D50101900D928A95AD
:10197000E1F7C5010E9436070E94110C6EC1F80103
:10198000C080D18082809380F090630220916002B9
:1019900030916102A401421B530BFF2009F400C1E6
:1019A0004D37510508F0ACC0882309F45BC1809124
:1019B0006402282F207F90915F02222361F09D1501
:1019C00009F46DC0C8010E94510A811170C0C8019C
:1019D0000E94040A45C19D1116C090915E029C119F
:1019E00012C0E11010C08F708061809364020E9469
:1019F000000C8EE592E00E94040A80916402D801F6
:101A000016968C9317C0E11044C040E06D2D8C2DCC
:101A10000E946A0CE82E882379F08EE592E00E94FD
:101A2000040AEEE5F2E087E0DF011D928A95E9F70E
:101A30000E94000CF12C16C1CF86D88A8F85988918
:101A40000E94B00B292F22952F70243020F49F7014
:101A5000223028F009C02A50223080F014C0992387
:101A600049F0811107C013C0992321F0F801968134
:101A7000907F69F0805E883030F409C0803F38F094
:101A8000815F833020F0C8010E94040AEF2CFE2CF5
:101A9000E9C080916402816080936402CBCF909111
:101AA0005E029C118FCFE1108DCFD801A4C0EE2033
:101AB00009F48DCF20916402822F82958F7090E07F
:101AC00002978CF080915E0290915F0299878887DF
:101AD0009B868A86809162028C871D862E87CE0126
:101AE00008960E94040A87E0F801AEE5B2E0019092
:101AF0000D928A95E1F70E94110C0E94000CB0C073
:101B000090916402292F207F91F4682D9A8A898A06
:101B1000A6017A899E2D0E945E0A8EE592E00E94BF
:101B2000040A87E0F50111928A95E9F781CF8823AD
:101B300009F498C080915F028D1110C080915E02FF
:101B40008C110CC0E1100AC09683C8010E94040ADF
:101B500087E0F50111928A95E9F784C0C8010E94D7
:101B6000510A882309F433CFEE2009F430CF2091B5
:101B70006402822F82958F7090E002970CF4B3CFAD
:101B800080915E0290915F029A8389839C828B820E
:101B9000809162028D831E822F83CE010196A1CF98
:101BA0004D37510508F04CC0882309F459C0FE2C6C
:101BB000EE2009F40CCF80915F028D1133C080912B
:101BC0005E028C112FC09091640290FD22C0892F7B
:101BD00082958F70282F30E021153105D1F0D80182
:101BE00096832F30310549F08F5F982F9295907F23
:101BF00086818F70892B16968C93C8010E94040AE7
:101C000087E0F801AEE5B2E001900D928A95E1F728
:101C100024C087E0F801AEE5B2E001900D928A950C
:101C2000E1F720C0C8010E94510A81115CCF809168
:101C30006402816080936402C8010E94040A12C099
:101C4000682D9A8A898AA6017A899E2D0E945E0A49
:101C500087E0F50111928A95E9F70E94000C02C015
:101C6000FF24F3948F2D6496ECE00C941A26AEE0DA
:101C7000B0E0EDE3FEE00C940726288739874A8719
:101C80005B876C877D878E87CE0108960E948A0CC1
:101C9000882361F06C856623A9F1288539854A85FA
:101CA0005B857D858E850E94680A2CC087E0FE01D9
:101CB0003896DE01119601900D928A95E1F76C85B8
:101CC000662301F12091250230E0C9010196877059
:101CD00099274091240250E084179507E1F16D8324
:101CE00097E0929FD001939FB00D1124AA5DBD4F44
:101CF000FE01319601900D929A95E1F780932502AD
:101D00000E94DE0B17E08091240290912502891732
:101D100079F1189FC00111248A5D9D4F0E948A0CA1
:101D2000882331F1E09124021E9FF0011124EA5D25
:101D3000FD4F20813181428153816481758186818B
:101D40000E94680A8091240290E00196877099278A
:101D500080932402D8CF0E94310A1092250210925B
:101D60002402EEE5F2E087E0DF011D928A95E9F7B3
:101D70002E96E3E00C94232680916D02869586953D
:101D80008695089580916D028770089590916D02F7
:101D9000977081E009F480E00895809179020895B8
:101DA00090917902892B8093790208958095909182
:101DB0007902892380937902089510927902089517
:101DC00090917802892B8093780208958095909164
:101DD00078028923809378020895109278020895FA
:101DE00008950E94F00E08950E94F10E08959091BA
:101DF0006F02292F2823821729F0982B90936F02C6
:101E00000E94F40E089590916F02292F282331F03B
:101E10008095892380936F020E94F40E089580912B
:101E20006F02882329F010926F0280E00E94F40E66
:101E300008950F931F93CF93DF93009100011091AA
:101E40000101C091790280917802C82B80916F02C4
:101E5000882331F0C82B0E945E1981110E940F0F58
:101E6000F801C083C0910001D091010148E050E029
:101E700065E672E0CE010E942F26892B59F088E09A
:101E8000FE01A5E6B2E001900D928A95E1F7CE0140
:101E90000E941519DF91CF911F910F9108950E9413
:101EA000190F08950E94F00E08950E94520F089590
:101EB00090916E02292F282331F0809589238093F9
:101EC0006E020E94550F08950E94F00E08959091A1
:101ED0008E0492FF11C098E0899F90011124262B57
:101EE00020936D020E94BA0A80916D0286958695B4
:101EF00086950E94640F08950E94BA0A0895109270
:101F00006D0280E00E94640F089590916D028095AB
:101F1000892380936D02282F277069F4981759F050
:101F200090918E0492FF07C08695869586950E94B3
:101F3000CA0A0E947F0F0895CF9390918E0492FB5E
:101F4000222720F92817F9F0C82F892FC0FB82F922
:101F500080938E0480918D0490918E040E94F80FDE
:101F600082E00E94850F80918A0280FF0CC01F9240
:101F7000CF938FEA91E09F938F930E947D020F9001
:101F80000F900F900F90CF91089580918E0482FB57
:101F9000882780F991E089270E949C0F089581E0AD
:101FA0000E949C0F089580E00E949C0F08956FEF9F
:101FB0007FEF80E090E00E948126089580E090E02D
:101FC0000E944D2621E0863E9E4F09F020E0822FA0
:101FD000089582E090E00E944526089583E090E015
:101FE0000E944526089584E090E00E944D260895C1
:101FF000BC0184E090E00E9481260895AB01BC0101
:102000008FE090E00E9475260895AB01BC0183E14A
:1020100090E00E947526089560E070E0CB010E9478
:102020000510089560E070E0CB010E94FE0F0E9451
:102030000C100895A8E0B0E0E0E2F0E10C9408266E
:1020400066EE7EEF80E090E00E94812660E082E014
:1020500090E00E94632681E090E0909323028093B9
:10206000220261E083E090E00E94632660E074E178
:1020700084E090E00E94812660E086E090E00E948B
:1020800063266FEF87E090E00E94632640E050E017
:10209000BA0188E090E00E94752660E084E290E05A
:1020A0000E94632660E087E190E00E94632660E082
:1020B0008CE090E00E94632660E08DE090E00E945A
:1020C000632619821A821B821C821D821E821F8235
:1020D000188648E050E068E170E0CE0101960E9469
:1020E000532640E050E0BA0180E290E00E9475265D
:1020F0000E9412102896E2E00C9424260E941A10E6
:102100000895682F8EE090E00E9463260895A6E06F
:10211000B0E0EDE8F0E10C9406260E94701A8C0104
:1021200080917A0290917B020817190781F0198239
:102130001A820E94701A682F49815A81792F80E093
:1021400090E00E94030710937B0200937A02269688
:10215000E4E00C9422260E9476136093860270932A
:102160008702809388029093890260938202709321
:1021700083028093840290938502089581E00895FC
:102180000E94EA14089508950E94C31008950E94C1
:10219000C31008950E94C31008950E94C3100895AB
:1021A00080EA9EE10E941C170E94CD100E947305D8
:1021B00008950E94C4100E94C31008950E94AA139B
:1021C0000E94B50608950E94671A0E9450130E944B
:1021D000ED140E9476140E94DE100E9421170E94C6
:1021E000FF140E9470050895A6E0B0E0EAEFF0E168
:1021F0000C94FF250E94BE10811103C00E9487101D
:1022000053C00E945A058CE7E82E82E0F82E670141
:1022100000E0F60111916F01802F0E94C813812701
:102220000F5F063019F08823A1F302C0882331F331
:1022300080918A0281FD0E94CE130E94C010A82EB8
:1022400010E099249394812F0E94C813B82EF701AF
:10225000C080C82609F100E0DD24D3948C2D8D21A7
:10226000A9F0AA2099F009831A830E94701A9C830E
:102270008B839D8291E08B2D8D2109F490E0498123
:102280005A816B817C818D810E9403070F5FDD0C79
:10229000063021F7F701B0821F5FFFEFEF1AFF0A48
:1022A000163089F60E94AB100E94EA140E94C806FC
:1022B0002696EBE00C941B261F93CF93DF930E948E
:1022C0006512EC01C11582E5D807C8F5C11590E586
:1022D000D90708F0BBC0C83ED105C0F4C03ED10547
:1022E00008F0DDC0C53AD10550F4C430D10508F07E
:1022F000D6C0219709F0D0C081E090E0D1C0CD3C9C
:10230000D10508F4C9C0CE019065CAC0C11580E4EA
:10231000D80708F05AC0C11590E2D90708F0AFC03D
:10232000C11581E0D80708F4B7C08D2F0E940113B2
:10233000182FCE0199270E9465121F71ABC0C038BB
:1023400092E5D90720F5C03682E5D80708F061C0CC
:10235000C03492E5D90708F04AC0C03282E5D807F8
:10236000F0F54C2F4695469590E2499FA001112427
:10237000C37021E030E0C90102C0880F991FCA95DF
:10238000E2F7EA01C82BD92BCE019D6889C0C03C79
:1023900092E5D90768F48C2F8F71C03AD24508F0C6
:1023A0004CC090E0D82FCC27CE01846F906A78C0C3
:1023B000C03E82E5D80708F06FC0CF71DD27DC2F63
:1023C000CC27CE01806F906A6BC0CE0199270E9406
:1023D0006512CC27DF70D06A8C2B9D2B61C0CF712A
:1023E000D0E0DC2FCC27CE01816F906A59C08C2FB2
:1023F0008F718695869590E2899F90011124C37014
:1024000081E090E002C0880F991FCA95E2F79C68AE
:1024100011C08C2F8F718695869590E2899F9001CF
:102420001124C37081E090E002C0880F991FCA9503
:10243000E2F79A68822B932B33C00E9401138F71AD
:1024400090E0D82FCC27CE0190622AC08C2F8F71BC
:102450000E94011395E0D695C7959A95E1F7CF7044
:10246000D0E0DC2FCC27282F30E084FF05C084E0AB
:10247000220F331F8A95E1F7D069CE01DBCF8D2F74
:102480008F710E940113182FCE0199270E946512A7
:102490001F719062912B04C080E090E001C0CE01DA
:1024A000DF91CF911F910895763038F4663028F48B
:1024B000462F672F0E948D05089580E090E00895D3
:1024C0000E9454120E945C1108958238910569F1AE
:1024D000B0F48133910509F475C048F4893291054F
:1024E00009F467C08A32910509F471C008958533F3
:1024F000910509F459C089339105B9F00895833ED7
:10250000910589F138F4803E9105D1F0823E910524
:1025100029F10895863E9105C9F1873E9105D9F1CB
:10252000843E910509F06CC027C020918D0420FDE8
:1025300057C021FD55C020918E0423FD5BC0089536
:1025400080918D0480FD48C080918E0480FF48C03A
:1025500080918D0484FD46C083EE51C080918D042E
:1025600082FF3CC0F5CF80918D0482FD37C0809101
:102570008E0480FD35C0ECCF80918E0481FF36C083
:1025800080918D0484FD2EC087EE39C080918D042A
:1025900083FF2AC0F5CF80918D0483FD25C08091F3
:1025A0008E0481FD23C0ECCF80918D0485FD22C077
:1025B0001FC080918D0485FD1BC080918E0483FF18
:1025C00019C00AC080918D0486FD16C017C0809185
:1025D0008D0486FD13C010C089E311C082EE0FC0C8
:1025E00080EE0DC080E00BC086EE09C084EE07C00F
:1025F00085E305C089E203C08AE201C081E390E07F
:10260000089590918D0492FF10C041E0282F24710D
:10261000243009F040E031E0282F2871283009F0FB
:1026200030E0431711F02CE0822793FF10C041E007
:10263000282F2471243109F040E031E0282F28713F
:10264000283109F030E0431711F02CE08227309157
:102650008E0430FF10C051E0282F2171213009F085
:1026600050E041E0282F2871283009F040E054174D
:1026700011F029E0822731FF10C041E0282F21719D
:10268000213109F040E031E0282F2871283109F08C
:1026900030E0431711F029E0822794FD877E0895EA
:1026A0001092890410928A0410928B0410928C0468
:1026B0000895CF92DF92EF92FF926B017C010E940E
:1026C000EA1481110EC00E947C1AC61AD70AE80AC1
:1026D000F90AC0928904D0928A04E0928B04F092A5
:1026E0008C04FF90EF90DF90CF9008950F931F938D
:1026F0000E94EA14882319F00E947C1A0EC00E94DE
:102700007C1A0091890410918A0420918B043091E5
:102710008C04600F711F821F931F1F910F910895EA
:102720000E94D70F08950E945A058FE39CE90197F4
:10273000F1F700C000000E945A0580E00E94C81313
:1027400080FF04C00E9490130E94D91A08950E942D
:10275000931308950E94DE0F811102C00E947E1023
:102760000E94E90F80938A020E94F30F90938E04D7
:1027700080938D040E94A7130E94EE0F90E00E94A8
:10278000810A80912002909121020E949F0A08955F
:10279000E82FF0E0EB56FB4F80810895A0E0B0E019
:1027A000E4EDF3E10C94022683ED91E00E94E40154
:1027B00085E9E82E84E0F82EC0E0D0E09EECC92E3A
:1027C00091E0D92E06EC11E0DF93CF93DF92CF9208
:1027D0000E947D028BEC91E00E94E401F70181915F
:1027E0007F010E9490061F928F931F930F930E9468
:1027F0007D0284EC91E00E94E40121968DB79EB7A2
:1028000008960FB6F8949EBF0FBE8DBFC630D10597
:10281000D9F6CDB7DEB7E8E00C941E2608950E94E5
:102820000E1408950E940F1408950E940E14089526
:102830000E94151408950E94F9040895A3E0B0E0E1
:10284000E4E2F4E10C9406260E94EA146091880404
:102850008823D1F119821A821B82862F90E08E0183
:102860000F5F1F4FB8018B569B4F0E940D15882399
:1028700089F08091870490E043E050E0B8018B56E6
:102880009B4F0E942F2621E020938B02892B69F415
:1028900010E017C080918B028823D1F383E0F80108
:1028A00011928A95E9F710928B02E0918704F0E08B
:1028B000EB56FB4F89819A81AB8180839183A28300
:1028C00011E00E9412140DC070E06B567B4F809196
:1028D000870490E08B569B4F0E94A8150E941B1402
:1028E00010E0812F2396E4E00C94222680910201CF
:1028F000811102C093E001C090E09093880483E0CE
:10290000891B809387040E94FA04EFE8F4E0A5E9AC
:10291000B4E011921D9284E0E539F807D1F783E025
:102920000E9495140E94181408950895EF92FF9242
:102930000F931F93CF93DF937C018B01C42F22232E
:1029400051F081E080938E020E94701A90938D0264
:1029500080938C0204C080918E02811102C080E0BD
:102960001AC080918C0290918D020E94881A05975E
:10297000B0F3D0E0AE01B701C8010E942F26892B29
:1029800039F0AE01B701C8010E943C2681E001C0C8
:1029900080E010928E02CDB7DEB7E6E00C942026E0
:1029A00084988C988FE891E00197F1F700C00000BF
:1029B0008FB1829581700895CF930E945D24C82FB6
:1029C000811102C00E9458248C2FCF9108958091CC
:1029D000920208958091910208950E94DC148093E0
:1029E00091020E94D014809392020E94E714809377
:1029F00002010E94EA1481110E94571508950E9455
:102A0000EA14811102C00E945A15089581E0909144
:102A100093029A3008F080E00895EF92FF920F93AE
:102A20001F93CF938C017B01C0919302CA3038F47D
:102A3000B701C8010E94A515811126C00AC0809166
:102A40008F02909190020E94881A843F914080F7F3
:102A500019C0809193028F3F19F08F5F809393028A
:102A6000809193028A30E0F00E94701A9093900255
:102A700080938F0280918A0280FF04C085EF91E0ED
:102A80000E94E40180E00DC0CA3040F080918A02CB
:102A900080FF04C082EE91E00E94E4011092930254
:102AA00081E0CF911F910F91FF90EF9008950E94C8
:102AB0004B1B08950E944E1B0895A0E0B0E0E3E692
:102AC000F5E10C9403267901C82F880FDD0B411521
:102AD0005105A9F0FE0193E0EE0FFF1F9A95E1F773
:102AE000ED5FFE4F818192818C569D4F208130E0B9
:102AF0004217530708F49A01A9010E943C26CE010F
:102B00000E94361CD82E8823D1F001151105B9F08A
:102B100083E0CC0FDD1F8A95E1F7FE01ED5FFE4FEC
:102B2000438150E00417150708F4A801CD5FDE4F7C
:102B30006C817D816C567D4FC7010E943C268D2D96
:102B4000CDB7DEB7E7E00C941F260E94B0160895BB
:102B50000E94CB160895A4E0B0E0E1EBF5E10C94FF
:102B600006266091A7027091A8028091A902909117
:102B7000AA020E94971A643671058105910528F111
:102B80000E947613DC01CB010296A11DB11D898341
:102B90009A83AB83BC8300E010E020E030E044E0A7
:102BA00050E0BE016F5F7F4F82E00E945D15182FDD
:102BB000882361F00E947C1A6093A7027093A80298
:102BC0008093A9029093AA0201C011E0812F24965C
:102BD000E4E00C942226A0E0B0E0E1EFF5E10C94F3
:102BE000FE257C015B01942E852E69010E9406154D
:102BF000811103C001E010E002C00AE010E0C1E072
:102C0000D0E0B501C701F6010995811129C02196CF
:102C10000C171D078CF0CC9F9001CD9F300D300D0F
:102C2000112480E090E045E34A95F1F70000019619
:102C300028173907C1F7E5CF90918A02892F817053
:102C400090FF0FC08F929F928BE292E09F938F93A1
:102C50000E947D020F900F900F900F9080E001C0B6
:102C600081E0CDB7DEB7ECE00C941A26A4E0B0E02A
:102C7000ECE3F6E10C9400265B01E0903301F09068
:102C8000340101E010E09E012C5F3F4F40E050E036
:102C900060E070E080E00E945D15182F882309F441
:102CA0003EC067018FEFC81AD80A6091A3027091E5
:102CB000A4028091A5029091A6020E94971A643600
:102CC00071058105910518F103E010E09E012F5F69
:102CD0003F4F40E050E060E070E081E00E945D1511
:102CE000182F63E070E0C6010E94221791E02C814A
:102CF000281390E0192329F10E947C1A6093A30203
:102D00007093A4028093A5029093A6020FC063E083
:102D100070E0C6010E9422179C818913D5CFF7016C
:102D200081819281A38189839A83AB83112349F0A6
:102D300089819A81AB818093A0029093A102A09394
:102D4000A2028091A0029091A102A091A202F5019D
:102D500080839183A283812F2496EAE00C941C2621
:102D60000F931F93CF93DF93EC018B0126E336E1A2
:102D700045E351E00E94EB15882341F02BEA35E151
:102D800042E451E0B801CE010E94EB15DF91CF91F2
:102D90001F910F9108950F931F93CF93DF93C091CD
:102DA0003301D0913401CE01019623E0FB01DC0117
:102DB00001900D922A95E1F763E070E00E942217DE
:102DC00088836C817D818E819F8100919C0210910E
:102DD0009D0220919E0230919F0260177107820729
:102DE000930751F060939C0270939D0280939E0222
:102DF00090939F020E945913DF91CF911F910F91E1
:102E000008950E941D1F0E94E3100E942A1F08952A
:102E10000E942F1F0E94F4100E94531F08950E94C9
:102E2000071A0E94031F0E94D0100E9401170E94DF
:102E300008170E94D910FBCF90934F0180934E0149
:102E400008950895FC01680F791F8FEF91E3E6174D
:102E5000F70771F02191822728E030E087FF03C057
:102E6000880F892701C0880F21503109B9F7EFCFAA
:102E70000895CF93DF9386319C4709F5EB010E94BB
:102E8000CD0E9D81992371F08A7A91E009F490E04A
:102E90009093AB02811102C089E201C085E30E94D8
:102EA000A81909C08091AB02811102C089E201C05A
:102EB00085E30E94B0190E944F0F80E001C081E0BD
:102EC000DF91CF910895CF93DF93FC01DB0115963D
:102ED0008C91882309F4DDC09F01305723323105DE
:102EE00008F0D8C0EF010E94F30F90938E048093F6
:102EF0008D04FE01E150F047E232F10520F4EE5975
:102F0000FF4F0C94F22580918D048160AAC08091BE
:102F10008E048860B2C080918D048260A2C08091CE
:102F20008D0420C080918D0488609BC080918E04A8
:102F30001EC080918E048260A0C080918D0480614B
:102F400090C080918D0480628CC080918D048064DB
:102F500088C00E94310A80918D04806882C080916F
:102F60008D04886084607DC080918E048260816061
:102F700084C080918D048E7F74C080918E04877F81
:102F80007CC080918D048D7F6CC080918D0420C0A9
:102F900080918D04877F65C080918E041EC08091D2
:102FA0008E048D7F6AC080918D048F7E5AC080917F
:102FB0008D048F7D56C080918D048F7B52C00E94FE
:102FC000310A80918D048F774CC080918D04877F6A
:102FD0008B7F47C080918E048D7F8E7F4EC0809105
:102FE0008D0482FB222720F991E0922790FB82F941
:102FF00090FB83F936C080918E04982F9095917044
:103000008E7F892B90FB81F938C080918D0486FBDF
:10301000222720F991E0922790FB86F922C00E9496
:10302000310A80918D0487FB222720F991E09227B5
:1030300090FB87F916C081E001C080E00E948110FA
:103040001EC080918D0484FB222720F991E09227F5
:1030500090FB84F906C080918D04982F909590FB89
:1030600080F980938D040BC080918E0483FB22270E
:1030700020F991E0922790FB83F980938E04809150
:103080008D0490918E040E94F80F0E94310A80E016
:1030900001C081E0DF91CF9108950F931F93CF93EB
:1030A000DF93C42FD22FFC0185818823B1F0409398
:1030B000AE020E94701A9093AD028093AC0280E23F
:1030C0008C0F883008F04DC0C77081E001C0880FB8
:1030D000CA95EAF70E940C0844C08091AE024813DA
:1030E00030C08091AC029091AD020E94881A8D3759
:1030F000910538F510E21D0FCD17B9F080E28C0F65
:10310000883040F4C77081E001C0880FCA95EAF7A3
:103110000E941308183010F581E09D2F977001C0B0
:10312000880F9A95EAF70E940C08802F0E940208E7
:103130001830B8F4D77081E001C0880FDA95EAF74B
:103140000AC080E28C0F883060F4C77081E001C053
:10315000880FCA95EAF70E94130803C0802F0E94C7
:103160000208DF91CF911F910F9108950F93FC01F9
:10317000E851FC47E730F10590F5CB01EC57FF4FE4
:103180000C94F22506E221EE41EE6AE17CE723C0D1
:1031900007E225EE45EE6BE17CE71DC006E221EE7D
:1031A00040EE68E17CE717C007E225EE44EE69E1F6
:1031B0007CE711C006E221EE42EE6CE17CE70BC039
:1031C00007E225EE46EE6DE17CE705C008E221E06E
:1031D00045EE6EE17CE70E944D1880E008C0FB01DF
:1031E0008581882319F01092AE0201C081E00F9111
:1031F00008959093B1028093B00208950E94EA145A
:10320000811103C08091AF020895E091B002F09166
:10321000B102309729F00190F081E02D09950895D1
:1032200080E008950E94FE180895EF92FF921F9388
:10323000CF93DF93E091B002F091B1023097C1F1EA
:10324000EC010280F381E02D099580918A0282FFD2
:103250002FC080FF0DC088811F928F9389E492E078
:103260009F938F930E947D020F900F900F900F906D
:1032700016E083E4E82E82E0F82E80918A0280FF37
:103280000BC08A811F928F93FF92EF920E947D0262
:103290000F900F900F900F90115021961111EDCFBC
:1032A00080918A0280FF04C081E492E00E94E401E0
:1032B000DF91CF911F91FF90EF900895E091000171
:1032C000F0910101329697E080E0915029F0219130
:1032D0002223D9F38F5FF9CF0895882371F02091CD
:1032E000000130910101F9013296285F3F4F919121
:1032F000891729F0E217F307D1F780E0089581E0FC
:1033000008959C01FC0132969FEF80E041914617A1
:1033100089F09F3F19F4411101C0982F8F5F8630CB
:10332000A9F79F3F39F0F901E90FF11D97FDFA95D3
:103330006283089508959C012A5F3F4FFC014281FA
:10334000461301C01282019682179307B9F70895B8
:10335000682F80910001909101010E9481190895C8
:10336000682F80910001909101010E949B1908959E
:10337000E0910001F0910101329686E0DF011D929B
:103380008A95E9F7089508950E94C319089583E086
:103390008093B2020E94C4190895811102C081E095
:1033A00001C082E08093B2020E94C41908950E9475
:1033B000CD19089581E08093B2020E94C419089546
:1033C0000E94DA19089508950E94E31908950E9451
:1033D000E41908950E94E31908950E94E3190895DD
:1033E0000E94E3190895CF930E94ED190E945A0597
:1033F0000E94EA19C0E08C2F0E94C813811104C0FA
:10340000CF5FC630C1F701C081E0CF91089585B785
:10341000806885BF85B7806885BF08951F920F9229
:103420000FB60F9211248F939F93AF93BF93809108
:10343000B302811113C080919B0490919C04A091D0
:103440009D04B0919E044196A11DB11D80939B04E3
:1034500090939C04A0939D04B0939E04BF91AF9160
:103460009F918F910F900FBE0F901F901895809194
:10347000A304843031F10E9486061092B30220E446
:1034800088E190E00FB6F894A895809360000FBE95
:103490002093600083B7817F846083BF83B781609E
:1034A00083BF7894889583B78E7F83BF0FB6F894D7
:1034B000A895809160008861809360001092600000
:1034C0000FBE08950E94310A0E948B06089582E083
:1034D00084BD93E095BD9AEF97BD80936E000895EB
:1034E0002FB7F89480919B0490919C04A0919D0427
:1034F000B0919E042FBF08952FB7F89460919B045C
:1035000070919C0480919D0490919E042FBF08951A
:103510009C014FB7F89480919B0490919C04A091DA
:103520009D04B0919E044FBF821B930B0895CF92D0
:10353000DF92EF92FF922FB7F894C0909B04D09047
:103540009C04E0909D04F0909E042FBFA70196017B
:10355000261B370B480B590BCA01B901FF90EF909E
:10356000DF90CF90089578941F920F920FB60F922C
:1035700011248F939F93AF93BF9380919B0490915D
:103580009C04A0919D04B0919E040196A11DB11DC3
:1035900080939B0490939C04A0939D04B0939E04FD
:1035A000BF91AF919F918F910F900FBE0F901F9081
:1035B000189587E797E790930108809300089AE0B1
:1035C00088E10FB6F894A895809360000FBE9093A1
:1035D0006000FFCF9AE088E10FB6F894A895809339
:1035E00060000FBE90936000FFCF8EE14A9B02C047
:1035F0008150E1F74A9BFECF08955A9880E28A9560
:10360000F1F75A9A0895FC012AE02A95F1F728E08B
:1036100090E080E031E040E14A95F1F7880F4A9B65
:1036200002C08160932700C0000040E14A95F1F795
:10363000215089F720E12A95F1F729B100C0000057
:1036400030E13A95F1F722FB222720F992272081D9
:10365000920F90830895A1E0B0E0E1E3FBE10C94C8
:10366000042619828C017C01E60EF11C0E151F0543
:1036700051F00E94F51ACE0101960E94031BF80139
:1036800081938F01F3CF81E09981911180E02196A0
:10369000E6E00C942026529A5A9A089552985A9A23
:1036A000EA9AE9E6F0E080818F7C8083089561509A
:1036B00091E001C0990F6A95EAF720E031E0992383
:1036C00061F0492F482319F05A9A232701C05A98CC
:1036D00040E24A95F1F79695F2CF222311F05A9ADB
:1036E00001C05A9880E28A95F1F75A980895FF929E
:1036F0000F931F93CF93DF93EC018C01060F111DE5
:10370000C017D10741F0F9900E94FD1A68E08F2D93
:103710000E94571BF5CFCDB7DEB7E5E00C9421260C
:103720001F920F920FB60F9211240F931F932F9396
:103730003F934F935F936F937F938F939F93AF9339
:10374000BF93EF93FF93CF93DF931F92CDB7DEB775
:1037500019820E94F51ACE0101960E94031B082FC0
:10376000069506950695902F96959570202F2570B5
:10377000920F292F237096959695920F8770891333
:103780005FC0898181115CC0043008F059C080E1BC
:103790008A95F1F75A9A529A82E08A95F1F700C019
:1037A0005A9888E0089F80011124D801AD5FBE4F70
:1037B0001696ED91FC9117973097A9F0609133011F
:1037C0007091340114962D913C911597260F371F57
:1037D00011968D919C911297680F791F13964C91B9
:1037E00013978C910995F801ED5FFE4F6381662375
:1037F00051F0809133019091340124813581820F01
:10380000931F0E94771B0E94FD1A80E18A95F1F7B1
:103810005A9852985A9A80E18A95F1F7F801ED5F2B
:10382000FE4F6081662351F0809133019091340105
:1038300021813281820F931F0E942B1B0E94F51A57
:103840000F90DF91CF91FF91EF91BF91AF919F9139
:103850008F917F916F915F914F913F912F911F9128
:103860000F910F900FBE0F901F9018950F931F93FD
:10387000CF93DF93843091050CF06DC0EC01F89488
:10388000529A5A9885E08A95F1F700009C2F9695F8
:1038900095702C2F2570920F892F83709695969591
:1038A00023E0CC0FDD1F2A95E1F7980F8E01092B3D
:1038B0000E94FD1A84E08A95F1F700C068E0802F2D
:1038C0000E94571B80E18A95F1F752985A9A4A99BB
:1038D00002C000C0FCCF87E090E04A9B08C001977F
:1038E00021F4529A5A9A789436C000C0F6CFFE015D
:1038F000ED5FFE4F6381662381F0809133019091EB
:10390000340124813581820F931F0E942B1B81116A
:1039100004C0529A5A9A78941FC00E94F51A80E205
:103920008A95F1F75A98529A80E18A95F1F7CD5F1E
:10393000DE4F6881662351F080913301909134010C
:1039400029813A81820F931F0E94771B0E94FD1AE2
:10395000789481E001C080E0DF91CF911F910F91B9
:103960000895807C80931B010895873941F178F494
:10397000863349F130F4843321F1853331F584E223
:1039800008958439D1F0863901F581E20895843FA4
:1039900071F030F4803FD9F0813FB9F481E00895AF
:1039A000863F49F030F0873F81F487E0089584E056
:1039B000089585E0089586E0089580E2089582E202
:1039C000089583E2089585E208958FE1089580E0E7
:1039D000089596E890937A00982F9072906890934B
:1039E0007B008F7190911B01892B80937C008091CB
:1039F0007A00806480937A0080917A0086FDFCCF03
:103A0000809178002091790090917A009F7790932F
:103A10007A0090E0922B08950E94B51C0E94E91C48
:103A200008958091BF0208950895089508959B0117
:103A30009091A3049430F1F48F708093E9008FEF9C
:103A40009091E800815095FD06C095ED9A95F1F7AB
:103A500000008111F5CF8091E80085FF0BC0BA010D
:103A6000C90140E050E00E94CB1F8091E8008E77B2
:103A70008093E8000895CF93DF93EC0148E050E095
:103A8000BC0181E00E94171D88E0FE01A7EBB2E0B7
:103A900001900D928A95E1F7DF91CF91089588E822
:103AA00092E00E94E4018091A204811109C00E9469
:103AB00056210E94B3218091E20084608093E2004D
:103AC000089584E892E00E94E4011092A20408950F
:103AD00080E892E00E94E4010E94E01908958CE7DA
:103AE00092E00E94E40160919F0481E0611101C0B5
:103AF00080E00E94C719089588E792E00E94E401DF
:103B00009091A30481E0943009F080E060919F04DB
:103B10000E94CD1908952091B5022F5F822F62E394
:103B20000E94D225992319F02093B502089510928E
:103B3000B5028091B602882371F18091A30484308C
:103B400041F58091E9008F702091EC00922F9170E7
:103B500020FD90E8892B92E09093E9009091EB0092
:103B600090FF14C09091EE0097FF10C09091E80074
:103B700095FF03C01092F100F9CF9091E80090FFFB
:103B800005C09091E8009E779093E8008F70809335
:103B9000E9001092B602089542E061EC81E00E94D3
:103BA000CF2042E261EC82E00E94CF209091A304FA
:103BB00081E0943009F080E060919F040E94D71961
:103BC00008958091A504833009F461C030F48130F8
:103BD00071F0823009F49BC008958A3009F487C0DF
:103BE0008B3009F46CC0893009F0A9C020C08091E5
:103BF000A404813A09F0A3C08091E800877F8093F4
:103C0000E8008091A8049091A904892B21F468E030
:103C100087EB92E003C060E080E090E070E00E94FB
:103C200010208091E8008B778093E80008958091C0
:103C3000A404813209F083C08091A8049091A90462
:103C4000892B09F07CC08091E800877F8093E80091
:103C50008091E80082FD05C08091A3048111F8CF16
:103C60006EC02091F3008091F20090E0922B0297B9
:103C700031F48091F100813011F0863021F480918F
:103C8000F1008093BF028091E8008B7754C080914F
:103C9000A404813A09F053C08091A8049091A9042A
:103CA000892B09F04CC08091E800877F8093E80061
:103CB0008091E80080FFFCCF8091260137C0809181
:103CC000A4048132E1F58091A8049091A904892B84
:103CD000B1F58091E800877F8093E8000E9404217D
:103CE0008091A604809326010E94310A0895809154
:103CF000A404813221F58091E800877F8093E80059
:103D00000E9404218091A7048093C00208958091AD
:103D1000A404813AA1F48091E800877F8093E800B1
:103D20008091E80080FFFCCF8091C0028093F10079
:103D30008091E8008E778093E8000E940421089526
:103D40009FB7F8941092B6029FBF9091A30494304D
:103D500009F057C09091E9009F703091EC00232F3B
:103D6000217030FD20E8922B22E02093E900209181
:103D7000EB0020FF43C02091EE0027FF3FC02091C1
:103D8000B402222321F02091E80025FF37C01092D1
:103D9000B40226E03091E80035FD15C03091A3044F
:103DA000343061F53091EB0035FD28C0215021F40D
:103DB00081E08093B40222C0EFE9FFE03197F1F790
:103DC00000C00000E7CF8093F1008091E80085FDFE
:103DD0000AC08091E80080FFFCCF8091E8008E77D8
:103DE0008093E80006C08FB7F89421E02093B602D4
:103DF0008FBF9F709093E90080E008959F7090932B
:103E0000E9008FEF089584B7877F84BF0FB6F894D9
:103E1000A895809160008861809360001092600096
:103E20000FBE90E080E80FB6F89480936100909305
:103E300061000FBE0E94DA1908950E9456210E9467
:103E4000B321E2EEF0E080818460808378940E9468
:103E50003D2408958CE191E00E94F9180895809125
:103E6000A3048530F9F480918A0280FF0BC082E6BA
:103E700092E00E94E40106C00E94371A8091A104DA
:103E8000811105C08091A3048530B1F309C00E945F
:103E9000F3198823B9F30E94B51F0E94310AF2CFAB
:103EA0000E94621A089508959A014091AA045091BF
:103EB000AB040E945C1F0895492F552743305105DC
:103EC000C9F060F44130510581F04230510509F0EC
:103ED00044C082E490E048EB52E043C041325105D7
:103EE000E1F04232510549F138C082E190E04AEFF9
:103EF00052E037C099278130910549F028F00297A8
:103F000061F5ECE8F2E005C0E4EBF2E002C0ECE9B8
:103F1000F2E0849190E0AF0124C06115710541F099
:103F200061307105D1F489E090E043EE52E019C0B0
:103F300089E090E04AEC52E014C06115710541F04F
:103F40006130710551F482E290E04CE053E009C029
:103F500084E490E04EE253E004C080E090E040E072
:103F600050E0F90151834083089580E189BD82E1E9
:103F700089BD09B400FEFDCF8091D8008F7D80936C
:103F8000D8008091E00082608093E0008091E000A2
:103F900081FDFCCF0895A0E0B0E0E1EDFFE10C94DD
:103FA0000226EC018B017A010E942321811133C08A
:103FB000E114F10439F0F70180819181081B190B9C
:103FC000C80FD91FC12CD12C0115110519F18091F1
:103FD000E80085FD16C08091E8008E778093E800A8
:103FE000E114F10449F0F70180819181C80ED91ED6
:103FF000D182C08285E00FC00E942321882321F353
:104000000AC089918093F10001501109FFEFCF1A86
:10401000DF0ADACF80E0CDB7DEB7E8E00C941E26E9
:104020002091AA043091AB042617370748F0611598
:10403000710539F42091E8002E772093E80001C043
:10404000B901FC0120E06115710579F18091A304AB
:104050008823F1F18530F1F18091E80083FD3CC0C7
:104060008091E80082FD2EC08091E80080FFEBCFB8
:104070002091F3008091F20090E0922B6115710580
:1040800051F08830910538F421912093F10061506E
:1040900071090196F3CF21E0089709F020E08091A3
:1040A000E8008E778093E800CECF2111CFCF0AC0F1
:1040B0008091A304882361F0853061F08091E8004D
:1040C00083FD0AC08091E80082FFF2CF80E008956E
:1040D00082E0089583E0089581E008952091AA0484
:1040E0003091AB042617370748F06115710539F494
:1040F0002091E8002E772093E80001C0B901FC016F
:1041000020E06115710591F18091A304882309F4E1
:1041100040C0853009F43FC08091E80083FD3DC078
:104120008091E80082FD2FC08091E80080FFE9CFF8
:104130002091F3008091F20090E0922B61157105BF
:1041400059F08830910540F424912093F100319684
:10415000615071090196F2CF21E0089709F020E043
:104160008091E8008E778093E800CBCF2111CCCFEF
:104170000AC08091A304882361F0853061F08091AA
:10418000E80083FD0AC08091E80082FFF2CF80E062
:10419000089582E0089583E0089581E00895982FBE
:1041A000973068F59093E900981739F07091EC001A
:1041B0002091ED005091F00003C0242F762F50E0A5
:1041C00021FD02C09F5FECCF3091EB003E7F30932A
:1041D000EB003091ED003D7F3093ED003091EB002E
:1041E00031603093EB007093EC002093ED0050931E
:1041F000F0002091EE0027FDE5CF80E008958F705C
:104200008093E90081E008958091A40487FF11C0A4
:104210008091E80082FD05C08091A3048111F8CF50
:1042200011C08091E8008B770BC08091A304882394
:1042300049F08091E80080FFF8CF8091E8008E7708
:104240008093E80008952091E4003091E50095E620
:104250004091EC00842F817040FF23C08091E800E2
:1042600080FD1DC08091A304882399F0853099F0CA
:104270008091EB0085FD11C04091E4005091E50074
:104280002417350729F3915011F09A01E1CF84E00A
:10429000089582E0089583E0089581E0089580E024
:1042A00008954091E80042FFDDCF08950E94C521A6
:1042B0000E94CD21E0EEF0E0808181608083E8ED16
:1042C000F0E080818F77808319BCA7EDB0E08C91FE
:1042D0008E7F8C9380818F7E80831092A2040895BC
:1042E0000F931F93CF93DF930E94C5210E94CD218E
:1042F000C8EDD0E088818F77888388818068888343
:1043000088818F7D888319BC1092A30410929F042A
:104310001092A1041092A00400EE10E0F801808138
:104320008B7F808388818160888342E060E080E0C9
:104330000E94CF20E1EEF0E080818E7F8083E2EE6C
:10434000F0E0808181608083808188608083F801D3
:1043500080818E7F8083888180618883DF91CF9187
:104360001F910F910895E8EDF0E080818F7E8083AA
:10437000E7EDF0E080818160808384E082BF81E0AE
:104380008093A2040E9470210895E8EDF0E08081FE
:104390008E7F80831092E20008951092DA001092CE
:1043A000E10008951F920F920FB60F9211242F93E0
:1043B0003F934F935F936F937F938F939F93AF93AD
:1043C000BF93EF93FF938091E10082FF0BC0809138
:1043D000E20082FF07C08091E1008B7F8093E100C3
:1043E0000E948B1D8091DA0080FF1FC08091D80051
:1043F00080FF1BC08091DA008E7F8093DA0080916D
:10440000D90080FF0DC080E189BD82E189BD09B47A
:1044100000FEFDCF81E08093A3040E944F1D05C0E4
:1044200019BC1092A3040E94611D8091E10080FFDD
:1044300019C08091E20080FF15C08091E2008E7F5C
:104440008093E2008091E20080618093E20080919D
:10445000D80080628093D80019BC85E08093A304C3
:104460000E946F1D8091E10084FF30C08091E200C6
:1044700084FF2CC080E189BD82E189BD09B400FEC2
:10448000FDCF8091D8008F7D8093D8008091E1008E
:104490008F7E8093E1008091E2008F7E8093E20026
:1044A0008091E20081608093E20080919F048823E4
:1044B00011F084E007C08091E30087FD02C081E035
:1044C00001C083E08093A3040E947C1D8091E100E1
:1044D00083FF29C08091E20083FF25C08091E10025
:1044E000877F8093E10082E08093A30410929F0471
:1044F0008091E1008E7F8093E1008091E2008E7FC9
:104500008093E2008091E20080618093E20042E0CB
:1045100060E080E00E94CF208091F000886080936E
:10452000F0000E94681DFF91EF91BF91AF919F91A4
:104530008F917F916F915F914F913F912F910F904C
:104540000FBE0F901F9018951F920F920FB60F92EB
:1045500011242F933F934F935F936F937F938F9388
:104560009F93AF93BF93CF93DF93EF93FF93C0914C
:10457000E900CF708091EC00D82FD17080FDD0E899
:104580001092E9008091F000877F8093F00078948A
:104590000E94E8221092E9008091F00088608093E8
:1045A000F000CD2BCF70C093E900FF91EF91DF9128
:1045B000CF91BF91AF919F918F917F916F915F91BB
:1045C0004F913F912F910F900FBE0F901F90189514
:1045D000AAE2B0E0EEEEF2E20C940726E4EAF4E0A0
:1045E0008091F100819324E0EC3AF207C9F70E9430
:1045F000E11D8091E80083FF2EC18091A404909179
:10460000A504492F50E04A30510508F024C1FA01B1
:10461000E557FF4F0C94F225803821F0823809F0DD
:104620001AC108C08091A0049091A104992389F037
:1046300082600FC08091A8048F70873008F00BC192
:104640008093E9008091EB0085FB882780F9109228
:10465000E9009091E800977F9093E8008093F10043
:104660001092F100D1C0282F2D7F09F0F4C08823CB
:1046700019F0823061F0EFC08091A604813009F01A
:10468000EAC0933009F080E08093A1042EC08091AD
:10469000A60481112AC08091A8048F702FEF280FE3
:1046A000263008F0D8C08093E9002091EB0020FF6D
:1046B0001CC0933021F48091EB00806214C0909173
:1046C000EB0090619093EB0021E030E0A90102C083
:1046D000440F551F8A95E2F74093EA001092EA00D2
:1046E0008091EB0088608093EB001092E90080914C
:1046F000E800877F8093E8000E940421ACC081110C
:10470000AAC01091A6041F778091E3008078812BC6
:104710008093E3008091E800877F8093E8000E9407
:1047200004218091E80080FFFCCF8091E300806845
:104730008093E300111102C082E001C083E0809306
:10474000A30489C08058823008F085C08091A604F7
:104750009091A7048C3D53E0950779F583E08A8317
:104760008AE289834FB7F894DE01139620E03EE099
:1047700051E2E32FF0E050935700E49120FF03C093
:10478000E295EF703F5FEF708E2F90E0EA3010F00F
:10479000C79601C0C0968D939D932F5F243149F732
:1047A0004FBF8091E800877F8093E8006AE270E065
:1047B000CE0101960E94102016C06091A80470914D
:1047C000A904AE014F5F5F4F0E94541FBC01892BAB
:1047D00009F441C09091E800977F9093E8008981A7
:1047E0009A810E946E208091E8008B778093E80088
:1047F00032C0803881F58091E800877F8093E8009F
:1048000080919F048093F1008091E8008E7772CFB1
:10481000811121C08091A6049091A7049927029745
:10482000D4F48091E800877F8093E8008091A6040B
:1048300080939F040E94042180919F04811106C0EF
:104840008091E30087FD02C081E001C084E0809395
:10485000A3040E94CC1D8091E80083FF0AC08091D0
:10486000E800877F8093E8008091EB00806280936E
:10487000EB00AA96E3E00C942326CF938091A30447
:104880008823A1F0C091E900CF709091EC00892FAE
:10489000817090FD80E8C82B1092E9008091E800BB
:1048A00083FD0E94E822CF70C093E900CF91089564
:1048B0000E9456211092A3040895E8EDF0E0808153
:1048C000806180838AE18A95F1F700C08091D900E8
:1048D000817008955058BB27AA270E9482240C9407
:1048E0002B250E941D2538F00E94242520F039F444
:1048F0009F3F19F426F40C941A250EF4E095E7FB7B
:104900000C941425E92F0E943C2558F3BA1762072E
:1049100073078407950720F079F4A6F50C945E25BB
:104920000EF4E0950B2EBA2FA02D0B01B9019001CA
:104930000C01CA01A0011124FF27591B99F0593F0E
:1049400050F4503E68F11A16F040A22F232F342F56
:104950004427585FF3CF469537952795A795F040A4
:104960005395C9F77EF41F16BA0B620B730B840BB9
:10497000BAF09150A1F0FF0FBB1F661F771F881F71
:10498000C2F70EC0BA0F621F731F841F48F48795C9
:1049900077956795B795F7959E3F08F0B0CF9395BB
:1049A000880F08F09927EE0F979587950895E8945A
:1049B00009C097FB3EF490958095709561957F4F67
:1049C0008F4F9F4F9923A9F0F92F96E9BB27939515
:1049D000F695879577956795B795F111F8CFFAF425
:1049E000BB0F11F460FF1BC06F5F7F4F8F4F9F4F56
:1049F00016C0882311F096E911C0772321F09EE8B4
:104A0000872F762F05C0662371F096E8862F70E019
:104A100060E02AF09A95660F771F881FDAF7880FF3
:104A20009695879597F9089597F99F6780E870E0C4
:104A300060E008959FEF80EC089500240A94161614
:104A4000170618060906089500240A94121613067C
:104A5000140605060895092E0394000C11F488230A
:104A600052F0BB0F40F4BF2B11F460FF04C06F5F26
:104A70007F4F8F4F9F4F089557FD9058440F551FFC
:104A800059F05F3F71F04795880F97FB991F61F0D0
:104A90009F3F79F087950895121613061406551F47
:104AA000F2CF4695F1DF08C0161617061806991FB3
:104AB000F1CF86957105610508940895E894BB27A8
:104AC00066277727CB0197F908950E9478250C94E3
:104AD0002B250E941D2538F00E94242520F09523C7
:104AE00011F00C9414250C941A2511240C945F25B4
:104AF0000E943C2570F3959FC1F3950F50E0551F20
:104B0000629FF001729FBB27F00DB11D639FAA2722
:104B1000F00DB11DAA1F649F6627B00DA11D661F71
:104B2000829F2227B00DA11D621F739FB00DA11D92
:104B3000621F839FA00D611D221F749F3327A00D4C
:104B4000611D231F849F600D211D822F762F6A2FE8
:104B500011249F5750409AF0F1F088234AF0EE0F4D
:104B6000FF1FBB1F661F771F881F91505040A9F77A
:104B70009E3F510580F00C9414250C945F255F3FF7
:104B8000E4F3983ED4F3869577956795B795F795B6
:104B9000E7959F5FC1F7FE2B880F911D969587952E
:104BA00097F90895991B79E004C0991F961708F0AA
:104BB000961B881F7A95C9F780950895AA1BBB1B81
:104BC00051E107C0AA1FBB1FA617B70710F0A61B0D
:104BD000B70B881F991F5A95A9F780959095BC012E
:104BE000CD010895EE0FFF1F0590F491E02D09947B
:104BF0002F923F924F925F926F927F928F929F92ED
:104C0000AF92BF92CF92DF92EF92FF920F931F93DA
:104C1000CF93DF93CDB7DEB7CA1BDB0B0FB6F8948B
:104C2000DEBF0FBECDBF09942A88398848885F84CB
:104C30006E847D848C849B84AA84B984C884DF803C
:104C4000EE80FD800C811B81AA81B981CE0FD11D20
:104C50000FB6F894DEBF0FBECDBFED010895FB0186
:104C6000DC0104C08D910190801921F44150504025
:104C7000C8F7881B990B0895FB01DC0102C0019065
:104C80000D9241505040D8F70895F999FECF92BD4A
:104C900081BDF89A992780B50895A8E1B0E042E077
:104CA00050E00C948926DC01A40FB51F4150504000
:104CB00048F0CB01840F951F2E910E94642641502D
:104CC0005040D0F70895262FF999FECF92BD81BDAF
:104CD000F89A019700B4021639F01FBA20BD0FB63A
:104CE000F894FA9AF99A0FBE08950396272F0E9416
:104CF00064260E946326252F0E946426242F0C948C
:104D000064260196272F0E9464260C946326DC01FA
:104D1000CB01FC01F999FECF06C0F2BDE1BDF89AC6
:104D2000319600B40D9241505040B8F70895F89470
:024D3000FFCFB3
:104D320070020100000001000000000000000301F9
:104D4200000000040400000000000040111D3B1D93
:104D5200141D151D161D013632330100030507020D
:104D62009466979402736C6176655F6D6174726983
:0E4D7200780073796E635F74696D657200007E
:00000001FF
