:100000000C9425020C9442020C9442020C94001CA5
:100010000C9442020C9442020C9442020C94420250
:100020000C9442020C9442020C9442220C9414232D
:100030000C947E1A0C9442020C9442020C944202DC
:100040000C9442020C9442020C9442020C94420220
:100050000C9442020C94231B0C9442020C94420216
:100060000C9442020C9442020C9442020C94420200
:100070000C9442020C9442020C9442020C944202F0
:100080000C9442020C9442020C9442020C944202E0
:100090000C9442020C9442020C9442020C944202D0
:1000A0000C9442020C9442020C944202CB08CB08FE
:1000B000F708F7083C0A3C0A3C0A3C0A4D09C30908
:1000C000D409D40929189B183118FB17FF173518C4
:1000D0000218381843180D189118111847181518D8
:1000E0004B18751819184F187F181F1855185F18D6
:1000F00006183C1809183F1824185A186B188B1842
:100100008D18F7172D18A4183E19441932193819EB
:100110004A19501956197C23A3239B24A3239B24FB
:10012000EF2312249B24692478240A0025346400D8
:100130000A0014001A0008001500170029380400EE
:100140001600070009000A002D411D001B000600D3
:10015000190005002B21130012000C0018001C00D0
:10016000E20033000F000E000D000B002C223800BF
:100170003700360010001100284229231600130012
:1001800000002B00E7002B2104001D0006001B00CF
:100190002152000000000000000000002B21270277
:1001A0002602520024022302E2002A004F005100DE
:1001B00050004A002C224C0030002F0028004D0037
:1001C00023521E001F00200021002200E700230010
:1001D00024002500260027002352E000E100000053
:1001E000000000002B21380238002B0030002F00C7
:1001F000E200E5002E003500310031020000E5008C
:10020000000035022E02280000001E021F022002FC
:100210002102220200000000000000000000000097
:1002200000003A003B003C003D003E000000300072
:100230002F00250224022302000030022F020000BA
:1002400031003102000043004200410040003F0005
:10025000000044454255473A2064697361626C6509
:10026000642E0A0044454255473A20656E61626C2F
:1002700065642E0A000A0025303258006C65645F00
:100280007461736B3A20004F6E6573686F743A2027
:100290006163746976653A2025640A000A00253096
:1002A0003862003A200025303258000A722F63204D
:1002B00030313233343536370A0054617267657431
:1002C00020636F6E6E65637465640D0A005461721D
:1002D00067657420646973636F6E6E6563746564CB
:1002E0002C207468726F74746C696E6720636F6E13
:1002F0006E656374696F6E20617474656D7074737C
:100300000D0A004661696C656420746F206578652C
:10031000637574652025730A000A00253032582061
:10032000006B6579626F6172645F7265706F727481
:100330003A2025303258207C200073757370656E2A
:1003400064696E67206B6579626F6172640D0A0083
:100350005B575D005B535D005B525D005B445D007D
:100360005B435D000E036D0069006E00690065006F
:1003700063000000160367006F0072006F007000DA
:1003800069006B0061007200690000000403090449
:1003900009024200020100A0FA0904000001030161
:1003A0000100092111010001224400070581030811
:1003B00000010904010002030000000921110100ED
:1003C0000122220007058203200001070502032005
:1003D00000011201000200000008EDFE0000000113
:1003E000010200010631FF0974A1010975150026FB
:1003F000FF009520750881020976150026FF0095FB
:100400002075089102C005010906A101050719E040
:1004100029E71500250195087501810295017508E8
:1004200081010507190029FF150026FF00950675B3
:100430000881000508190129051500250195057594
:10044000019102950175039101C011241FBECFEFE8
:10045000DAE0DEBFCDBF11E0A0E0B1E0E2E1FEE412
:1004600002C005900D92AE34B107D9F724E0AEE496
:10047000B1E001C01D92AC3AB207E1F70E947F17CC
:100480000C9407270C940000FF93EF93E0914E012A
:10049000F0914F01309709F00995EF91FF91089580
:1004A000FC018591803011F0EFDFFBCF0895FF272D
:1004B000E0E230E247FF0CC0419597FF09C0EDE252
:1004C0006095709580959095611D711D811D911DA0
:1004D00027FF02C0219530E350E2AA27660F771F5D
:1004E000881F991FAA1FA41710F0A41B63955A9583
:1004F000A9F7AA3008F0A95FA05DAF93F395611545
:1005000071058105910541F7ED3211F4EF93F395F3
:10051000F21718F43F93F395FBCF8F91B5DFFA955F
:10052000E1F70895E991F9918591803021F08532C4
:1005300019F0AADFF9CF089520E0E89455915532DB
:10054000C1F3503311F4689455915A3348F4505321
:1005500090F3220F022E220F220F200D250FF4CF31
:100560000EF4219589919991533619F3533729F156
:10057000533559F1BC0188279927E8945C3621F45A
:100580008991999168945591543639F446EF7EF0EB
:1005900077FF0DC08FEF9FEF0AC055374AE039F063
:1005A000583540E121F0523642E009F00895FF93BA
:1005B000EF937DDFEF91FF91B7CFFF93EF93FC01B6
:1005C00081918030B9F360DFFBCFFF93EF9368DF59
:1005D000F1CFDF93CF93CDB7DEB72596A3DFCF91D1
:1005E000DF9108954F925F926F927F928F929F92C8
:1005F000AF92BF92CF92DF92EF92FF92CF93DF93B1
:10060000EC016A017B018889882349F04887598772
:100610006A877B874C875D876E877F87188A8C8087
:100620009D80AE80BF80288539854A855B85C50160
:10063000B4010E94D5252B013C01A5019401C701FD
:10064000B6010E94D5259B01AC01C301B2010E94F5
:10065000DB244B015C012C853D854E855F856881DF
:1006600079818A819B810E94D5259B01AC01C501BE
:10067000B4010E94DB24C886D986EA86FB866C8793
:100680007D878E879F87DF91CF91FF90EF90DF90DE
:10069000CF90BF90AF909F908F907F906F905F9022
:1006A0004F900895A4E0B0E0E8E5F3E00C947826DC
:1006B00069837A838B839C8389819A81AB81BC8196
:1006C000892B8A2B8B2B61F089819A81AB81BC812C
:1006D0000197A109B10989839A83AB83BC83ECCFCD
:1006E0002496E2E00C949426219AE62FF0E0E65D51
:1006F000FE4F908190FF02C02E9A01C02E9891FF6C
:1007000002C02A9A01C02A9892FF02C02B9A01C007
:100710002B98A0E3B1E061E070E021E0A333B207E1
:1007200089F09D91E92FE295EF70F0E022A19F7092
:10073000AB0101C0440F9A95EAF7942F909592234C
:1007400092A3EBCFF89421982998E82FF0E0E05D90
:10075000FE4F9081E92FE295EF70F0E032A1292F52
:100760002F7081E090E001C0880F2A95EAF7832B73
:1007700082A386EF0E947C1D7894811524E0920765
:1007800028F4969587959695879508958FEF90E034
:100790000895A4E0B0E0EFECF3E00C946E2619822B
:1007A0001A821B821C8289819A81AB81BC8100E004
:1007B00010E036E0E32EF12CC801B7010E944E266E
:1007C0000E947403A0E0B0E089839A83AB83BC836A
:1007D0006AE070E080E090E00E9452030F5F1F4FDC
:1007E0000231110549F794E1A92EB12C26E0822EA1
:1007F000912C80E5C82E81E0D82E760100E010E033
:10080000C801B4010E944E260E947403D7012D91A5
:100810003C91820F931FF701819391937F016AE0CE
:1008200070E080E090E00E9452030F5F1F4F0231A2
:10083000110531F7F1E0AF1AB108D9F6E5E0F4E0BF
:1008400020E530E0D6018D919D916D018115B0E5D7
:100850009B0720F4B9010E944E2601C06FEF608310
:10086000168261836283638364836583379644E081
:10087000E338F40739F72496ECE00C948A26FC015F
:1008800098E4ACEBB1E001900D929A95E1F72998CC
:10089000219A80E40E94211DA0E3B1E041E050E0F4
:1008A00071E0A333B707B1F08D91E82FE295EF70B7
:1008B000F0E021A18F70BA0102C0660F771F8A9500
:1008C000E2F7CB01922F982B91A392A180958923D7
:1008D00082A3E6CFA7E2B1E021E030E071E0AA32E6
:1008E000B70789F08D91E82FE295EF70F0E041A114
:1008F0008F70B90102C0660F771F8A95E2F7CB01AE
:10090000842B81A3EBCF219829980E94C90380E012
:1009100090E008950F931F93CF93DF93FC015081D4
:10092000A42FB0E0E52FF0E0042E02C0F595E79586
:100930000A94E2F7062F10E0E0FF1BC0E6E0E09F1C
:10094000B001E19F700D1124A60FB71FAA0FBB1FA6
:10095000A454BE4F6D917C912617370708F045C00F
:1009600021E030E001C0220F4A95EAF720952523C7
:1009700027C0E62FEE0FE60FE40FCE2FD0E067E0A2
:10098000E69FF0011124EB5FFB4FE081F6E0F09F62
:10099000B001F19F700D1124A60FB71FAA0FBB1F46
:1009A000A052BE4F6D917C916E0F711D621773073F
:1009B00058F421E030E001C0220F4A95EAF7252BD8
:1009C000FC01208381E012C0B90180E090E00E9428
:1009D0004725AB01BC0121E12C9FC0012D9F900D4B
:1009E00011248D529D4F0E94F20280E0DF91CF9141
:1009F0001F910F910895A0E0B0E0E1E0F5E00C94C4
:100A000070265C0184E7C82E81E0D82E10E000E05B
:100A10007601C0E0D0E0612F8C2F0E947403F701B3
:100A2000918380839C01412F6C2FC5018C0F9D1FEA
:100A30000E948A04082B2196FCE0EF0EF11CC330C3
:100A4000D10549F782E0C80ED11C1F5F163001F7AF
:100A5000802FCDB7DEB7EAE00C948C26A0E0B0E0A2
:100A6000E4E3F5E00C947226C4E7D1E08CE2E82ED2
:100A700081E0F82E9AE2C92E91E0D92E81E0C839A2
:100A8000D807F1F000E010E0FE01E00FF11F8181D6
:100A90008F9380818F93FF92EF920E94E9020E5F05
:100AA0001F4F0F900F900F900F900C30110561F7B2
:100AB000DF92CF920E94E9022C960F900F90DECF2A
:100AC000CDB7DEB7E8E00C948E260895A8E4B0E038
:100AD000ECE6F5E00C94762655985D9820982898D9
:100AE0000E945D159E012F5F3F4FBE016B5D7F4FE2
:100AF000C901A9E1B0E003E210E0F90140E050E0F3
:100B0000A193B19313A302A34F5F5F4F46305105EA
:100B1000B9F7245F3F4F2617370779F72091020175
:100B20000E943F0480910201811102C093E001C044
:100B300090E09093880483E0891B809387040E944F
:100B40006F15C85BDF4FE4E00C949226CF930E94B0
:100B5000FB04C82F80910402909105029C012F5F35
:100B60003F4F8C32914029F03093050220930402CC
:100B70000AC010920502109204020E942E0580E322
:100B800091E00E9450028C2FCF910895CF938FE86F
:100B900094E00E94A605C82F6091880470E06B560F
:100BA0007B4F282F43E08FE894E00E9406150E94B7
:100BB0008E148C2FCF9108950E94371108950E94B2
:100BC0003A1108958430B0F46630A0F4463090F4C1
:100BD00094E2899FF001112486E0689FE00DF11DE9
:100BE0001124E40FF11DEE0FFF1FEE5CFE4F859107
:100BF0009491089581E090E008950E94E20508959F
:100C000081E0089581E008950E94020608950E94FF
:100C1000040608950E940206089508950E940D0694
:100C20000895A6E0B0E0E7E1F6E00C94772649836A
:100C30005A839E8330910B0289819A81311115C0AC
:100C40003E81332359F0222349F00E94EE0B182FE6
:100C5000682F89819A810E94CA0B03C00E94DC0B15
:100C6000182F69817A81812F04C00E94EE0B69815F
:100C70007A810E94C4122696E3E00C949326FC012C
:100C8000262F4081518162817381848195810E94E8
:100C900011060895CF93DF93EC0161E00E943F06B7
:100CA000BE010E940706DF91CF910895CF93DF9395
:100CB000EC0160E00E943F06BE010E940E06DF913B
:100CC000CF91089581E008950E9462060895CF9320
:100CD000C82F0E94A10A8C2F0E9464062FEF84E384
:100CE0009CE0215080409040E1F700C00000CF918F
:100CF000089581E00E9467060E94491B089580E0E4
:100D00000E9467060E945A1B08950F931F93CF936A
:100D1000DF938C0161E00E943F06EC01B8010E9464
:100D20000A06882309F45BC0B801CE010E94261987
:100D3000882309F454C0B801CE010E94D317882338
:100D400009F44DC0B801CE010E94A917882309F407
:100D500046C0F80185818823E9F1C3308CE7D807C4
:100D600079F158F4C130FCE7DF0761F1A0F4C11557
:100D7000DC4781F50E94790632C0CB35FCE7DF07FE
:100D800039F1CC358CE7D80701F1CA35DC4711F5CC
:100D90000E943F101FC080918A02C82FC095C17069
:100DA000C0FB80F980938A02CC2329F084E692E08C
:100DB0000E94500214C082E592E00E94500210C0CE
:100DC0000E9447100E947F060AC00E94351002C090
:100DD0000E944310C8010E940006C82F01C0C0E055
:100DE0008C2FDF91CF911F910F9108950E94571A78
:100DF0000E942F0708950E9433070E94601A0895E9
:100E00008295982F937344E0949F900111248C7CD9
:100E100086958695282B822F8575880F2A7A2695A8
:100E2000822B0895089581E008950895CF93DF936C
:100E3000D82F0E941307C82F882319F08D2F0E94E6
:100E400015078C2FDF91CF9108950895CF93C82F68
:100E50000E9412078C2F0E941607CF91089580E000
:100E60000E94260708950E946E190E942607089581
:100E7000CF930E946E19C82F80910602C81789F17E
:100E8000C09306020E94EC1A609307027093080256
:100E90008093090290930A0280918A0282FF1EC009
:100EA00080FF04C08CE792E00E94500280918A0289
:100EB00080FF0CC01F92CF9387E792E09F938F93A0
:100EC0000E94E9020F900F900F900F9080918A027C
:100ED00080FF04C085E792E00E9450028C2F0E94A0
:100EE0002607CF910895ADE0B0E0E9E7F7E00C9474
:100EF0007826488759876A877B878C879D879111D9
:100F00000E945D0FCE01019627E0FC0111922A9507
:100F1000E9F726E0FE013896DC0101900D922A9552
:100F2000E1F72D8121110AC029813A814B815C8131
:100F30006D817E818F810E94A70E04C00E944A06A7
:100F40008111F2CF2D96E2E00C949426FC012481CD
:100F5000213021F4808191810E94200C0895CF934B
:100F6000882309F465C0C82F8238A1F40E94821931
:100F700081FD5EC089E30E94181A0E94BF0F2FEF07
:100F800087EE93E0215080409040E1F700C00000E0
:100F900089E32BC08338A1F40E94821980FD48C0E8
:100FA00083E50E94181A0E94BF0F2FEF81EE94E094
:100FB000215080409040E1F700C0000083E515C05B
:100FC0008438B1F40E94821982FD32C087E40E9405
:100FD000181A0E94BF0F2FEF81EE94E0215080403D
:100FE0009040E1F700C0000087E40E94201A1EC074
:100FF0008CEF8C0F813A70F48C2F0E94DD198823BE
:1010000029F08C2F0E94201A0E94BF0F8C2F0E9463
:10101000181A0CC080E28C0F883050F4C77081E041
:1010200001C0880FCA95EAF70E94400F0E94BF0FC7
:10103000CF9108958823E9F1823859F40E948219EA
:1010400081FF37C089E30E94181A0E94BF0F89E30D
:101050001EC0833859F40E94821980FF2AC083E59C
:101060000E94181A0E94BF0F83E511C0843859F4FA
:101070000E94821982FF1DC087E40E94181A0E94F4
:10108000BF0F87E404C09CEF980F913A18F40E94B8
:10109000201A0DC090E2980F983058F4877091E0B4
:1010A00001C0990F8A95EAF7892F0E94460F0E9486
:1010B000BF0F08951F93CF93DF93182FEB010E946A
:1010C000AF07209741F08FE99FE00197F1F700C04B
:1010D00000002197F6CF812F0E941A08DF91CF914F
:1010E0001F910895893319F065E070E002C060E552
:1010F00070E00E945A080895882321F00E94400F52
:101100000E94BF0F0895882321F00E94460F0E947D
:10111000BF0F0895A0E0B0E0E0E9F8E00C9472267B
:101120007C01D62FC72FFC011581068102950F7017
:101130000E94360F8823F9F01123E9F08C2F807F6D
:10114000803461F080E28D0F8830A8F08C2F807E93
:10115000803221F4D23078F0002369F080918E043F
:1011600082FF09C082E00E94F50F0E94360F91E0D5
:10117000D82ED92601C0D12CCC2EC2948FE0C82203
:101180008C2D90E08C30910508F076C1FC01EA5A74
:10119000FF4F0C9462268C2F807FCF70882311F034
:1011A000C295C07F112399F0CC2309F44CC180E291
:1011B0008D0F883010F0D11104C08C2F0E94400F89
:1011C00003C08C2F0E94500F0E94BF0F3CC18D2F77
:1011D0000E941A08CC2309F44FC180E28D0F883099
:1011E00038F1DD2329F18C2F0E94560F24C08C2F5B
:1011F000807FCF70803211F0C295C07FDD2319F05F
:10120000D13099F13CC080918E0482FD17C011232A
:1012100049F0CC2329F08C2F0E94400F0E94BF0F71
:1012200080E012C180E00E941A08CC2309F424C196
:101230008C2F0E94460F0E94BF0F1EC1112349F040
:10124000002309F1013009F017C18C2F0E94670FAC
:1012500013C1011111C18C2F0E9483088C2F0E9491
:10126000730F8C2F0E94C80F07C1112321F0063085
:1012700008F002C108C0053008F0FEC00AC0112302
:1012800031F00111E0C08C2F0E947C08F5C00111E3
:10129000E0C08C2F0E948308EFC08C2F8370B1F5C3
:1012A0001111EEC04D2F429546954770440F440FE3
:1012B0008D2F8F7090E09C01042E02C0220F331FEF
:1012C0000A94E2F7D4FF0AC08FE090E002C0880FD2
:1012D000991F4A95E2F78095909502C080E090E0D2
:1012E000C695C695C370822B932BC23049F058F433
:1012F000C13019F00E94FD0AC3C00E94F40AC0C0A8
:101300000E94060BBDC00E94F10ABAC0112319F059
:101310008C2F817001C08695882309F4B1C04D2FB0
:10132000429546954770440F440F8D2F8F7090E083
:101330009C01042E02C0220F331F0A94E2F7D4FF4F
:101340000AC08FE090E002C0880F991F4A95E2F72B
:101350008095909502C080E090E0C695C695C370D8
:10136000822B932BC23049F058F4C13019F00E94FF
:10137000650B86C00E945C0B83C00E946E0B80C010
:101380000E94120B7DC0CF70112339F08C2F0E9468
:101390002A0B8D2F0E947C0873C08D2F0E9483081A
:1013A0008C2F0E943A0B6CC0D23F21F128F4D03F21
:1013B00041F0D13FC1F043C0D33F19F1D43F79F0A0
:1013C0003EC0112341F0053008F056C08C2F8F71BC
:1013D0000E944C0B51C0063008F04EC0F7CF8091F0
:1013E0008E0482FD18C0112339F08C2F8F710E945A
:1013F0002A0B42C01123C9F38C2F8F710E943A0B24
:101400003BC0112329F08C2F8F710E941E0B34C01A
:101410000E94190B31C0112349F0CF718C2F0E940B
:101420002A0B63E08C2F0E94D70F26C081E00E9418
:10143000F50F023008F182E00E94F50F1DC0112364
:1014400031F0002391F28D2F0E94AF0715C00023C9
:1014500099F2D93341F4FFEF27EE83E0F1502040B9
:101460008040E1F704C0EFE1FEE43197F1F700C0FE
:1014700000008D2F0E941A0888EF8C0D843020F414
:101480000E946E190E942607DD2089F00E94320F0B
:1014900080FD0DC0F70115820E942C0F0E942A0BBF
:1014A000C7010E94740A0E942C0F0E943A0BCDB70C
:1014B000DEB7E8E00C948E260F931F93CF93DF9353
:1014C000EC01688179818D810E942B0C8C010E9436
:1014D000770B0E94E20AB801CE010E948A08DF91D0
:1014E000CF911F910F910895CF93DF93FC01248139
:1014F0002223D1F0EC010E94850681110FC00E94C9
:10150000360F882389F08D81882371F080918E04B5
:1015100082FF0AC082E00E94F50F06C0CE010E9441
:101520005C0ACE010E945606DF91CF9108950E9479
:101530005D0F0E94BF0F08950E94281A0E94970A0B
:1015400008950E944D0F0E949C0A089592959F70E5
:10155000963079F010F4925001C09A50923068F4AD
:10156000803F69F018F4883E40F409C0843F29F4B4
:1015700006C0883E20F0813F11F080E0089581E0B0
:101580000895FC012481222339F0808191810E94F9
:10159000200C0E94A60A089580E00895A6E0B0E01D
:1015A000E4EDFAE00C9478262696E2E00C9494267A
:1015B000A7E0B0E0EEEDFAE00C9478262796E2E0A2
:1015C0000C949426089508950E94E30A08950E94B9
:1015D000E40A08950E94E70A90932302809322026E
:1015E00008950E94EA0A0895209122023091230270
:1015F000822B932B0E94EA0A0895209122023091B7
:101600002302822393230E94EA0A08952091220252
:1016100030912302822793270E94EA0A08950E94AC
:10162000E30A08950E940F0B9093210280932002F9
:10163000089580E090E00E94120B089521E030E0D0
:10164000A90102C0440F551F8A95E2F7CA010E9402
:10165000120B089521E030E002C0220F331F8A955B
:10166000E2F78091200290912102822B932B0E941D
:10167000120B089521E030E002C0220F331F8A953B
:10168000E2F72095309580912002909121028223EB
:1016900093230E94120B089521E030E002C0220F34
:1016A000331F8A95E2F780912002909121028227D0
:1016B00093270E94120B089520912002309121025D
:1016C000822B932B0E94120B0895209120023091BF
:1016D0002102822393230E94120B0895209120025D
:1016E00030912102822793270E94120B08950895BA
:1016F000962F9770A1E001C0AA0F9A95EAF793E0A0
:10170000769567959A95E1F7660F771F660F771FB5
:10171000FA01E60FF71F40E050E0682F70E090817B
:101720009B01042E02C0369527950A94E2F721709A
:10173000219529272A23292721934F5F5F4F443082
:10174000510569F70895FB01782F777023E096958E
:1017500087952A95E1F7880F991F880F991FE80F41
:10176000F91F40E050E080E0219130E0072E02C0F8
:10177000369527950A94E2F721703327042E01C08D
:10178000220F0A94EAF7822B4F5F5F4F44305105D6
:1017900059F70895282F963070F4863060F4862F1C
:1017A000622F70E026E0929F600D711D11244CE0C5
:1017B00052E00E94780B0895963070F4863060F401
:1017C000292F90E06CE072E036E0239F800D911DA0
:1017D00011240E94A30B089580E00895A0E0B0E0DA
:1017E000E4EFFBE00C9471267C0100912002109143
:1017F00021028091220290912302082B192BCFE025
:10180000D0E0CC24C394D12CC6010C2E02C0880F8A
:10181000991F0A94E2F780239123892B21F42197C1
:1018200098F7B12C07C0BC2EB7018C2F0E94D012A4
:101830000197A9F38B2DCDB7DEB7E9E00C948D2687
:10184000CF93DF93EC010E94EE0BBE010E94D012F9
:10185000DF91CF9108951F93CF93DF93EB01909188
:101860000B02992321F0CB010E94200C13C0882386
:1018700049F0CB010E94EE0B182F682FCE010E9479
:10188000CA0B04C0CB010E94DC0B182FBE01812FB4
:101890000E94D012DF91CF911F9108951F93CF9393
:1018A000DF93C091240217E080912502C817A1F0B0
:1018B000D0E01C9FF0011D9FF00D1124EA5DFD4F4B
:1018C00020813181428153816481758186810E94AA
:1018D000D80A2196C770E8CFDF91CF911F91089564
:1018E00020915E0230915F0240916002509161024E
:1018F0006091620270916302809164020E94D80A32
:101900000895CF93DF938091640282958F7009F0E0
:101910004EC080916302882309F449C0809124025B
:101920004091250250915F0260915E02C091600279
:10193000D091610277E08417D1F190E0789FF001B7
:10194000799FF00D1124DF01AA5DBD4F14962C91F3
:101950001497222349F111962C911197251324C035
:101960002C91261321C015962C91159721111CC07E
:1019700012962D913C9113972C1B3D0B2D37310561
:1019800098F4809164028F70806180936402E45DBA
:10199000FD4F80818F70806180838EE592E00E9490
:1019A000740A0E944E0C03C001968770C4CFDF9169
:1019B000CF910895209124029091250257E0291794
:1019C000A9F030E0529FF001539FF00D1124EA5D21
:1019D000FD4F7181761306C07081781303C0758145
:1019E000741306C02F5F3F4F2770E9CF80E0089542
:1019F00081E00895A4E1B0E0E0E0FDE00C946E2603
:101A00008C0186E0F801DE011F9601900D928A9507
:101A1000E1F7D80114968C9114971596EC909EE5F9
:101A2000A92E92E0B92E90916202911118C08823DC
:101A300009F486C1EE20D9F1C8010E94C10AF82E2E
:101A40008823A9F187E0F801D50101900D928A95CC
:101A5000E1F7C5010E94A6070E94810C6EC1F80142
:101A6000C080D18082809380F090630220916002D8
:101A700030916102A401421B530BFF2009F400C105
:101A80004D37510508F0ACC0882309F45BC1809143
:101A90006402282F207F90915F02222361F09D1520
:101AA00009F46DC0C8010E94C10A811170C0C8014B
:101AB0000E94740A45C19D1116C090915E029C114E
:101AC00012C0E11010C08F708061809364020E9488
:101AD000700C8EE592E00E94740A80916402D80135
:101AE00016968C9317C0E11044C040E06D2D8C2DEC
:101AF0000E94DA0CE82E882379F08EE592E00E94AD
:101B0000740AEEE5F2E087E0DF011D928A95E9F7BD
:101B10000E94700CF12C16C1CF86D88A8F859889C7
:101B20000E94200C292F22952F70243020F49F70C2
:101B3000223028F009C02A50223080F014C09923A6
:101B400049F0811107C013C0992321F0F801968153
:101B5000907F69F0805E883030F409C0803F38F0B3
:101B6000815F833020F0C8010E94740AEF2CFE2CA4
:101B7000E9C080916402816080936402CBCF909130
:101B80005E029C118FCFE1108DCFD801A4C0EE2052
:101B900009F48DCF20916402822F82958F7090E09E
:101BA00002978CF080915E0290915F0299878887FE
:101BB0009B868A86809162028C871D862E87CE0145
:101BC00008960E94740A87E0F801AEE5B2E0019041
:101BD0000D928A95E1F70E94810C0E94700CB0C0B2
:101BE00090916402292F207F91F4682D9A8A898A26
:101BF000A6017A899E2D0E94CE0A8EE592E00E946F
:101C0000740A87E0F50111928A95E9F781CF88235C
:101C100009F498C080915F028D1110C080915E021E
:101C20008C110CC0E1100AC09683C8010E94740A8E
:101C300087E0F50111928A95E9F784C0C8010E94F6
:101C4000C10A882309F433CFEE2009F430CF209164
:101C50006402822F82958F7090E002970CF4B3CFCC
:101C600080915E0290915F029A8389839C828B822D
:101C7000809162028D831E822F83CE010196A1CFB7
:101C80004D37510508F04CC0882309F459C0FE2C8B
:101C9000EE2009F40CCF80915F028D1133C080914A
:101CA0005E028C112FC09091640290FD22C0892F9A
:101CB00082958F70282F30E021153105D1F0D801A1
:101CC00096832F30310549F08F5F982F9295907F42
:101CD00086818F70892B16968C93C8010E94740A96
:101CE00087E0F801AEE5B2E001900D928A95E1F748
:101CF00024C087E0F801AEE5B2E001900D928A952C
:101D0000E1F720C0C8010E94C10A81115CCF809117
:101D10006402816080936402C8010E94740A12C048
:101D2000682D9A8A898AA6017A899E2D0E94CE0AF8
:101D300087E0F50111928A95E9F70E94700C02C0C4
:101D4000FF24F3948F2D6496ECE00C948A26AEE089
:101D5000B0E0EDEAFEE00C947726288739874A87C1
:101D60005B876C877D878E87CE0108960E94FA0C70
:101D7000882361F06C856623A9F1288539854A8519
:101D80005B857D858E850E94D80A2CC087E0FE0188
:101D90003896DE01119601900D928A95E1F76C85D7
:101DA000662301F12091250230E0C9010196877078
:101DB00099274091240250E084179507E1F16D8343
:101DC00097E0929FD001939FB00D1124AA5DBD4F63
:101DD000FE01319601900D929A95E1F780932502CC
:101DE0000E944E0C17E080912402909125028917E1
:101DF00079F1189FC00111248A5D9D4F0E94FA0C51
:101E0000882331F1E09124021E9FF0011124EA5D44
:101E1000FD4F2081318142815381648175818681AA
:101E20000E94D80A8091240290E001968770992739
:101E300080932402D8CF0E94A10A1092250210920A
:101E40002402EEE5F2E087E0DF011D928A95E9F7D2
:101E50002E96E3E00C94932680916D0286958695EC
:101E60008695089580916D028770089590916D0216
:101E7000977081E009F480E00895809179020895D7
:101E800090917902892B80937902089580959091A1
:101E90007902892380937902089510927902089536
:101EA00090917802892B8093780208958095909183
:101EB0007802892380937802089510927802089519
:101EC00008950E94600F08950E94610F08959091F7
:101ED0006F02292F2823821729F0982B90936F02E5
:101EE0000E94640F089590916F02292F282331F0EA
:101EF0008095892380936F020E94640F08958091DA
:101F00006F02882329F010926F0280E00E94640F14
:101F100008950F931F93CF93DF93009100011091C9
:101F20000101C091790280917802C82B80916F02E3
:101F3000882331F0C82B0E94CE1981110E947F0F97
:101F4000F801C083C0910001D091010148E050E048
:101F500065E672E0CE010E949F26892B59F088E049
:101F6000FE01A5E6B2E001900D928A95E1F7CE015F
:101F70000E948519DF91CF911F910F9108950E94C2
:101F8000890F08950E94600F08950E94C20F08955E
:101F900090916E02292F282331F080958923809318
:101FA0006E020E94C50F08950E94600F08959091DF
:101FB0008E0492FF11C098E0899F90011124262B76
:101FC00020936D020E942A0B80916D028695869562
:101FD00086950E94D40F08950E942A0B08951092AE
:101FE0006D0280E00E94D40F089590916D0280955B
:101FF000892380936D02282F277069F4981759F070
:1020000090918E0492FF07C08695869586950E94D2
:102010003A0B0E94EF0F0895CF9390918E0492FB9C
:10202000222720F92817F9F0C82F892FC0FB82F941
:1020300080938E0480918D0490918E040E9468108C
:1020400082E00E94F50F80918A0280FF0CC01F92EF
:10205000CF9387E892E09F938F930E94E9020F90BD
:102060000F900F900F90CF91089580918E0482FB76
:10207000882780F991E089270E940C10089581E05B
:102080000E940C10089580E00E940C1008956FEFDC
:102090007FEF80E090E00E94F126089580E090E0DC
:1020A0000E94BD2621E0863E9E4F09F020E0822F4F
:1020B000089582E090E00E94B526089583E090E0C4
:1020C0000E94B526089584E090E00E94BD26089500
:1020D000BC0184E090E00E94F1260895AB01BC01B0
:1020E0008FE090E00E94E5260895AB01BC0183E1FA
:1020F00090E00E94E526089560E070E0CB010E9428
:102100007510089560E070E0CB010E946E100E948F
:102110007C100895A8E0B0E0E0E9F0E10C947826A6
:1021200066EE7EEF80E090E00E94F12660E082E0C3
:1021300090E00E94D32681E090E090932302809368
:10214000220261E083E090E00E94D32660E074E127
:1021500084E090E00E94F12660E086E090E00E943A
:10216000D3266FEF87E090E00E94D32640E050E056
:10217000BA0188E090E00E94E52660E084E290E009
:102180000E94D32660E087E190E00E94D32660E0C1
:102190008CE090E00E94D32660E08DE090E00E9409
:1021A000D32619821A821B821C821D821E821F82E4
:1021B000188648E050E068E170E0CE0101960E9488
:1021C000C32640E050E0BA0180E290E00E94E5269C
:1021D0000E9482102896E2E00C9494260E948A10B5
:1021E0000895682F8EE090E00E94D3260895A6E01F
:1021F000B0E0EDEFF0E10C9476260E94E01A8C013D
:1022000080917A0290917B020817190781F0198258
:102210001A820E94E01A682F49815A81792F80E042
:1022200090E00E94730710937B0200937A02269637
:10223000E4E00C9492260E94E61360938602709369
:102240008702809388029093890260938202709340
:1022500083028093840290938502089581E008951B
:102260000E945A15089508950E94331108950E94FE
:10227000331108950E94331108950E943311089577
:1022800080E19FE10E948C170E943D110E94DF05B2
:1022900008950E9434110E94331108950E941A1467
:1022A0000E94250708950E94D71A0E94C0130E9419
:1022B0005D150E94E6140E944E110E9491170E9423
:1022C0006F150E94DC050895A6E0B0E0EAE6F1E1B2
:1022D0000C946F260E942E11811103C00E94F710EA
:1022E00053C00E94C6058CE7E82E82E0F82E6701F5
:1022F00000E0F60111916F01802F0E9438148127B0
:102300000F5F063019F08823A1F302C0882331F350
:1023100080918A0281FD0E943E140E943011A82EF5
:1023200010E099249394812F0E943814B82EF7015D
:10233000C080C82609F100E0DD24D3948C2D8D21C6
:10234000A9F0AA2099F009831A830E94E01A9C83BD
:102350008B839D8291E08B2D8D2109F490E0498142
:102360005A816B817C818D810E9473070F5FDD0C28
:10237000063021F7F701B0821F5FFFEFEF1AFF0A67
:10238000163089F60E941B110E945A150E943807C8
:102390002696EBE00C948B261F93CF93DF930E943D
:1023A000D512EC01C11582E5D807C8F5C11590E535
:1023B000D90708F0BBC0C83ED105C0F4C03ED10566
:1023C00008F0DDC0C53AD10550F4C430D10508F09D
:1023D000D6C0219709F0D0C081E090E0D1C0CD3CBB
:1023E000D10508F4C9C0CE019065CAC0C11580E40A
:1023F000D80708F05AC0C11590E2D90708F0AFC05D
:10240000C11581E0D80708F4B7C08D2F0E94711361
:10241000182FCE0199270E94D5121F71ABC0C0386A
:1024200092E5D90720F5C03682E5D80708F061C0EB
:10243000C03492E5D90708F04AC0C03282E5D80717
:10244000F0F54C2F4695469590E2499FA001112446
:10245000C37021E030E0C90102C0880F991FCA95FE
:10246000E2F7EA01C82BD92BCE019D6889C0C03C98
:1024700092E5D90768F48C2F8F71C03AD24508F0E5
:102480004CC090E0D82FCC27CE01846F906A78C0E2
:10249000C03E82E5D80708F06FC0CF71DD27DC2F82
:1024A000CC27CE01806F906A6BC0CE0199270E9425
:1024B000D512CC27DF70D06A8C2B9D2B61C0CF71D9
:1024C000D0E0DC2FCC27CE01816F906A59C08C2FD1
:1024D0008F718695869590E2899F90011124C37033
:1024E00081E090E002C0880F991FCA95E2F79C68CE
:1024F00011C08C2F8F718695869590E2899F9001EF
:102500001124C37081E090E002C0880F991FCA9522
:10251000E2F79A68822B932B33C00E9471138F715C
:1025200090E0D82FCC27CE0190622AC08C2F8F71DB
:102530000E94711395E0D695C7959A95E1F7CF70F3
:10254000D0E0DC2FCC27282F30E084FF05C084E0CA
:10255000220F331F8A95E1F7D069CE01DBCF8D2F93
:102560008F710E947113182FCE0199270E94D512E6
:102570001F719062912B04C080E090E001C0CE01F9
:10258000DF91CF911F910895763038F4663028F4AA
:10259000462F672F0E94FD05089580E090E0089582
:1025A0000E94C4120E94CC1108958238910569F1ED
:1025B000B0F48133910509F475C048F4893291056E
:1025C00009F467C08A32910509F471C00895853312
:1025D000910509F459C089339105B9F00895833EF6
:1025E000910589F138F4803E9105D1F0823E910544
:1025F00029F10895863E9105C9F1873E9105D9F1EB
:10260000843E910509F06CC027C020918D0420FD07
:1026100057C021FD55C020918E0423FD5BC0089555
:1026200080918D0480FD48C080918E0480FF48C059
:1026300080918D0484FD46C083EE51C080918D044D
:1026400082FF3CC0F5CF80918D0482FD37C0809120
:102650008E0480FD35C0ECCF80918E0481FF36C0A2
:1026600080918D0484FD2EC087EE39C080918D0449
:1026700083FF2AC0F5CF80918D0483FD25C0809112
:102680008E0481FD23C0ECCF80918D0485FD22C096
:102690001FC080918D0485FD1BC080918E0483FF37
:1026A00019C00AC080918D0486FD16C017C08091A4
:1026B0008D0486FD13C010C089E311C082EE0FC0E7
:1026C00080EE0DC080E00BC086EE09C084EE07C02E
:1026D00085E305C089E203C08AE201C081E390E09E
:1026E000089590918D0492FF10C041E0282F24712D
:1026F000243009F040E031E0282F2871283009F01B
:1027000030E0431711F02CE0822793FF10C041E026
:10271000282F2471243109F040E031E0282F28715E
:10272000283109F030E0431711F02CE08227309176
:102730008E0430FF10C051E0282F2171213009F0A4
:1027400050E041E0282F2871283009F040E054176C
:1027500011F029E0822731FF10C041E0282F2171BC
:10276000213109F040E031E0282F2871283109F0AB
:1027700030E0431711F029E0822794FD877E089509
:102780001092890410928A0410928B0410928C0487
:102790000895CF92DF92EF92FF926B017C010E942D
:1027A0005A1581110EC00E94EC1AC61AD70AE80AFF
:1027B000F90AC0928904D0928A04E0928B04F092C4
:1027C0008C04FF90EF90DF90CF9008950F931F93AC
:1027D0000E945A15882319F00E94EC1A0EC00E941C
:1027E000EC1A0091890410918A0420918B04309195
:1027F0008C04600F711F821F931F1F910F9108950A
:102800000E94471008950E94C6058FE39CE9019736
:10281000F1F700C000000E94C60580E00E94381455
:1028200080FF04C00E9400140E94491B08950E946A
:10283000031408950E944E10811102C00E94EE10F0
:102840000E94591080938A020E94631090938E0414
:1028500080938D040E9417140E945E1090E00E94E5
:10286000F10A80912002909121020E940F0B08959D
:10287000E82FF0E0EB56FB4F80810895A0E0B0E038
:10288000E4E4F4E10C9472268BEA92E00E94500298
:1028900085E9E82E84E0F82EC0E0D0E096EAC92E63
:1028A00092E0D92E0EE912E0DF93CF93DF92CF9220
:1028B0000E94E90283EA92E00E945002F7018191AE
:1028C0007F010E9400071F928F931F930F930E9416
:1028D000E9028CE992E00E94500221968DB79EB7E2
:1028E00008960FB6F8949EBF0FBE8DBFC630D105B7
:1028F000D9F6CDB7DEB7E8E00C948E2608950E9495
:102900007E1408950E947F1408950E947E140895F5
:102910000E94851408950E9465050895A3E0B0E023
:10292000E4E9F4E10C9476260E945A15609188043B
:102930008823D1F119821A821B82862F90E08E01A2
:102940000F5F1F4FB8018B569B4F0E947D15882348
:1029500089F08091870490E043E050E0B8018B5605
:102960009B4F0E949F2621E020938B02892B69F4C4
:1029700010E017C080918B028823D1F383E0F80127
:1029800011928A95E9F710928B02E0918704F0E0AA
:10299000EB56FB4F89819A81AB8180839183A2831F
:1029A00011E00E9482140DC070E06B567B4F809145
:1029B000870490E08B569B4F0E9418160E948B1440
:1029C00010E0812F2396E4E00C949226809102017E
:1029D000811102C093E001C090E09093880483E0ED
:1029E000891B809387040E946605EFE8F4E0A5E95F
:1029F000B4E011921D9284E0E539F807D1F783E045
:102A00000E9405150E94881408950895EF92FF9280
:102A10000F931F93CF93DF937C018B01C42F22234D
:102A200051F081E080938E020E94E01A90938D0213
:102A300080938C0204C080918E02811102C080E0DC
:102A40001AC080918C0290918D020E94F81A05970D
:102A5000B0F3D0E0AE01B701C8010E949F26892BD8
:102A600039F0AE01B701C8010E94AC2681E001C077
:102A700080E010928E02CDB7DEB7E6E00C9490268F
:102A800084988C988FE891E00197F1F700C00000DE
:102A90008FB1829581700895CF930E94CD24C82F65
:102AA000811102C00E94C8248C2FCF91089580917B
:102AB000920208958091910208950E944C1580938E
:102AC00091020E944015809392020E9457158093B4
:102AD00002010E945A1581110E94C71508950E9493
:102AE0005A15811102C00E94CA15089581E0909183
:102AF00093029A3008F080E00895EF92FF920F93CE
:102B00001F93CF938C017B01C0919302CA3038F49C
:102B1000B701C8010E941516811126C00AC0809114
:102B20008F02909190020E94F81A843F914080F7A2
:102B300019C0809193028F3F19F08F5F80939302A9
:102B4000809193028A30E0F00E94E01A9093900204
:102B500080938F0280918A0280FF04C08DEC92E006
:102B60000E94500280E00DC0CA3040F080918A027D
:102B700080FF04C08AEB92E00E9450021092930200
:102B800081E0CF911F910F91FF90EF9008950E94E7
:102B9000BB1B08950E94BE1B0895A0E0B0E0E3EDCA
:102BA000F5E10C9473267901C82F880FDD0B4115D0
:102BB0005105A9F0FE0193E0EE0FFF1F9A95E1F792
:102BC000ED5FFE4F818192818C569D4F208130E0D8
:102BD0004217530708F49A01A9010E94AC26CE01BE
:102BE0000E94A61CD82E8823D1F001151105B9F03A
:102BF00083E0CC0FDD1F8A95E1F7FE01ED5FFE4F0C
:102C0000438150E00417150708F4A801CD5FDE4F9B
:102C10006C817D816C567D4FC7010E94AC268D2D45
:102C2000CDB7DEB7E7E00C948F260E9420170895F9
:102C30000E943B170895A4E0B0E0E1E2F6E10C94B5
:102C400076266091A7027091A8028091A9029091C6
:102C5000AA020E94071B643671058105910528F1BF
:102C60000E94E613DC01CB010296A11DB11D8983F0
:102C70009A83AB83BC8300E010E020E030E044E0C6
:102C800050E0BE016F5F7F4F82E00E94CD15182F8C
:102C9000882361F00E94EC1A6093A7027093A80247
:102CA0008093A9029093AA0201C011E0812F24967B
:102CB000E4E00C949226A0E0B0E0E1E6F6E10C94AA
:102CC0006E267C015B01942E852E69010E9476158B
:102CD000811103C001E010E002C00AE010E0C1E091
:102CE000D0E0B501C701F6010995811129C02196EF
:102CF0000C171D078CF0CC9F9001CD9F300D300D2F
:102D0000112480E090E045E34A95F1F70000019638
:102D100028173907C1F7E5CF90918A02892F817072
:102D200090FF0FC08F929F9283E093E09F938F93C9
:102D30000E94E9020F900F900F900F9080E001C069
:102D400081E0CDB7DEB7ECE00C948A26A4E0B0E0D9
:102D5000ECEAF6E10C9470265B01E0903301F09010
:102D6000340101E010E09E012C5F3F4F40E050E055
:102D700060E070E080E00E94CD15182F882309F4F0
:102D80003EC067018FEFC81AD80A6091A302709104
:102D9000A4028091A5029091A6020E94071B6436AE
:102DA00071058105910518F103E010E09E012F5F88
:102DB0003F4F40E050E060E070E081E00E94CD15C0
:102DC000182F63E070E0C6010E94921791E02C81F9
:102DD000281390E0192329F10E94EC1A6093A302B2
:102DE0007093A4028093A5029093A6020FC063E0A3
:102DF00070E0C6010E9492179C818913D5CFF7011C
:102E000081819281A38189839A83AB83112349F0C5
:102E100089819A81AB818093A0029093A102A093B3
:102E2000A2028091A0029091A102A091A202F501BC
:102E300080839183A283812F2496EAE00C948C26D0
:102E40000F931F93CF93DF93EC018B0126EA36E1BA
:102E500045E351E00E945B16882341F02BE136E107
:102E600042E451E0B801CE010E945B16DF91CF91A0
:102E70001F910F9108950F931F93CF93DF93C091EC
:102E80003301D0913401CE01019623E0FB01DC0136
:102E900001900D922A95E1F763E070E00E9492178D
:102EA00088836C817D818E819F8100919C0210912D
:102EB0009D0220919E0230919F0260177107820748
:102EC000930751F060939C0270939D0280939E0241
:102ED00090939F020E94C913DF91CF911F910F9190
:102EE00008950E948D1F0E9453110E949A1F0895F9
:102EF0000E949F1F0E9464110E94C31F08950E9498
:102F0000771A0E94731F0E9440110E9471170E943D
:102F100078170E944911FBCF90934F0180934E0187
:102F200008950895FC01680F791F8FEF91E3E6176C
:102F3000F70771F02191822728E030E087FF03C076
:102F4000880F892701C0880F21503109B9F7EFCFC9
:102F50000895CF93DF9386319C4709F5EB010E94DA
:102F60003D0F9D81992371F08A7A91E009F490E0F8
:102F70009093AB02811102C089E201C085E30E94F7
:102F8000181A09C08091AB02811102C089E201C008
:102F900085E30E94201A0E94BF0F80E001C081E0FB
:102FA000DF91CF910895CF93DF93FC01DB0115965C
:102FB0008C91882309F4DDC09F01305723323105FD
:102FC00008F0D8C0EF010E94631090938E048093A4
:102FD0008D04FE01E150F047E232F10520F4EE5994
:102FE000FF4F0C94622680918D048160AAC080916D
:102FF0008E048860B2C080918D048260A2C08091EE
:103000008D0420C080918D0488609BC080918E04C7
:103010001EC080918E048260A0C080918D0480616A
:1030200090C080918D0480628CC080918D048064FA
:1030300088C00E94A10A80918D04806882C080911E
:103040008D04886084607DC080918E048260816080
:1030500084C080918D048E7F74C080918E04877FA0
:103060007CC080918D048D7F6CC080918D0420C0C8
:1030700080918D04877F65C080918E041EC08091F1
:103080008E048D7F6AC080918D048F7E5AC080919E
:103090008D048F7D56C080918D048F7B52C00E941D
:1030A000A10A80918D048F774CC080918D04877F19
:1030B0008B7F47C080918E048D7F8E7F4EC0809124
:1030C0008D0482FB222720F991E0922790FB82F960
:1030D00090FB83F936C080918E04982F9095917063
:1030E0008E7F892B90FB81F938C080918D0486FBFF
:1030F000222720F991E0922790FB86F922C00E94B6
:10310000A10A80918D0487FB222720F991E0922764
:1031100090FB87F916C081E001C080E00E94F110A9
:103120001EC080918D0484FB222720F991E0922714
:1031300090FB84F906C080918D04982F909590FBA8
:1031400080F980938D040BC080918E0483FB22272D
:1031500020F991E0922790FB83F980938E0480916F
:103160008D0490918E040E9468100E94A10A80E054
:1031700001C081E0DF91CF9108950F931F93CF930A
:10318000DF93C42FD22FFC0185818823B1F04093B7
:10319000AE020E94E01A9093AD028093AC0280E2EE
:1031A0008C0F883008F04DC0C77081E001C0880FD7
:1031B000CA95EAF70E947C0844C08091AE02481389
:1031C00030C08091AC029091AD020E94F81A8D3708
:1031D000910538F510E21D0FCD17B9F080E28C0F84
:1031E000883040F4C77081E001C0880FCA95EAF7C3
:1031F0000E948308183010F581E09D2F977001C060
:10320000880F9A95EAF70E947C08802F0E94720826
:103210001830B8F4D77081E001C0880FDA95EAF76A
:103220000AC080E28C0F883060F4C77081E001C072
:10323000880FCA95EAF70E94830803C0802F0E9476
:103240007208DF91CF911F910F9108950F93FC01A8
:10325000E851FC47E730F10590F5CB01EC57FF4F03
:103260000C94622606E221EE41EE6AE17CE723C07F
:1032700007E225EE45EE6BE17CE71DC006E221EE9C
:1032800040EE68E17CE717C007E225EE44EE69E115
:103290007CE711C006E221EE42EE6CE17CE70BC058
:1032A00007E225EE46EE6DE17CE705C008E221E08D
:1032B00045EE6EE17CE70E94BD1880E008C0FB018E
:1032C0008581882319F01092AE0201C081E00F9130
:1032D00008959093B1028093B00208950E945A1508
:1032E000811103C08091AF020895E091B002F09186
:1032F000B102309729F00190F081E02D09950895F1
:1033000080E008950E946E190895EF92FF921F9336
:10331000CF93DF93E091B002F091B1023097C1F109
:10332000EC010280F381E02D099580918A0282FFF1
:103330002FC080FF0DC088811F928F9381E293E0A0
:103340009F938F930E94E9020F900F900F900F9020
:1033500016E08BE1E82E83E0F82E80918A0280FF50
:103360000BC08A811F928F93FF92EF920E94E90215
:103370000F900F900F900F90115021961111EDCFDB
:1033800080918A0280FF04C089E193E00E9450028C
:10339000DF91CF911F91FF90EF900895E091000190
:1033A000F0910101329697E080E0915029F021914F
:1033B0002223D9F38F5FF9CF0895882371F02091EC
:1033C000000130910101F9013296285F3F4F919140
:1033D000891729F0E217F307D1F780E0089581E01B
:1033E00008959C01FC0132969FEF80E041914617C1
:1033F00089F09F3F19F4411101C0982F8F5F8630EB
:10340000A9F79F3F39F0F901E90FF11D97FDFA95F2
:103410006283089508959C012A5F3F4FFC01428119
:10342000461301C01282019682179307B9F70895D7
:10343000682F80910001909101010E94F119089577
:10344000682F80910001909101010E940B1A08954C
:10345000E0910001F0910101329686E0DF011D92BA
:103460008A95E9F7089508950E94331A089583E034
:103470008093B2020E94341A0895811102C081E043
:1034800001C082E08093B2020E94341A08950E9423
:103490003D1A089581E08093B2020E94341A089583
:1034A0000E944A1A089508950E94531A08950E948E
:1034B000541A08950E94531A08950E94531A0895A9
:1034C0000E94531A0895CF930E945D1A0E94C60568
:1034D0000E945A1AC0E08C2F0E943814811104C037
:1034E000CF5FC630C1F701C081E0CF91089585B7A5
:1034F000806885BF85B7806885BF08951F920F9249
:103500000FB60F9211248F939F93AF93BF93809127
:10351000B302811113C080919B0490919C04A091EF
:103520009D04B0919E044196A11DB11D80939B0402
:1035300090939C04A0939D04B0939E04BF91AF917F
:103540009F918F910F900FBE0F901F9018958091B3
:10355000A304843031F10E94F6061092B30220E4F5
:1035600088E190E00FB6F894A895809360000FBEB4
:103570002093600083B7817F846083BF83B78160BD
:1035800083BF7894889583B78E7F83BF0FB6F894F6
:10359000A89580916000886180936000109260001F
:1035A0000FBE08950E94A10A0E94FB06089582E0C2
:1035B00084BD93E095BD9AEF97BD80936E0008950A
:1035C0002FB7F89480919B0490919C04A0919D0446
:1035D000B0919E042FBF08952FB7F89460919B047B
:1035E00070919C0480919D0490919E042FBF08953A
:1035F0009C014FB7F89480919B0490919C04A091FA
:103600009D04B0919E044FBF821B930B0895CF92EF
:10361000DF92EF92FF922FB7F894C0909B04D09066
:103620009C04E0909D04F0909E042FBFA70196019A
:10363000261B370B480B590BCA01B901FF90EF90BD
:10364000DF90CF90089578941F920F920FB60F924B
:1036500011248F939F93AF93BF9380919B0490917C
:103660009C04A0919D04B0919E040196A11DB11DE2
:1036700080939B0490939C04A0939D04B0939E041C
:10368000BF91AF919F918F910F900FBE0F901F90A0
:10369000189587E797E790930108809300089AE0D0
:1036A00088E10FB6F894A895809360000FBE9093C0
:1036B0006000FFCF9AE088E10FB6F894A895809358
:1036C00060000FBE90936000FFCF8EE14A9B02C066
:1036D0008150E1F74A9BFECF08955A9880E28A957F
:1036E000F1F75A9A0895FC012AE02A95F1F728E0AB
:1036F00090E080E031E040E14A95F1F7880F4A9B85
:1037000002C08160932700C0000040E14A95F1F7B4
:10371000215089F720E12A95F1F729B100C0000076
:1037200030E13A95F1F722FB222720F992272081F8
:10373000920F90830895A1E0B0E0E1EAFBE10C94E0
:10374000742619828C017C01E60EF11C0E151F05F2
:1037500051F00E94651BCE0101960E94731BF80177
:1037600081938F01F3CF81E09981911180E02196BF
:10377000E6E00C949026529A5A9A089552985A9AD2
:10378000EA9AE9E6F0E080818F7C808308956150B9
:1037900091E001C0990F6A95EAF720E031E09923A2
:1037A00061F0492F482319F05A9A232701C05A98EB
:1037B00040E24A95F1F79695F2CF222311F05A9AFA
:1037C00001C05A9880E28A95F1F75A980895FF92BD
:1037D0000F931F93CF93DF93EC018C01060F111D04
:1037E000C017D10741F0F9900E946D1B68E08F2D42
:1037F0000E94C71BF5CFCDB7DEB7E5E00C9491264C
:103800001F920F920FB60F9211240F931F932F93B5
:103810003F934F935F936F937F938F939F93AF9358
:10382000BF93EF93FF93CF93DF931F92CDB7DEB794
:1038300019820E94651BCE0101960E94731B082FFE
:10384000069506950695902F96959570202F2570D4
:10385000920F292F237096959695920F8770891352
:103860005FC0898181115CC0043008F059C080E1DB
:103870008A95F1F75A9A529A82E08A95F1F700C038
:103880005A9888E0089F80011124D801AD5FBE4F8F
:103890001696ED91FC9117973097A9F0609133013E
:1038A0007091340114962D913C911597260F371F76
:1038B00011968D919C911297680F791F13964C91D8
:1038C00013978C910995F801ED5FFE4F6381662394
:1038D00051F0809133019091340124813581820F20
:1038E000931F0E94E71B0E946D1B80E18A95F1F7F0
:1038F0005A9852985A9A80E18A95F1F7F801ED5F4B
:10390000FE4F6081662351F0809133019091340124
:1039100021813281820F931F0E949B1B0E94651B95
:103920000F90DF91CF91FF91EF91BF91AF919F9158
:103930008F917F916F915F914F913F912F911F9147
:103940000F910F900FBE0F901F9018950F931F931C
:10395000CF93DF93843091050CF06DC0EC01F894A7
:10396000529A5A9885E08A95F1F700009C2F969517
:1039700095702C2F2570920F892F837096959695B0
:1039800023E0CC0FDD1F2A95E1F7980F8E01092B5C
:103990000E946D1B84E08A95F1F700C068E0802FDB
:1039A0000E94C71B80E18A95F1F752985A9A4A996A
:1039B00002C000C0FCCF87E090E04A9B08C001979E
:1039C00021F4529A5A9A789436C000C0F6CFFE017C
:1039D000ED5FFE4F6381662381F08091330190910A
:1039E000340124813581820F931F0E949B1B81111A
:1039F00004C0529A5A9A78941FC00E94651B80E2B4
:103A00008A95F1F75A98529A80E18A95F1F7CD5F3D
:103A1000DE4F6881662351F080913301909134012B
:103A200029813A81820F931F0E94E71B0E946D1B20
:103A3000789481E001C080E0DF91CF911F910F91D8
:103A40000895807C80931B010895873941F178F4B3
:103A5000863349F130F4843321F1853331F584E242
:103A600008958439D1F0863901F581E20895843FC3
:103A700071F030F4803FD9F0813FB9F481E00895CE
:103A8000863F49F030F0873F81F487E0089584E075
:103A9000089585E0089586E0089580E2089582E221
:103AA000089583E2089585E208958FE1089580E006
:103AB000089596E890937A00982F9072906890936A
:103AC0007B008F7190911B01892B80937C008091EA
:103AD0007A00806480937A0080917A0086FDFCCF22
:103AE000809178002091790090917A009F7790934F
:103AF0007A0090E0922B08950E94251D0E94591D86
:103B000008958091BF0208950895089508959B0136
:103B10009091A3049430F1F48F708093E9008FEFBB
:103B20009091E800815095FD06C095ED9A95F1F7CA
:103B300000008111F5CF8091E80085FF0BC0BA012C
:103B4000C90140E050E00E943B208091E8008E7760
:103B50008093E8000895CF93DF93EC0148E050E0B4
:103B6000BC0181E00E94871D88E0FE01A7EBB2E066
:103B700001900D928A95E1F7DF91CF91089580E64B
:103B800093E00E9450028091A204811109C00E941A
:103B9000C6210E9423228091E20084608093E2008B
:103BA00008958CE593E00E9450021092A2040895BB
:103BB00088E593E00E9450020E94501A089584E51F
:103BC00093E00E94500260919F0481E0611101C066
:103BD00080E00E94371A089580E593E00E94500229
:103BE0009091A30481E0943009F080E060919F04FB
:103BF0000E943D1A08952091B5022F5F822F62E343
:103C00000E944226992319F02093B502089510923C
:103C1000B5028091B602882371F18091A3048430AB
:103C200041F58091E9008F702091EC00922F917006
:103C300020FD90E8892B92E09093E9009091EB00B1
:103C400090FF14C09091EE0097FF10C09091E80093
:103C500095FF03C01092F100F9CF9091E80090FF1A
:103C600005C09091E8009E779093E8008F70809354
:103C7000E9001092B602089542E061EC81E00E94F2
:103C80003F2142E261EC82E00E943F219091A30437
:103C900081E0943009F080E060919F040E94471A0F
:103CA00008958091A504833009F461C030F4813017
:103CB00071F0823009F49BC008958A3009F487C0FE
:103CC0008B3009F46CC0893009F0A9C020C0809104
:103CD000A404813A09F0A3C08091E800877F809313
:103CE000E8008091A8049091A904892B21F468E050
:103CF00087EB92E003C060E080E090E070E00E941B
:103D000080208091E8008B778093E800089580916F
:103D1000A404813209F083C08091A8049091A90481
:103D2000892B09F07CC08091E800877F8093E800B0
:103D30008091E80082FD05C08091A3048111F8CF35
:103D40006EC02091F3008091F20090E0922B0297D8
:103D500031F48091F100813011F0863021F48091AE
:103D6000F1008093BF028091E8008B7754C080916E
:103D7000A404813A09F053C08091A8049091A90449
:103D8000892B09F04CC08091E800877F8093E80080
:103D90008091E80080FFFCCF8091260137C08091A0
:103DA000A4048132E1F58091A8049091A904892BA3
:103DB000B1F58091E800877F8093E8000E9474212C
:103DC0008091A604809326010E94A10A0895809103
:103DD000A404813221F58091E800877F8093E80078
:103DE0000E9474218091A7048093C002089580915D
:103DF000A404813AA1F48091E800877F8093E800D1
:103E00008091E80080FFFCCF8091C0028093F10098
:103E10008091E8008E778093E8000E9474210895D5
:103E20009FB7F8941092B6029FBF9091A30494306C
:103E300009F057C09091E9009F703091EC00232F5A
:103E4000217030FD20E8922B22E02093E9002091A0
:103E5000EB0020FF43C02091EE0027FF3FC02091E0
:103E6000B402222321F02091E80025FF37C01092F0
:103E7000B40226E03091E80035FD15C03091A3046E
:103E8000343061F53091EB0035FD28C0215021F42C
:103E900081E08093B40222C0EFE9FFE03197F1F7AF
:103EA00000C00000E7CF8093F1008091E80085FD1D
:103EB0000AC08091E80080FFFCCF8091E8008E77F7
:103EC0008093E80006C08FB7F89421E02093B602F3
:103ED0008FBF9F709093E90080E008959F7090934A
:103EE000E9008FEF089584B7877F84BF0FB6F894F9
:103EF000A8958091600088618093600010926000B6
:103F00000FBE90E080E80FB6F89480936100909324
:103F100061000FBE0E944A1A08950E94C6210E94A5
:103F20002322E2EEF0E080818460808378940E9416
:103F3000AD2408958CE191E00E9469190895809163
:103F4000A3048530F9F480918A0280FF0BC08AE3D4
:103F500093E00E94500206C00E94A71A8091A1041B
:103F6000811105C08091A3048530B1F309C00E947E
:103F7000631A8823B9F30E9425200E94A10AF2CF78
:103F80000E94D21A089508959A014091AA0450916E
:103F9000AB040E94CC1F0895492F5527433051058B
:103FA000C9F060F44130510581F04230510509F00B
:103FB00044C082E490E040E953E043C041325105FF
:103FC000E1F04232510549F138C082E190E042ED22
:103FD00053E037C099278130910549F028F00297C6
:103FE00061F5E4E6F3E005C0ECE8F3E002C0E4E7E5
:103FF000F3E0849190E0AF0124C06115710541F0B8
:1040000061307105D1F489E090E04BEB53E019C0C9
:1040100089E090E042EA53E014C06115710541F077
:104020006130710551F482E290E044EE53E009C042
:1040300084E490E046E054E004C080E090E040E09A
:1040400050E0F90151834083089580E189BD82E108
:1040500089BD09B400FEFDCF8091D8008F7D80938B
:10406000D8008091E00082608093E0008091E000C1
:1040700081FDFCCF0895A0E0B0E0E1E4F0E20C9413
:104080007226EC018B017A010E949321811133C0C9
:10409000E114F10439F0F70180819181081B190BBB
:1040A000C80FD91FC12CD12C0115110519F1809110
:1040B000E80085FD16C08091E8008E778093E800C7
:1040C000E114F10449F0F70180819181C80ED91EF5
:1040D000D182C08285E00FC00E949321882321F302
:1040E0000AC089918093F10001501109FFEFCF1AA6
:1040F000DF0ADACF80E0CDB7DEB7E8E00C948E2699
:104100002091AA043091AB042617370748F06115B7
:10411000710539F42091E8002E772093E80001C062
:10412000B901FC0120E06115710579F18091A304CA
:104130008823F1F18530F1F18091E80083FD3CC0E6
:104140008091E80082FD2EC08091E80080FFEBCFD7
:104150002091F3008091F20090E0922B611571059F
:1041600051F08830910538F421912093F10061508D
:1041700071090196F3CF21E0089709F020E08091C2
:10418000E8008E778093E800CECF2111CFCF0AC010
:104190008091A304882361F0853061F08091E8006C
:1041A00083FD0AC08091E80082FFF2CF80E008958D
:1041B00082E0089583E0089581E008952091AA04A3
:1041C0003091AB042617370748F06115710539F4B3
:1041D0002091E8002E772093E80001C0B901FC018E
:1041E00020E06115710591F18091A304882309F401
:1041F00040C0853009F43FC08091E80083FD3DC098
:104200008091E80082FD2FC08091E80080FFE9CF17
:104210002091F3008091F20090E0922B61157105DE
:1042200059F08830910540F424912093F1003196A3
:10423000615071090196F2CF21E0089709F020E062
:104240008091E8008E778093E800CBCF2111CCCF0E
:104250000AC08091A304882361F0853061F08091C9
:10426000E80083FD0AC08091E80082FFF2CF80E081
:10427000089582E0089583E0089581E00895982FDD
:10428000973068F59093E900981739F07091EC0039
:104290002091ED005091F00003C0242F762F50E0C4
:1042A00021FD02C09F5FECCF3091EB003E7F309349
:1042B000EB003091ED003D7F3093ED003091EB004D
:1042C00031603093EB007093EC002093ED0050933D
:1042D000F0002091EE0027FDE5CF80E008958F707B
:1042E0008093E90081E008958091A40487FF11C0C4
:1042F0008091E80082FD05C08091A3048111F8CF70
:1043000011C08091E8008B770BC08091A3048823B3
:1043100049F08091E80080FFF8CF8091E8008E7727
:104320008093E80008952091E4003091E50095E63F
:104330004091EC00842F817040FF23C08091E80001
:1043400080FD1DC08091A304882399F0853099F0E9
:104350008091EB0085FD11C04091E4005091E50093
:104360002417350729F3915011F09A01E1CF84E029
:10437000089582E0089583E0089581E0089580E043
:1043800008954091E80042FFDDCF08950E94352254
:104390000E943D22E0EEF0E0808181608083E8EDC4
:1043A000F0E080818F77808319BCA7EDB0E08C911D
:1043B0008E7F8C9380818F7E80831092A2040895DB
:1043C0000F931F93CF93DF930E9435220E943D22CB
:1043D000C8EDD0E088818F77888388818068888362
:1043E00088818F7D888319BC1092A30410929F044A
:1043F0001092A1041092A00400EE10E0F801808158
:104400008B7F808388818160888342E060E080E0E8
:104410000E943F21E1EEF0E080818E7F8083E2EE1A
:10442000F0E0808181608083808188608083F801F2
:1044300080818E7F8083888180618883DF91CF91A6
:104440001F910F910895E8EDF0E080818F7E8083C9
:10445000E7EDF0E080818160808384E082BF81E0CD
:104460008093A2040E94E0210895E8EDF0E08081AD
:104470008E7F80831092E20008951092DA001092ED
:10448000E10008951F920F920FB60F9211242F93FF
:104490003F934F935F936F937F938F939F93AF93CC
:1044A000BF93EF93FF938091E10082FF0BC0809157
:1044B000E20082FF07C08091E1008B7F8093E100E2
:1044C0000E94FB1D8091DA0080FF1FC08091D80000
:1044D00080FF1BC08091DA008E7F8093DA0080918C
:1044E000D90080FF0DC080E189BD82E189BD09B49A
:1044F00000FEFDCF81E08093A3040E94BF1D05C094
:1045000019BC1092A3040E94D11D8091E10080FF8C
:1045100019C08091E20080FF15C08091E2008E7F7B
:104520008093E2008091E20080618093E2008091BC
:10453000D80080628093D80019BC85E08093A304E2
:104540000E94DF1D8091E10084FF30C08091E20075
:1045500084FF2CC080E189BD82E189BD09B400FEE1
:10456000FDCF8091D8008F7D8093D8008091E100AD
:104570008F7E8093E1008091E2008F7E8093E20045
:104580008091E20081608093E20080919F04882303
:1045900011F084E007C08091E30087FD02C081E054
:1045A00001C083E08093A3040E94EC1D8091E10090
:1045B00083FF29C08091E20083FF25C08091E10044
:1045C000877F8093E10082E08093A30410929F0490
:1045D0008091E1008E7F8093E1008091E2008E7FE8
:1045E0008093E2008091E20080618093E20042E0EB
:1045F00060E080E00E943F218091F000886080931D
:10460000F0000E94D81DFF91EF91BF91AF919F9153
:104610008F917F916F915F914F913F912F910F906B
:104620000FBE0F901F9018951F920F920FB60F920A
:1046300011242F933F934F935F936F937F938F93A7
:104640009F93AF93BF93CF93DF93EF93FF93C0916B
:10465000E900CF708091EC00D82FD17080FDD0E8B8
:104660001092E9008091F000877F8093F0007894A9
:104670000E9458231092E9008091F0008860809396
:10468000F000CD2BCF70C093E900FF91EF91DF9147
:10469000CF91BF91AF919F918F917F916F915F91DA
:1046A0004F913F912F910F900FBE0F901F90189533
:1046B000AAE2B0E0EEE5F3E20C947726E4EAF4E057
:1046C0008091F100819324E0EC3AF207C9F70E944F
:1046D000511E8091E80083FF2EC18091A404909127
:1046E000A504492F50E04A30510508F024C1FA01D1
:1046F000E557FF4F0C946226803821F0823809F08C
:104700001AC108C08091A0049091A104992389F056
:1047100082600FC08091A8048F70873008F00BC1B1
:104720008093E9008091EB0085FB882780F9109247
:10473000E9009091E800977F9093E8008093F10062
:104740001092F100D1C0282F2D7F09F0F4C08823EA
:1047500019F0823061F0EFC08091A604813009F039
:10476000EAC0933009F080E08093A1042EC08091CC
:10477000A60481112AC08091A8048F702FEF280F02
:10478000263008F0D8C08093E9002091EB0020FF8C
:104790001CC0933021F48091EB00806214C0909192
:1047A000EB0090619093EB0021E030E0A90102C0A2
:1047B000440F551F8A95E2F74093EA001092EA00F1
:1047C0008091EB0088608093EB001092E90080916B
:1047D000E800877F8093E8000E947421ACC08111BB
:1047E000AAC01091A6041F778091E3008078812BE6
:1047F0008093E3008091E800877F8093E8000E9427
:1048000074218091E80080FFFCCF8091E3008068F4
:104810008093E300111102C082E001C083E0809325
:10482000A30489C08058823008F085C08091A60416
:104830009091A7048C3D53E0950779F583E08A8336
:104840008AE289834FB7F894DE01139620E03EE0B8
:1048500051E2E32FF0E050935700E49120FF03C0B2
:10486000E295EF703F5FEF708E2F90E0EA3010F02E
:10487000C79601C0C0968D939D932F5F243149F751
:104880004FBF8091E800877F8093E8006AE270E084
:10489000CE0101960E94802016C06091A8047091FC
:1048A000A904AE014F5F5F4F0E94C41FBC01892B5A
:1048B00009F441C09091E800977F9093E8008981C6
:1048C0009A810E94DE208091E8008B778093E80037
:1048D00032C0803881F58091E800877F8093E800BE
:1048E00080919F048093F1008091E8008E7772CFD1
:1048F000811121C08091A6049091A7049927029765
:10490000D4F48091E800877F8093E8008091A6042A
:1049100080939F040E94742180919F04811106C09E
:104920008091E30087FD02C081E001C084E08093B4
:10493000A3040E943C1E8091E80083FF0AC080917E
:10494000E800877F8093E8008091EB00806280938D
:10495000EB00AA96E3E00C949326CF938091A304F6
:104960008823A1F0C091E900CF709091EC00892FCD
:10497000817090FD80E8C82B1092E9008091E800DA
:1049800083FD0E945823CF70C093E900CF91089512
:104990000E94C6211092A3040895E8EDF0E0808102
:1049A000806180838AE18A95F1F700C08091D90007
:1049B000817008955058BB27AA270E94F2240C94B6
:1049C0009B250E948D2538F00E94942520F039F413
:1049D0009F3F19F426F40C948A250EF4E095E7FB2A
:1049E0000C948425E92F0E94AC2558F3BA1762076E
:1049F00073078407950720F079F4A6F50C94CE256B
:104A00000EF4E0950B2EBA2FA02D0B01B9019001E9
:104A10000C01CA01A0011124FF27591B99F0593F2D
:104A200050F4503E68F11A16F040A22F232F342F75
:104A30004427585FF3CF469537952795A795F040C3
:104A40005395C9F77EF41F16BA0B620B730B840BD8
:104A5000BAF09150A1F0FF0FBB1F661F771F881F90
:104A6000C2F70EC0BA0F621F731F841F48F48795E8
:104A700077956795B795F7959E3F08F0B0CF9395DA
:104A8000880F08F09927EE0F979587950895E89479
:104A900009C097FB3EF490958095709561957F4F86
:104AA0008F4F9F4F9923A9F0F92F96E9BB27939534
:104AB000F695879577956795B795F111F8CFFAF444
:104AC000BB0F11F460FF1BC06F5F7F4F8F4F9F4F75
:104AD00016C0882311F096E911C0772321F09EE8D3
:104AE000872F762F05C0662371F096E8862F70E039
:104AF00060E02AF09A95660F771F881FDAF7880F13
:104B00009695879597F9089597F99F6780E870E0E3
:104B100060E008959FEF80EC089500240A94161633
:104B2000170618060906089500240A94121613069B
:104B3000140605060895092E0394000C11F4882329
:104B400052F0BB0F40F4BF2B11F460FF04C06F5F45
:104B50007F4F8F4F9F4F089557FD9058440F551F1B
:104B600059F05F3F71F04795880F97FB991F61F0EF
:104B70009F3F79F087950895121613061406551F66
:104B8000F2CF4695F1DF08C0161617061806991FD2
:104B9000F1CF86957105610508940895E894BB27C7
:104BA00066277727CB0197F908950E94E8250C9492
:104BB0009B250E948D2538F00E94942520F0952396
:104BC00011F00C9484250C948A2511240C94CF2583
:104BD0000E94AC2570F3959FC1F3950F50E0551FCF
:104BE000629FF001729FBB27F00DB11D639FAA2742
:104BF000F00DB11DAA1F649F6627B00DA11D661F91
:104C0000829F2227B00DA11D621F739FB00DA11DB1
:104C1000621F839FA00D611D221F749F3327A00D6B
:104C2000611D231F849F600D211D822F762F6A2F07
:104C300011249F5750409AF0F1F088234AF0EE0F6C
:104C4000FF1FBB1F661F771F881F91505040A9F799
:104C50009E3F510580F00C9484250C94CF255F3F36
:104C6000E4F3983ED4F3869577956795B795F795D5
:104C7000E7959F5FC1F7FE2B880F911D969587954D
:104C800097F90895991B79E004C0991F961708F0C9
:104C9000961B881F7A95C9F780950895AA1BBB1BA0
:104CA00051E107C0AA1FBB1FA617B70710F0A61B2C
:104CB000B70B881F991F5A95A9F780959095BC014D
:104CC000CD010895EE0FFF1F0590F491E02D09949A
:104CD0002F923F924F925F926F927F928F929F920C
:104CE000AF92BF92CF92DF92EF92FF920F931F93FA
:104CF000CF93DF93CDB7DEB7CA1BDB0B0FB6F894AB
:104D0000DEBF0FBECDBF09942A88398848885F84EA
:104D10006E847D848C849B84AA84B984C884DF805B
:104D2000EE80FD800C811B81AA81B981CE0FD11D3F
:104D30000FB6F894DEBF0FBECDBFED010895FB01A5
:104D4000DC0104C08D910190801921F44150504044
:104D5000C8F7881B990B0895FB01DC0102C0019084
:104D60000D9241505040D8F70895F999FECF92BD69
:104D700081BDF89A992780B50895A8E1B0E042E096
:104D800050E00C94F926DC01A40FB51F41505040AF
:104D900048F0CB01840F951F2E910E94D4264150DC
:104DA0005040D0F70895262FF999FECF92BD81BDCE
:104DB000F89A019700B4021639F01FBA20BD0FB659
:104DC000F894FA9AF99A0FBE08950396272F0E9435
:104DD000D4260E94D326252F0E94D426242F0C945B
:104DE000D4260196272F0E94D4260C94D326DC01CA
:104DF000CB01FC01F999FECF06C0F2BDE1BDF89AE6
:104E0000319600B40D9241505040B8F70895F8948F
:024E1000FFCFD2
:104E12007002010000000100000000000000030118
:104E2200000000040400000000000040811DAB1DD2
:104E3200841D851D861D01363233010003050702DC
:104E42009466979402736C6176655F6D61747269A2
:0E4E5200780073796E635F74696D657200009D
:00000001FF
