:100000000C94B6010C94D3010C94D3010C94001CF5
:100010000C94D3010C94D3010C94D3010C94D30110
:100020000C94D3010C94D3010C94E1210C94B322D1
:100030000C947E1A0C94D3010C94D3010C94D3012C
:100040000C94D3010C94D3010C94D3010C94D301E0
:100050000C94D3010C94231B0C94D3010C94D30166
:100060000C94D3010C94D3010C94D3010C94D301C0
:100070000C94D3010C94D3010C94D3010C94D301B0
:100080000C94D3010C94D3010C94D3010C94D301A0
:100090000C94D3010C94D3010C94D3010C94D30190
:1000A0000C94D3010C94D3010C94D301D908D90832
:1000B000050905094A0A4A0A4A0A4A0A5B09D10996
:1000C000E209E209161888181E18E817EC1722181A
:1000D000EF1725183018FA177E18FE173418021873
:1000E0003818621806183C186C180C1842184C186E
:1000F000F3172918F6172C181118471858187818DC
:100100007A18E4171A1891185C19621950195619BF
:1001100068196E1974191B2342233A2442233A2486
:100120008E23B1233A24082417240A0025346400BE
:100130000A000000000000000000000000000000B5
:1001400000000000000000000000000000000000AF
:10015000000000000000000000000000000000009F
:10016000000000000000000000000000000000008F
:100170000000000000000000000044454255473ADE
:100180002064697361626C65642E0A0044454255BF
:10019000473A20656E61626C65642E0A000A00258C
:1001A000303258006C65645F7461736B3A20004FA5
:1001B0006E6573686F743A206163746976653A207E
:1001C00025640A000A0025303862003A20002530F4
:1001D0003258000A722F63203031323334353637CB
:1001E0000A0054617267657420636F6E6E65637494
:1001F00065640D0A005461726765742064697363F5
:100200006F6E6E65637465642C207468726F7474AD
:100210006C696E6720636F6E6E656374696F6E20C4
:10022000617474656D7074730D0A004661696C6564
:100230006420746F20657865637574652025730A82
:10024000000A002530325820006B6579626F6172B8
:10025000645F7265706F72743A20007375737065B5
:100260006E64696E67206B6579626F6172640D0AF6
:10027000005B575D005B535D005B525D005B445D5E
:10028000005B435D000E036D0069006E0069006550
:100290000063000000160367006F0072006F0070BB
:1002A0000069006B0061007200690000000403092E
:1002B0000409024200020100A0FA0904000001033F
:1002C00001010009211101000122440007058103F9
:1002D00008000109040100020300000009211101C6
:1002E0000001222200070582032000010705020306
:1002F0002000011201000200000008EDFE000000D5
:1003000001010200010631FF0974A1010975150000
:1003100026FF009520750881020976150026FF004A
:10032000952075089102C005010906A1010507196C
:10033000E029E715002501950875018102950175F1
:100340000881010507190029FF150026FF00950601
:100350007508810005081901290515002501950575
:1003600075019102950175039101C00011241FBE12
:10037000CFEFDAE0DEBFCDBF11E0A0E0B1E0E0E515
:10038000FDE402C005900D92AC34B107D9F724E02A
:10039000ACE4B1E001C01D92A93AB207E1F70E94B6
:1003A00096170C94A6260C940000FF93EF93E0910F
:1003B0004C01F0914D01309709F00995EF91FF91B3
:1003C0000895FC018591803011F0EFDFFBCF089597
:1003D000FF27E0E230E247FF0CC0419597FF09C0DC
:1003E000EDE26095709580959095611D711D811D60
:1003F000911D27FF02C0219530E350E2AA27660F26
:10040000771F881F991FAA1FA41710F0A41B6395BC
:100410005A95A9F7AA3008F0A95FA05DAF93F395AC
:10042000611571058105910541F7ED3211F4EF93E6
:10043000F395F21718F43F93F395FBCF8F91B5DF47
:10044000FA95E1F70895E991F9918591803021F0CD
:10045000853219F0AADFF9CF089520E0E89455918C
:100460005532C1F3503311F4689455915A3348F41E
:10047000505390F3220F022E220F220F200D250F32
:10048000F4CF0EF4219589919991533619F353378E
:1004900029F1533559F1BC0188279927E8945C3636
:1004A00021F48991999168945591543639F446EF25
:1004B0007EF077FF0DC08FEF9FEF0AC055374AE0FF
:1004C00039F0583540E121F0523642E009F0089504
:1004D000FF93EF937DDFEF91FF91B7CFFF93EF9302
:1004E000FC0181918030B9F360DFFBCFFF93EF9384
:1004F00068DFF1CFDF93CF93CDB7DEB72596A3DFCB
:10050000CF91DF910895807C809300010895873911
:1005100041F178F4863349F130F4843321F18533A5
:1005200031F584E208958439D1F0863901F581E20C
:100530000895843F71F030F4803FD9F0813FB9F4E1
:1005400081E00895863F49F030F0873F81F487E0ED
:10055000089584E0089585E0089586E0089580E296
:10056000089582E2089583E2089585E208958FE177
:10057000089580E0089596E890937A00982F9072FD
:10058000906890937B008F7190910001892B8093EC
:100590007C0080917A00806480937A0080917A0058
:1005A00086FDFCCF809178002091790090917A00AF
:1005B0009F7790937A0090E0922B08950E94870293
:1005C0000E94BB0208954F925F926F927F928F922A
:1005D0009F92AF92BF92CF92DF92EF92FF92CF9312
:1005E000DF93EC016A017B018889882349F0488701
:1005F00059876A877B874C875D876E877F87188AD4
:100600008C809D80AE80BF80288539854A855B853A
:10061000C501B4010E9474252B013C01A501940180
:10062000C701B6010E9474259B01AC01C301B20150
:100630000E947A244B015C012C853D854E855F85A7
:10064000688179818A819B810E9474259B01AC011C
:10065000C501B4010E947A24C886D986EA86FB8641
:100660006C877D878E879F87DF91CF91FF90EF907A
:10067000DF90CF90BF90AF909F908F907F906F90C2
:100680005F904F900895A4E0B0E0E9E4F3E00C94AB
:10069000172669837A838B839C8389819A81AB81B6
:1006A000BC81892B8A2B8B2B61F089819A81AB814C
:1006B000BC810197A109B10989839A83AB83BC836B
:1006C000ECCF2496E2E00C943326219AE62FF0E05A
:1006D000E85DFE4F908190FF02C02E9A01C02E98D7
:1006E00091FF02C02A9A01C02A9892FF02C02B9A59
:1006F00001C02B98AEE2B1E061E070E021E0A133EF
:10070000B20789F09D91E92FE295EF70F0E022A108
:100710009F70AB0101C0440F9A95EAF7942F909512
:10072000922392A3EBCFF89421982998E82FF0E038
:10073000E25DFE4F9081E92FE295EF70F0E032A18B
:10074000292F2F7081E090E001C0880F2A95EAF7E9
:10075000832B82A386EF0E94DE027894811524E029
:10076000920728F4969587959695879508958FEF2B
:1007700090E00895A4E0B0E0E0ECF3E00C940D26E6
:1007800019821A821B821C8289819A81AB81BC8169
:1007900000E010E036E0E32EF12CC801B7010E9422
:1007A000ED250E946503A0E0B0E089839A83AB83C6
:1007B000BC836AE070E080E090E00E9443030F5F3A
:1007C0001F4F0231110549F794E1A92EB12C26E003
:1007D000822E912C8EE4C82E81E0D82E760100E086
:1007E00010E0C801B4010E94ED250E946503D70105
:1007F0002D913C91820F931FF701819391937F017B
:100800006AE070E080E090E00E9443030F5F1F4FBA
:100810000231110531F7F1E0AF1AB108D9F6E2E083
:10082000F4E020E530E0D6018D919D916D018115B8
:10083000B0E59B0720F4B9010E94ED2501C06FEFE0
:1008400060831682618362836383648365833796E2
:1008500044E0E038F40739F72496ECE00C942926BC
:10086000FC0198E4AAEBB1E001900D929A95E1F7B2
:100870002998219A80E40E948302AEE2B1E041E02F
:1008800050E071E0A133B707B1F08D91E82FE29508
:10089000EF70F0E021A18F70BA0102C0660F771FE0
:1008A0008A95E2F7CB01922F982B91A392A1809584
:1008B000892382A3E6CFA5E2B1E021E030E071E038
:1008C000A832B70789F08D91E82FE295EF70F0E03C
:1008D00041A18F70B90102C0660F771F8A95E2F7B8
:1008E000CB01842B81A3EBCF219829980E94BA03D6
:1008F00080E090E008950F931F93CF93DF93FC0166
:100900005081A42FB0E0E52FF0E0042E02C0F59551
:10091000E7950A94E2F7062F10E0E0FF1BC0E6E03F
:10092000E09FB001E19F700D1124A60FB71FAA0F21
:10093000BB1FA654BE4F6D917C912617370708F058
:1009400045C021E030E001C0220F4A95EAF720952A
:10095000252327C0E62FEE0FE60FE40FCE2FD0E0C1
:1009600067E0E69FF0011124EE5FFB4FE081F6E0C7
:10097000F09FB001F19F700D1124A60FB71FAA0FB1
:10098000BB1FA252BE4F6D917C916E0F711D6217FD
:10099000730758F421E030E001C0220F4A95EAF7CE
:1009A000252BFC01208381E012C0B90180E090E09A
:1009B0000E94E624AB01BC0121E12C9FC0012D9FC8
:1009C000900D112480539D4F0E94E30280E0DF913F
:1009D000CF911F910F910895A0E0B0E0E2EFF4E015
:1009E0000C940F265C0182E7C82E81E0D82E10E01F
:1009F00000E07601C0E0D0E0612F8C2F0E946503FB
:100A0000F701918380839C01412F6C2FC5018C0FCE
:100A10009D1F0E947B04082B2196FCE0EF0EF11C29
:100A2000C330D10549F782E0C80ED11C1F5F1630D4
:100A300001F7802FCDB7DEB7EAE00C942B26A0E0BB
:100A4000B0E0E5E2F5E00C941126C2E7D1E08CE2DB
:100A5000E82E81E0F82E9AE2C92E91E0D92E81E0AD
:100A6000C639D807F1F000E010E0FE01E00FF11FF9
:100A700081818F9380818F93FF92EF920E947A02FF
:100A80000E5F1F4F0F900F900F900F900C301105BD
:100A900061F7DF92CF920E947A022C960F900F900E
:100AA000DECFCDB7DEB7E8E00C942D260895A8E49C
:100AB000B0E0EDE5F5E00C94152655985D9820988A
:100AC00028980E9474159E012F5F3F4FBE016B5DF9
:100AD0007F4FC901A9E1B0E003E210E0F90140E075
:100AE00050E0A193B19313A302A34F5F5F4F463031
:100AF0005105B9F7245F3F4F2617370779F7209143
:100B000003010E94300480910301811102C093E02F
:100B100001C090E09093850483E0891B8093840456
:100B20000E948615C85BDF4FE4E00C943126CF931A
:100B30000E94EC04C82F80910202909103029C0154
:100B40002F5F3F4F8C32914029F030930302209366
:100B500002020AC010920302109202020E941F05B4
:100B600080E391E00E94E1018C2FCF910895CF9313
:100B70008CE894E00E949705C82F6091850470E08E
:100B80006E567B4F282F43E08CE894E00E941F159F
:100B90000E94A7148C2FCF9108950E9450110895A0
:100BA0000E9453110895811112C0663080F44630BE
:100BB00070F4E42FF0E086E0689FE00DF11D112451
:100BC000EE0FFF1FEE5CFE4F85919491089581E03A
:100BD00090E008950E94D305089581E0089581E092
:100BE00008950E94EF0508950E94F10508950E945E
:100BF000EF05089508950E94FA050895A6E0B0E073
:100C0000E4E0F6E00C94162649835A839E833091E3
:100C1000090289819A81311115C03E81332359F02F
:100C2000222349F00E94000C182F682F89819A8195
:100C30000E94DC0B03C00E94EE0B182F69817A81A1
:100C4000812F04C00E94000C69817A810E94DD120C
:100C50002696E3E00C943226FC01262F4081518138
:100C600062817381848195810E94FE050895CF93EE
:100C7000DF93EC0161E00E942C06BE010E94F405A6
:100C8000DF91CF910895CF93DF93EC0160E00E9454
:100C90002C06BE010E94FB05DF91CF9108950895B7
:100CA0000E94B30A0E944F062FEF84E39CE021507C
:100CB00080409040E1F700C0000008950E94500677
:100CC0000E94491B08950E9450060E945A1B0895D5
:100CD0000F931F93CF93DF938C0161E00E942C064A
:100CE000EC01B8010E94F705882309F45BC0B80144
:100CF000CE010E944419882309F454C0B801CE01E2
:100D00000E94C017882309F44DC0B801CE010E948B
:100D1000AA18882309F446C0F80185818823E9F1DF
:100D2000C3308CE7D80779F158F4C130FCE7DF070E
:100D300061F1A0F4C115DC4781F50E945E0632C066
:100D4000CB35FCE7DF0739F1CC358CE7D80701F16B
:100D5000CA35DC4711F50E945A101FC080918802E5
:100D6000C82FC095C170C0FB80F980938802CC2346
:100D700029F08CE891E00E94E10114C08AE791E03B
:100D80000E94E10110C00E9462100E9463060AC026
:100D90000E94501002C00E945E10C8010E94ED0522
:100DA000C82F01C0C0E08C2FDF91CF911F910F9110
:100DB00008950E94571A0E94120708950E9416076C
:100DC0000E94601A08958295982F937344E0949F2F
:100DD000900111248C7C86958695282B822F857511
:100DE000880F2A7A2695822B0895089581E0089528
:100DF0000895CF93DF93D82F0E94F606C82F88233B
:100E000019F08D2F0E94F8068C2FDF91CF91089555
:100E10000895CF93C82F0E94F5068C2F0E94F906E3
:100E2000CF91089580E00E94090708950E948C19CF
:100E30000E9409070895CF930E948C19C82F8091B2
:100E40000402C81789F1C09304020E94EC1A60934F
:100E50000502709306028093070290930802809126
:100E6000880282FF1EC080FF04C084EA91E00E94D5
:100E7000E1018091880280FF0CC01F92CF938FE91F
:100E800091E09F938F930E947A020F900F900F90A2
:100E90000F908091880280FF04C08DE991E00E944C
:100EA000E1018C2F0E940907CF910895ADE0B0E0D9
:100EB000ECE5F7E00C941726488759876A877B870B
:100EC0008C879D8791110E94700FCE01019627E0BB
:100ED000FC0111922A95E9F726E0FE013896DC0123
:100EE00001900D922A95E1F72D8121110AC02981E7
:100EF0003A814B815C816D817E818F810E94BA0E27
:100F000004C00E9437068111F2CF2D96E2E00C94C6
:100F10003326FC012481213021F4808191810E94BB
:100F2000320C0895CF93882309F481C0C82F8238EA
:100F3000C1F40E94A01981FD7AC069E3809101018A
:100F4000909102010E94261A0E949C0F2FEF87EEBB
:100F500093E0215080409040E1F700C0000069E339
:100F600033C08338C1F40E94A01980FD60C063E5DE
:100F700080910101909102010E94261A0E949C0F0B
:100F80002FEF81EE94E0215080409040E1F700C0C7
:100F9000000063E519C08438F1F40E94A01982FDB5
:100FA00046C067E480910101909102010E94261AD7
:100FB0000E949C0F2FEF81EE94E0215080409040E2
:100FC000E1F700C0000067E4809101019091020107
:100FD0000E94291A2AC08CEF8C0F813AD0F46C2F12
:100FE00080910101909102010E94F019882349F03B
:100FF0006C2F80910101909102010E94291A0E9498
:101000009C0F6C2F80910101909102010E94261A81
:101010000CC080E28C0F883050F4C77081E001C0B2
:10102000880FCA95EAF70E94530F0E949C0FCF9138
:101030000895882309F44DC0682F823879F40E94FE
:10104000A01981FF46C069E38091010190910201DE
:101050000E94261A0E949C0F69E326C0833879F407
:101060000E94A01980FF35C063E580910101909135
:1010700002010E94261A0E949C0F63E515C0843865
:1010800079F40E94A01982FF24C067E480910101D5
:10109000909102010E94261A0E949C0F67E404C0EE
:1010A0008CEF860F813A38F4809101019091020112
:1010B0000E94291A0CC080E2860F883050F46770B5
:1010C00081E001C0880F6A95EAF70E94590F0E94DB
:1010D0009C0F08951F93CF93DF93182FEB010E946D
:1010E0009207209741F08FE99FE00197F1F700C048
:1010F00000002197F6CF812F0E941908DF91CF9130
:101100001F910895893319F065E070E002C060E531
:1011100070E00E946A080895882321F00E94530F0E
:101120000E949C0F0895882321F00E94590F0E946D
:101130009C0F0895A0E0B0E0E0EAF8E00C941126DE
:101140007C01D62FC72FFC011581068102950F70F7
:101150000E94490F8823E9F01123D9F08C2F807F5A
:10116000803451F080E28D0F883098F0011104C076
:101170008C2F807E803269F080918B0482FF09C0C1
:1011800082E00E9410100E94490F91E0D82ED926CB
:1011900001C0D12CCC2EC2948FE0C8228C2D90E0BF
:1011A0008C30910508F076C1FC01EA5AFF4F0C948F
:1011B00001268C2F807FCF70882311F0C295C07FCD
:1011C000112399F0CC2309F44CC180E28D0F8830B3
:1011D00010F0D11104C08C2F0E94530F03C08C2F2C
:1011E0000E94630F0E949C0F3CC18D2F0E94190822
:1011F000CC2309F44FC180E28D0F883038F1DD2314
:1012000029F18C2F0E94690F24C08C2F807FCF7012
:10121000803211F0C295C07FDD2319F0D13099F1F1
:101220003CC080918B0482FD17C0112349F0CC2370
:1012300029F08C2F0E94530F0E949C0F80E012C156
:1012400080E00E941908CC2309F424C18C2F0E944D
:10125000590F0E949C0F1EC1112349F0002309F170
:10126000013009F017C18C2F0E947A0F13C10111B0
:1012700011C18C2F0E9493088C2F0E94860F8C2FF7
:101280000E94E30F07C1112321F0063008F002C1CC
:1012900008C0053008F0FEC00AC0112331F001116A
:1012A000E0C08C2F0E948C08F5C00111E0C08C2F8B
:1012B0000E949308EFC08C2F8370B1F51111EEC01E
:1012C0004D2F429546954770440F440F8D2F8F70D8
:1012D00090E09C01042E02C0220F331F0A94E2F713
:1012E000D4FF0AC08FE090E002C0880F991F4A9592
:1012F000E2F78095909502C080E090E0C695C69593
:10130000C370822B932BC23049F058F4C13019F0CE
:101310000E940F0BC3C00E94060BC0C00E94180B96
:10132000BDC00E94030BBAC0112319F08C2F81702D
:1013300001C08695882309F4B1C04D2F429546958A
:101340004770440F440F8D2F8F7090E09C01042E46
:1013500002C0220F331F0A94E2F7D4FF0AC08FE0C5
:1013600090E002C0880F991F4A95E2F7809590950A
:1013700002C080E090E0C695C695C370822B932B87
:10138000C23049F058F4C13019F00E94770B86C082
:101390000E946E0B83C00E94800B80C00E94240BB1
:1013A0007DC0CF70112339F08C2F0E943C0B8D2F04
:1013B0000E948C0873C08D2F0E9493088C2F0E946E
:1013C0004C0B6CC0D23F21F128F4D03F41F0D13F0B
:1013D000C1F043C0D33F19F1D43F79F03EC011238F
:1013E00041F0053008F056C08C2F8F710E945E0BC3
:1013F00051C0063008F04EC0F7CF80918B0482FDBB
:1014000018C0112339F08C2F8F710E943C0B42C001
:101410001123C9F38C2F8F710E944C0B3BC01123F9
:1014200029F08C2F8F710E94300B34C00E942B0B3F
:1014300031C0112349F0CF718C2F0E943C0B63E027
:101440008C2F0E94F20F26C081E00E941010023003
:1014500008F182E00E9410101DC0112331F000231A
:1014600091F28D2F0E94920715C0002399F2D93373
:1014700041F4FFEF27EE83E0F15020408040E1F798
:1014800004C0EFE1FEE43197F1F700C000008D2FBA
:101490000E94190888EF8C0D843020F40E948C196A
:1014A0000E940907DD2089F00E94450F80FD0DC0D4
:1014B000F70115820E943F0F0E943C0BC7010E945A
:1014C000820A0E943F0F0E944C0BCDB7DEB7E8E0C6
:1014D0000C942D260F931F93CF93DF93EC0168811B
:1014E00079818D810E943D0C8C010E94890B0E94A4
:1014F000F40AB801CE010E949A08DF91CF911F91A2
:101500000F910895CF93DF93FC0124812223D1F022
:10151000EC010E94680681110FC00E94490F8823C8
:1015200089F08D81882371F080918B0482FF0AC03D
:1015300082E00E94101006C0CE010E946A0ACE010D
:101540000E944306DF91CF9108950E94700F0E9480
:101550009C0F089580910101909102010E942C1A24
:101560000E94A50A08950E94600F0E94AA0A089589
:1015700092959F70963079F010F4925001C09A5075
:10158000923068F4803F69F018F4883E40F409C056
:10159000843F29F406C0883E20F0813F11F080E0AE
:1015A000089581E00895FC012481222339F080818F
:1015B00091810E94320C0E94B80A089580E008953B
:1015C000A6E0B0E0E6EEFAE00C9417262696E2E0FC
:1015D0000C943326A7E0B0E0E0EFFAE00C94172675
:1015E0002796E2E00C943326089508950E94F50AA8
:1015F00008950E94F60A08950E94F90A9093210224
:101600008093200208950E94FC0A089520912002F0
:1016100030912102822B932B0E94FC0A0895209185
:10162000200230912102822393230E94FC0A089514
:101630002091200230912102822793270E94FC0AE8
:1016400008950E94F50A08950E94210B90931F02AD
:1016500080931E02089580E090E00E94240B08957C
:1016600021E030E0A90102C0440F551F8A95E2F73E
:10167000CA010E94240B089521E030E002C0220F2D
:10168000331F8A95E2F780911E0290911F02822BF0
:10169000932B0E94240B089521E030E002C0220F1A
:1016A000331F8A95E2F72095309580911E02909124
:1016B0001F02822393230E94240B089521E030E02F
:1016C00002C0220F331F8A95E2F780911E0290918B
:1016D0001F02822793270E94240B089520911E0247
:1016E00030911F02822B932B0E94240B089520918E
:1016F0001E0230911F02822393230E94240B08951F
:1017000020911E0230911F02822793270E94240BF2
:1017100008950895962F9770A1E001C0AA0F9A9599
:10172000EAF793E0769567959A95E1F7660F771F4C
:10173000660F771FFA01E60FF71F40E050E0682FB1
:1017400070E090819B01042E02C0369527950A9483
:10175000E2F72170219529272A23292721934F5F1A
:101760005F4F4430510569F70895FB01782F77707A
:1017700023E0969587952A95E1F7880F991F880FA2
:10178000991FE80FF91F40E050E080E0219130E020
:10179000072E02C0369527950A94E2F72170332769
:1017A000042E01C0220F0A94EAF7822B4F5F5F4F8D
:1017B0004430510559F70895282F963070F486303B
:1017C00060F4862F622F70E026E0929F600D711DFD
:1017D00011244AE052E00E948A0B0895963070F47A
:1017E000863060F4292F90E06AE072E036E0239FB3
:1017F000800D911D11240E94B50B089580E008957D
:10180000A0E0B0E0E6E0FCE00C9410267C01009142
:101810001E0210911F028091200290912102082B3C
:10182000192BCFE0D0E0CC24C394D12CC6010C2ED0
:1018300002C0880F991F0A94E2F780239123892B15
:1018400021F4219798F7B12C07C0BC2EB7018C2F3B
:101850000E94E9120197A9F38B2DCDB7DEB7E9E01D
:101860000C942C26CF93DF93EC010E94000CBE0158
:101870000E94E912DF91CF9108951F93CF93DF93D8
:10188000EB0190910902992321F0CB010E94320CC7
:1018900013C0882349F0CB010E94000C182F682F39
:1018A000CE010E94DC0B04C0CB010E94EE0B182F6E
:1018B000BE01812F0E94E912DF91CF911F910895FF
:1018C0001F93CF93DF93C091220217E080912302F0
:1018D000C817A1F0D0E01C9FF0011D9FF00D11244E
:1018E000EC5DFD4F2081318142815381648175819E
:1018F00086810E94EA0A2196C770E8CFDF91CF91D6
:101900001F91089520915C0230915D0240915E022A
:1019100050915F0260916002709161028091620259
:101920000E94EA0A0895CF93DF9380916202829524
:101930008F7009F04EC080916102882309F449C07C
:10194000809122024091230250915D0260915C02DD
:10195000C0915E02D0915F0277E08417D1F190E0F0
:10196000789FF001799FF00D1124DF01AC5DBD4F30
:1019700014962C911497222349F111962C911197CA
:10198000251324C02C91261321C015962C91159750
:1019900021111CC012962D913C9113972C1B3D0BCD
:1019A0002D37310598F4809162028F7080618093A9
:1019B0006202E65DFD4F80818F70806180838CE5DF
:1019C00092E00E94820A0E94600C03C00196877018
:1019D000C4CFDF91CF9108952091220290912302EC
:1019E00057E02917A9F030E0529FF001539FF00D06
:1019F0001124EC5DFD4F7181761306C07081781360
:101A000003C07581741306C02F5F3F4F2770E9CF65
:101A100080E0089581E00895A4E1B0E0E2E1FDE016
:101A20000C940D268C0186E0F801DE011F960190D2
:101A30000D928A95E1F7D80114968C91149715961A
:101A4000EC909CE5A92E92E0B92E90916002911144
:101A500018C0882309F478C1EE20D9F1C8010E948A
:101A6000D30AF82E8823A9F187E0F801D501019067
:101A70000D928A95E1F7C5010E9489070E94930C97
:101A800095C0F801C080D18082809380F09061027F
:101A900020915E0230915F02A401421B530BFF2094
:101AA00009F400C14D37510508F0ACC0882309F492
:101AB0005CC180916202282F207F90915D022223D9
:101AC00061F09D1509F45EC0C8010E94D30A81111E
:101AD00070C0C8010E94820A37C19D1116C0909142
:101AE0005C029C1112C0E11010C08F708061809365
:101AF00062020E94820C8CE592E00E94820A809130
:101B00006202D80116968C932FC1E11035C040E0D7
:101B10006D2D8C2D0E94EC0CE82E811118C1CF8602
:101B2000D88A8F8598890E94320C292F22952F7090
:101B3000243020F49F70223028F009C02A5022302F
:101B400080F014C0992349F0811107C013C0992374
:101B500021F0F8019681907F69F0805E883030F442
:101B600009C0803F38F0815F833020F0C8010E94B7
:101B7000820AEF2CFE2CF9C0809162028160809372
:101B80006202F2C090915C029C119ECFE1109CCF4A
:101B9000D80116968C93C8010E94820A87E0F8014A
:101BA000ACE5B2E001900D928A95E1F70E94820CBB
:101BB000DCC0EE2009F48DCF20916202822F829545
:101BC0008F7090E002978CF080915C0290915D02A2
:101BD000998788879B868A86809160028C871D867C
:101BE0002E87CE0108960E94820A87E0F801ACE5B4
:101BF000B2E001900D928A95E1F70E94930C0E9449
:101C0000820CA2C090916202292F207F91F4682D4E
:101C10009A8A898AA6017A899E2D0E94E00A8CE51B
:101C200092E00E94820A87E0F50111928A95E9F715
:101C300099C0882309F499C080915D028D1110C06C
:101C400080915C028C110CC0E1100AC09683C8011F
:101C50000E94820A87E0F50111928A95E9F785C012
:101C6000C8010E94D30A882309F433CFEE2009F477
:101C700030CF20916202822F82958F7090E0029780
:101C80000CF4B3CF80915C0290915D029A838983BA
:101C90009C828B82809160028D831E822F83CE0175
:101CA0000196A1CF4D37510508F040C0882309F4B3
:101CB0004BC0FE2CEE2009F40CCF80915D028D11FB
:101CC00027C080915C028C1123C09091620290FD2C
:101CD00016C0892F82958F70282F30E0211531058D
:101CE00071F0D80196832F30310509F454CF8F5FFE
:101CF000982F9295907F86818F70892B4ACF87E0AD
:101D0000F801ACE5B2E001900D928A95E1F72DC0A3
:101D1000C8010E94D30A811168CF8091620281605C
:101D200080936202C8010E94820A1FC0682D9A8AAD
:101D3000898AA6017A899E2D0E94E00A87E0F50132
:101D400011928A95E9F732CFFF24F3940EC08CE507
:101D500092E00E94820AECE5F2E087E0DF011D924A
:101D60008A95E9F70E94820CF12C8F2D6496ECE0A5
:101D70000C942926AEE0B0E0E0ECFEE00C941626D0
:101D8000288739874A875B876C877D878E87CE0156
:101D900008960E940C0D882361F06C856623A9F1DA
:101DA000288539854A855B857D858E850E94EA0A6E
:101DB0002CC087E0FE013896DE01119601900D924D
:101DC0008A95E1F76C85662301F12091230230E0CA
:101DD000C9010196877099274091220250E084172B
:101DE0009507E1F16D8397E0929FD001939FB00D2D
:101DF0001124AC5DBD4FFE01319601900D929A9574
:101E0000E1F7809323020E94600C17E08091220288
:101E100090912302891779F1189FC00111248C5DDC
:101E20009D4F0E940C0D882331F1E09122021E9FEC
:101E3000F0011124EC5DFD4F2081318142815381FD
:101E40006481758186810E94EA0A8091220290E075
:101E500001968770992780932202D8CF0E94B30AF7
:101E60001092230210922202ECE5F2E087E0DF01FB
:101E70001D928A95E9F72E96E3E00C943226809124
:101E80006B02869586958695089580916B02877082
:101E9000089590916B02977081E009F480E00895B5
:101EA00080917702089590917702892B8093770231
:101EB0000895809590917702892380937702089501
:101EC00010927702089590917602892B8093760282
:101ED00008958095909176028923809376020895E3
:101EE00010927602089508950E94730F08950E943B
:101EF000740F089590916D02292F2823821729F0DD
:101F0000982B90936D020E94770F089590916D0227
:101F1000292F282331F08095892380936D020E9418
:101F2000770F089580916D02882329F010926D0239
:101F300080E00E94770F0895CF93DF93E091010135
:101F4000F0910201809177028083E0910101F0918C
:101F50000201908180917602892B808380916D02AD
:101F6000882381F0E0910101F09102019081892B99
:101F7000808380910101909102010E94E4198111F6
:101F80000E94920FC0910101D091020148E050E0FF
:101F900063E672E0CE010E943E26892B59F088E06C
:101FA000FE01A3E6B2E001900D928A95E1F7CE0121
:101FB0000E94A319DF91CF9108950E94730F089595
:101FC0000E94DD0F089590916C02292F282331F093
:101FD0008095892380936C020E94E00F08950E94EF
:101FE000730F089590918B0492FF11C098E0899F20
:101FF00090011124262B20936B020E943C0B8091B0
:102000006B028695869586950E94EF0F08950E9433
:102010003C0B089510926B0280E00E94EF0F089530
:1020200090916B028095892380936B02282F2770F3
:1020300069F4981759F090918B0492FF07C0869528
:10204000869586950E944C0B0E940A100895CF93A6
:1020500090918B0492FB222720F92817F9F0C82FC2
:10206000892FC0FB82F980938B0480918A04909120
:102070008B040E94831082E00E94101080918802DD
:1020800080FF0CC01F92CF938FEA91E09F938F93B4
:102090000E947A020F900F900F900F90CF910895A9
:1020A00080918B0482FB882780F991E089270E9428
:1020B0002710089581E00E942710089580E00E9473
:1020C000271008956FEF7FEF80E090E00E94902648
:1020D000089580E090E00E945C2621E0863E9E4FBD
:1020E00009F020E0822F089582E090E00E945426BB
:1020F000089583E090E00E945426089584E090E0E3
:102100000E945C260895BC0184E090E00E94902625
:102110000895AB01BC018FE090E00E9484260895F1
:10212000AB01BC0183E190E00E948426089560E049
:1021300070E0CB010E949010089560E070E0CB0148
:102140000E9489100E9497100895A8E0B0E0EBEA81
:10215000F0E10C94172666EE7EEF80E090E00E949E
:10216000902660E082E090E00E94722660E083E0CA
:1021700090E00E947226109221021092200260E0EC
:1021800074E184E090E00E94902660E086E090E0B8
:102190000E9472266FEF87E090E00E94722640E076
:1021A00050E0BA0188E090E00E94842660E084E27A
:1021B00090E00E94722660E087E190E00E94722623
:1021C00060E08CE090E00E94722660E08DE090E09C
:1021D0000E94722619821A821B821C821D821E8214
:1021E0001F82188648E050E068E170E0CE01019659
:1021F0000E94622640E050E0BA0180E290E00E9436
:1022000084260E949D102896E2E00C9433260E94BA
:10221000A5100895682F8EE090E00E947226089520
:10222000A6E0B0E0E6E1F1E10C9415260E94E01A88
:102230008C0180917802909179020817190781F03A
:1022400019821A820E94E01A682F49815A81792FD7
:1022500080E090E00E945607109379020093780284
:102260002696E4E00C9431260E94FF1360938402CA
:102270007093850280938602909387026093800218
:10228000709381028093820290938302089581E08B
:1022900008950E945C15089508950E944C110895B8
:1022A0000E944C1108950E944C1108950E944C11F7
:1022B00008958FEA9EE10E94A3170E9456110E9482
:1022C000D00508950E944D110E944C1108950E945E
:1022D00033140E94080708950E94D71A0E94D91348
:1022E0000E9474150E94FF140E9467110E94A81793
:1022F0000E9486150E94CD050895A6E0B0E0E3E8AF
:10230000F1E10C940E260E944711811103C00E9436
:10231000101153C00E94B7058AE7E82E82E0F82E1C
:10232000670100E0F60111916F01802F0E945114A6
:1023300081270F5F063019F08823A1F302C088239C
:1023400031F38091880281FD0E9457140E94491147
:10235000A82E10E099249394812F0E945114B82E36
:10236000F701C080C82609F100E0DD24D3948C2D4C
:102370008D21A9F0AA2099F009831A830E94E01AFE
:102380009C838B839D8291E08B2D8D2109F490E0BD
:1023900049815A816B817C818D810E9456070F5F34
:1023A000DD0C063021F7F701B0821F5FFFEFEF1A57
:1023B000FF0A163089F60E9434110E945C150E94B3
:1023C0001B072696EBE00C942A261F93CF93DF93EE
:1023D0000E94EE12EC01C11582E5D807C8F5C115BF
:1023E00090E5D90708F0BBC0C83ED105C0F4C03E97
:1023F000D10508F0DDC0C53AD10550F4C430D1058F
:1024000008F0D6C0219709F0D0C081E090E0D1C09B
:10241000CD3CD10508F4C9C0CE019065CAC0C11534
:1024200080E4D80708F05AC0C11590E2D90708F037
:10243000AFC0C11581E0D80708F4B7C08D2F0E9446
:102440008A13182FCE0199270E94EE121F71ABC07C
:10245000C03892E5D90720F5C03682E5D80708F0E4
:1024600061C0C03492E5D90708F04AC0C03282E5A5
:10247000D807F0F54C2F4695469590E2499FA0016C
:102480001124C37021E030E0C90102C0880F991FF8
:10249000CA95E2F7EA01C82BD92BCE019D6889C005
:1024A000C03C92E5D90768F48C2F8F71C03AD245B1
:1024B00008F04CC090E0D82FCC27CE01846F906AF2
:1024C00078C0C03E82E5D80708F06FC0CF71DD2725
:1024D000DC2FCC27CE01806F906A6BC0CE0199278C
:1024E0000E94EE12CC27DF70D06A8C2B9D2B61C02E
:1024F000CF71D0E0DC2FCC27CE01816F906A59C01C
:102500008C2F8F718695869590E2899F900111247A
:10251000C37081E090E002C0880F991FCA95E2F76E
:102520009C6811C08C2F8F718695869590E2899F4B
:1025300090011124C37081E090E002C0880F991FC0
:10254000CA95E2F79A68822B932B33C00E948A13B4
:102550008F7190E0D82FCC27CE0190622AC08C2FAB
:102560008F710E948A1395E0D695C7959A95E1F7E9
:10257000CF70D0E0DC2FCC27282F30E084FF05C0BF
:1025800084E0220F331F8A95E1F7D069CE01DBCFBB
:102590008D2F8F710E948A13182FCE0199270E94C8
:1025A000EE121F719062912B04C080E090E001C098
:1025B000CE01DF91CF911F910895763038F46630C7
:1025C00028F4462F672F0E94EA05089580E090E0E6
:1025D00008950E94DD120E94E51108958238910548
:1025E00069F1B0F48133910509F475C048F489327A
:1025F000910509F467C08A32910509F471C0089504
:102600008533910509F459C089339105B9F00895CE
:10261000833E910589F138F4803E9105D1F0823EE8
:10262000910529F10895863E9105C9F1873E9105EE
:10263000D9F1843E910509F06CC027C020918A042D
:1026400020FD57C021FD55C020918B0423FD5BC0A8
:10265000089580918A0480FD48C080918B0480FF9A
:1026600048C080918A0484FD46C083EE51C08091A9
:102670008A0482FF3CC0F5CF80918A0482FD37C076
:1026800080918B0480FD35C0ECCF80918B0481FF5D
:1026900036C080918A0484FD2EC087EE39C08091B7
:1026A0008A0483FF2AC0F5CF80918A0483FD25C068
:1026B00080918B0481FD23C0ECCF80918A0485FD3D
:1026C00022C01FC080918A0485FD1BC080918B04AD
:1026D00083FF19C00AC080918A0486FD16C017C006
:1026E00080918A0486FD13C010C089E311C082EE78
:1026F0000FC080EE0DC080E00BC086EE09C084EEF6
:1027000007C085E305C089E203C08AE201C081E316
:1027100090E0089590918A0492FF10C041E0282F24
:102720002471243009F040E031E0282F287128304E
:1027300009F030E0431711F02CE0822793FF10C01E
:1027400041E0282F2471243109F040E031E0282FA6
:102750002871283109F030E0431711F02CE082276E
:1027600030918B0430FF10C051E0282F21712130AF
:1027700009F050E041E0282F2871283009F040E0AE
:10278000541711F029E0822731FF10C041E0282FB3
:102790002171213109F040E031E0282F28712831E2
:1027A00009F030E0431711F029E0822794FD877E7D
:1027B0000895109286041092870410928804109253
:1027C00089040895CF92DF92EF92FF926B017C0112
:1027D0000E945C1581110EC00E94EC1AC61AD70A1D
:1027E000E80AF90AC0928604D0928704E09288042D
:1027F000F0928904FF90EF90DF90CF9008950F93AF
:102800001F930E945C15882319F00E94EC1A0EC0D9
:102810000E94EC1A0091860410918704209188048C
:1028200030918904600F711F821F931F1F910F91B8
:1028300008950E94621008950E94B7058FE39CE9F5
:102840000197F1F700C000000E94B70580E00E94E8
:10285000511480FF04C00E9419140E94491B08955E
:102860000E941C1408950E946910811102C00E94E8
:1028700007110E947410809388020E947E1090932A
:102880008B0480938A040E9430140E94791090E097
:102890000E94030B80911E0290911F020E94210B47
:1028A0000895E82FF0E0EE56FB4F80810895A0E0F8
:1028B000B0E0EDE5F4E10C94112683ED91E00E9487
:1028C000E10182E9E82E84E0F82EC0E0D0E09EEC41
:1028D000C92E91E0D92E06EC11E0DF93CF93DF9261
:1028E000CF920E947A028BEC91E00E94E101F70105
:1028F00081917F010E94E3061F928F931F930F9394
:102900000E947A0284EC91E00E94E10121968DB749
:102910009EB708960FB6F8949EBF0FBE8DBFC63007
:10292000D105D9F6CDB7DEB7E8E00C942D26089591
:102930000E94971408950E94981408950E94971475
:1029400008950E949E1408950E9456050895A3E0DC
:10295000B0E0EDEAF4E10C9415260E945C1560915C
:1029600085048823D1F119821A821B82862F90E078
:102970008E010F5F1F4FB8018E569B4F0E9494151A
:10298000882389F08091840490E043E050E0B8010E
:102990008E569B4F0E943E2621E020938902892B70
:1029A00069F410E017C0809189028823D1F383E095
:1029B000F80111928A95E9F710928902E091840456
:1029C000F0E0EE56FB4F89819A81AB818083918341
:1029D000A28311E00E949B140DC070E06E567B4FE5
:1029E0008091840490E08E569B4F0E942F160E9487
:1029F000A41410E0812F2396E4E00C9431268091FA
:102A00000301811102C093E001C090E0909385041E
:102A100083E0891B809384040E945705ECE8F4E06E
:102A2000A2E9B4E011921D9284E0E239F807D1F7EF
:102A300083E00E941E150E94A11408950895EF924C
:102A4000FF920F931F93CF93DF937C018B01C42FD1
:102A5000222349F081E080938C020E94E01A909337
:102A60008B0280938A0280918C02811102C080E0E7
:102A70001AC080918A0290918B020E94F81A0597E1
:102A8000B0F3D0E0AE01B701C8010E943E26892B09
:102A900039F0AE01B701C8010E944B2681E001C0A8
:102AA00080E010928C02CDB7DEB7E6E00C942F26C2
:102AB0008FB182958170089580918F0281110DC030
:102AC0000E946C24811102C082E001C081E08093E9
:102AD0008F02823011F40E94672481E090918F026E
:102AE000913009F080E0089584988C988FE891E007
:102AF0000197F1F700C000000E9458158093030170
:102B00000E945C1581110E94DE1508950E945C15DB
:102B1000811102C00E94E115089581E09091900218
:102B20009A3008F080E00895EF92FF920F931F9380
:102B3000CF938C017B01C0919002CA3038F4B70169
:102B4000C8010E942C16811126C00AC080918D02F6
:102B500090918E020E94F81A843F914080F719C02C
:102B6000809190028F3F19F08F5F80939002809147
:102B700090028A30E0F00E94E01A90938E028093D7
:102B80008D028091880280FF04C085EF91E00E9451
:102B9000E10180E00DC0CA3040F08091880280FFE2
:102BA00004C082EE91E00E94E1011092900281E067
:102BB000CF911F910F91FF90EF9008950E94BB1B42
:102BC00008950E94BE1B0895A0E0B0E0EAEEF5E192
:102BD0000C9412267901C82F880FDD0B4115510581
:102BE000A9F0FE0193E0EE0FFF1F9A95E1F7EC5F6D
:102BF000FE4F818192818F569D4F208130E0421798
:102C0000530708F49A01A9010E944B26CE010E94A5
:102C1000A61CD82E8823D1F001151105B9F083E048
:102C2000CC0FDD1F8A95E1F7FE01EC5FFE4F43817B
:102C300050E00417150708F4A801CC5FDE4F6C8143
:102C40007D816F567D4FC7010E944B268D2DCDB7DC
:102C5000DEB7E7E00C942E260E94371708950E94F5
:102C600052170895A4E0B0E0E8E3F6E10C941526CD
:102C70006091A4027091A5028091A6029091A70292
:102C80000E94071B643671058105910528F10E9499
:102C9000FF13DC01CB010296A11DB11D89839A832C
:102CA000AB83BC8300E010E020E030E044E050E083
:102CB000BE016F5F7F4F82E00E94E415182F8823CA
:102CC00061F00E94EC1A6093A4027093A5028093B5
:102CD000A6029093A70201C011E0812F2496E4E0A0
:102CE0000C943126A0E0B0E0E8E7F6E10C940D2664
:102CF0007C015B01942E852E69010E948D15811146
:102D000003C001E010E002C00AE010E0C1E0D0E042
:102D1000B501C701F6010995811129C021960C174B
:102D20001D078CF0CC9F9001CD9F300D300D1124EC
:102D300080E090E045E34A95F1F7000001962817FE
:102D40003907C1F7E5CF90918802892F817090FFF4
:102D50000FC08F929F928BE292E09F938F930E947D
:102D60007A020F900F900F900F9080E001C081E0E9
:102D7000CDB7DEB7ECE00C942926A4E0B0E0E3EC9C
:102D8000F6E10C940F265B01E0903101F0903201E6
:102D900001E010E09E012C5F3F4F40E050E060E01A
:102DA00070E080E00E94E415182F882309F43EC0EB
:102DB00067018FEFC81AD80A6091A0027091A10232
:102DC0008091A2029091A3020E94071B64367105B4
:102DD0008105910518F103E010E09E012F5F3F4F40
:102DE00040E050E060E070E081E00E94E415182FC0
:102DF00063E070E0C6010E94A91791E02C812813BE
:102E000090E0192329F10E94EC1A6093A0027093BC
:102E1000A1028093A2029093A3020FC063E070E02E
:102E2000C6010E94A9179C818913D5CFF701818122
:102E30009281A38189839A83AB83112349F089818D
:102E40009A81AB8180939D0290939E02A0939F02F2
:102E500080919D0290919E02A0919F02F501808336
:102E60009183A283812F2496EAE00C942B260F9362
:102E70001F93CF93DF93EC018B012DEB36E143E3FE
:102E800051E00E947216882341F022E336E140E4CB
:102E900051E0B801CE010E947216DF91CF911F91CF
:102EA0000F9108950F931F93CF93DF93C09131013A
:102EB000D0913201CE01019623E0FB01DC010190AB
:102EC0000D922A95E1F763E070E00E94A9178883CC
:102ED0006C817D818E819F810091990210919A026F
:102EE00020919B0230919C02601771078207930723
:102EF00051F06093990270939A0280939B02909391
:102F00009C020E94E213DF91CF911F910F910895CF
:102F10000E942C1F0E946C110E94391F08950E946C
:102F20003E1F0E947D110E94621F08950E94771A21
:102F30000E94121F0E9459110E9488170E948F1729
:102F40000E946211FBCF90934D0180934C01089534
:102F50000895FC01680F791F8FEF91E3E617F707DB
:102F600071F02191822728E030E087FF03C0880FAD
:102F7000892701C0880F21503109B9F7EFCF089593
:102F8000CF93DF93FC01DB0115968C91882309F424
:102F9000DDC09F0130572332310508F0D8C0EF0162
:102FA0000E947E1090938B0480938A04FE01E1506E
:102FB000F047E232F10520F4EE59FF4F0C94012660
:102FC00080918A048160AAC080918B048860B2C01D
:102FD00080918A048260A2C080918A0420C080917E
:102FE0008A0488609BC080918B041EC080918B04F2
:102FF0008260A0C080918A04806190C080918A0420
:1030000080628CC080918A04806488C00E94B30A68
:1030100080918A04806882C080918A04886084607C
:103020007DC080918B048260816084C080918A041D
:103030008E7F74C080918B04877F7CC080918A04CE
:103040008D7F6CC080918A0420C080918A04877F24
:1030500065C080918B041EC080918B048D7F6AC0F7
:1030600080918A048F7E5AC080918A048F7D56C0D9
:1030700080918A048F7B52C00E94B30A80918A0497
:103080008F774CC080918A04877F8B7F47C0809167
:103090008B048D7F8E7F4EC080918A0482FB222715
:1030A00020F991E0922790FB82F990FB83F936C0DA
:1030B00080918B04982F909591708E7F892B90FB37
:1030C00081F938C080918A0486FB222720F991E09B
:1030D000922790FB86F922C00E94B30A80918A044D
:1030E00087FB222720F991E0922790FB87F916C0F1
:1030F00081E001C080E00E940A111EC080918A0414
:1031000084FB222720F991E0922790FB84F906C0E6
:1031100080918A04982F909590FB80F980938A047F
:103120000BC080918B0483FB222720F991E092272A
:1031300090FB83F980938B0480918A0490918B0497
:103140000E9483100E94B30A80E001C081E0DF91F9
:10315000CF910895CF93DF9386319C4741F5EB01E2
:103160000E94500F982F8D81209101013091020112
:10317000882379F09A7A81E009F480E08093A802AC
:10318000911102C069E201C065E3C9010E94261ADB
:103190000AC08091A802811102C069E201C065E302
:1031A000C9010E94291A0E949C0F80E001C081E0A1
:1031B000DF91CF9108950F931F93CF93DF93C42F87
:1031C000D22FFC0185818823B1F04093AB020E948D
:1031D000E01A9093AA028093A90280E28C0F8830B3
:1031E00008F04DC0C77081E001C0880FCA95EAF7AA
:1031F0000E948C0844C08091AB02481330C080917B
:10320000A9029091AA020E94F81A8D37910538F50B
:1032100010E21D0FCD17B9F080E28C0F883040F41A
:10322000C77081E001C0880FCA95EAF70E94930831
:10323000183010F581E09D2F977001C0880F9A9586
:10324000EAF70E948C08802F0E9482081830B8F498
:10325000D77081E001C0880FDA95EAF70AC080E2F2
:103260008C0F883060F4C77081E001C0880FCA9568
:10327000EAF70E94930803C0802F0E948208DF9122
:10328000CF911F910F9108950F93FC01E851FC47D6
:10329000E730F10590F5CB01EC57FF4F0C94012678
:1032A00006E221EE41EE6AE17CE723C007E225EE6B
:1032B00045EE6BE17CE71DC006E221EE40EE68E1E1
:1032C0007CE717C007E225EE44EE69E17CE711C018
:1032D00006E221EE42EE6CE17CE70BC007E225EE50
:1032E00046EE6DE17CE705C008E221E045EE6EE1C7
:1032F0007CE70E94DB1880E008C0FB018581882301
:1033000019F01092AB0201C081E00F9108959093E3
:10331000AE028093AD0208950E945C15811103C036
:103320008091AC020895E091AD02F091AE02309729
:1033300029F00190F081E02D0995089580E008952D
:103340000E948C190895EF92FF920F931F93CF93D1
:10335000DF93E091AD02F091AE02309781F18C01E4
:103360000280F381E02D09958091880282FF27C0B9
:1033700080FF04C089E492E00E94E101E80118E0C6
:1033800083E4E82E82E0F82E8091880280FF0BC053
:1033900088811F928F93FF92EF920E947A020F9082
:1033A0000F900F900F90115021961111EDCF809139
:1033B000880280FF04C081E492E00E94E101CDB761
:1033C000DEB7E6E00C942F26FC01329697E080E011
:1033D000915029F021912223D9F38F5FF9CF0895DD
:1033E000662349F0FC01329608962191621729F074
:1033F000E817F907D1F780E0089581E008959C016E
:10340000FC0132969FEF80E04191461789F09F3F83
:1034100019F4411101C0982F8F5F8630A9F79F3FA3
:1034200039F0F901E90FF11D97FDFA9562830895CE
:1034300008959C012A5F3F4FFC014281461301C061
:103440001282019682179307B9F708950E94FF1917
:1034500008950E94191A0895029626E0FC0111921F
:103460002A95E9F7089508950E94331A089583E094
:103470008093AF020E94341A0895811102C081E046
:1034800001C082E08093AF020E94341A08950E9426
:103490003D1A089581E08093AF020E94341A089586
:1034A0000E944A1A089508950E94531A08950E948E
:1034B000541A08950E94531A08950E94531A0895A9
:1034C0000E94531A0895CF930E945D1A0E94B70577
:1034D0000E945A1AC0E08C2F0E945114811104C01E
:1034E000CF5FC630C1F701C081E0CF91089585B7A5
:1034F000806885BF85B7806885BF08951F920F9249
:103500000FB60F9211248F939F93AF93BF93809127
:10351000B002811113C08091980490919904A091F8
:103520009A04B0919B044196A11DB11D809398040B
:1035300090939904A0939A04B0939B04BF91AF9188
:103540009F918F910F900FBE0F901F9018958091B3
:10355000A004843031F10E94D9061092B00220E418
:1035600088E190E00FB6F894A895809360000FBEB4
:103570002093600083B7817F846083BF83B78160BD
:1035800083BF7894889583B78E7F83BF0FB6F894F6
:10359000A89580916000886180936000109260001F
:1035A0000FBE08950E94B30A0E94DE06089582E0CD
:1035B00084BD93E095BD9AEF97BD80936E0008950A
:1035C0002FB7F8948091980490919904A0919A044F
:1035D000B0919B042FBF08952FB7F8946091980481
:1035E0007091990480919A0490919B042FBF089543
:1035F0009C014FB7F8948091980490919904A09100
:103600009A04B0919B044FBF821B930B0895CF92F5
:10361000DF92EF92FF922FB7F894C0909804D09069
:103620009904E0909A04F0909B042FBFA7019601A3
:10363000261B370B480B590BCA01B901FF90EF90BD
:10364000DF90CF90089578941F920F920FB60F924B
:1036500011248F939F93AF93BF938091980490917F
:103660009904A0919A04B0919B040196A11DB11DEB
:103670008093980490939904A0939A04B0939B0428
:10368000BF91AF919F918F910F900FBE0F901F90A0
:10369000189587E797E790930108809300089AE0D0
:1036A00088E10FB6F894A895809360000FBE9093C0
:1036B0006000FFCF9AE088E10FB6F894A895809358
:1036C00060000FBE90936000FFCF8EE14A9B02C066
:1036D0008150E1F74A9BFECF08955A9880E28A957F
:1036E000F1F75A9A0895FC012AE02A95F1F728E0AB
:1036F00090E080E031E040E14A95F1F7880F4A9B85
:1037000002C08160932700C0000040E14A95F1F7B4
:10371000215089F720E12A95F1F729B100C0000076
:1037200030E13A95F1F722FB222720F992272081F8
:10373000920F90830895A1E0B0E0E1EAFBE10C94E0
:10374000132619828C017C01E60EF11C0E151F0553
:1037500051F00E94651BCE0101960E94731BF80177
:1037600081938F01F3CF81E09981911180E02196BF
:10377000E6E00C942F26529A5A9A089552985A9A33
:10378000EA9AE9E6F0E080818F7C808308956150B9
:1037900091E001C0990F6A95EAF720E031E09923A2
:1037A00061F0492F482319F05A9A232701C05A98EB
:1037B00040E24A95F1F79695F2CF222311F05A9AFA
:1037C00001C05A9880E28A95F1F75A980895FF92BD
:1037D0000F931F93CF93DF93EC018C01060F111D04
:1037E000C017D10741F0F9900E946D1B68E08F2D42
:1037F0000E94C71BF5CFCDB7DEB7E5E00C943026AD
:103800001F920F920FB60F9211240F931F932F93B5
:103810003F934F935F936F937F938F939F93AF9358
:10382000BF93EF93FF93CF93DF931F92CDB7DEB794
:1038300019820E94651BCE0101960E94731B082FFE
:10384000069506950695902F96959570202F2570D4
:10385000920F292F237096959695920F8770891352
:103860005FC0898181115CC0043008F059C080E1DB
:103870008A95F1F75A9A529A82E08A95F1F700C038
:103880005A9888E0089F80011124D801AC5FBE4F90
:103890001696ED91FC9117973097A9F06091310140
:1038A0007091320114962D913C911597260F371F78
:1038B00011968D919C911297680F791F13964C91D8
:1038C00013978C910995F801EC5FFE4F6381662395
:1038D00051F0809131019091320124813581820F24
:1038E000931F0E94E71B0E946D1B80E18A95F1F7F0
:1038F0005A9852985A9A80E18A95F1F7F801EC5F4C
:10390000FE4F6081662351F0809131019091320128
:1039100021813281820F931F0E949B1B0E94651B95
:103920000F90DF91CF91FF91EF91BF91AF919F9158
:103930008F917F916F915F914F913F912F911F9147
:103940000F910F900FBE0F901F9018950F931F931C
:10395000CF93DF93843091050CF06DC0EC01F894A7
:10396000529A5A9885E08A95F1F700009C2F969517
:1039700095702C2F2570920F892F837096959695B0
:1039800023E0CC0FDD1F2A95E1F7980F8E01092B5C
:103990000E946D1B84E08A95F1F700C068E0802FDB
:1039A0000E94C71B80E18A95F1F752985A9A4A996A
:1039B00002C000C0FCCF87E090E04A9B08C001979E
:1039C00021F4529A5A9A789436C000C0F6CFFE017C
:1039D000EC5FFE4F6381662381F08091310190910D
:1039E000320124813581820F931F0E949B1B81111C
:1039F00004C0529A5A9A78941FC00E94651B80E2B4
:103A00008A95F1F75A98529A80E18A95F1F7CC5F3E
:103A1000DE4F6881662351F080913101909132012F
:103A200029813A81820F931F0E94E71B0E946D1B20
:103A3000789481E001C080E0DF91CF911F910F91D8
:103A400008958091BC020895089508959B01909176
:103A5000A0049430F1F48F708093E9008FEF90917F
:103A6000E800815095FD06C095ED9A95F1F70000AC
:103A70008111F5CF8091E80085FF0BC0BA01C90123
:103A800040E050E00E94DA1F8091E8008E7780933A
:103A9000E8000895CF93DF93EC0148E050E0BC01CB
:103AA00081E00E94261D88E0FE01A4EBB2E00190B7
:103AB0000D928A95E1F7DF91CF91089581E892E028
:103AC0000E94E10180919F04811109C00E9465213B
:103AD0000E94C2218091E20084608093E2000895F8
:103AE0008DE792E00E94E10110929F04089589E71A
:103AF00092E00E94E1010E94501A089585E792E049
:103B00000E94E10160919C0481E0611101C080E0AC
:103B10000E94371A089581E792E00E94E101909196
:103B2000A00481E0943009F080E060919C040E9440
:103B30003D1A08952091B2022F5F822F62E30E9406
:103B4000E125992319F02093B20208951092B20250
:103B50008091B302882371F18091A004843041F5F3
:103B60008091E9008F702091EC00922F917020FDE0
:103B700090E8892B92E09093E9009091EB0090FF00
:103B800014C09091EE0097FF10C09091E80095FF4F
:103B900003C01092F100F9CF9091E80090FF05C0AA
:103BA0009091E8009E779093E8008F708093E900F1
:103BB0001092B302089542E061EC81E00E94DE20A1
:103BC00042E261EC82E00E94DE209091A00481E05C
:103BD000943009F080E060919C040E94471A089597
:103BE0008091A204833009F461C030F4813071F017
:103BF000823009F49BC008958A3009F487C08B3065
:103C000009F46CC0893009F0A9C020C08091A104DA
:103C1000813A09F0A3C08091E800877F8093E80093
:103C20008091A5049091A604892B21F468E084EB8F
:103C300092E003C060E080E090E070E00E941F200E
:103C40008091E8008B778093E80008958091A1042B
:103C5000813209F083C08091A5049091A604892B3C
:103C600009F07CC08091E800877F8093E800809114
:103C7000E80082FD05C08091A0048111F8CF6EC0DC
:103C80002091F3008091F20090E0922B029731F4A2
:103C90008091F100813011F0863021F48091F100A3
:103CA0008093BC028091E8008B7754C08091A1047E
:103CB000813A09F053C08091A5049091A604892B04
:103CC00009F04CC08091E800877F8093E8008091E4
:103CD000E80080FFFCCF8091240137C08091A104CF
:103CE0008132E1F58091A5049091A604892BB1F56C
:103CF0008091E800877F8093E8000E9413218091E3
:103D0000A304809324010E94B30A08958091A10422
:103D1000813221F58091E800877F8093E8000E943E
:103D200013218091A4048093BD0208958091A10481
:103D3000813AA1F48091E800877F8093E800809128
:103D4000E80080FFFCCF8091BD028093F10080915C
:103D5000E8008E778093E8000E94132108959FB7B2
:103D6000F8941092B3029FBF9091A004943009F090
:103D700057C09091E9009F703091EC00232F217083
:103D800030FD20E8922B22E02093E9002091EB0007
:103D900020FF43C02091EE0027FF3FC02091B102D9
:103DA000222321F02091E80025FF37C01092B102B4
:103DB00026E03091E80035FD15C03091A004343084
:103DC00061F53091EB0035FD28C0215021F481E0F0
:103DD0008093B10222C0EFE9FFE03197F1F700C014
:103DE0000000E7CF8093F1008091E80085FD0AC0D4
:103DF0008091E80080FFFCCF8091E8008E7780936F
:103E0000E80006C08FB7F89421E02093B3028FBF7B
:103E10009F709093E90080E008959F709093E9006F
:103E20008FEF089584B7877F84BF0FB6F894A89565
:103E300080916000886180936000109260000FBEE6
:103E400090E080E80FB6F894809361009093610051
:103E50000FBE0E944A1A08950E9465210E94C22145
:103E6000E2EEF0E080818460808378940E944C24AC
:103E700008958CE191E00E94871908958091A00433
:103E80008530F9F48091880280FF0BC08BE592E0C9
:103E90000E94E10106C00E94A71A80919E04811130
:103EA00005C08091A0048530B1F309C00E94631A57
:103EB0008823B9F30E94C41F0E94B30AF2CF0E9464
:103EC000D21A089508959A014091A7045091A80428
:103ED0000E946B1F0895492F552743305105C9F0A3
:103EE00060F44130510581F04230510509F044C081
:103EF00082E490E041EB52E043C041325105E1F0F1
:103F00004232510549F138C082E190E043EF52E07E
:103F100037C099278130910549F028F0029761F563
:103F2000E5E8F2E005C0EDEAF2E002C0E5E9F2E022
:103F3000849190E0AF0124C06115710541F06130BA
:103F40007105D1F489E090E04CED52E019C089E0B0
:103F500090E043EC52E014C06115710541F061300E
:103F6000710551F482E290E045E053E009C084E439
:103F700090E047E253E004C080E090E040E050E091
:103F8000F90151834083089580E189BD82E189BDB3
:103F900009B400FEFDCF8091D8008F7D8093D800BA
:103FA0008091E00082608093E0008091E00081FDDC
:103FB000FCCF0895A0E0B0E0E0EEFFE10C94112604
:103FC000EC018B017A010E943221811133C0E1148E
:103FD000F10439F0F70180819181081B190BC80F9A
:103FE000D91FC12CD12C0115110519F18091E800C0
:103FF00085FD16C08091E8008E778093E800E1147B
:10400000F10449F0F70180819181C80ED91ED18257
:10401000C08285E00FC00E943221882321F30AC0AC
:1040200089918093F10001501109FFEFCF1ADF0A47
:10403000DACF80E0CDB7DEB7E8E00C942D262091F2
:10404000A7043091A8042617370748F061157105B9
:1040500039F42091E8002E772093E80001C0B901DF
:10406000FC0120E06115710579F18091A00488239D
:10407000F1F18530F1F18091E80083FD3CC0809141
:10408000E80082FD2EC08091E80080FFEBCF2091F8
:10409000F3008091F20090E0922B6115710551F0D0
:1040A0008830910538F421912093F1006150710915
:1040B0000196F3CF21E0089709F020E08091E80015
:1040C0008E778093E800CECF2111CFCF0AC08091A8
:1040D000A004882361F0853061F08091E80083FDC1
:1040E0000AC08091E80082FFF2CF80E0089582E06C
:1040F000089583E0089581E008952091A704309108
:10410000A8042617370748F06115710539F4209186
:10411000E8002E772093E80001C0B901FC0120E0FF
:104120006115710591F18091A004882309F440C0C4
:10413000853009F43FC08091E80083FD3DC0809147
:10414000E80082FD2FC08091E80080FFE9CF209138
:10415000F3008091F20090E0922B6115710559F007
:104160008830910540F424912093F10031966150FC
:1041700071090196F2CF21E0089709F020E08091C3
:10418000E8008E778093E800CBCF2111CCCF0AC016
:104190008091A004882361F0853061F08091E8006F
:1041A00083FD0AC08091E80082FFF2CF80E008958D
:1041B00082E0089583E0089581E00895982F973074
:1041C00068F59093E900981739F07091EC00209110
:1041D000ED005091F00003C0242F762F50E021FD18
:1041E00002C09F5FECCF3091EB003E7F3093EB003D
:1041F0003091ED003D7F3093ED003091EB00316068
:104200003093EB007093EC002093ED005093F0009E
:104210002091EE0027FDE5CF80E008958F70809318
:10422000E90081E008958091A10487FF11C0809189
:10423000E80082FD05C08091A0048111F8CF11C073
:104240008091E8008B770BC08091A004882349F00F
:104250008091E80080FFF8CF8091E8008E7780930E
:10426000E80008952091E4003091E50095E6409142
:10427000EC00842F817040FF23C08091E80080FD16
:104280001DC08091A004882399F0853099F0809119
:10429000EB0085FD11C04091E4005091E50024172A
:1042A000350729F3915011F09A01E1CF84E0089588
:1042B00082E0089583E0089581E0089580E0089504
:1042C0004091E80042FFDDCF08950E94D4210E9472
:1042D000DC21E0EEF0E0808181608083E8EDF0E0B9
:1042E00080818F77808319BCA7EDB0E08C918E7FA1
:1042F0008C9380818F7E808310929F0408950F930A
:104300001F93CF93DF930E94D4210E94DC21C8ED3C
:10431000D0E088818F7788838881806888838881CE
:104320008F7D888319BC1092A00410929C04109277
:104330009E0410929D0400EE10E0F80180818B7FB6
:10434000808388818160888342E060E080E00E9411
:10435000DE20E1EEF0E080818E7F8083E2EEF0E00F
:10436000808181608083808188608083F801808182
:104370008E7F8083888180618883DF91CF911F91B8
:104380000F910895E8EDF0E080818F7E8083E7ED66
:10439000F0E080818160808384E082BF81E080934F
:1043A0009F040E947F210895E8EDF0E080818E7FD8
:1043B00080831092E20008951092DA001092E100DA
:1043C00008951F920F920FB60F9211242F933F93CF
:1043D0004F935F936F937F938F939F93AF93BF930D
:1043E000EF93FF938091E10082FF0BC08091E20088
:1043F00082FF07C08091E1008B7F8093E1000E94E3
:104400009A1D8091DA0080FF1FC08091D80080FF44
:104410001BC08091DA008E7F8093DA008091D900F2
:1044200080FF0DC080E189BD82E189BD09B400FE35
:10443000FDCF81E08093A0040E945E1D05C019BCE1
:104440001092A0040E94701D8091E10080FF19C0AD
:104450008091E20080FF15C08091E2008E7F809302
:10446000E2008091E20080618093E2008091D800B8
:1044700080628093D80019BC85E08093A0040E94DC
:104480007E1D8091E10084FF30C08091E20084FFB6
:104490002CC080E189BD82E189BD09B400FEFDCF59
:1044A0008091D8008F7D8093D8008091E1008F7E2D
:1044B0008093E1008091E2008F7E8093E200809102
:1044C000E20081608093E20080919C04882311F0D7
:1044D00084E007C08091E30087FD02C081E001C055
:1044E00083E08093A0040E948B1D8091E10083FFF4
:1044F00029C08091E20083FF25C08091E100877F81
:104500008093E10082E08093A00410929C0480914B
:10451000E1008E7F8093E1008091E2008E7F8093A6
:10452000E2008091E20080618093E20042E060E07E
:1045300080E00E94DE208091F00088608093F0008F
:104540000E94771DFF91EF91BF91AF919F918F9145
:104550007F916F915F914F913F912F910F900FBE7F
:104560000F901F9018951F920F920FB60F92112463
:104570002F933F934F935F936F937F938F939F936B
:10458000AF93BF93CF93DF93EF93FF93C091E90075
:10459000CF708091EC00D82FD17080FDD0E81092C0
:1045A000E9008091F000877F8093F00078940E946A
:1045B000F7221092E9008091F00088608093F0006B
:1045C000CD2BCF70C093E900FF91EF91DF91CF9198
:1045D000BF91AF919F918F917F916F915F914F911B
:1045E0003F912F910F900FBE0F901F901895AAE248
:1045F000B0E0EDEFF2E20C941626E1EAF4E08091EF
:10460000F100819324E0E93AF207C9F70E94F01D16
:104610008091E80083FF2EC18091A1049091A204B3
:10462000492F50E04A30510508F024C1FA01E557FE
:10463000FF4F0C940126803821F0823809F01AC10E
:1046400008C080919D0490919E04992389F0826016
:104650000FC08091A5048F70873008F00BC1809344
:10466000E9008091EB0085FB882780F91092E90032
:104670009091E800977F9093E8008093F10010926A
:10468000F100D1C0282F2D7F09F0F4C0882319F044
:10469000823061F0EFC08091A304813009F0EAC05C
:1046A000933009F080E080939E042EC08091A30493
:1046B00081112AC08091A5048F702FEF280F26301A
:1046C00008F0D8C08093E9002091EB0020FF1CC0C7
:1046D000933021F48091EB00806214C09091EB0044
:1046E00090619093EB0021E030E0A90102C0440FFB
:1046F000551F8A95E2F74093EA001092EA008091F4
:10470000EB0088608093EB001092E9008091E80054
:10471000877F8093E8000E941321ACC08111AAC05A
:104720001091A3041F778091E3008078812B809300
:10473000E3008091E800877F8093E8000E941321C6
:104740008091E80080FFFCCF8091E3008068809337
:10475000E300111102C082E001C083E08093A00455
:1047600089C08058823008F085C08091A304909160
:10477000A4048C3D53E0950779F583E08A838AE2AF
:1047800089834FB7F894DE01139620E03EE051E2B2
:10479000E32FF0E050935700E49120FF03C0E2952F
:1047A000EF703F5FEF708E2F90E0EA3010F0C79609
:1047B00001C0C0968D939D932F5F243149F74FBF61
:1047C0008091E800877F8093E8006AE270E0CE0184
:1047D00001960E941F2016C06091A5047091A60446
:1047E000AE014F5F5F4F0E94631FBC01892B09F42C
:1047F00041C09091E800977F9093E80089819A8169
:104800000E947D208091E8008B778093E80032C081
:10481000803881F58091E800877F8093E80080915F
:104820009C048093F1008091E8008E7772CF811113
:1048300021C08091A3049091A40499270297D4F4F5
:104840008091E800877F8093E8008091A3048093A3
:104850009C040E94132180919C04811106C08091C8
:10486000E30087FD02C081E001C084E08093A004E2
:104870000E94DB1D8091E80083FF0AC08091E80060
:10488000877F8093E8008091EB0080628093EB004B
:10489000AA96E3E00C943226CF938091A00488235B
:1048A000A1F0C091E900CF709091EC00892F817048
:1048B00090FD80E8C82B1092E9008091E80083FD0C
:1048C0000E94F722CF70C093E900CF9108950E9413
:1048D00065211092A0040895E8EDF0E080818061E8
:1048E00080838AE18A95F1F700C08091D9008170B8
:1048F00008955058BB27AA270E9491240C943A256A
:104900000E942C2538F00E94332520F039F49F3F77
:1049100019F426F40C9429250EF4E095E7FB0C9489
:104920002325E92F0E944B2558F3BA176207730716
:104930008407950720F079F4A6F50C946D250EF404
:10494000E0950B2EBA2FA02D0B01B90190010C019F
:10495000CA01A0011124FF27591B99F0593F50F4B7
:10496000503E68F11A16F040A22F232F342F44270F
:10497000585FF3CF469537952795A795F040539507
:10498000C9F77EF41F16BA0B620B730B840BBAF0D7
:104990009150A1F0FF0FBB1F661F771F881FC2F742
:1049A0000EC0BA0F621F731F841F48F48795779556
:1049B0006795B795F7959E3F08F0B0CF9395880F10
:1049C00008F09927EE0F979587950895E89409C008
:1049D00097FB3EF490958095709561957F4F8F4F32
:1049E0009F4F9923A9F0F92F96E9BB279395F69548
:1049F000879577956795B795F111F8CFFAF4BB0FC6
:104A000011F460FF1BC06F5F7F4F8F4F9F4F16C029
:104A1000882311F096E911C0772321F09EE8872FB3
:104A2000762F05C0662371F096E8862F70E060E06F
:104A30002AF09A95660F771F881FDAF7880F9695E8
:104A4000879597F9089597F99F6780E870E060E08F
:104A500008959FEF80EC089500240A941616170617
:104A600018060906089500240A941216130614065F
:104A700005060895092E0394000C11F4882352F0C2
:104A8000BB0F40F4BF2B11F460FF04C06F5F7F4F7A
:104A90008F4F9F4F089557FD9058440F551F59F061
:104AA0005F3F71F04795880F97FB991F61F09F3F1B
:104AB00079F087950895121613061406551FF2CF44
:104AC0004695F1DF08C0161617061806991FF1CF94
:104AD00086957105610508940895E894BB276627BB
:104AE0007727CB0197F908950E9487250C943A25E2
:104AF0000E942C2538F00E94332520F0952311F0D8
:104B00000C9423250C94292511240C946E250E94C5
:104B10004B2570F3959FC1F3950F50E0551F629F91
:104B2000F001729FBB27F00DB11D639FAA27F00D06
:104B3000B11DAA1F649F6627B00DA11D661F829F2D
:104B40002227B00DA11D621F739FB00DA11D621F12
:104B5000839FA00D611D221F749F3327A00D611D2F
:104B6000231F849F600D211D822F762F6A2F112411
:104B70009F5750409AF0F1F088234AF0EE0FFF1F44
:104B8000BB1F661F771F881F91505040A9F79E3F9B
:104B9000510580F00C9423250C946E255F3FE4F3BF
:104BA000983ED4F3869577956795B795F795E795F1
:104BB0009F5FC1F7FE2B880F911D9695879597F9FA
:104BC0000895991B79E004C0991F961708F0961B69
:104BD000881F7A95C9F780950895AA1BBB1B51E1E0
:104BE00007C0AA1FBB1FA617B70710F0A61BB70B5D
:104BF000881F991F5A95A9F780959095BC01CD0102
:104C00000895EE0FFF1F0590F491E02D09942F9267
:104C10003F924F925F926F927F928F929F92AF924C
:104C2000BF92CF92DF92EF92FF920F931F93CF9399
:104C3000DF93CDB7DEB7CA1BDB0B0FB6F894DEBF30
:104C40000FBECDBF09942A88398848885F846E8456
:104C50007D848C849B84AA84B984C884DF80EE80A0
:104C6000FD800C811B81AA81B981CE0FD11D0FB6A9
:104C7000F894DEBF0FBECDBFED010895FB01DC014E
:104C800004C08D910190801921F441505040C8F723
:104C9000881B990B0895FB01DC0102C001900D9265
:104CA00041505040D8F70895F999FECF92BD81BD8B
:104CB000F89A992780B50895A8E1B0E042E050E065
:104CC0000C949826DC01A40FB51F4150504048F0C9
:104CD000CB01840F951F2E910E94732641505040A6
:104CE000D0F70895262FF999FECF92BD81BDF89A8D
:104CF000019700B4021639F01FBA20BD0FB6F89420
:104D0000FA9AF99A0FBE08950396272F0E947326E8
:104D10000E947226252F0E947326242F0C9473263E
:104D20000196272F0E9473260C947226DC01CB017A
:104D3000FC01F999FECF06C0F2BDE1BDF89A3196AB
:104D400000B40D9241505040B8F70895F894FFCF49
:104D5000406E02010000000100000000000000039E
:104D6000010000000404000000000000211D4A1D95
:104D7000241D251D01363233010003050702946608
:104D8000979102736C6176655F6D617472697800EA
:0C4D900073796E635F74696D65720000DA
:00000001FF
