:100000000C94AB010C94C8010C94C8010C94061A12
:100010000C94C8010C94C8010C94C8010C94C8013C
:100020000C94C8010C94C8010C94C1210C94932227
:100030000C94201C0C94C8010C94C8010C94C801A9
:100040000C94C8010C94C8010C94C8010C94C8010C
:100050000C94C8010C94C51C0C94C8010C94C801E4
:100060000C94C8010C94C8010C94C8010C94C801EC
:100070000C94C8010C94C8010C94C8010C94C801DC
:100080000C94C8010C94C8010C94C8010C94C801CC
:100090000C94C8010C94C8010C94C8010C94C801BC
:1000A0000C94C8010C94C8010C94C801CE08CE0869
:1000B000FA08FA083F0A3F0A3F0A3F0A5009C609F0
:1000C000D709D709FA176C180218CC17D0170618D9
:1000D000D31709181418DE176218E2171818E61754
:1000E0001C184618EA1720185018F0172618301850
:1000F000D7170D18DA171018F5172B183C185C18BD
:100100005E18C817FE1775184019461934193A19A0
:100110004C1952195819FB2222231A2422231A247B
:100120006E2391231A24E823F7230A002534640060
:100130000A001E001F002000210022001D001400E4
:100140001A000800150017001B0004001600070025
:1001500009000A00060027002600250024002300CD
:100160001100130012000C0018001C000500100004
:100170000F000E000D000B00190044454255473A90
:100180002064697361626C65642E0A0044454255BF
:10019000473A20656E61626C65642E0A000A00258C
:1001A000303258006C65645F7461736B3A20004FA5
:1001B0006E6573686F743A206163746976653A207E
:1001C00025640A000A0025303862003A20002530F4
:1001D0003258000A722F63203031323334353637CB
:1001E0000A0054617267657420636F6E6E65637494
:1001F00065640D0A005461726765742064697363F5
:100200006F6E6E65637465642C207468726F7474AD
:100210006C696E6720636F6E6E656374696F6E20C4
:10022000617474656D7074730D0A004661696C6564
:100230006420746F20657865637574652025730A82
:10024000000A002530325820006B6579626F6172B8
:10025000645F7265706F72743A20005B735D005B5F
:10026000575D005B535D005B525D005B445D005B6E
:10027000435D000E036D0069006E00690065006358
:10028000000000160367006F0072006F00700069C5
:10029000006B00610072006900000004030904099A
:1002A000024200020100A0FA09040000010301015A
:1002B0000009211101000122400007058103080007
:1002C00001090401000203000000092111010001DD
:1002D00022220007058203200001070502032000F7
:1002E000011201000200000008EDFE000000010103
:1002F0000200010631FF0974A1010975150026FFEE
:10030000009520750881020976150026FF009520CA
:1003100075089102C005010906A101050719E02928
:10032000E715002501950875018102950175088181
:10033000010507190029FF150026FF00950675081D
:10034000810005081901290595057501910295019E
:1003500075039101C00011241FBECFEFDAE0DEBFAC
:10036000CDBF11E0A0E0B1E0E0E1FDE402C0059006
:100370000D92AC34B107D9F724E0ACE4B1E001C090
:100380001D92A93AB207E1F70E947F170C948626C6
:100390000C940000FF93EF93E0914C01F0914D011C
:1003A000309709F00995EF91FF910895FC0185912F
:1003B000803011F0EFDFFBCF0895FF27E0E230E25D
:1003C00047FF0CC0419597FF09C0EDE2609570951D
:1003D00080959095611D711D811D911D27FF02C0A3
:1003E000219530E350E2AA27660F771F881F991FD7
:1003F000AA1FA41710F0A41B63955A95A9F7AA3059
:1004000008F0A95FA05DAF93F395611571058105B3
:10041000910541F7ED3211F4EF93F395F21718F4CB
:100420003F93F395FBCF8F91B5DFFA95E1F70895F0
:10043000E991F9918591803021F0853219F0AADF98
:10044000F9CF089520E0E89455915532C1F3503327
:1004500011F4689455915A3348F4505390F3220F95
:10046000022E220F220F200D250FF4CF0EF421951E
:1004700089919991533619F3533729F1533559F12D
:10048000BC0188279927E8945C3621F489919991D9
:1004900068945591543639F446EF7EF077FF0DC0DD
:1004A0008FEF9FEF0AC055374AE039F0583540E1E9
:1004B00021F0523642E009F00895FF93EF937DDF7B
:1004C000EF91FF91B7CFFF93EF93FC0181918030C3
:1004D000B9F360DFFBCFFF93EF9368DFF1CFDF93DA
:1004E000CF93CDB7DEB72596A3DFCF91DF910895E7
:1004F000807C809300010895873941F178F4863338
:1005000049F130F4843321F1853331F584E20895E3
:100510008439D1F0863901F581E20895843F71F084
:1005200030F4803FD9F0813FB9F481E00895863FEF
:1005300049F030F0873F81F487E0089584E0089522
:1005400085E0089586E0089580E2089582E20895A6
:1005500083E2089585E208958FE1089580E008958B
:1005600096E890937A00982F9072906890937B0011
:100570008F7190910001892B80937C0080917A008B
:10058000806480937A0080917A0086FDFCCF809110
:1005900078002091790090917A009F7790937A006B
:1005A00090E0922B08950E947C020E94B002089570
:1005B0004F925F926F927F928F929F92AF92BF9273
:1005C000CF92DF92EF92FF92CF93DF93EC016A011B
:1005D0007B018889882349F0488759876A877B8708
:1005E0004C875D876E877F87188A8C809D80AE8060
:1005F000BF80288539854A855B85C501B4010E9485
:1006000054252B013C01A5019401C701B6010E94AC
:1006100054259B01AC01C301B2010E945A244B0135
:100620005C012C853D854E855F85688179818A8155
:100630009B810E9454259B01AC01C501B4010E941D
:100640005A24C886D986EA86FB866C877D878E8782
:100650009F87DF91CF91FF90EF90DF90CF90BF9079
:10066000AF909F908F907F906F905F904F90089584
:10067000A4E0B0E0EEE3F3E00C94F72569837A831D
:100680008B839C8389819A81AB81BC81892B8A2B46
:100690008B2B61F089819A81AB81BC810197A10983
:1006A000B10989839A83AB83BC83ECCF2496E2E0C3
:1006B0000C941326219AE62FF0E0E85DFE4F90811E
:1006C00090FF02C02E9A01C02E9891FF02C02A9A74
:1006D00001C02A9892FF02C02B9A01C02B98AEE26B
:1006E000B1E061E070E021E0A133B20789F09D91B3
:1006F000E92FE295EF70F0E022A19F70AB0101C0FD
:10070000440F9A95EAF7942F9095922392A3EBCFFA
:10071000F89421982998E82FF0E0E25DFE4F90814F
:10072000E92FE295EF70F0E032A1292F2F7081E0E0
:1007300090E001C0880F2A95EAF7832B82A386EF09
:100740000E94D3027894811524E0920728F49695AC
:1007500087959695879508958FEF90E00895A4E08A
:10076000B0E0E5EBF3E00C94ED2519821A821B82D0
:100770001C8289819A81AB81BC8100E010E036E067
:10078000E32EF12CC801B7010E94CD250E945A0327
:10079000A0E0B0E089839A83AB83BC836AE070E019
:1007A00080E090E00E9438030F5F1F4F0231110577
:1007B00049F794E1A92EB12C26E0822E912C8EE4EB
:1007C000C82E81E0D82E760100E010E0C801B40107
:1007D0000E94CD250E945A03D7012D913C91820F92
:1007E000931FF701819391937F016AE070E080E0AD
:1007F00090E00E9438030F5F1F4F0231110531F75F
:10080000F1E0AF1AB108D9F6E2E0F4E020E530E01B
:10081000D6018D919D916D018115B0E59B0720F466
:10082000B9010E94CD2501C06FEF608316826183FC
:100830006283638364836583379644E0E038F4071A
:1008400039F72496ECE00C940926FC0198E4AAEB15
:10085000B1E001900D929A95E1F72998219A80E4F0
:100860000E947802AEE2B1E041E050E071E0A133D5
:10087000B707B1F08D91E82FE295EF70F0E021A17C
:100880008F70BA0102C0660F771F8A95E2F7CB011D
:10089000922F982B91A392A18095892382A3E6CFD2
:1008A000A5E2B1E021E030E071E0A832B70789F0BD
:1008B0008D91E82FE295EF70F0E041A18F70B901C2
:1008C00002C0660F771F8A95E2F7CB01842B81A3C4
:1008D000EBCF219829980E94AF0380E090E0089523
:1008E0000F931F93CF93DF93FC015081A42FB0E0AF
:1008F000E52FF0E0042E02C0F595E7950A94E2F7A3
:10090000062F10E0E0FF1BC0E6E0E09FB001E19F92
:10091000700D1124A60FB71FAA0FBB1FA654BE4F00
:100920006D917C912617370708F045C021E030E033
:1009300001C0220F4A95EAF72095252327C0E62F0C
:10094000EE0FE60FE40FCE2FD0E067E0E69FF00158
:100950001124EE5FFB4FE081F6E0F09FB001F19FC4
:10096000700D1124A60FB71FAA0FBB1FA252BE4FB6
:100970006D917C916E0F711D6217730758F421E021
:1009800030E001C0220F4A95EAF7252BFC012083B5
:1009900081E012C0B90180E090E00E94C624AB0162
:1009A000BC0121E12C9FC0012D9F900D112480538B
:1009B0009D4F0E94D80280E0DF91CF911F910F914F
:1009C0000895A0E0B0E0E7EEF4E00C94EF255C01C0
:1009D00082E7C82E81E0D82E10E000E07601C0E06A
:1009E000D0E0612F8C2F0E945A03F70191838083FE
:1009F0009C01412F6C2FC5018C0F9D1F0E9470041C
:100A0000082B2196FCE0EF0EF11CC330D10549F70D
:100A100082E0C80ED11C1F5F163001F7802FCDB7C2
:100A2000DEB7EAE00C940B26A0E0B0E0EAE1F5E0E6
:100A30000C94F125C2E7D1E08CE2E82E81E0F82E9B
:100A40009AE2C92E91E0D92E81E0C639D807F1F09B
:100A500000E010E0FE01E00FF11F81818F938081A3
:100A60008F93FF92EF920E946F020E5F1F4F0F90C5
:100A70000F900F900F900C30110561F7DF92CF921D
:100A80000E946F022C960F900F90DECFCDB7DEB78D
:100A9000E8E00C940D260895A8E4B0E0E2E5F5E066
:100AA0000C94F52555985D98209828980E945D151E
:100AB0009E012F5F3F4FBE016B5D7F4FC901A9E1D2
:100AC000B0E003E210E0F90140E050E0A193B193FF
:100AD00013A302A34F5F5F4F46305105B9F7245F60
:100AE0003F4F2617370779F7209103010E9425040D
:100AF00080910301811102C093E001C090E09093C6
:100B0000850483E0891B809384040E946F15C85B71
:100B1000DF4FE4E00C941126CF930E94E104C82F2C
:100B200080910202909103029C012F5F3F4F8C3213
:100B3000914029F030930302209302020AC01092E0
:100B40000302109202020E94140580E391E00E94C9
:100B5000D6018C2FCF910895CF938CE894E00E941A
:100B60008C05C82F6091850470E06E567B4F282F4E
:100B700043E08CE894E00E9408150E9490148C2FAA
:100B8000CF9108950E94451108950E94481108953B
:100B9000811112C0663080F4463070F4E42FF0E02A
:100BA00086E0689FE00DF11D1124EE0FFF1FEE5C43
:100BB000FE4F85919491089581E090E008950E9400
:100BC000C805089581E0089581E008950E94E40534
:100BD00008950E94E60508950E94E4050895089589
:100BE0000E94EF050895A6E0B0E0E9EFF5E00C946F
:100BF000F62549835A839E833091090289819A811F
:100C0000311115C03E81332359F0222349F00E944F
:100C1000F50B182F682F89819A810E94D10B03C090
:100C20000E94E30B182F69817A81812F04C00E94F2
:100C3000F50B69817A810E94D2122696E3E00C942A
:100C40001226FC01262F40815181628173818481AB
:100C500095810E94F3050895CF93DF93EC0161E045
:100C60000E942106BE010E94E905DF91CF910895FF
:100C7000CF93DF93EC0160E00E942106BE010E9449
:100C8000F005DF91CF91089508950E94A80A0E946F
:100C900044062FEF84E39CE0215080409040E1F730
:100CA00000C0000008950E9445060E94EB1C0895B4
:100CB0000E9445060E94FC1C08950F931F93CF933A
:100CC000DF938C0161E00E942106EC01B8010E94D3
:100CD000EC05882309F45BC0B801CE010E942819F5
:100CE000882309F454C0B801CE010E94A4178823B8
:100CF00009F44DC0B801CE010E948E18882309F472
:100D000046C0F80185818823E9F1C3308CE7D80714
:100D100079F158F4C130FCE7DF0761F1A0F4C115A7
:100D2000DC4781F50E94530632C0CB35FCE7DF0774
:100D300039F1CC358CE7D80701F1CA35DC4711F51C
:100D40000E944F101FC080918802C82FC095C170AB
:100D5000C0FB80F980938802CC2329F08CE891E0D5
:100D60000E94D60114C08AE791E00E94D60110C00B
:100D70000E9457100E9458060AC00E94451002C0E7
:100D80000E945310C8010E94E205C82F01C0C0E0B4
:100D90008C2FDF91CF911F910F9108950E94F91B25
:100DA0000E94070708950E940B070E94021C0895E5
:100DB0008295982F937344E0949F900111248C7C2A
:100DC00086958695282B822F8575880F2A7A2695F9
:100DD000822B0895089581E008950895CF93DF93BD
:100DE000D82F0E94EB06C82F882319F08D2F0E9460
:100DF000ED068C2FDF91CF9108950895CF93C82FE2
:100E00000E94EA068C2F0E94EE06CF91089580E0A2
:100E10000E94FE0608950E94311B0E94FE0608955E
:100E2000CF930E94311BC82F80910402C81789F10B
:100E3000C09304020E948E1C609305027093060208
:100E400080930702909308028091880282FF1EC05F
:100E500080FF04C084EA91E00E94D601809188025C
:100E600080FF0CC01F92CF938FE991E09F938F93E7
:100E70000E946F020F900F900F900F908091880248
:100E800080FF04C08DE991E00E94D6018C2F0E9462
:100E9000FE06CF910895ADE0B0E0E1E5F7E00C94F7
:100EA000F725488759876A877B878C879D879111AB
:100EB0000E94650FCE01019627E0FC0111922A9550
:100EC000E9F726E0FE013896DC0101900D922A95A3
:100ED000E1F72D8121110AC029813A814B815C8182
:100EE0006D817E818F810E94AF0E04C00E942C060E
:100EF0008111F2CF2D96E2E00C941326FC0124819F
:100F0000213021F4808191810E94270C0895CF9394
:100F1000882309F481C0C82F8238C1F40E94311B94
:100F200081FD7AC069E380910101909102010E94E4
:100F3000C81B0E94910F2FEF87EE93E02150804055
:100F40009040E1F700C0000069E333C08338C1F48A
:100F50000E94311B80FD60C063E58091010190918A
:100F600002010E94C81B0E94910F2FEF81EE94E0B6
:100F7000215080409040E1F700C0000063E519C0B7
:100F80008438F1F40E94311B82FD46C067E48091F1
:100F90000101909102010E94C81B0E94910F2FEF46
:100FA00081EE94E0215080409040E1F700C00000C5
:100FB00067E480910101909102010E94CB1B2AC03D
:100FC0008CEF8C0F813AD0F46C2F809101019091BD
:100FD00002010E94921B882349F06C2F809101012D
:100FE000909102010E94CB1B0E94910F6C2F809167
:100FF0000101909102010E94C81B0CC080E28C0F7D
:10100000883050F4C77081E001C0880FCA95EAF7B4
:101010000E94480F0E94910FCF910895882309F4F0
:101020004DC0682F823879F40E94311B81FF46C081
:1010300069E380910101909102010E94C81B0E9406
:10104000910F69E326C0833879F40E94311B80FF39
:1010500035C063E580910101909102010E94C81B97
:101060000E94910F63E515C0843879F40E94311B0A
:1010700082FF24C067E480910101909102010E94E7
:10108000C81B0E94910F67E404C08CEF860F813A61
:1010900038F480910101909102010E94CB1B0CC099
:1010A00080E2860F883050F4677081E001C0880FBD
:1010B0006A95EAF70E944E0F0E94910F08951F93C0
:1010C000CF93DF93182FEB010E948707209741F001
:1010D0008FE99FE00197F1F700C000002197F6CF5C
:1010E000812F0E940E08DF91CF911F9108958933BF
:1010F00019F065E070E002C060E570E00E945F08F2
:101100000895882321F00E94480F0E94910F0895AE
:10111000882321F00E944E0F0E94910F0895A0E0B5
:10112000B0E0E5E9F8E00C94F1257C01D62FC72F5B
:10113000FC011581068102950F700E943E0F8823E5
:10114000E9F01123D9F08C2F807F803451F080E2B8
:101150008D0F883098F0011104C08C2F807E803272
:1011600069F080918B0482FF09C082E00E94051023
:101170000E943E0F91E0D82ED92601C0D12CCC2E52
:10118000C2948FE0C8228C2D90E08C30910508F03D
:1011900076C1FC01EA5AFF4F0C94E1258C2F807F29
:1011A000CF70882311F0C295C07F112399F0CC2312
:1011B00009F44CC180E28D0F883010F0D11104C0C9
:1011C0008C2F0E94480F03C08C2F0E94580F0E9442
:1011D000910F3CC18D2F0E940E08CC2309F44FC102
:1011E00080E28D0F883038F1DD2329F18C2F0E94A9
:1011F0005E0F24C08C2F807FCF70803211F0C2959B
:10120000C07FDD2319F0D13099F13CC080918B046F
:1012100082FD17C0112349F0CC2329F08C2F0E94A6
:10122000480F0E94910F80E012C180E00E940E08DA
:10123000CC2309F424C18C2F0E944E0F0E94910FE1
:101240001EC1112349F0002309F1013009F017C133
:101250008C2F0E946F0F13C1011111C18C2F0E949E
:1012600088088C2F0E947B0F8C2F0E94D80F07C1FB
:10127000112321F0063008F002C108C0053008F043
:10128000FEC00AC0112331F00111E0C08C2F0E9472
:101290008108F5C00111E0C08C2F0E948808EFC0C2
:1012A0008C2F8370B1F51111EEC04D2F42954695EC
:1012B0004770440F440F8D2F8F7090E09C01042ED7
:1012C00002C0220F331F0A94E2F7D4FF0AC08FE056
:1012D00090E002C0880F991F4A95E2F7809590959B
:1012E00002C080E090E0C695C695C370822B932B18
:1012F000C23049F058F4C13019F00E94040BC3C049
:101300000E94FB0AC0C00E940D0BBDC00E94F80ADB
:10131000BAC0112319F08C2F817001C086958823E3
:1013200009F4B1C04D2F429546954770440F440FC4
:101330008D2F8F7090E09C01042E02C0220F331F6E
:101340000A94E2F7D4FF0AC08FE090E002C0880F51
:10135000991F4A95E2F78095909502C080E090E051
:10136000C695C695C370822B932BC23049F058F4B2
:10137000C13019F00E946C0B86C00E94630B83C0C1
:101380000E94750B80C00E94190B7DC0CF70112385
:1013900039F08C2F0E94310B8D2F0E94810873C071
:1013A0008D2F0E9488088C2F0E94410B6CC0D23F69
:1013B00021F128F4D03F41F0D13FC1F043C0D33FE9
:1013C00019F1D43F79F03EC0112341F0053008F007
:1013D00056C08C2F8F710E94530B51C0063008F0FD
:1013E0004EC0F7CF80918B0482FD18C0112339F0D5
:1013F0008C2F8F710E94310B42C01123C9F38C2FA7
:101400008F710E94410B3BC0112329F08C2F8F71EB
:101410000E94250B34C00E94200B31C0112349F0DB
:10142000CF718C2F0E94310B63E08C2F0E94E70F4D
:1014300026C081E00E940510023008F182E00E947F
:1014400005101DC0112331F0002391F28D2F0E9451
:10145000870715C0002399F2D93341F4FFEF27EE37
:1014600083E0F15020408040E1F704C0EFE1FEE46A
:101470003197F1F700C000008D2F0E940E0888EF11
:101480008C0D843020F40E94311B0E94FE06DD206A
:1014900089F00E943A0F80FD0DC0F70115820E946D
:1014A000340F0E94310BC7010E94770A0E94340F4B
:1014B0000E94410BCDB7DEB7E8E00C940D260F93E8
:1014C0001F93CF93DF93EC01688179818D810E9416
:1014D000320C8C010E947E0B0E94E90AB801CE01F9
:1014E0000E948F08DF91CF911F910F910895CF93A4
:1014F000DF93FC0124812223D1F0EC010E945D06E0
:1015000081110FC00E943E0F882389F08D818823AE
:1015100071F080918B0482FF0AC082E00E94051066
:1015200006C0CE010E945F0ACE010E943806DF91FC
:10153000CF9108950E94650F0E94910F08958091A8
:101540000101909102010E94CE1B0E949A0A089507
:101550000E94550F0E949F0A089592959F709630A1
:1015600079F010F4925001C09A50923068F4803FA4
:1015700069F018F4883E40F409C0843F29F406C09D
:10158000883E20F0813F11F080E0089581E00895C9
:10159000FC012481222339F0808191810E94270C53
:1015A0000E94AD0A089580E00895A6E0B0E0EBED5A
:1015B000FAE00C94F7252696E2E00C941326A7E0B7
:1015C000B0E0E5EEFAE00C94F7252796E2E00C9403
:1015D0001326089508950E94EA0A08950E94EB0ACE
:1015E00008950E94EE0A90932102809320020895AC
:1015F0000E94F10A08952091200230912102822B4D
:10160000932B0E94F10A089520912002309121022B
:10161000822393230E94F10A0895209120023091A1
:101620002102822793270E94F10A08950E94EA0A64
:1016300008950E94160B90931F0280931E02089536
:1016400080E090E00E94190B089521E030E0A901AC
:1016500002C0440F551F8A95E2F7CA010E94190B78
:10166000089521E030E002C0220F331F8A95E2F78F
:1016700080911E0290911F02822B932B0E94190BC6
:10168000089521E030E002C0220F331F8A95E2F76F
:101690002095309580911E0290911F028223932302
:1016A0000E94190B089521E030E002C0220F331F81
:1016B0008A95E2F780911E0290911F02822793275C
:1016C0000E94190B089520911E0230911F02822B57
:1016D000932B0E94190B089520911E0230911F0236
:1016E000822393230E94190B089520911E023091AA
:1016F0001F02822793270E94190B08950895962FA1
:101700009770A1E001C0AA0F9A95EAF793E0769549
:1017100067959A95E1F7660F771F660F771FFA01B5
:10172000E60FF71F40E050E0682F70E090819B01CA
:10173000042E02C0369527950A94E2F72170219570
:1017400029272A23292721934F5F5F4F44305105D2
:1017500069F70895FB01782F777023E096958795B8
:101760002A95E1F7880F991F880F991FE80FF91F35
:1017700040E050E080E0219130E0072E02C0369535
:1017800027950A94E2F721703327042E01C0220F17
:101790000A94EAF7822B4F5F5F4F4430510559F7A7
:1017A0000895282F963070F4863060F4862F622FCB
:1017B00070E026E0929F600D711D11244AE052E016
:1017C0000E947F0B0895963070F4863060F4292FC4
:1017D00090E06AE072E036E0239F800D911D1124B5
:1017E0000E94AA0B089580E00895A0E0B0E0EBEF1E
:1017F000FBE00C94F0257C0100911E0210911F0269
:101800008091200290912102082B192BCFE0D0E08B
:10181000CC24C394D12CC6010C2E02C0880F991F72
:101820000A94E2F780239123892B21F4219798F7DA
:10183000B12C07C0BC2EB7018C2F0E94DE1201977D
:10184000A9F38B2DCDB7DEB7E9E00C940C26CF932E
:10185000DF93EC010E94F50BBE010E94DE12DF91C6
:10186000CF9108951F93CF93DF93EB0190910902DD
:10187000992321F0CB010E94270C13C0882349F043
:10188000CB010E94F50B182F682FCE010E94D10BBF
:1018900004C0CB010E94E30B182FBE01812F0E94D0
:1018A000DE12DF91CF911F9108951F93CF93DF93A5
:1018B000C091220217E080912302C817A1F0D0E066
:1018C0001C9FF0011D9FF00D1124EC5DFD4F208148
:1018D0003181428153816481758186810E94DF0A52
:1018E0002196C770E8CFDF91CF911F910895209185
:1018F0005C0230915D0240915E0250915F02609106
:10190000600270916102809162020E94DF0A089574
:10191000CF93DF938091620282958F7009F04EC061
:1019200080916102882309F449C08091220240918C
:10193000230250915D0260915C02C0915E02D091E1
:101940005F0277E08417D1F190E0789FF001799FF2
:10195000F00D1124DF01AC5DBD4F14962C9114974E
:10196000222349F111962C911197251324C02C9113
:10197000261321C015962C91159721111CC0129683
:101980002D913C9113972C1B3D0B2D37310598F46D
:10199000809162028F70806180936202E65DFD4FEC
:1019A00080818F70806180838CE592E00E94770A4D
:1019B0000E94550C03C001968770C4CFDF91CF9170
:1019C0000895209122029091230257E02917A9F04F
:1019D00030E0529FF001539FF00D1124EC5DFD4F5C
:1019E0007181761306C07081781303C075817413FA
:1019F00006C02F5F3F4F2770E9CF80E0089581E058
:101A00000895A4E1B0E0E7E0FDE00C94ED258C0141
:101A100086E0F801DE011F9601900D928A95E1F7AC
:101A2000D80114968C9114971596EC909CE5A92EEC
:101A300092E0B92E90916002911118C0882309F4A8
:101A400078C1EE20D9F1C8010E94C80AF82E882377
:101A5000A9F187E0F801D50101900D928A95E1F78F
:101A6000C5010E947E070E94880C95C0F801C080C5
:101A7000D18082809380F090610220915E0230914B
:101A80005F02A401421B530BFF2009F400C14D3734
:101A9000510508F0ACC0882309F45CC18091620252
:101AA000282F207F90915D02222361F09D1509F47B
:101AB0005EC0C8010E94C80A811170C0C8010E949E
:101AC000770A37C19D1116C090915C029C1112C01B
:101AD000E11010C08F708061809362020E94770CC9
:101AE0008CE592E00E94770A80916202D8011696F6
:101AF0008C932FC1E11035C040E06D2D8C2D0E94DC
:101B0000E10CE82E811118C1CF86D88A8F8598897B
:101B10000E94270C292F22952F70243020F49F70CB
:101B2000223028F009C02A50223080F014C09923B6
:101B300049F0811107C013C0992321F0F801968163
:101B4000907F69F0805E883030F409C0803F38F0C3
:101B5000815F833020F0C8010E94770AEF2CFE2CB1
:101B6000F9C080916202816080936202F2C090911C
:101B70005C029C119ECFE1109CCFD80116968C93ED
:101B8000C8010E94770A87E0F801ACE5B2E0019055
:101B90000D928A95E1F70E94770CDCC0EE2009F4E3
:101BA0008DCF20916202822F82958F7090E00297F4
:101BB0008CF080915C0290915D02998788879B866A
:101BC0008A86809160028C871D862E87CE010896BA
:101BD0000E94770A87E0F801ACE5B2E001900D922F
:101BE0008A95E1F70E94880C0E94770CA2C0909120
:101BF0006202292F207F91F4682D9A8A898AA60192
:101C00007A899E2D0E94D50A8CE592E00E94770A7F
:101C100087E0F50111928A95E9F799C0882309F4C4
:101C200099C080915D028D1110C080915C028C1171
:101C30000CC0E1100AC09683C8010E94770A87E0B1
:101C4000F50111928A95E9F785C0C8010E94C80A7A
:101C5000882309F433CFEE2009F430CF20916202BB
:101C6000822F82958F7090E002970CF4B3CF809111
:101C70005C0290915D029A8389839C828B82809121
:101C800060028D831E822F83CE010196A1CF4D3736
:101C9000510508F040C0882309F44BC0FE2CEE200B
:101CA00009F40CCF80915D028D1127C080915C02F8
:101CB0008C1123C09091620290FD16C0892F8295ED
:101CC0008F70282F30E02115310571F0D8019683EF
:101CD0002F30310509F454CF8F5F982F9295907F64
:101CE00086818F70892B4ACF87E0F801ACE5B2E09E
:101CF00001900D928A95E1F72DC0C8010E94C80A93
:101D0000811168CF80916202816080936202C80174
:101D10000E94770A1FC0682D9A8A898AA6017A894B
:101D20009E2D0E94D50A87E0F50111928A95E9F768
:101D300032CFFF24F3940EC08CE592E00E94770A24
:101D4000ECE5F2E087E0DF011D928A95E9F70E9459
:101D5000770CF12C8F2D6496ECE00C940926AEE004
:101D6000B0E0E5EBFEE00C94F625288739874A873A
:101D70005B876C877D878E87CE0108960E94010D58
:101D8000882361F06C856623A9F1288539854A8509
:101D90005B857D858E850E94DF0A2CC087E0FE0171
:101DA0003896DE01119601900D928A95E1F76C85C7
:101DB000662301F12091230230E0C901019687706A
:101DC00099274091220250E084179507E1F16D8335
:101DD00097E0929FD001939FB00D1124AC5DBD4F51
:101DE000FE01319601900D929A95E1F780932302BE
:101DF0000E94550C17E080912202909123028917CE
:101E000079F1189FC00111248C5D9D4F0E94010D36
:101E1000882331F1E09122021E9FF0011124EC5D34
:101E2000FD4F20813181428153816481758186819A
:101E30000E94DF0A8091220290E001968770992724
:101E400080932202D8CF0E94A80A109223021092F7
:101E50002202ECE5F2E087E0DF011D928A95E9F7C6
:101E60002E96E3E00C94122680916B02869586955F
:101E70008695089580916B028770089590916B020A
:101E8000977081E009F480E00895809177020895C9
:101E900090917702892B8093770208958095909195
:101EA000770289238093770208951092770208952C
:101EB00090917602892B8093760208958095909177
:101EC000760289238093760208951092760208950F
:101ED00008950E94680F08950E94690F08959091D7
:101EE0006D02292F2823821729F0982B90936D02D9
:101EF0000E946C0F089590916D02292F282331F0D4
:101F00008095892380936D020E946C0F08958091C3
:101F10006D02882329F010926D0280E00E946C0F00
:101F20000895CF93DF93E0910101F0910201809138
:101F300077028083E0910101F0910201908180910C
:101F40007602892B808380916D02882381F0E09155
:101F50000101F09102019081892B80838091010120
:101F6000909102010E94861B81110E94870FC091EF
:101F70000101D091020148E050E063E672E0CE0139
:101F80000E941E26892B59F088E0FE01A3E6B2E0EC
:101F900001900D928A95E1F7CE010E94451BDF91D9
:101FA000CF9108950E94680F08950E94D20F08955E
:101FB00090916C02292F282331F0809589238093FA
:101FC0006C020E94D50F08950E94680F08959091A9
:101FD0008B0492FF11C098E0899F90011124262B59
:101FE00020936B020E94310B80916B02869586953F
:101FF00086950E94E40F08950E94310B0895109277
:102000006B0280E00E94E40F089590916B0280952E
:10201000892380936B02282F277069F4981759F051
:1020200090918B0492FF07C08695869586950E94B5
:10203000410B0E94FF0F0895CF9390918B0492FB68
:10204000222720F92817F9F0C82F892FC0FB82F921
:1020500080938B0480918A0490918B040E94781065
:1020600082E00E9405108091880280FF0CC01F92C0
:10207000CF938FEA91E09F938F930E946F020F900E
:102080000F900F900F90CF91089580918B0482FB59
:10209000882780F991E089270E941C10089581E02B
:1020A0000E941C10089580E00E941C1008956FEF9C
:1020B0007FEF80E090E00E947026089580E090E03D
:1020C0000E943C2621E0863E9E4F09F020E0822FB0
:1020D000089582E090E00E943426089583E090E025
:1020E0000E943426089584E090E00E943C260895E2
:1020F000BC0184E090E00E9470260895AB01BC0111
:102100008FE090E00E9464260895AB01BC0183E15A
:1021100090E00E946426089560E070E0CB010E9488
:102120008510089560E070E0CB010E947E100E944F
:102130008C100895A8E0B0E0E0EAF0E10C94F725F7
:1021400066EE7EEF80E090E00E94702660E082E024
:1021500090E00E94522660E083E090E00E945226C8
:10216000109221021092200260E074E184E090E07D
:102170000E94702660E086E090E00E9452266FEF99
:1021800087E090E00E94522640E050E0BA0188E0EB
:1021900090E00E94642660E084E290E00E94522673
:1021A00060E087E190E00E94522660E08CE090E0E1
:1021B0000E94522660E08DE090E00E945226198233
:1021C0001A821B821C821D821E821F82188648E092
:1021D00050E068E170E0CE0101960E94422640E0A6
:1021E00050E0BA0180E290E00E9464260E949210C2
:1021F0002896E2E00C9413260E949A100895682F06
:102200008EE090E00E9452260895A6E0B0E0EBE058
:10221000F1E10C94F5250E94821C8C0180917802DA
:10222000909179020817190781F019821A820E9489
:10223000821C682F49815A81792F80E090E00E94AA
:102240004B0710937902009378022696E4E00C94F1
:1022500011260E94E8136093840270938502809394
:10226000860290938702609380027093810280932C
:10227000820290938302089581E008950E9445159B
:10228000089508950E94411108950E9441110895F2
:102290000E94411108950E944111089585E99EE12F
:1022A0000E94271B0E944B110E94C50508950E94A1
:1022B00042110E94411108950E941C140E94FD06C3
:1022C00008950E94791C0E94C2130E945D150E940D
:1022D000E8140E945C110E948C170E946F150E94E6
:1022E000C2050895A6E0B0E0E8E7F1E10C94EE2520
:1022F0000E943C11811103C00E94051153C00E942D
:10230000AC058AE7E82E82E0F82E670100E0F601CE
:1023100011916F01802F0E943A1481270F5F0630C0
:1023200019F08823A1F302C0882331F38091880239
:1023300081FD0E9440140E943E11A82E10E09924B5
:102340009394812F0E943A14B82EF701C080C826BA
:1023500009F100E0DD24D3948C2D8D21A9F0AA2071
:1023600099F009831A830E94821C9C838B839D822F
:1023700091E08B2D8D2109F490E049815A816B8188
:102380007C818D810E944B070F5FDD0C063021F7A9
:10239000F701B0821F5FFFEFEF1AFF0A163089F6D0
:1023A0000E9429110E9445150E9410072696EBE015
:1023B0000C940A261F93CF93DF930E94E312EC0143
:1023C000C11582E5D807C8F5C11590E5D90708F011
:1023D000BBC0C83ED105C0F4C03ED10508F0DDC089
:1023E000C53AD10550F4C430D10508F0D6C02197C4
:1023F00009F0D0C081E090E0D1C0CD3CD10508F417
:10240000C9C0CE019065CAC0C11580E4D80708F0E4
:102410005AC0C11590E2D90708F0AFC0C11581E0DC
:10242000D80708F4B7C08D2F0E947F13182FCE0154
:1024300099270E94E3121F71ABC0C03892E5D907FB
:1024400020F5C03682E5D80708F061C0C03492E5B7
:10245000D90708F04AC0C03282E5D807F0F54C2F02
:102460004695469590E2499FA0011124C37021E052
:1024700030E0C90102C0880F991FCA95E2F7EA014E
:10248000C82BD92BCE019D6889C0C03C92E5D907E5
:1024900068F48C2F8F71C03AD24508F04CC090E0A0
:1024A000D82FCC27CE01846F906A78C0C03E82E5D9
:1024B000D80708F06FC0CF71DD27DC2FCC27CE0105
:1024C000806F906A6BC0CE0199270E94E312CC27DF
:1024D000DF70D06A8C2B9D2B61C0CF71D0E0DC2FD8
:1024E000CC27CE01816F906A59C08C2F8F71869551
:1024F000869590E2899F90011124C37081E090E05D
:1025000002C0880F991FCA95E2F79C6811C08C2FF2
:102510008F718695869590E2899F90011124C370F2
:1025200081E090E002C0880F991FCA95E2F79A688F
:10253000822B932B33C00E947F138F7190E0D82F92
:10254000CC27CE0190622AC08C2F8F710E947F13FE
:1025500095E0D695C7959A95E1F7CF70D0E0DC2F3E
:10256000CC27282F30E084FF05C084E0220F331FE2
:102570008A95E1F7D069CE01DBCF8D2F8F710E9454
:102580007F13182FCE0199270E94E3121F719062CA
:10259000912B04C080E090E001C0CE01DF91CF918B
:1025A0001F910895763038F4663028F4462F672F4F
:1025B0000E94DF05089580E090E008950E94D21205
:1025C0000E94DA1108958238910569F1B0F48133DF
:1025D000910509F475C048F48932910509F467C082
:1025E0008A32910509F471C008958533910509F483
:1025F00059C089339105B9F00895833E910589F159
:1026000038F4803E9105D1F0823E910529F108957C
:10261000863E9105C9F1873E9105D9F1843E910529
:1026200009F06CC027C020918A0420FD57C021FD0D
:1026300055C020918B0423FD5BC0089580918A04CE
:1026400080FD48C080918B0480FF48C080918A043F
:1026500084FD46C083EE51C080918A0482FF3CC055
:10266000F5CF80918A0482FD37C080918B0480FD74
:1026700035C0ECCF80918B0481FF36C080918A04F5
:1026800084FD2EC087EE39C080918A0483FF2AC062
:10269000F5CF80918A0483FD25C080918B0481FD54
:1026A00023C0ECCF80918A0485FD22C01FC0809199
:1026B0008A0485FD1BC080918B0483FF19C00AC06A
:1026C00080918A0486FD16C017C080918A0486FD19
:1026D00013C010C089E311C082EE0FC080EE0DC0A0
:1026E00080E00BC086EE09C084EE07C085E305C01C
:1026F00089E203C08AE201C081E390E008959091ED
:102700008A0492FF0DC0282F2871283019F4877F82
:10271000846006C0282F2471243011F48B7F8860D8
:1027200093FF0DC0282F2871283119F4877E84610A
:1027300006C0282F2471243111F48B7E88612091EA
:102740008B0420FF0DC0382F3871383019F4877F83
:10275000816006C0382F3171313011F48E7F88606E
:1027600021FF0DC0282F2871283119F4877E81613F
:1027700006C0282F2171213111F48E7E886194FDCD
:10278000877E089510928604109287041092880420
:10279000109289040895CF92DF92EF92FF926B011D
:1027A0007C010E94451581110EC00E948E1CC61A24
:1027B000D70AE80AF90AC0928604D0928704E09208
:1027C0008804F0928904FF90EF90DF90CF900895F5
:1027D0000F931F930E944515882319F00E948E1CA9
:1027E0000EC00E948E1C00918604109187042091D7
:1027F000880430918904600F711F821F931F1F91FD
:102800000F9108950E94571008950E94AC058FE320
:102810009CE90197F1F700C000000E94AC0580E040
:102820000E943A1480FF04C00E9402140E94EB1C14
:1028300008950E94051408950E945E10811102C03F
:102840000E94FC100E946910809388020E947310FD
:1028500090938B0480938A040E9419140E946E1036
:1028600090E00E94F80A80911E0290911F020E943F
:10287000160B0895E82FF0E0EE56FB4F8081089587
:10288000A0E0B0E0E6E4F4E10C94F12583ED91E002
:102890000E94D60182E9E82E84E0F82EC0E0D0E064
:1028A0009EECC92E91E0D92E06EC11E0DF93CF9378
:1028B000DF92CF920E946F028BEC91E00E94D601D2
:1028C000F70181917F010E94D8061F928F931F9379
:1028D0000F930E946F0284EC91E00E94D601219632
:1028E0008DB79EB708960FB6F8949EBF0FBE8DBFEA
:1028F000C630D105D9F6CDB7DEB7E8E00C940D2689
:1029000008950E94801408950E94811408950E94E1
:10291000801408950E94871408950E944B0508951D
:10292000A3E0B0E0E6E9F4E10C94F5250E9445153A
:10293000609185048823D1F119821A821B82862F27
:1029400090E08E010F5F1F4FB8018E569B4F0E9483
:102950007D15882389F08091840490E043E050E065
:10296000B8018E569B4F0E941E2621E020938902BB
:10297000892B69F410E017C0809189028823D1F374
:1029800083E0F80111928A95E9F710928902E091AB
:102990008404F0E0EE56FB4F89819A81AB818083FD
:1029A0009183A28311E00E9484140DC070E06E56E2
:1029B0007B4F8091840490E08E569B4F0E941816A6
:1029C0000E948D1410E0812F2396E4E00C941126D0
:1029D00080910301811102C093E001C090E09093C7
:1029E000850483E0891B809384040E944C05ECE8F5
:1029F000F4E0A2E9B4E011921D9284E0E239F80714
:102A0000D1F783E00E9407150E948A140895089563
:102A1000EF92FF920F931F93CF93DF937C018B0173
:102A2000C42F222349F081E080938C020E94821CF3
:102A300090938B0280938A0280918C02811102C054
:102A400080E01AC080918A0290918B020E949A1CA9
:102A50000597B0F3D0E0AE01B701C8010E941E2671
:102A6000892B39F0AE01B701C8010E942B2681E005
:102A700001C080E010928C02CDB7DEB7E6E00C9486
:102A80000F268FB182958170089580918F028111F8
:102A90000DC00E944C24811102C082E001C081E07F
:102AA00080938F02823011F40E94472481E090913C
:102AB0008F02913009F080E0089584988C988FE817
:102AC00091E00197F1F700C000000E94411580934A
:102AD00003010E94451581110E94C71508950E94A7
:102AE0004515811102C00E94CA15089581E0909198
:102AF00090029A3008F080E00895EF92FF920F93D1
:102B00001F93CF938C017B01C0919002CA3038F49F
:102B1000B701C8010E941516811126C00AC0809114
:102B20008D0290918E020E949A1C843F914080F702
:102B300019C0809190028F3F19F08F5F80939002AF
:102B4000809190028A30E0F00E94821C90938E0265
:102B500080938D028091880280FF04C085EF91E010
:102B60000E94D60180E00DC0CA3040F080918802FA
:102B700080FF04C082EE91E00E94D6011092900284
:102B800081E0CF911F910F91FF90EF9008950E94E7
:102B9000C11908950E94C4190895A0E0B0E0E3EDC2
:102BA000F5E10C94F2257901C82F880FDD0B411552
:102BB0005105A9F0FE0193E0EE0FFF1F9A95E1F792
:102BC000EC5FFE4F818192818F569D4F208130E0D6
:102BD0004217530708F49A01A9010E942B26CE013F
:102BE0000E94AC1AD82E8823D1F001151105B9F036
:102BF00083E0CC0FDD1F8A95E1F7FE01EC5FFE4F0D
:102C0000438150E00417150708F4A801CC5FDE4F9C
:102C10006C817D816F567D4FC7010E942B268D2DC3
:102C2000CDB7DEB7E7E00C940E260E94201708957A
:102C30000E943B170895A4E0B0E0E1E2F6E10C94B5
:102C4000F5256091A4027091A5028091A602909151
:102C5000A7020E94A91C643671058105910528F11F
:102C60000E94E813DC01CB010296A11DB11D8983EE
:102C70009A83AB83BC8300E010E020E030E044E0C6
:102C800050E0BE016F5F7F4F82E00E94CD15182F8C
:102C9000882361F00E948E1C6093A4027093A502A9
:102CA0008093A6029093A70201C011E0812F249681
:102CB000E4E00C941126A0E0B0E0E1E6F6E10C942B
:102CC000ED257C015B01942E852E69010E9476150D
:102CD000811103C001E010E002C00AE010E0C1E091
:102CE000D0E0B501C701F6010995811129C02196EF
:102CF0000C171D078CF0CC9F9001CD9F300D300D2F
:102D0000112480E090E045E34A95F1F70000019638
:102D100028173907C1F7E5CF90918802892F817074
:102D200090FF0FC08F929F928BE292E09F938F93C0
:102D30000E946F020F900F900F900F9080E001C0E3
:102D400081E0CDB7DEB7ECE00C940926A4E0B0E05A
:102D5000ECEAF6E10C94EF255B01E0903101F09094
:102D6000320101E010E09E012C5F3F4F40E050E057
:102D700060E070E080E00E94CD15182F882309F4F0
:102D80003EC067018FEFC81AD80A6091A002709107
:102D9000A1028091A2029091A3020E94A91C643614
:102DA00071058105910518F103E010E09E012F5F88
:102DB0003F4F40E050E060E070E081E00E94CD15C0
:102DC000182F63E070E0C6010E948D1791E02C81FE
:102DD000281390E0192329F10E948E1C6093A00211
:102DE0007093A1028093A2029093A3020FC063E0AC
:102DF00070E0C6010E948D179C818913D5CFF70121
:102E000081819281A38189839A83AB83112349F0C5
:102E100089819A81AB8180939D0290939E02A093B9
:102E20009F0280919D0290919E02A0919F02F501C8
:102E300080839183A283812F2496EAE00C940B2651
:102E40000F931F93CF93DF93EC018B0126EA36E1BA
:102E500043E351E00E945B16882341F02BE136E109
:102E600040E451E0B801CE010E945B16DF91CF91A2
:102E70001F910F9108950F931F93CF93DF93C091EC
:102E80003101D0913201CE01019623E0FB01DC013A
:102E900001900D922A95E1F763E070E00E948D1792
:102EA00088836C817D818E819F8100919902109130
:102EB0009A0220919B0230919C0260177107820751
:102EC000930751F06093990270939A0280939B024A
:102ED00090939C020E94CB13DF91CF911F910F9191
:102EE00008950E94121F0E9461110E941F1F0895E1
:102EF0000E94241F0E9472110E94421F08950E9486
:102F0000191C0E94F81E0E944E110E9471170E9407
:102F100078170E945711FBCF0895FC01680F791FA5
:102F20008FEF91E3E617F70771F02191822728E0F0
:102F300030E087FF03C0880F892701C0880F215028
:102F40003109B9F7EFCF0895CF93DF93FC01DB018F
:102F500015968C91882309F4DDC09F0130572332E8
:102F6000310508F0D8C0EF010E94731090938B04D4
:102F700080938A04FE01E150F047E232F10520F42B
:102F8000EE59FF4F0C94E12580918A048160AAC01C
:102F900080918B048860B2C080918A048260A2C054
:102FA00080918A0420C080918A0488609BC08091AF
:102FB0008B041EC080918B048260A0C080918A0423
:102FC000806190C080918A0480628CC080918A0464
:102FD000806488C00E94A80A80918A04806882C0A8
:102FE00080918A04886084607DC080918B048260B7
:102FF000816084C080918A048E7F74C080918B042C
:10300000877F7CC080918A048D7F6CC080918A0408
:1030100020C080918A04877F65C080918B041EC088
:1030200080918B048D7F6AC080918A048F7E5AC004
:1030300080918A048F7D56C080918A048F7B52C014
:103040000E94A80A80918A048F774CC080918A04DC
:10305000877F8B7F47C080918B048D7F8E7F4EC092
:1030600080918A0482FB222720F991E0922790FB2D
:1030700082F990FB83F936C080918B04982F90954C
:1030800091708E7F892B90FB81F938C080918A04E2
:1030900086FB222720F991E0922790FB86F922C037
:1030A0000E94A80A80918A0487FB222720F991E0D8
:1030B000922790FB87F916C081E001C080E00E9452
:1030C000FF101EC080918A0484FB222720F991E022
:1030D000922790FB84F906C080918A04982F9095DE
:1030E00090FB80F980938A040BC080918B0483FB52
:1030F000222720F991E0922790FB83F980938B049B
:1031000080918A0490918B040E9478100E94A80AF2
:1031100080E001C081E0DF91CF910895CF93DF93EC
:1031200086319C4741F5EB010E94450F982F8D8118
:103130002091010130910201882379F09A7A81E08F
:1031400009F480E08093A802911102C069E201C0F5
:1031500065E3C9010E94C81B0AC08091A8028111C1
:1031600002C069E201C065E3C9010E94CB1B0E9455
:10317000910F80E001C081E0DF91CF9108950F931E
:103180001F93CF93DF93C42FD22FFC018581882317
:10319000B1F04093AB020E94821C9093AA028093EC
:1031A000A90280E28C0F883008F04DC0C77081E022
:1031B00001C0880FCA95EAF70E94810844C0809137
:1031C000AB02481330C08091A9029091AA020E94DC
:1031D0009A1C8D37910538F510E21D0FCD17B9F007
:1031E00080E28C0F883040F4C77081E001C0880F06
:1031F000CA95EAF70E948808183010F581E09D2FE3
:10320000977001C0880F9A95EAF70E948108802F75
:103210000E9477081830B8F4D77081E001C0880F99
:10322000DA95EAF70AC080E28C0F883060F4C77044
:1032300081E001C0880FCA95EAF70E94880803C0A0
:10324000802F0E947708DF91CF911F910F910895F1
:103250000F93FC01E851FC47E730F10590F5CB01F5
:10326000EC57FF4F0C94E12506E221EE41EE6AE1B6
:103270007CE723C007E225EE45EE6BE17CE71DC04D
:1032800006E221EE40EE68E17CE717C007E225EE9A
:1032900044EE69E17CE711C006E221EE42EE6CE10A
:1032A0007CE70BC007E225EE46EE6DE17CE705C04A
:1032B00008E221E045EE6EE17CE70E94BF1880E065
:1032C00008C0FB018581882319F01092AB0201C070
:1032D00081E00F9108958EE14A9B02C08150E1F791
:1032E0004A9BFECF08955A9880E28A95F1F75A9A40
:1032F0000895FC012AE02A95F1F728E090E080E0AB
:1033000031E040E14A95F1F7880F4A9B02C08160A5
:10331000932700C0000040E14A95F1F7215089F75A
:1033200020E12A95F1F729B100C0000030E13A957B
:10333000F1F722FB222720F992272081920F908318
:103340000895A1E0B0E0E7EAF9E10C94F3251982D1
:103350008C017C01E60EF11C0E151F0551F00E9438
:103360006B19CE0101960E947919F80181938F01A2
:10337000F3CF81E09981911180E02196E6E00C94F1
:103380000F26529A5A9A089552985A9AEA9AE9E65A
:10339000F0E080818F7C80830895615091E001C0CE
:1033A000990F6A95EAF720E031E0992361F0492FFF
:1033B000482319F05A9A232701C05A9840E24A95A7
:1033C000F1F79695F2CF222311F05A9A01C05A983C
:1033D00080E28A95F1F75A980895FF920F931F9310
:1033E000CF93DF93EC018C01060F111DC017D1079D
:1033F00041F0F9900E94731968E08F2D0E94CD1959
:10340000F5CFCDB7DEB7E5E00C9410261F920F92F2
:103410000FB60F9211240F931F932F933F934F9347
:103420005F936F937F938F939F93AF93BF93EF932C
:10343000FF93CF93DF931F92CDB7DEB719820E941F
:103440006B19CE0101960E947919082F06950695F1
:103450000695902F96959570202F2570920F292F05
:10346000237096959695920F877089135FC0898116
:1034700081115CC0043008F059C080E18A95F1F7F1
:103480005A9A529A82E08A95F1F700C05A9888E0D9
:10349000089F80011124D801AC5FBE4F1696ED91B4
:1034A000FC9117973097A9F060913101709132012A
:1034B00014962D913C911597260F371F11968D91DB
:1034C0009C911297680F791F13964C9113978C91CA
:1034D0000995F801EC5FFE4F6381662351F08091FE
:1034E00031019091320124813581820F931F0E9416
:1034F000ED190E94731980E18A95F1F75A98529854
:103500005A9A80E18A95F1F7F801EC5FFE4F6081ED
:10351000662351F0809131019091320121813281F5
:10352000820F931F0E94A1190E946B190F90DF91C7
:10353000CF91FF91EF91BF91AF919F918F917F912B
:103540006F915F914F913F912F911F910F910F902C
:103550000FBE0F901F9018950F931F93CF93DF937B
:10356000843091050CF06DC0EC01F894529A5A9891
:1035700085E08A95F1F700009C2F969595702C2F89
:103580002570920F892F83709695969523E0CC0F26
:10359000DD1F2A95E1F7980F8E01092B0E94731900
:1035A00084E08A95F1F700C068E0802F0E94CD1971
:1035B00080E18A95F1F752985A9A4A9902C000C060
:1035C000FCCF87E090E04A9B08C0019721F4529A13
:1035D0005A9A789436C000C0F6CFFE01EC5FFE4FD9
:1035E0006381662381F080913101909132012481C1
:1035F0003581820F931F0E94A119811104C0529A34
:103600005A9A78941FC00E946B1980E28A95F1F74C
:103610005A98529A80E18A95F1F7CC5FDE4F688123
:10362000662351F0809131019091320129813A81D4
:10363000820F931F0E94ED190E947319789481E004
:1036400001C080E0DF91CF911F910F910895909379
:103650004D0180934C0108959093AE028093AD028A
:1036600008950E944515811103C08091AC02089510
:10367000E091AD02F091AE02309729F00190F08117
:10368000E02D0995089580E00895EF92FF920F9341
:103690001F93CF93DF93E091AD02F091AE0230978C
:1036A00081F18C010280F381E02D099580918802DF
:1036B00082FF27C080FF04C089E492E00E94D60107
:1036C000E80118E083E4E82E82E0F82E8091880279
:1036D00080FF0BC088811F928F93FF92EF920E9410
:1036E0006F020F900F900F900F90115021961111B3
:1036F000EDCF8091880280FF04C081E492E00E94B7
:10370000D601CDB7DEB7E6E00C940F26FC01329669
:1037100097E080E0915029F021912223D9F38F5F27
:10372000F9CF0895662349F0FC013296089621915D
:10373000621729F0E817F907D1F780E0089581E0D2
:1037400008959C01FC0132969FEF80E0419146175D
:1037500089F09F3F19F4411101C0982F8F5F863087
:10376000A9F79F3F39F0F901E90FF11D97FDFA958F
:103770006283089508959C012A5F3F4FFC014281B6
:10378000461301C01282019682179307B9F7089574
:103790000E94A11B08950E94BB1B0895029626E07B
:1037A000FC0111922A95E9F7089508950E94D51B0E
:1037B000089583E08093AF020E94D61B0895811183
:1037C00002C081E001C082E08093AF020E94D61B5C
:1037D00008950E94DF1B089581E08093AF020E944C
:1037E000D61B08950E94EC1B089508950E94F51BB6
:1037F00008950E94F61B08950E94F51B08950E94EB
:10380000F51B08950E94F51B0895CF930E94FF1B9E
:103810000E94AC050E94FC1BC0E08C2F0E943A1451
:10382000811104C0CF5FC630C1F701C081E0CF91E4
:10383000089585B7806885BF85B7806885BF08957E
:103840001F920F920FB60F9211248F939F93AF93F5
:10385000BF938091B002811113C080919804909120
:103860009904A0919A04B0919B044196A11DB11DA9
:103870008093980490939904A0939A04B0939B0426
:10388000BF91AF919F918F910F900FBE0F901F909E
:1038900018958091A004843031F10E94CE061092D8
:1038A000B00220E488E190E00FB6F894A8958093E8
:1038B00060000FBE2093600083B7817F846083BF68
:1038C00083B7816083BF7894889583B78E7F83BFE9
:1038D0000FB6F894A895809160008861809360008D
:1038E000109260000FBE08950E94A80A0E94D3069D
:1038F000089582E084BD93E095BD9AEF97BD8093D3
:103900006E0008952FB7F8948091980490919904CF
:10391000A0919A04B0919B042FBF08952FB7F894FB
:10392000609198047091990480919A0490919B04FD
:103930002FBF08959C014FB7F894809198049091FF
:103940009904A0919A04B0919B044FBF821B930BE2
:103950000895CF92DF92EF92FF922FB7F894C09024
:103960009804D0909904E0909A04F0909B042FBFA3
:10397000A7019601261B370B480B590BCA01B90149
:10398000FF90EF90DF90CF90089578941F920F9260
:103990000FB60F9211248F939F93AF93BF93809193
:1039A000980490919904A0919A04B0919B04019677
:1039B000A11DB11D8093980490939904A0939A043B
:1039C000B0939B04BF91AF919F918F910F900FBEC9
:1039D0000F901F90189587E797E7909301088093C1
:1039E00000089AE088E10FB6F894A89580936000EB
:1039F0000FBE90936000FFCF9AE088E10FB6F89475
:103A0000A895809360000FBE90936000FFCF8091D7
:103A1000BC020895089508959B019091A0049430EC
:103A2000F1F48F708093E9008FEF9091E80081505E
:103A300095FD06C095ED9A95F1F700008111F5CF3F
:103A40008091E80085FF0BC0BA01C90140E050E059
:103A50000E94BA1F8091E8008E778093E800089555
:103A6000CF93DF93EC0148E050E0BC0181E00E947D
:103A70000C1D88E0FE01A4EBB2E001900D928A9546
:103A8000E1F7DF91CF9108958FE692E00E94D60191
:103A900080919F04811109C00E9445210E94A221AA
:103AA0008091E20084608093E20008958BE692E0CA
:103AB0000E94D60110929F04089587E692E00E942A
:103AC000D6010E94F21B089583E692E00E94D6017F
:103AD00060919C0481E0611101C080E00E94D91BCB
:103AE00008958FE592E00E94D6019091A00481E0B4
:103AF000943009F080E060919C040E94DF1B0895DF
:103B00002091B2022F5F822F62E30E94C125992388
:103B100019F02093B20208951092B2028091B3027C
:103B2000882371F18091A004843041F58091E900EF
:103B30008F702091EC00922F917020FD90E8892BDE
:103B400092E09093E9009091EB0090FF14C0909167
:103B5000EE0097FF10C09091E80095FF03C010920F
:103B6000F100F9CF9091E80090FF05C09091E80036
:103B70009E779093E8008F708093E9001092B302D3
:103B8000089542E061EC81E00E94BE2042E261ECD7
:103B900082E00E94BE209091A00481E0943009F060
:103BA00080E060919C040E94E91B08958091A2042A
:103BB000833009F461C030F4813071F0823009F44F
:103BC0009BC008958A3009F487C08B3009F46CC01B
:103BD000893009F0A9C020C08091A104813A09F080
:103BE000A3C08091E800877F8093E8008091A504BE
:103BF0009091A604892B21F468E084EB92E003C045
:103C000060E080E090E070E00E94FF1F8091E8009B
:103C10008B778093E80008958091A104813209F0A8
:103C200083C08091A5049091A604892B09F07CC0E3
:103C30008091E800877F8093E8008091E80082FD12
:103C400005C08091A0048111F8CF6EC02091F300CF
:103C50008091F20090E0922B029731F48091F10074
:103C6000813011F0863021F48091F1008093BC0204
:103C70008091E8008B7754C08091A104813A09F0CB
:103C800053C08091A5049091A604892B09F04CC0E3
:103C90008091E800877F8093E8008091E80080FFB2
:103CA000FCCF8091240137C08091A1048132E1F5DD
:103CB0008091A5049091A604892BB1F58091E8002C
:103CC000877F8093E8000E94F3208091A304809373
:103CD00024010E94A80A08958091A104813221F54F
:103CE0008091E800877F8093E8000E94F320809114
:103CF000A4048093BD0208958091A104813AA1F4A7
:103D00008091E800877F8093E8008091E80080FF41
:103D1000FCCF8091BD028093F1008091E8008E7706
:103D20008093E8000E94F32008959FB7F8941092C2
:103D3000B3029FBF9091A004943009F057C09091B6
:103D4000E9009F703091EC00232F217030FD20E8B6
:103D5000922B22E02093E9002091EB0020FF43C04A
:103D60002091EE0027FF3FC02091B102222321F0D5
:103D70002091E80025FF37C01092B10226E0309173
:103D8000E80035FD15C03091A004343061F5309164
:103D9000EB0035FD28C0215021F481E08093B10271
:103DA00022C0EFE9FFE03197F1F700C00000E7CF54
:103DB0008093F1008091E80085FD0AC08091E800C1
:103DC00080FFFCCF8091E8008E778093E80006C0EA
:103DD0008FB7F89421E02093B3028FBF9F70909328
:103DE000E90080E008959F709093E9008FEF0895B7
:103DF00084B7877F84BF0FB6F894A8958091600040
:103E0000886180936000109260000FBE90E080E8AF
:103E10000FB6F89480936100909361000FBE0E94EA
:103E2000EC1B08950E9445210E94A221E2EEF0E0E1
:103E300080818460808378940E942C2408958CE192
:103E400091E00E942C1B08958091A0048530C9F454
:103E50008BE592E00E94D6018091A004853079F430
:103E60000E94491C80919E048823B1F30E94051C86
:103E7000882391F30E94A41F0E94A80AEDCF0E94FC
:103E8000741C089508959A014091A7045091A804C4
:103E90000E944B1F0895492F552743305105C9F003
:103EA00060F44130510581F04230510509F044C0C1
:103EB00082E490E04FE952E043C041325105E1F025
:103EC0004232510549F138C082E190E041EE52E0C2
:103ED00037C099278130910549F028F0029761F5A4
:103EE000E3E7F2E005C0EBE9F2E002C0E3E8F2E06C
:103EF000849190E0AF0124C06115710541F06130FB
:103F00007105D1F489E090E04AEC52E019C089E0F3
:103F100090E041EB52E014C06115710541F0613051
:103F2000710551F482E290E043EF52E009C080E471
:103F300090E045E153E004C080E090E040E050E0D4
:103F4000F90151834083089580E189BD82E189BDF3
:103F500009B400FEFDCF8091D8008F7D8093D800FA
:103F60008091E00082608093E0008091E00081FD1C
:103F7000FCCF0895A0E0B0E0E0ECFFE10C94F12567
:103F8000EC018B017A010E941221811133C0E114EE
:103F9000F10439F0F70180819181081B190BC80FDA
:103FA000D91FC12CD12C0115110519F18091E80000
:103FB00085FD16C08091E8008E778093E800E114BB
:103FC000F10449F0F70180819181C80ED91ED18298
:103FD000C08285E00FC00E941221882321F30AC00D
:103FE00089918093F10001501109FFEFCF1ADF0A88
:103FF000DACF80E0CDB7DEB7E8E00C940D26209153
:10400000A7043091A8042617370748F061157105F9
:1040100039F42091E8002E772093E80001C0B9011F
:10402000FC0120E06115710579F18091A0048823DD
:10403000F1F18530F1F18091E80083FD3CC0809181
:10404000E80082FD2EC08091E80080FFEBCF209138
:10405000F3008091F20090E0922B6115710551F010
:104060008830910538F421912093F1006150710955
:104070000196F3CF21E0089709F020E08091E80055
:104080008E778093E800CECF2111CFCF0AC08091E8
:10409000A004882361F0853061F08091E80083FD01
:1040A0000AC08091E80082FFF2CF80E0089582E0AC
:1040B000089583E0089581E008952091A704309148
:1040C000A8042617370748F06115710539F42091C7
:1040D000E8002E772093E80001C0B901FC0120E040
:1040E0006115710591F18091A004882309F440C005
:1040F000853009F43FC08091E80083FD3DC0809188
:10410000E80082FD2FC08091E80080FFE9CF209178
:10411000F3008091F20090E0922B6115710559F047
:104120008830910540F424912093F100319661503C
:1041300071090196F2CF21E0089709F020E0809103
:10414000E8008E778093E800CBCF2111CCCF0AC056
:104150008091A004882361F0853061F08091E800AF
:1041600083FD0AC08091E80082FFF2CF80E00895CD
:1041700082E0089583E0089581E00895982F9730B4
:1041800068F59093E900981739F07091EC00209150
:10419000ED005091F00003C0242F762F50E021FD58
:1041A00002C09F5FECCF3091EB003E7F3093EB007D
:1041B0003091ED003D7F3093ED003091EB003160A8
:1041C0003093EB007093EC002093ED005093F000DF
:1041D0002091EE0027FDE5CF80E008958F70809359
:1041E000E90081E008958091A10487FF11C08091CA
:1041F000E80082FD05C08091A0048111F8CF11C0B4
:104200008091E8008B770BC08091A004882349F04F
:104210008091E80080FFF8CF8091E8008E7780934E
:10422000E80008952091E4003091E50095E6409182
:10423000EC00842F817040FF23C08091E80080FD56
:104240001DC08091A004882399F0853099F0809159
:10425000EB0085FD11C04091E4005091E50024176A
:10426000350729F3915011F09A01E1CF84E00895C8
:1042700082E0089583E0089581E0089580E0089544
:104280004091E80042FFDDCF08950E94B4210E94D2
:10429000BC21E0EEF0E0808181608083E8EDF0E019
:1042A00080818F77808319BCA7EDB0E08C918E7FE1
:1042B0008C9380818F7E808310929F0408950F934A
:1042C0001F93CF93DF930E94B4210E94BC21C8EDBD
:1042D000D0E088818F77888388818068888388810F
:1042E0008F7D888319BC1092A00410929C041092B8
:1042F0009E0410929D0400EE10E0F80180818B7FF7
:10430000808388818160888342E060E080E00E9451
:10431000BE20E1EEF0E080818E7F8083E2EEF0E06F
:10432000808181608083808188608083F8018081C2
:104330008E7F8083888180618883DF91CF911F91F8
:104340000F910895E8EDF0E080818F7E8083E7EDA6
:10435000F0E080818160808384E082BF81E080938F
:104360009F040E945F210895E8EDF0E080818E7F38
:1043700080831092E20008951092DA001092E1001A
:1043800008951F920F920FB60F9211242F933F930F
:104390004F935F936F937F938F939F93AF93BF934D
:1043A000EF93FF938091E10082FF0BC08091E200C8
:1043B00082FF07C08091E1008B7F8093E1000E9423
:1043C000801D8091DA0080FF1FC08091D80080FF9F
:1043D0001BC08091DA008E7F8093DA008091D90033
:1043E00080FF0DC080E189BD82E189BD09B400FE76
:1043F000FDCF81E08093A0040E94441D05C019BC3C
:104400001092A0040E94561D8091E10080FF19C007
:104410008091E20080FF15C08091E2008E7F809342
:10442000E2008091E20080618093E2008091D800F8
:1044300080628093D80019BC85E08093A0040E941C
:10444000641D8091E10084FF30C08091E20084FF10
:104450002CC080E189BD82E189BD09B400FEFDCF99
:104460008091D8008F7D8093D8008091E1008F7E6D
:104470008093E1008091E2008F7E8093E200809142
:10448000E20081608093E20080919C04882311F017
:1044900084E007C08091E30087FD02C081E001C095
:1044A00083E08093A0040E94711D8091E10083FF4E
:1044B00029C08091E20083FF25C08091E100877FC1
:1044C0008093E10082E08093A00410929C0480918C
:1044D000E1008E7F8093E1008091E2008E7F8093E7
:1044E000E2008091E20080618093E20042E060E0BF
:1044F00080E00E94BE208091F00088608093F000F0
:104500000E945D1DFF91EF91BF91AF919F918F919F
:104510007F916F915F914F913F912F910F900FBEBF
:104520000F901F9018951F920F920FB60F921124A3
:104530002F933F934F935F936F937F938F939F93AB
:10454000AF93BF93CF93DF93EF93FF93C091E900B5
:10455000CF708091EC00D82FD17080FDD0E8109200
:10456000E9008091F000877F8093F00078940E94AA
:10457000D7221092E9008091F00088608093F000CB
:10458000CD2BCF70C093E900FF91EF91DF91CF91D8
:10459000BF91AF919F918F917F916F915F914F915B
:1045A0003F912F910F900FBE0F901F901895AAE288
:1045B000B0E0EDEDF2E20C94F625E1EAF4E0809152
:1045C000F100819324E0E93AF207C9F70E94D61D71
:1045D0008091E80083FF2EC18091A1049091A204F4
:1045E000492F50E04A30510508F024C1FA01E5573F
:1045F000FF4F0C94E125803821F0823809F01AC170
:1046000008C080919D0490919E04992389F0826056
:104610000FC08091A5048F70873008F00BC1809384
:10462000E9008091EB0085FB882780F91092E90072
:104630009091E800977F9093E8008093F1001092AA
:10464000F100D1C0282F2D7F09F0F4C0882319F084
:10465000823061F0EFC08091A304813009F0EAC09C
:10466000933009F080E080939E042EC08091A304D3
:1046700081112AC08091A5048F702FEF280F26305A
:1046800008F0D8C08093E9002091EB0020FF1CC007
:10469000933021F48091EB00806214C09091EB0084
:1046A00090619093EB0021E030E0A90102C0440F3B
:1046B000551F8A95E2F74093EA001092EA00809134
:1046C000EB0088608093EB001092E9008091E80095
:1046D000877F8093E8000E94F320ACC08111AAC0BC
:1046E0001091A3041F778091E3008078812B809341
:1046F000E3008091E800877F8093E8000E94F32028
:104700008091E80080FFFCCF8091E3008068809377
:10471000E300111102C082E001C083E08093A00495
:1047200089C08058823008F085C08091A3049091A0
:10473000A4048C3D53E0950779F583E08A838AE2EF
:1047400089834FB7F894DE01139620E03EE051E2F2
:10475000E32FF0E050935700E49120FF03C0E2956F
:10476000EF703F5FEF708E2F90E0EA3010F0C79649
:1047700001C0C0968D939D932F5F243149F74FBFA1
:104780008091E800877F8093E8006AE270E0CE01C4
:1047900001960E94FF1F16C06091A5047091A604A7
:1047A000AE014F5F5F4F0E94431FBC01892B09F48C
:1047B00041C09091E800977F9093E80089819A81A9
:1047C0000E945D208091E8008B778093E80032C0E2
:1047D000803881F58091E800877F8093E8008091A0
:1047E0009C048093F1008091E8008E7772CF811154
:1047F00021C08091A3049091A40499270297D4F436
:104800008091E800877F8093E8008091A3048093E3
:104810009C040E94F32080919C04811106C0809129
:10482000E30087FD02C081E001C084E08093A00422
:104830000E94C11D8091E80083FF0AC08091E800BA
:10484000877F8093E8008091EB0080628093EB008B
:10485000AA96E3E00C941226CF938091A0048823BB
:10486000A1F0C091E900CF709091EC00892F817088
:1048700090FD80E8C82B1092E9008091E80083FD4C
:104880000E94D722CF70C093E900CF9108950E9473
:1048900045211092A0040895E8EDF0E08081806148
:1048A00080838AE18A95F1F700C08091D9008170F8
:1048B00008955058BB27AA270E9471240C941A25EA
:1048C0000E940C2538F00E94132520F039F49F3FF8
:1048D00019F426F40C9409250EF4E095E7FB0C94EA
:1048E0000325E92F0E942B2558F3BA176207730797
:1048F0008407950720F079F4A6F50C944D250EF465
:10490000E0950B2EBA2FA02D0B01B90190010C01DF
:10491000CA01A0011124FF27591B99F0593F50F4F7
:10492000503E68F11A16F040A22F232F342F44274F
:10493000585FF3CF469537952795A795F040539547
:10494000C9F77EF41F16BA0B620B730B840BBAF017
:104950009150A1F0FF0FBB1F661F771F881FC2F782
:104960000EC0BA0F621F731F841F48F48795779596
:104970006795B795F7959E3F08F0B0CF9395880F50
:1049800008F09927EE0F979587950895E89409C048
:1049900097FB3EF490958095709561957F4F8F4F72
:1049A0009F4F9923A9F0F92F96E9BB279395F69588
:1049B000879577956795B795F111F8CFFAF4BB0F06
:1049C00011F460FF1BC06F5F7F4F8F4F9F4F16C06A
:1049D000882311F096E911C0772321F09EE8872FF4
:1049E000762F05C0662371F096E8862F70E060E0B0
:1049F0002AF09A95660F771F881FDAF7880F969529
:104A0000879597F9089597F99F6780E870E060E0CF
:104A100008959FEF80EC089500240A941616170657
:104A200018060906089500240A941216130614069F
:104A300005060895092E0394000C11F4882352F002
:104A4000BB0F40F4BF2B11F460FF04C06F5F7F4FBA
:104A50008F4F9F4F089557FD9058440F551F59F0A1
:104A60005F3F71F04795880F97FB991F61F09F3F5B
:104A700079F087950895121613061406551FF2CF84
:104A80004695F1DF08C0161617061806991FF1CFD4
:104A900086957105610508940895E894BB276627FB
:104AA0007727CB0197F908950E9467250C941A2562
:104AB0000E940C2538F00E94132520F0952311F058
:104AC0000C9403250C94092511240C944E250E9466
:104AD0002B2570F3959FC1F3950F50E0551F629FF2
:104AE000F001729FBB27F00DB11D639FAA27F00D47
:104AF000B11DAA1F649F6627B00DA11D661F829F6E
:104B00002227B00DA11D621F739FB00DA11D621F52
:104B1000839FA00D611D221F749F3327A00D611D6F
:104B2000231F849F600D211D822F762F6A2F112451
:104B30009F5750409AF0F1F088234AF0EE0FFF1F84
:104B4000BB1F661F771F881F91505040A9F79E3FDB
:104B5000510580F00C9403250C944E255F3FE4F33F
:104B6000983ED4F3869577956795B795F795E79531
:104B70009F5FC1F7FE2B880F911D9695879597F93A
:104B80000895991B79E004C0991F961708F0961BA9
:104B9000881F7A95C9F780950895AA1BBB1B51E120
:104BA00007C0AA1FBB1FA617B70710F0A61BB70B9D
:104BB000881F991F5A95A9F780959095BC01CD0142
:104BC0000895EE0FFF1F0590F491E02D09942F92A8
:104BD0003F924F925F926F927F928F929F92AF928D
:104BE000BF92CF92DF92EF92FF920F931F93CF93DA
:104BF000DF93CDB7DEB7CA1BDB0B0FB6F894DEBF71
:104C00000FBECDBF09942A88398848885F846E8496
:104C10007D848C849B84AA84B984C884DF80EE80E0
:104C2000FD800C811B81AA81B981CE0FD11D0FB6E9
:104C3000F894DEBF0FBECDBFED010895FB01DC018E
:104C400004C08D910190801921F441505040C8F763
:104C5000881B990B0895FB01DC0102C001900D92A5
:104C600041505040D8F70895F999FECF92BD81BDCB
:104C7000F89A992780B50895A8E1B0E042E050E0A5
:104C80000C947826DC01A40FB51F4150504048F029
:104C9000CB01840F951F2E910E9453264150504006
:104CA000D0F70895262FF999FECF92BD81BDF89ACD
:104CB000019700B4021639F01FBA20BD0FB6F89460
:104CC000FA9AF99A0FBE08950396272F0E94532649
:104CD0000E945226252F0E945326242F0C945326DF
:104CE0000196272F0E9453260C945226DC01CB01FB
:104CF000FC01F999FECF06C0F2BDE1BDF89A3196EC
:104D000000B40D9241505040B8F70895F894FFCF89
:104D1000406E0201000000010000000000000003DE
:104D2000010000000404000000000000071D301D09
:104D30000A1D0B1D0136323301000305070294667C
:104D4000979102736C6176655F6D6174726978002A
:0C4D500073796E635F74696D657200001A
:00000001FF
