:100000000C940D030C942A030C942A030C94F629E7
:100010000C942A030C942A030C942A030C942A03AC
:100020000C942A030C942A030C9454140C949613E5
:100030000C9469200C942A030C942A030C942A0330
:100040000C942A030C942A030C942A030C942A037C
:100050000C942A030C941C200C942A030C942A035D
:100060000C942A030C942A030C942A030C942A035C
:100070000C942A030C942A030C942A030C942A034C
:100080000C942A030C942A030C942A030C942A033C
:100090000C942A030C942A030C942A030C942A032C
:1000A0000C942A030C942A030C942A035A06CE06B5
:1000B00062062C06300666063306690674063E069E
:1000C000C4064206780646067C06A6064A06800650
:1000D000B00650068606900637066D063A0670068C
:1000E00055068B069C06BC06BE0628065E06D7068D
:1000F000FD060307F106F70609070F071507240891
:10010000240857085708350A350A350A350A0209FE
:100110007509870987095A0F770F7D0F83108310A0
:10012000B40FC60FD90FF00FF50F21104410731044
:100130007610A211C9117E13C9117E13151238123F
:100140007E13391349130A0025303862003A200023
:1001500025303258000A722F632030313233343563
:1001600036370A00FD377A585A000004E6D6B446FE
:100170000200210116000000742FE5A3E0017500C4
:10018000B35D003D8889C65436C3174FE4F609DCD9
:100190009AD3C2AF4A42FAFF9B912032319266DA7B
:1001A000F168CA19D564E5CD43114E397475C06044
:1001B000C1B59A23323CCAB00FD2B89BB3EF7F8649
:1001C000FAE7427C220478D86C56308214D8A1CA4F
:1001D000A8EB7D6E605A96CEE0B8FAA262FFBBB57E
:1001E0004306F962BC5354099F2F56772BB9B66961
:1001F000DC6008DC86A52FD1A096019398B1356804
:100200000A5492C3327828B97E61A2B0F091DF041B
:10021000916F65C382F06449E83644FA0A198DDBB0
:10022000286A8FDAC130FB436A75A66EF542DB554A
:1002300062BD48CAB10000009AF89278D65F1C22CD
:100240000001CF01F602000019CC02BEB1C467FB69
:10025000020000000004595A0631FF0974A1010987
:1002600075150026FF009520750881020976150096
:1002700026FF00952075089102C00660FF0961A164
:10028000010962150026FF009520750881020963A7
:10029000150026FF00952075089102C0050109068A
:1002A000A101050719E029E7150025019508750149
:1002B00081029501750881010507190029FF1500C4
:1002C00026FF009506750881000508190129051506
:1002D000002501950575019102950175039101C0F5
:1002E0005B435D005B445D005B535D005B575D00FD
:1002F0005B525D0009026200030100A0FA090400DC
:10030000000103010100092111010001224400073D
:10031000058103080001090401000203000000092F
:10032000211101000122220007058203200001079C
:100330000503032000010904020002030000000974
:10034000211101000122220007058403200001077A
:100350000504032000011201000200000008EDFE68
:1003600001000001010203011C0376006900610025
:100370006C003A0066003600340063003200620010
:100380003300630000000E036D0069006E00690019
:10039000650063000000160367006F0072006F00C5
:1003A000700069006B0061007200690000000403C6
:1003B0000904000000000000000000000000000030
:1003C000000000000000000000000000000000002D
:1003D0000000000000007E0F00D4FFFFFFC70000F8
:1003E000007800000000000000002A2B2800000018
:1003F00000000000000000000000000000290000D4
:1004000000002C1E3420212224342627252E362DB0
:100410003738271E1F202122232425263333362E4A
:1004200037381F0405060708090A0B0C0D0E0F10BC
:100430001112131415161718191A1B1C1D2F313001
:10044000232D350405060708090A0B0C0D0E0F10A5
:100450001112131415161718191A1B1C1D2F3130E1
:10046000354C34003600370013001C0029380400D6
:100470001200080018000C002D41330014000D007C
:100480000E001B00E0000F00150006000A00090026
:1004900028341600110017000B0007002C221D0045
:1004A00019001A001000050022521E021F0220022D
:1004B00021022202E7002B2104001D0006001B0080
:1004C000215200000000000000000000E6002702AA
:1004D000260252002402230200002A004F0051008D
:1004E00050004A002C224C0030002F0028004D0004
:1004F00023521E001F00200021002200E7002300DD
:1005000024002500260027002352E000E10000001F
:1005100000000000E600380238002B0030002F00F9
:100520000000E5002E003500310031020000E5003A
:10053000000035022E02280000001E021F022002C9
:100540002102220200000000000000000000000064
:1005500000003A003B003C003D003E00000030003F
:100560002F00250224022302000030022F02000087
:1005700031003102000043004200410040003F00D2
:1005800000000A00253464000A00010001009702FF
:100590004F28A92800000200020093024F28A92832
:1005A00000000300010098024F28A9280000040061
:1005B00002007D024F28A928C627050001009902E4
:1005C0004F28A9280000060002007F024F28A92812
:1005D00000000700020095024F28A928000008002B
:1005E00001009A024F28A9280000120002009B0275
:1005F0004F28A9280000130002009D024F28A928B7
:100600000000140001009F024F28A92800001500D7
:10061000000000004927CF27000011241FBECFEFA4
:10062000DAE0DEBFCDBF11E0A0E0B1E0E2ECF7E53B
:1006300002C005900D92AC34B107D9F723E0ACE4C9
:10064000B1E001C01D92A830B207E1F70E94840A10
:100650000C94DF2B0C940000FF93EF93E0914C017E
:10066000F0914D01309709F00995EF91FF910895B0
:10067000FC018591803011F0EFDFFBCF0895FF275B
:10068000E0E230E247FF0CC0419597FF09C0EDE280
:100690006095709580959095611D711D811D911DCE
:1006A00027FF02C0219530E350E2AA27660F771F8B
:1006B000881F991FAA1FA41710F0A41B63955A95B1
:1006C000A9F7AA3008F0A95FA05DAF93F395611573
:1006D00071058105910541F7ED3211F4EF93F39522
:1006E000F21718F43F93F395FBCF8F91B5DFFA958E
:1006F000E1F70895E991F9918591803021F08532F3
:1007000019F0AADFF9CF089520E0E8945591553209
:10071000C1F3503311F4689455915A3348F450534F
:1007200090F3220F022E220F220F200D250FF4CF5F
:100730000EF4219589919991533619F3533729F184
:10074000533559F1BC0188279927E8945C3621F488
:100750008991999168945591543639F446EF7EF019
:1007600077FF0DC08FEF9FEF0AC055374AE039F091
:10077000583540E121F0523642E009F00895FF93E8
:10078000EF937DDFEF91FF91B7CFFF93EF93FC01E4
:1007900081918030B9F360DFFBCFFF93EF9368DF87
:1007A000F1CFDF93CF93CDB7DEB72596A3DFCF91FF
:1007B000DF910895A4E0B0E0E0EEF3E00C941B2B91
:1007C000FC012481222309F49BC67C0161E00E9484
:1007D00022248C01F7018581882309F4C7C0C80150
:1007E00097578038910508F0C1C0D02EFFE0F01770
:1007F00008F4C5C38FEF93E00E94572B8111BFC34C
:100800000DE611E0DD2071F0011524E0120709F476
:10081000B6C3C8010E94572B811101C0DA940F5F43
:100820001F4FF0CF19821A821B821C82AA24AA941D
:1008300068016FEFC61AD60AC8010E94572B898338
:100840001A82882309F49BC3813009F089C04801CA
:1008500072E0870E911CC6010E94572BB82E8A8326
:10086000882309F48CC38FEF8B0D833070F46801FB
:1008700083E0C80ED11CC4010E94572B8B838111C9
:1008800002C08601D5CF60E06CC08BEF8B0D83304A
:10089000C0F5380193E0690E711CC4010E94572B0A
:1008A0008B83811102C06301ECCF6801E4E0CE0EBE
:1008B000D11CC3010E94572B8C83882311F38B8199
:1008C0009C818130FFEF9F0718F0182F00E001C0D6
:1008D0008C0126E0B21669F067E0B61671F0C80127
:1008E0000E94E92880919B0290919C020E94CB215A
:1008F00004C0C8010E94E928C4CFC8010E94C428CE
:10090000C0CF74E0B71611F06401BBCFC4010E94E0
:10091000572BB82E680184E0C80ED11CC80103967D
:100920000E94572BBB2009F42AC3882309F427C34C
:10093000282F30E021503109A29EA001A39E500D26
:1009400011248B2D90E00197840F951F019708F4D7
:1009500098CFEFE9FFE03197F1F700C00000F6CF44
:1009600065E0CE0101960E9489228BCF809198028A
:1009700080FF45C10E945D206C01F70185818823BD
:10098000B1F18091250182FF08C02EEA31E040E0FC
:10099000B60180E090E00E94D6210431FCE71F07F9
:1009A000A9F005312CE7120751F003316CE7160767
:1009B000A1F4809125018160809325010EC0809172
:1009C0002501982F909590FB80F903C08091250117
:1009D0008E7F809325010E949821C8019052811535
:1009E000904358F51092A4021092A30208C1013E50
:1009F000110521F4809125018F7E06C0053E110569
:100A000031F4809125018F7D8093250116C0C801A6
:100A100090528115904388F48091250182FFEFC0A8
:100A200080919A0281FDEBC02EEA31E040E0B601F0
:100A300080E090E00E94D621E2C08091250180FFF5
:100A4000DEC0F70185810832110538F40E31110539
:100A5000B8F40430110578F4C5C00933110538F431
:100A60000D32110590F40B32110579F0BBC004363C
:100A7000110559F0B7C09091980294FDB3C009C018
:100A80009091980293FDAEC004C09091980292FD9F
:100A9000A9C0882309F49FC020915C028091410283
:100AA000982F922B392F3D7F79F11092A40210924A
:100AB000A3023091980231FD27C0F80123E0F6959A
:100AC000E7952A95E1F7EE71FF27E35AFD4F98016C
:100AD0002F70332781E090E002C0880F991F2A957C
:100AE000E2F7809590952081318182239323918331
:100AF0008083A70160E0C8010E94BB218091410270
:100B00008D7F0E94311D63C037E0F701AEEAB1E08E
:100B100001900D923A95E1F71092B3011092B10154
:100B20001092B0014091A3025091A402041715073E
:100B3000B1F53091980235FF32C04091250141FF57
:100B400002C036FF2CC04091A1025091A202B60112
:100B5000641B750B6D37710510F521FF08C080917E
:100B6000250180618093250182E00E945A1D8091B9
:100B70005C0285FF08C08091250180628093250179
:100B800080E20E945A1D6091250166956170A7015F
:100B90008091A3029091A4020E94BB21F0C196957E
:100BA00091702091250190FB21F9209325018D7FE3
:100BB0000E94311D1093A4020093A302D092A202BE
:100BC000C092A1028091250184608093250182E07A
:100BD0000E94681DD4C1970140E0B601C8010E947F
:100BE000D621CDC1882359F01092A4021092A302FD
:100BF000F801E851FC47E730F10568F4EEC0F80170
:100C0000E851FC47E730F10508F4E7C0F7019581AA
:100C1000992309F414C11092A902C801905783972F
:100C200008F00CC184E090E00E945F2B90935A0280
:100C300080935902F801E150F047E232F10520F4C7
:100C4000EA5AFF4F0C94B52B809159028160ACC0D9
:100C500080915A028860B4C0809159028260A4C019
:100C60008091590220C08091590288609DC0809176
:100C70005A021EC080915A028260A2C0809159021D
:100C8000806192C08091590280628EC08091590229
:100C900080648AC00E94661880915902806884C06E
:100CA00080915902886084607FC080915A0282607E
:100CB000816086C0809159028E7F76C080915A02F1
:100CC000877F7EC0809159028D7F6EC080915902CE
:100CD00020C080915902877F67C080915A021EC050
:100CE00080915A028D7F6CC0809159028F7E5CC0CA
:100CF000809159028F7D58C0809159028F7B54C0DA
:100D00000E946618809159028F774EC080915902D7
:100D1000877F8B7F49C080915A028D7F8E7F50C024
:100D20008091590282FB222720F991E0922790FBC3
:100D300082F990FB83F938C080915A02982F9095E0
:100D400091708E7F892B90FB81F93AC08091590276
:100D500086FB222720F991E0922790FB86F924C098
:100D60000E9466188091590287FB222720F991E0A2
:100D7000922790FB87F918C061E001C060E08EE027
:100D800090E00E94752B1EC08091590284FB22279F
:100D900020F991E0922790FB84F906C080915902D6
:100DA000982F909590FB80F9809359020BC0809109
:100DB0005A0283FB222720F991E0922790FB83F9C6
:100DC00080935A026091590270915A0284E090E037
:100DD0000E94932B0E946618D2C0E858FF4F0C94D3
:100DE000B52B06E221EE41EE6AE17CE723C007E283
:100DF00025EE45EE6BE17CE71DC006E221EE40EEFC
:100E000068E17CE717C007E225EE44EE69E17CE784
:100E100011C006E221EE42EE6CE17CE70BC007E276
:100E200025EE46EE6DE17CE705C008E221E045EEE7
:100E30006EE17CE7C7010E94CA20A1C091E00631A3
:100E4000FCE71F0709F040C080915C02282F2A7A36
:100E50003091970230FF04C0482F447409F020E01D
:100E600031FF04C0482F417109F020E032FF04C077
:100E7000482F487809F020E033FF02C0827261F405
:100E80009923A1F081E0211101C080E080934E01FF
:100E9000222331F065E305C0992341F010924E0101
:100EA00069E28AEE91E00E949F200BC080914E0182
:100EB000882311F065E301C069E28AEE91E00E94A7
:100EC00092200E94C71D5BC007372CE7120711F460
:100ED00081E005C008376CE7160771F482E09923BA
:100EE00019F00E94891602C00E947C1643E062E05D
:100EF00081E00E945A1643C0F7018581882309F4D6
:100F000050C00330FCE71F0729F148F401156CE7D6
:100F1000160791F001307CE7170711F142C00B353D
:100F20008CE7180741F10C359CE71907E1F00A3509
:100F30001C47B9F581E020C00E946618FFEF24E34A
:100F40006CE0F15020406040E1F700C000000E94DA
:100F50000B2015C06FEF7FEF80E090E00E94932B95
:100F60000E94F0240CC080915A0282FB882780F9ED
:100F700091E0892701C080E00E947F1D12C080910E
:100F80003602877009F4BCC2F7018581882309F411
:100F9000B7C280915A0282FFB3C282E00E94681DEC
:100FA000AFC2F701858100811181882349F0C80112
:100FB0000E94B215D82E682FC8010E94221604C0C4
:100FC000C8010E94EE15D82EB8018D2D0E94ED1B90
:100FD0000E940A1CD82E092F982EF701B580C680D2
:100FE000C2949FE0C922809136028770E9F0BB204D
:100FF000D9F0802F807F803451F080E28D0D8830D1
:1010000098F0C11004C0802F807E803269F08091FA
:101010005A0282FF09C082E00E94681D8091360258
:101020008770AA24A3948111A12C802E82948FE032
:101030008822882D90E08C30910508F016C2FC01C2
:10104000E158FF4F0C94B52B102F1F70802F807F1D
:1010500011F01295107FBB20B9F0112309F4E5C1FE
:1010600080E28D0D883010F0911006C080915C02F6
:10107000182B10935C0205C080915B02182B109313
:101080005B020E94C71DD1C18D2D0E949A181123A9
:1010900009F4EBC180E28D0D883088F1992079F157
:1010A000109580915B02182310935B022BC0102FC8
:1010B0001F70802F807F803211F01295107F992051
:1010C00029F0F1E09F1609F46BC076C080915A02B6
:1010D00082FD1BC0BB2069F0112339F080915C02B6
:1010E000182B10935C020E94C71D80E00E94E31839
:1010F000BCC180E00E949A18112309F4B6C1812F67
:101100000E945A1D0E94C71DB0C1BB2081F1CC2096
:1011100009F46AC021E0C21212C080914102812309
:10112000181709F4A2C10E945D2090934002809399
:101130003F0280914102182B1093410296C1809189
:101140009902823008F491C1C8128FC1812F0E9488
:101150009018812F0E94451D80913302912F982372
:10116000191709F482C1182B109333027EC1CC20C9
:1011700069F080919902823008F477C161E0C6126B
:1011800074C180915C02812309F46FC1812F0E9498
:101190008918812F0E94451D812F0E94121E65C152
:1011A00080919F02BB2021F08C1508F45EC11CC009
:1011B000C81608F05AC122C0BB20D1F0CC20A1F043
:1011C00020E0F701408151816281738184819581A2
:1011D0000E94FD2380919A0281FD27C1F70186813B
:1011E00080FF23C18F708683812F0E9490183DC19C
:1011F000CC2021F0F9E39F1228C122C1812F0E9447
:10120000891833C1802F8370A1F5B11032C14D2DE3
:10121000429546954770440F440F2D2D2F7030E0B6
:10122000C901042E01C0880F0A94EAF7D4FE08C051
:101230002FE030E001C0220F4A95EAF7209501C067
:1012400020E0302F369536953370323069F040F417
:101250004091A501313019F0822B842302C0842BE8
:10126000822B0E94951605C1282B8091A50182270B
:10127000F8CFBB2019F0802F817001C0869588239C
:1012800009F4F7C04D2D429546954770440F440F21
:101290002D2D2F7030E0C901042E01C0880F0A9453
:1012A000EAF7D4FE08C02FE030E001C0220F4A95D3
:1012B000EAF7209501C020E0302F3695369533703F
:1012C000323051F070F44091A601313019F0822B88
:1012D000842308C0842B05C0282B8091A601822777
:1012E00001C0822B0E945716C4C0102F1F70BB2054
:1012F00039F0812F0E9489168D2D0E949018B9C057
:101300008D2D0E948918812F0E947C16B2C08D2DD0
:1013100022EF921639F1291538F060EF961659F040
:1013200071EF9716B9F17DC093EF991609F1E4EFCB
:101330009E1661F176C080919F02BB2021F0C816F5
:1013400008F093C003C08C1508F48FC0202F2F71B4
:1013500081E090E001C0880F2A95EAF79091A601FC
:10136000892711C0802F8F71BB2009F462C079C01A
:10137000BB2041F081E0902F9F7101C0880F9A95AA
:10138000EAF701C080E00E9457166FC080915A02B0
:1013900082FD06C0802F8F71BB2009F462C049C056
:1013A00080919902823038F1BB20B9F090913602D9
:1013B0009770943039F40E94611D802F8F710E94C4
:1013C0007C1652C0C81608F04FC0102F1F71812F15
:1013D0000E94891663E0812F07C0C81640F00E9462
:1013E000611D64E0802F8F710E94961D3DC081E0D9
:1013F0000E94681D39C0BB2051F0102F1F71812F32
:101400000E94891663E0812F0E94961D2EC081E004
:101410000E94681DF1E0FC1540F582E00E94681D05
:1014200024C0BB2049F0CC2011F08D2D5FCE802F41
:101430008F710E94891619C0CC2089F0893329F454
:1014400080919D0290919E0204C080919B02909198
:101450009C020E94CB218D2D0E949A1806C0802FDD
:101460008F710E947C1601C0A12C88EF880D8430FA
:1014700010F40E94B9208D2D902F0E949816811192
:1014800005C01092500110924F011FC0BB2019F0EF
:10149000C110F7CF1AC0C110F4CF20E0F70140818E
:1014A000518162817381848195810E94FD238091A5
:1014B0009A0283FFE6CF80914F01909150010297ED
:1014C00001F78D2D0E946519DCCFAA20A9F080912B
:1014D000360280FD11C0F7011582869586958695A6
:1014E0000E948916C7010E94DA0380913602869510
:1014F000869586950E947C1660E0C7010E94222492
:101500002496EEE00C94372BA6E5B0E0EAE8FAE08A
:101510000C94172B85B7806885BF85B7806885BF19
:1015200084B7877F84BF0FB6F894A8958091600038
:10153000886180936000109260000FBE90E080E8A8
:101540000FB6F89480936100909361000FBE84EA17
:101550009EE190934D0180934C010E9465280E946A
:10156000DA130E94F9138091E20084608093E20014
:1015700078948091D1018823A1F01091E9001F7027
:101580009091EC00892F817090FD80E8182B1092CB
:10159000E9008091E80083FD0E94C1101F70109344
:1015A000E90082E084BD93E095BD9AEF97BD8093FA
:1015B0006E0010925101109252011092530110923C
:1015C00054010E944229811102C00E9432290E94C6
:1015D0006B1B80910101882311F090E001C093E022
:1015E0009093A40183E0891B8093A30155985D9893
:1015F000209828980E946B1BCE010196AE014B5D8E
:101600005F4F382E292E68E770E0A2E8B0E0FC01B9
:1016100026E030E061937193B3A3A2A32150310976
:10162000C9F70C968417950791F78091010188E41A
:10163000E32DF22DA5E5B1E001900D928A95E1F739
:101640002998219A80E480930001AEE2B1E021E084
:1016500030E011E0A133B107B1F08D91E82FE295B0
:10166000EF70F0E041A18F70890102C0000F111FDF
:101670008A95E2F7C801942F982B91A392A18095A7
:10168000892382A3E6CFA1E3B1E024E331E041E086
:1016900050E02A173B0789F08D91E82FE295EF7013
:1016A000F0E061A18F708A0102C0000F111F8A95BE
:1016B000E2F7C801862B81A3ECCF2198299880916D
:1016C0000101882311F090E001C093E09093A40100
:1016D00083E0891B8093A3010E94481B811102C0F3
:1016E0000E94B429EDE9F1E0AAEBB1E011921D925C
:1016F00011E0E33AF107D1F780E090E00E945F2B20
:10170000863E9E4F21F40E944229811167C066EEF9
:101710007EEF80E090E00E94932B60E082E090E01A
:101720000E94752B60E083E090E00E94752B109280
:10173000A50160E074E184E090E00E94932B60E0FA
:1017400086E090E00E94752B6FEF87E090E00E94AA
:10175000752B40E050E0BA0188E090E00E94872BB2
:1017600060E084E290E00E94752B60E087E190E009
:101770000E94752B60E08CE090E00E94752B60E089
:101780008DE090E00E94752B19821A821B821C82C8
:101790001D821E821F82188648E050E068E170E0DA
:1017A000832D922D0E94652B40E050E0BA0180E22B
:1017B00090E00E94872B80E00E9413290E9432292A
:1017C00040E050E0BA018FE090E00E94872B40E0BB
:1017D00050E0BA0183E190E00E94872B82E090E024
:1017E0000E94572B8093A70184E090E00E945F2B1A
:1017F00090935A02809359020E943A258FE39CE904
:101800000197F1F700C000000E943A258091BA01CB
:1018100080FF08C06FEF7FEF80E090E00E94932B85
:101820000E940B2083E090E00E94572B0E949516A7
:101830000E94481B811102C00E94B42982E091E0FD
:101840009093AB028093AA028091D101853009F078
:1018500046C000E4F02E00E112E18091D101853014
:1018600009F039C08091D101843019F11092AC0295
:10187000A8E1B0E00FB6F894A895A09360000FBE61
:10188000F092600083B7817F846083BF83B78160FB
:1018900083BF7894889583B78E7F83BF0FB6F89403
:1018A000A89580916000886180936000109260002C
:1018B0000FBE8091D001882309F4CFCF0E943A2532
:1018C000EAEBF1E08191811126C420EC31E02E1782
:1018D0003F07C1F7C2CF0E9466180E94B9200E943C
:1018E0003A2518EAE12E11E0F12E2EEA31E0AAEBBA
:1018F000B1E0F70191918D9189272E173F0719F0DB
:101900008823C1F305C0811103C00E94021D88C055
:101910008091A70181FD09C00E94481B982E0AEB07
:1019200011E0D12C7724739434C085E591E00E94B6
:101930003803AAEBAA2EA1E0BA2E00E010E0B8E42A
:10194000CB2EB1E0DB2E1F930F9360E571E07F9308
:101950006F930E94D1038DE491E00E943803D5017A
:101960008D915D010E94EB231F928F93DF92CF92A6
:101970000E94D10386E491E00E9438030F5F1F4F5D
:101980000FB6F894DEBF0FBECDBF06301105D9F6F5
:10199000C3CFD801AD908D01F70180808A24B9F1C1
:1019A000C12CBB24B394882D8B2151F1992041F196
:1019B0006296CFAE62976396DFAE63970E945D201A
:1019C00065969FAF8EAF659766967FAE669791E0FE
:1019D0008A2D8B2109F490E067969FAF67976296F6
:1019E0004FAD629763965FAD639764966FAD6497F2
:1019F00065967FAD659766968FAD66970E942D249C
:101A0000C394BB0CF6E0CF12CECFD701AC92D394E7
:101A1000BFEFEB1AFB0AE6E0DE12BBCF0E947E1B93
:101A20000E94481B882311F18091980280FF1EC0FC
:101A30008091250182FF1AC00E945D202091A102A1
:101A40003091A202AC01421B530B20912301309133
:101A500024014217530750F02EEA31E041E0BC0167
:101A60008091A3029091A4020E94D6210E94B920E5
:101A70009091B501891721F08093B5010E94512002
:101A80008091D101843009F0DFCE83E08093E900BA
:101A90008091E80082FFD8CE8091E80085FF22C0C7
:101AA0000E947F1581111CC0F0E2EF2EF12C032D56
:101AB000122D09C08091F100D8018D938D01B1E004
:101AC000EB1AF10869F08091E80085FDF3CF809171
:101AD000E8008B778093E8000E947F15882399F3B4
:101AE00091E001C090E08091E8008B778093E8005E
:101AF000992309F4A9CE0091C0011091C1018981F7
:101B00000115110561F08E3F09F0FDC28A81833015
:101B100008F4C4C18550833008F0F5C2BFC18B30D2
:101B200009F4A2C110F5853009F475C0B0F4823013
:101B3000D9F130F4813009F0E4C21A8289E04EC252
:101B4000833009F45BC0843009F0DBC24C816B81C7
:101B50008A810E946A219D83FBC2873009F4D1C229
:101B600008F0CFC20E947923CEC2803109F4BAC0F6
:101B700078F48D3009F45CC008F458C0FE01319649
:101B80006F018E3009F458C08F3009F47EC0B9C29D
:101B9000823109F4ADC008F4A8C0833109F4D4C07F
:101BA0008E3F09F47BC1ADC28A81823009F4C9C27B
:101BB000833051F0813009F0A4C20E9451209B83F0
:101BC0008C837D836E839FC28091A5029091A60233
:101BD000892B09F498C28091BA018B838091BB0153
:101BE0008C838091BC018D838091BD018E83809117
:101BF000BE018F838091BF01888785C28A81823030
:101C000009F07FC26B817C818D819E810E94BB2BFC
:101C10000E940E2978C22D813E8132272327322748
:101C20004C816B818A810E9443216DC280E15EC03C
:101C300082E08A8383E9D2C10A811B8110270127B0
:101C40001027AC80B12CFDE1AF16B10408F05BC2E7
:101C50007601C80183599E4F97012C193D092A1519
:101C60003B0508F050C2033922E0120730F40E940D
:101C7000572BD70114968C9302C0F70114820F5F83
:101C80001F4FFFEFEF1AFF0AE4CF8091A50290915A
:101C9000A602892B09F437C20A811B81102701276C
:101CA0001027EC80F12C2DE1E216F10408F02BC294
:101CB0005F01C80183599E4F95012C193D092E15CE
:101CC0003F0508F020C2033932E0130728F4D5019C
:101CD00014966C910E94752B0F5F1F4FBFEFAB1ACC
:101CE000BB0AE7CF0E9433210EC284E08A830BC275
:101CF0000A811B81102701271027CC80D12CEDE110
:101D0000CE16D10408F0FFC19E012F5F3F4F59014D
:101D10007901C801899697012A193B092C153D05BF
:101D200008F0F1C1003231E0130730F40E94572B64
:101D3000D70114968C9302C0F70114820F5F1F4FD6
:101D4000FFEFEF1AFF0AE5CF0A811B811027012759
:101D50001027CC80D12C2DE1C216D10408F0D3C1BC
:101D6000003231E0130708F0CEC180E291E0801B21
:101D7000910B8C159D0508F4C6C1380149E2640E2B
:101D8000711C8091A5029091A602BE016F5F7F4FEA
:101D90005B01892B11F075015EC000FF0FC0C80107
:101DA00088960E94572B90E0982F88272D81822BB0
:101DB00081159C4731F48FEF8D8303C0E12CF12C0A
:101DC00003C0EE24E394F12CC8018C0D9D1D460147
:101DD00080FF1BC081E0881A910855E0452E512CE8
:101DE0004C0E5D1E480C591CC3018C0D9D1D0E949C
:101DF000572BD2012C9130E0322F2227282B21158E
:101E00003C4719F48FEFF2018083F501EE0DFF1DC1
:101E10002FEFCF018A199B098815990508F0BBCFD0
:101E2000848190E0982F88273581832B81159C47EA
:101E300011F4248325833296ECCF003241E014075D
:101E400028F4D70114966C910E94752B0F5F1F4FD9
:101E5000BFEFEB1AFB0AC801899697012A193B09C3
:101E60002C153D0550F34FC18091A5029091A6021B
:101E7000892B09F448C140E250E0632D722D82E0C5
:101E80000E94B91FEFEFF1EE04E0E150F040004096
:101E9000E1F700C000000E940B2035C1EA818E2FBF
:101EA00090E08E30910508F02EC1FC01E557FF4F00
:101EB0000C94B52B88E0E6E2F1E0DE01A75BBF4FB2
:101EC00001900D928A95E1F7FE01319680E2DF01E3
:101ED0001D928A95E9F786E0898388E0E85BFF4FE9
:101EE000DE01159601900D928A95E1F70CC184EF01
:101EF00089831A821B821C8206C18C8190E0982FF4
:101F000088272B81820F911D092E000CAA0BBB0B79
:101F100035E0880F991FAA1FBB1F3A95D1F7AC0176
:101F2000BD01405E5F4F6F4F7F4F481759076A07EB
:101F30007B0708F4E8C0843F9105A105B10508F0CE
:101F4000E2C0453F51056105710520F044EF50E0C6
:101F500060E070E0481B590BBC016C597E4FCE010C
:101F600001960E944E2BCFC040E250E06FEF70E030
:101F7000CE0101960E94D82B8091A50289830A8305
:101F80001B821C8282E08D838DE0E2C081E090E0C4
:101F90009093C1018093C00182E390E09093B901D6
:101FA0008093B8010E945D209093B7018093B601A1
:101FB000AAC00115110561F08091B6019091B70199
:101FC0000E94422082E390E09093B9018093B8018F
:101FD0008091A50289830A838091B8018B8393C085
:101FE0001092A6021092A5028EC00B811C8140E2C5
:101FF00050E06FEF70E0CE0101960E94D82B2AE8E6
:1020000035E0AAE1B6E080E090E0AC014E5F5F4FC2
:102010004132510508F077C0F901659174910617B6
:10202000170748F4E1E0F0E0EC0FFD1FE80FF91F9F
:1020300071836083CA01245F3F4FA217B30729F75A
:1020400062C02B813C818AE895E0FC014591549166
:102050002417350731F00C96B6E08A319B07A9F7B3
:1020600050C0009709F44DC0FC013696259134917B
:102070002115310509F445C04FE150E0BE016E5F06
:102080007F4FF90109953EC08B819C810AE815E0DC
:10209000F801259134912817390739F0045F1F4F53
:1020A000F6E00A311F07A1F72CC00115110549F10F
:1020B000F8013896259134912115310511F14CE143
:1020C00050E0BE016B5F7F4FC801F9010995009791
:1020D000C9F4F8013A9685919491009711F0FC01AA
:1020E000099580E00FC00E9441230DC08B818111B2
:1020F0000AC0FE01319680E2DF011D928A95E9F760
:1021000002C08FEF898340E250E0632D722D82E0A0
:102110000E94B91F99CB09BD19BD09B400FEFDCFBE
:102120008091D8008F7D8093D8008091E0008260FC
:102130008093E0008091E00081FDFCCF0E94661852
:102140008CCB88E290E00E94572B1B821C821D8260
:102150008E83D9CFFC01AC014D5F5F4F8FEF91E3D0
:102160002191822728E030E087FF03C0880F89276C
:1021700001C0880F21503109B9F7E417F50781F73D
:102180000895AAE2B0E0E7ECF0E10C94262BE3ED31
:10219000F1E08BED91E02091F10021938E179F07E4
:1021A000D1F78091D401833009F461C030F48130DB
:1021B00071F0823009F49BC0B2C08A3009F487C044
:1021C0008B3009F46CC0893009F0A9C020C080911F
:1021D000D301813A09F0A3C08091E800877F809302
:1021E000E8008091D7019091D801892B21F468E013
:1021F00087EC91E003C060E080E090E070E00E9436
:102200005B1F8091E8008B778093E80088C0809105
:10221000D301813209F083C08091D7019091D80118
:10222000892B09F07CC08091E800877F8093E800CB
:102230008091E80082FD05C08091D1018111F8CF25
:102240006EC02091F3008091F20090E0922B0297F3
:1022500031F48091F100813011F0863021F48091C9
:10226000F1008093C6018091E8008B7754C0809183
:10227000D301813A09F053C08091D7019091D801E0
:10228000892B09F04CC08091E800877F8093E8009B
:102290008091E80080FFFCCF80910A0137C08091D7
:1022A000D3018132E1F58091D7019091D801892B3A
:1022B000B1F58091E800877F8093E8000E94071FB6
:1022C0008091D50180930A010E94661828C08091F0
:1022D000D301813221F58091E800877F8093E80067
:1022E0000E94071F8091D6018093C50118C080917C
:1022F000D301813AA1F48091E800877F8093E800C0
:102300008091E80080FFFCCF8091C5018093F100AF
:102310008091E8008E778093E8000E94071F8091EB
:10232000E80083FFEBC18091D3019091D401492F44
:1023300050E04A30510508F0E1C1FA01E756FF4F7D
:102340000C94B52B803821F0823809F0D7C108C031
:102350008091CF019091D001992389F082600FC0C4
:102360008091D7018F70873008F0C8C18093E90051
:102370008091EB0085FB882780F91092E90090910D
:10238000E800977F9093E8008093F1001092F100AD
:102390007CC1282F2D7F09F0B1C1882319F082302C
:1023A00061F0ACC18091D501813009F0A7C19330B3
:1023B00009F080E08093D0012EC08091D501811179
:1023C0002AC08091D7018F702FEF280F263008F098
:1023D00095C18093E9002091EB0020FF1CC0933051
:1023E00021F48091EB00806214C09091EB00906129
:1023F0009093EB0021E030E0A90102C0440F551F8B
:102400008A95E2F74093EA001092EA008091EB008F
:1024100088608093EB001092E9008091E800877F4C
:102420008093E8000E94071F69C1811167C1109164
:10243000D5011F778091E3008078812B8093E300A2
:102440008091E800877F8093E8000E94071F8091B9
:10245000E80080FFFCCF8091E30080688093E30078
:10246000111102C082E001C083E08093D10146C116
:102470008058823008F042C12091D5013091D601B8
:102480002C3D53E0350779F583E08A838AE289831E
:102490004FB7F894DE01139620E03EE051E2E32FBF
:1024A000F0E050935700E49120FF03C0E295EF70F5
:1024B0003F5FEF708E2F90E0EA3010F0C79601C0BA
:1024C000C0968D939D932F5F243149F74FBF809124
:1024D000E800877F8093E8006AE270E0CE01019611
:1024E0000E945B1FC0C08091D7019091D801432FFB
:1024F000552743305105B1F068F44130510509F4D6
:102500000CC14230510509F0F9C082E690E0E4EFD9
:10251000F2E057C04132510589F14232510509F4C8
:102520003CC0ECC0C901992781309105B9F070F029
:1025300082309105D9F0039709F0E0C0E8E6F3E0B6
:10254000E4918E2F90E0E8E6F3E038C0EEEAF3E0A5
:10255000E4918E2F90E0EEEAF3E030C0E6E9F3E09C
:10256000E4918E2F90E0E6E9F3E028C0E6E8F3E09E
:10257000E4918E2F90E0E6E8F3E020C083309105EF
:1025800008F0BCC0880F991FFC01E35CFE4F01906E
:10259000F081E02D89E090E014C08330910508F0CF
:1025A000ADC0FC01EE0FFF1FE95CFE4F0190F08112
:1025B000E02DDC01AC5CBE4F8C9190E0009709F4FB
:1025C0009DC02091E800277F2093E8002091D90149
:1025D0003091DA012817390708F4C90140E0009763
:1025E00089F12091D101222309F43DC02530D9F190
:1025F0002091E80023FD37C02091E80022FD2FC084
:102600002091E80020FFEBCF4091F3002091F200F1
:1026100030E0342B009759F02830310540F44491D4
:102620004093F100319601972F5F3F4FF3CF41E088
:102630002830310509F040E02091E8002E77209302
:10264000E800CDCF4111CDCF0AC08091D1018823C0
:1026500051F0853041F08091E80083FD04C0809105
:10266000E80082FFF2CF8091E8008B778093E8004A
:1026700045C0803809F042C08091E800877F809390
:10268000E8008091D2018093F1008091E8008E777C
:10269000C7CE811133C08091D5019091D601992781
:1026A000029764F58091E800877F8093E80010919D
:1026B000D5011093D2010E94071F111106C080910D
:1026C000E30087FD02C081E001C084E08093D10176
:1026D00042E061EC81E00E94261F42E261EC82E070
:1026E0000E94261F42E260EC83E00E94261F42E225
:1026F00061EC84E00E94261F8091D1018091E80066
:1027000083FF10C08091E800877F8093E80080916C
:10271000EB0080628093EB0005C082E190E0E6E58B
:10272000F3E04FCFAA96E3E00C94422B1F920F9256
:102730000FB60F9211242F933F934F935F936F9394
:102740007F938F939F93AF93BF93CF93DF93EF9339
:10275000FF93C091E900CF708091EC00D82FD17029
:1027600080FDD0E81092E9008091F000877F80938F
:10277000F00078940E94C1101092E9008091F0005E
:1027800088608093F000CD2BCF70C093E900FF915B
:10279000EF91DF91CF91BF91AF919F918F917F91F9
:1027A0006F915F914F913F912F910F900FBE0F90BE
:1027B0001F901895E8EDF0E080818E7F8083109265
:1027C000E2001092DA001092E100A0EEB0E08C91ED
:1027D00081608C9380818F77808319BCA7EDB0E0F6
:1027E0008C918E7F8C9380818F7E80831092C40128
:1027F0000895A0E0B0E0EFEFF3E10C94212BC8EDD9
:10280000D0E088818F7E8883E7EDF0E08081816071
:10281000808384E082BF81E08093C40188818E7FC1
:10282000888302EE10E0F80110821092DA0081EE47
:10283000C82ED12CF601108288818F7788838881F9
:102840008068888388818F7D888319BC1092D1012C
:102850001092D2011092D0011092CF0190EEE92E89
:10286000F12CF70180818B7F808388818160888350
:1028700042E060E080E00E94261FF60180818E7FAA
:102880008083F8018081816080838081886080837B
:10289000F70180818E7F8083888180618883CDB7B6
:1028A000DEB7E8E00C943D2B1F920F920FB60F920B
:1028B00011242F933F934F935F936F937F938F9345
:1028C0009F93AF93BF93EF93FF938091E10082FFBB
:1028D00049C08091E20082FF45C08091E1008B7F7A
:1028E0008093E1002091C3012F5F822F62E30E9459
:1028F000A92B992319F02093C30134C01092C3016E
:102900008091C201882371F18091D101843041F519
:102910008091E9008F702091EC00922F917020FD42
:1029200090E8892B94E09093E9009091EB0090FF60
:1029300014C09091EE0097FF10C09091E80095FFB1
:1029400003C01092F100F9CF9091E80090FF05C00C
:102950009091E8009E779093E8008F708093E90053
:102960001092C2018091DA0080FF32C08091D800BD
:1029700080FF2EC08091DA008E7F8093DA008091F4
:10298000D90080FF1CC080E189BD82E189BD09B406
:1029900000FEFDCF81E08093D10180EE92E00E94A5
:1029A00038038091C401811113C00E94DA130E9480
:1029B000F9138091E20084608093E20009C019BCA1
:1029C0001092D10184EE92E00E9438031092C4016B
:1029D0008091E10080FF1BC08091E20080FF17C062
:1029E0008091E2008E7F8093E2008091E20080611E
:1029F0008093E2008091D80080628093D80019BC57
:102A000085E08093D10188EE92E00E9438038091A6
:102A1000E10084FF34C08091E20084FF30C080E197
:102A200089BD82E189BD09B400FEFDCF8091D80047
:102A30008F7D8093D8008091E1008F7E8093E100AC
:102A40008091E2008F7E8093E2008091E2008160BD
:102A50008093E2008091D201882311F084E007C0C6
:102A60008091E30087FD02C081E001C083E0809394
:102A7000D1018CEE92E00E9438038091D1018091C7
:102A8000E10083FF2BC08091E20083FF27C080918B
:102A9000E100877F8093E10082E08093D101109272
:102AA000D2018091E1008E7F8093E1008091E2006D
:102AB0008E7F8093E2008091E20080618093E2004B
:102AC00042E060E080E00E94261F8091F000886074
:102AD0008093F00080EF92E00E943803FF91EF9125
:102AE000BF91AF919F918F917F916F915F914F9126
:102AF0003F912F910F900FBE0F901F90189520912E
:102B0000E4003091E50095E64091EC00842F81705F
:102B100040FF23C08091E80080FD1DC08091D1015D
:102B2000882399F0853099F08091EB0085FD11C0E4
:102B30004091E4005091E5002417350729F39150A6
:102B400011F09A01E1CF84E0089582E0089583E0D6
:102B5000089581E0089580E008954091E80042FFE3
:102B6000DDCF0895CF92DF92FF920F931F93CF9303
:102B7000DF936C010091A6018091A501082BC3E0B1
:102B8000D0E010E0C8010C2E02C0959587950A94FC
:102B9000E2F780FD04C02197A8F7F12C09C0FC2EB4
:102BA000B6018C2F0E94ED1B0E940A1C019799F31D
:102BB0008F2DDF91CF911F910F91FF90DF90CF90DC
:102BC0000895CF93DF93EC010E94B215BE010E94DD
:102BD000ED1B0E940A1CDF91CF910895292F96309A
:102BE00078F5863068F590E036E0239F800D911DE2
:102BF0001124682F677023E0969587952A95E1F751
:102C0000FC01EE0FFF1FE80FF91FE552FE4F40E0F9
:102C100050E080E0219130E0062E02C036952795E5
:102C20000A94E2F721703327042E01C0220F0A9480
:102C3000EAF7822B4F5F5F4F4330510559F70895F4
:102C400080E00895292F963088F5863078F590E059
:102C500036E0239F800D911D1124282F277051E00D
:102C600001C0550F2A95EAF723E0969587952A9596
:102C7000E1F7FC01EE0FFF1FE80FF91FE552FE4FD1
:102C800020E030E070E04081CB01022E02C096953A
:102C900087950A94E2F7817081958427852384279C
:102CA00081932F5F3F4F2330310569F7089580935B
:102CB000A60108959091A60121E030E0F90101C03C
:102CC000EE0F8A95EAF7D90102C0AA0FBB1F6A95D9
:102CD000E2F7BD016E2B01C0220F4A95EAF7892F5A
:102CE0008623681303C0892F822B03C02095822F6F
:102CF00089230E945716089521E030E001C0220F79
:102D00008A95EAF720958091A60182230E945716A2
:102D1000089521E030E001C0220F8A95EAF7809102
:102D2000A601822B0E94571608958093A50108954D
:102D300092959F70963079F010F4925001C09A509D
:102D4000923068F4803F69F018F4883E40F409C07E
:102D5000843F29F406C0883E20F0813F11F080E0D6
:102D6000089581E00895FC012481222339F08081B7
:102D700091810E94E1150E949816089580E00895BF
:102D8000A4E1B0E0E6ECF6E10C941C2B8C0186E0AB
:102D9000F801DE011F9601900D928A95E1F7D801A6
:102DA00014969C9014971596EC9082EFA82E81E0D3
:102DB000B82E8091F601811122C0992009F452C0E9
:102DC000EE2009F44CC0C8010E94B316F82E8823E7
:102DD00009F445C087E0F801A2EFB1E001900D923F
:102DE0008A95E1F78091F601813031F48091F2010A
:102DF0009091F3010E94E1150E94461E62C1F80104
:102E000070808180C280D38060E082EF91E00E9478
:102E10002224F090F7018091F4019091F501FF20B8
:102E200009F4F2C09601281B390B2D37310508F043
:102E3000A9C09920B9F08091F801382F307F2091F6
:102E4000F301D80111969C911197332371F0291742
:102E500009F468C0C8010E94B31681116CC0C80192
:102E60000E94DA03FF24F3942CC1291314C020918B
:102E7000F2019C9129130FC0E1100DC08F70806189
:102E80008093F80182EF91E00E94DA038091F801CB
:102E9000F801868315C1E1103BC040E0682D872D05
:102EA0000E941C1EE82E882329F080919A0280FD42
:102EB000FCC006C17F86888A8F8598890E94E115AB
:102EC000292F22952F70243020F49F70223028F073
:102ED00009C02A50223088F015C0992351F0811181
:102EE00008C014C0992329F0D80116969C91907FB0
:102EF00069F0805E883030F409C0803F38F0815F2F
:102F0000833020F0C8010E94DA03EF2CFE2CD9C0D8
:102F10008091F80181608093F80180919A0281FD8F
:102F2000CFC0C3C02091F201F8019081291392CF44
:102F3000E11090CF99C0EE2009F491CF2091F801D3
:102F4000822F82958F7090E002978CF08091F20131
:102F50009091F30199878887DB86CA868091F60174
:102F60008C871D862E87CE0108960E94DA0387E0A3
:102F7000F801A2EFB1E001900D928A95E1F70E946D
:102F8000461E70CF8091F801982F907F39F482EF20
:102F900091E00E94DA0387E0D5018FC0992009F4FF
:102FA00061CF2091F301F801918129130CC0209188
:102FB000F2019081291307C0E11005C08683C80182
:102FC0000E94DA036CC0C8010E94B316882309F47A
:102FD00046CFEE2009F443CF2091F801822F82954D
:102FE0008F7090E002971CF28091F2019091F301B2
:102FF0009A838983DC82CB828091F6018D831E8245
:103000002F83CE010196B1CFC81AD90ABDE7CB16DE
:10301000D10408F044C0992009F424CFFE2CEE20FE
:1030200009F41DCF9091F301F8018181981329C013
:103030009091F2018081981324C09091F80190FD45
:1030400017C0892F82958F70282F30E02115310508
:1030500079F096832F30310541F08F5F982F92954C
:10306000907F86818F70892B8683C8010E94DA0346
:1030700087E0F801A2EFB1E001900D928A95E1F7A7
:1030800020C0C8010E94B316811171CF8091F80150
:1030900081608093F801C8010E94DA0312C087E0C2
:1030A000D5011D928A95E9F70CC082EF91E00E944C
:1030B000DA03E2EFF1E087E0DF011D928A95E9F79C
:1030C000F12C8F2D6496EDE00C94382B10925C025D
:1030D00086E0ECEEF1E0DF011D928A95E9F71092AF
:1030E0005B020E94C71D0895882341F0809590914E
:1030F0005B02892380935B020E94C71D0895882389
:1031000039F090915B02892B80935B020E94C71D6E
:103110000895882321F00E945A1D0E94C71D08951A
:10312000882339F090915C02892B80935C020E9485
:10313000C71D0895882309F445C0682F823869F4B3
:103140000E94B92081FF3EC069E38AEE91E00E94AF
:103150009F200E94C71D69E322C0833869F40E9442
:10316000B92080FF2FC063E58AEE91E00E949F2086
:103170000E94C71D63E513C0843869F40E94B9201A
:1031800082FF20C067E48AEE91E00E949F200E94A7
:10319000C71D67E404C08CEF860F813A28F48AEEDD
:1031A00091E00E9492200CC080E2860F883050F49B
:1031B000677081E001C0880F6A95EAF70E945A1D86
:1031C0000E94C71D0895CF93882309F47CC0C82F9F
:1031D0008238B1F40E94B92081FD75C069E38AEE9E
:1031E00091E00E949F200E94C71D2FEF87EE93E081
:1031F000215080409040E1F700C0000069E32FC0FB
:103200008338B1F40E94B92080FD5DC063E58AEE89
:1032100091E00E949F200E94C71D2FEF81EE94E055
:10322000215080409040E1F700C0000063E517C0E6
:103230008438D1F40E94B92082FD45C067E48AEE4B
:1032400091E00E949F200E94C71D2FEF81EE94E025
:10325000215080409040E1F700C0000067E48AEE12
:1032600091E00E94922024C08CEF8C0F813A80F470
:10327000ECEEF1E082EF91E02191C217E1F08E17C0
:103280009F07D1F76C2F8AEE91E00E949F2010C01B
:1032900080E28C0F8830B8F4C77081E090E001C004
:1032A000880FCA95EAF790915C02892B80935C02A3
:1032B0000E94C71D08C06C2F8AEE91E00E949220E8
:1032C0000E94C71DDFCFCF9108951F93CF93DF9347
:1032D000182F893329F4C0919D02D0919E0204C019
:1032E000C0919B02D0919C02812F0E94E3182097ED
:1032F00041F08FE99FE00197F1F700C000002197AE
:10330000F6CF812F0E949A18DF91CF911F910895D7
:103310009091590292FF10C041E0282F247124306F
:1033200009F040E031E0282F2871283009F030E022
:10333000431711F02CE0822793FF10C041E0282FA3
:103340002471243109F040E031E0282F2871283120
:1033500009F030E0431711F02CE0822730915A0237
:1033600030FF10C051E0282F2171213009F050E0CA
:1033700041E0282F2871283009F040E0541711F05F
:1033800029E0822731FF10C041E0282F217121312F
:1033900009F040E031E0282F2871283109F030E0B1
:1033A000431711F029E0822794FD877E0895823823
:1033B000910569F1B0F48133910509F475C048F4C1
:1033C0008932910509F467C08A32910509F471C008
:1033D00008958533910509F459C089339105B9F0F1
:1033E0000895833E910589F138F4803E9105D1F02E
:1033F000823E910529F10895863E9105C9F1873EE7
:103400009105D9F1843E910509F06CC027C0209147
:10341000590220FD57C021FD55C020915A0223FDBD
:103420005BC008958091590280FD48C080915A0286
:1034300080FF48C08091590284FD46C083EE51C090
:103440008091590282FF3CC0F5CF8091590282FDE4
:1034500037C080915A0280FD35C0ECCF80915A026E
:1034600081FF36C08091590284FD2EC087EE39C09D
:103470008091590283FF2AC0F5CF8091590283FDC4
:1034800025C080915A0281FD23C0ECCF8091590262
:1034900085FD22C01FC08091590285FD1BC080910F
:1034A0005A0283FF19C00AC08091590286FD16C0D6
:1034B00017C08091590286FD13C010C089E311C066
:1034C00082EE0FC080EE0DC080E00BC086EE09C01A
:1034D00084EE07C085E305C089E203C08AE201C02B
:1034E00081E390E00895EF92FF921F93CF93DF93D3
:1034F00000D000D0CDB7DEB77B0180E090E00E9425
:103500009C2A882309F463C040910E0150E04115C4
:10351000510511F041E050E060910F0170911001F0
:10352000645B7D4FCE0104960E94CF2B40914802F0
:103530005091490260914A0270914B022FB7F89462
:103540008091AD029091AE02A091AF02B091B00215
:103550002FBF841B950BA60BB70B84369105A105D5
:10356000B10538F48DE492E00E94AA109C8189177D
:1035700081F181E090E00E949C2A182F882391F02D
:103580004091160150E04430510510F043E050E006
:103590006091170170911801645B7D4FCE01019617
:1035A0000E94CF2B8DE492E00E94AA1091E02C8122
:1035B000281390E0192311F10E94512060934802D2
:1035C0007093490280934A0290934B020CC010E022
:1035D00001C011E080914D0290914E02A0914F02E6
:1035E00089839A83AB83112349F089819A81AB81C6
:1035F0008093450290934602A09347028091450232
:1036000090914602A0914702F70180839183A283A3
:10361000812F0F900F900F900F90DF91CF911F91FE
:10362000FF90EF900895A0E0B0E0E9E1FBE10C9499
:103630001F2B7C015B016A01809158028A3018F0CF
:1036400001E010E002C00AE010E0C1E0D0E0B50106
:10365000C701F6010995811115C021960C171D07A8
:1036600094F0CC9F9001CD9F300D300D112480E05F
:1036700090E045E34A95F1F7000001968217930721
:10368000C1F7E5CF81E0CDB7DEB7EAE00C943B2B84
:1036900080914402811118C08091D800806180938C
:1036A000D8008AE18A95F1F700C08091D90080FDA9
:1036B00002C082E001C081E080934402823021F4A4
:1036C0000E94DA131092D10181E09091440291306E
:1036D00009F080E0089584988C988FE891E0019734
:1036E000F1F700C000008FB18295817080930101D5
:1036F0000E94481B81110E94B12908950F931F93C6
:103700000E94481B882319F00E9451200EC00E947D
:10371000512000915101109152012091530130919B
:103720005401600F711F821F931F1F910F91089505
:10373000A4E0B0E0EEE9FBE10C94272B40915402A9
:103740005091550260915602709157022FB7F8942C
:103750008091AD029091AE02A091AF02B091B00203
:103760002FBF841B950BA60BB70B84369105A105C3
:10377000B10570F10E947E1BDC01CB010296A11DF8
:10378000B11D89839A83AB83BC8380911C01909186
:103790001D01845B9D4F40911B0150E04530510558
:1037A00010F044E050E0BE016F5F7F4F0E94CF2BCE
:1037B00082E090E00E949C2A882359F00E945120C8
:1037C000609354027093550280935602909357026F
:1037D00081E02496E2E00C94432B2091C0013091CB
:1037E000C101232BA1F4703F39F4603F81F4809133
:1037F0000603909107030895763048F4663038F454
:10380000843028F4462F672F0E946A21089580E0B3
:1038100090E008951F93CF93DF930E94D719EC0196
:10382000C11582E5D807C8F5C11590E5D90708F09C
:10383000BBC0C83ED105C0F4C03ED10508F0DDC014
:10384000C53AD10550F4C430D10508F0D6C021974F
:1038500009F0D0C081E090E0D1C0CD3CD10508F4A2
:10386000C9C0CE019065CAC0C11580E4D80708F070
:103870005AC0C11590E2D90708F0AFC0C11581E068
:10388000D80708F4B7C08D2F0E948819182FCE01D1
:1038900099270E94D7191F71ABC0C03892E5D9078C
:1038A00020F5C03682E5D80708F061C0C03492E543
:1038B000D90708F04AC0C03282E5D807F0F54C2F8E
:1038C0004695469590E2499FA0011124C37021E0DE
:1038D00030E0C90102C0880F991FCA95E2F7EA01DA
:1038E000C82BD92BCE019D6889C0C03C92E5D90771
:1038F00068F48C2F8F71C03AD24508F04CC090E02C
:10390000D82FCC27CE01846F906A78C0C03E82E564
:10391000D80708F06FC0CF71DD27DC2FCC27CE0190
:10392000806F906A6BC0CE0199270E94D719CC276F
:10393000DF70D06A8C2B9D2B61C0CF71D0E0DC2F63
:10394000CC27CE01816F906A59C08C2F8F718695DC
:10395000869590E2899F90011124C37081E090E0E8
:1039600002C0880F991FCA95E2F79C6811C08C2F7E
:103970008F718695869590E2899F90011124C3707E
:1039800081E090E002C0880F991FCA95E2F79A681B
:10399000822B932B33C00E9488198F7190E0D82F0F
:1039A000CC27CE0190622AC08C2F8F710E9488197B
:1039B00095E0D695C7959A95E1F7CF70D0E0DC2FCA
:1039C000CC27282F30E084FF05C084E0220F331F6E
:1039D0008A95E1F7D069CE01DBCF8D2F8F710E94E0
:1039E0008819182FCE0199270E94D7191F7190624C
:1039F000912B04C080E090E001C0CE01DF91CF9117
:103A00001F910895A6E0B0E0E8E0FDE10C94252BBD
:103A10000E945D208C018091420290914302081720
:103A2000190781F019821A820E945D20682F49814E
:103A30005A81792F80E090E00E942D241093430258
:103A4000009342022696E4E00C94412B80914102BF
:103A5000882331F0109241021092400210923F02EE
:103A60000895CF9390915A0292FF0DC09091410218
:103A7000981749F0C82F0E945D20909340028093D0
:103A80003F02C0934102CF91089590914102292FA6
:103A9000282379F08095892380934102882319F0A7
:103AA0000E945D2002C080E090E0909340028093ED
:103AB0003F020895809590915C02892380935C0277
:103AC0000895109236021092350210923402089531
:103AD000909136028095892380933602282F277093
:103AE00069F4981759F090915A0292FF07C0869591
:103AF000869586950E947C160E94611D089590917E
:103B00005A0292FB222720F9281779F080FB92F9BC
:103B100090935A026091590270915A0284E090E0A9
:103B20000E94932B82E00E94681D089590915A0292
:103B300092FF10C098E0899F90011124262B2093BA
:103B400036020E9489160E945D2090933502809370
:103B5000340208950E948916089580917F02909101
:103B60008002892B89F00E945D2020913F023091D4
:103B70004002AC01421B530B81E020917F02309147
:103B800080024217530708F480E0817008959091F5
:103B90005C0280915B02892B8093EA018091410253
:103BA000882301F180917F0290918002892B29F076
:103BB0000E94AD1D81110E94261D9091EA01809105
:103BC0004102892B8093EA01ECEEF1E097E080E07E
:103BD000915029F021912223D9F38F5FF9CF8111E0
:103BE0000E94261D48E050E067E372E08AEE91E013
:103BF0000E94C22B892BA9F088E0EAEEF1E0A7E34E
:103C0000B2E001900D928A95E1F7E091AA02F0915D
:103C1000AB02309731F00280F381E02D8AEE91E023
:103C20000995089590913302292F282321F080953A
:103C30009823909333020895209132029091F901D4
:103C400057E02917A9F030E0529FF001539FF00D83
:103C50001124E650FE4F7181761306C070817813EF
:103C600003C07581741306C02F5F3F4F2770E9CFE3
:103C700080E0089581E00895809132029091F901E9
:103C8000891719F08F5F8770FBCF0895CF93DF936B
:103C90008091F80182958F7009F04EC08091F701F4
:103CA000882309F449C0809132024091F901509172
:103CB000F3016091F201C091F401D091F50177E038
:103CC0008417D1F190E0789FF001799FF00D1124D5
:103CD000DF01A650BE4F14962C911497222349F170
:103CE00011962C911197251324C02C91261321C0D5
:103CF00015962C91159721111CC012962D913C916F
:103D000013972C1B3D0B2D37310598F48091F8014A
:103D10008F7080618093F801E050FE4F80818F703A
:103D20008061808382EF91E00E94DA030E943C1E52
:103D300003C001968770C4CFDF91CF910895089595
:103D400008958091C60108959FB7F8941092C2011A
:103D50009FBF9091D101943009F057C09091E90034
:103D60009F703091EC00232F217030FD20E8922BC2
:103D700024E02093E9002091EB0020FF43C0209134
:103D8000EE0027FF3FC02091B102222321F02091B5
:103D9000E80025FF37C01092B10226E03091E8001C
:103DA00035FD15C03091D101343061F53091EB0013
:103DB00035FD28C0215021F481E08093B10222C05A
:103DC000EFE9FFE03197F1F700C00000E7CF809303
:103DD000F1008091E80085FD0AC08091E80080FF35
:103DE000FCCF8091E8008E778093E80006C08FB703
:103DF000F89421E02093C2018FBF9F709093E90057
:103E000080E008959F709093E9008FEF089580916E
:103E1000D30187FF11C08091E80082FD05C0809129
:103E2000D1018111F8CF11C08091E8008B770BC0D0
:103E30008091D101882349F08091E80080FFF8CF7C
:103E40008091E8008E778093E8000895982F97304E
:103E500068F59093E900981739F07091EC00209183
:103E6000ED005091F00003C0242F762F50E021FD8B
:103E700002C09F5FECCF3091EB003E7F3093EB00B0
:103E80003091ED003D7F3093ED003091EB003160DB
:103E90003093EB007093EC002093ED005093F00012
:103EA0002091EE0027FDE5CF80E008958F7080938C
:103EB000E90081E008952091D9013091DA012617B7
:103EC000370748F06115710539F42091E8002E7725
:103ED0002093E80001C0B901FC0120E061157105E3
:103EE00079F18091D1018823F1F18530F1F1809150
:103EF000E80083FD3CC08091E80082FD2EC08091E7
:103F0000E80080FFEBCF2091F3008091F20090E079
:103F1000922B6115710551F08830910538F421918B
:103F20002093F100615071090196F3CF21E00897C9
:103F300009F020E08091E8008E778093E800CECFF2
:103F40002111CFCF0AC08091D101882361F0853043
:103F500061F08091E80083FD0AC08091E80082FF53
:103F6000F2CF80E0089582E0089583E0089581E033
:103F700008950F931F93CF93DF938B01EA019091E4
:103F8000D101943079F58F708093E9008FEF909193
:103F9000E800815095FD06C095ED9A95F1F7000077
:103FA0008111F5CF8091E80085FF1CC00E947F152C
:103FB000882361F08091E8008E778093E80012C03A
:103FC000F80181918F018093F1002197209791F35F
:103FD0008091E80085FDF4CF8091E8008E77809392
:103FE000E800E4CFDF91CF911F910F910895CF9317
:103FF000DF93EC0148E050E0BC0181E00E94B91F72
:1040000088E0FE01A7ECB1E001900D928A95E1F7FE
:10401000DF91CF91089587E797E790930108809308
:1040200000089AE088E10FB6F894A89580936000A4
:104030000FBE90936000FFCF78941F920F920FB63F
:104040000F9211248F939F93AF93BF938091AD02F2
:104050009091AE02A091AF02B091B0020196A11D65
:10406000B11D8093AD029093AE02A093AF02B093C6
:10407000B002BF91AF919F918F910F900FBE0F90A3
:104080001F9018959C014FB7F8948091AD029091C4
:10409000AE02A091AF02B091B0024FBF821B930B52
:1040A00008952FB7F8946091AD027091AE0280919F
:1040B000AF029091B0022FBF08952FB7F89480916E
:1040C000AD029091AE02A091AF02B091B0022FBFAD
:1040D00008951F920F920FB60F9211248F939F9302
:1040E000AF93BF938091AC02811113C08091AD0258
:1040F0009091AE02A091AF02B091B0024196A11D85
:10410000B11D8093AD029093AE02A093AF02B09325
:10411000B002BF91AF919F918F910F900FBE0F9002
:104120001F9018959C012A5F3F4FFC014281461366
:1041300001C01282019682179307B9F708959C0176
:10414000FC0132969FEF80E04191461789F09F3F36
:1041500019F4411101C0982F8F5F8630A9F79F3F56
:1041600039F0F901E90FF11D97FDFA956283089581
:1041700008950E94481B882359F0E091AA02F0910B
:10418000AB02309729F00190F081E02D0995089558
:1041900080E008950F931F93CF93DF93C42FD22F06
:1041A000FC0185818823B1F04093A9020E945D2023
:1041B0009093A8028093A70280E28C0F883008F0C9
:1041C0004DC0C77081E001C0880FCA95EAF70E9410
:1041D000901844C08091A902481330C08091A70272
:1041E0009091A8020E9442208D37910538F510E287
:1041F0001D0FCD17B9F080E28C0F883040F4C770E6
:1042000081E001C0880FCA95EAF70E94891818302A
:1042100010F581E09D2F977001C0880F9A95EAF7FD
:104220000E949018802F0E9465191830B8F4D7703A
:1042300081E001C0880FDA95EAF70AC080E28C0FAE
:10424000883060F4C77081E001C0880FCA95EAF732
:104250000E94891803C0802F0E946519DF91CF91B9
:104260001F910F910895CF93DF93CDE6D1E060E0E9
:10427000CE010E94752B2196C11584E0D807B9F7AD
:10428000DF91CF9108951F93CF93DF93962F8430C2
:10429000E8F46630D8F44630C8F4632F122FC42FE8
:1042A000D0E0CC0FDD1F2CE0929FC00DD11D11245A
:1042B00098E4899FC00DD11D1124CE0189960E94DA
:1042C000752B612FCE018A960E94752BDF91CF91BD
:1042D0001F9108950F931F93CF93DF93843008F5B8
:1042E0006630F8F44630E8F4C42FD0E0CC0FDD1F80
:1042F0002CE0629FC00DD11D112438E4839FC00DB6
:10430000D11D1124CE0189960E94572B90E0182FC1
:104310000027CE018A960E94572B9801282BC901AD
:1043200002C080E090E0DF91CF911F910F9108953E
:1043300080912501877F8093250190915B029D7F6D
:1043400090935B0284FF08C08F7E8093250180914B
:104350005C02826080935C028091250185FF08C029
:104360008F7D8093250180915C02806280935C0246
:104370000E94C71D0895662329F020915B022260E8
:1043800020935B029C0130522115304308F4992799
:104390000E9420250895009741F0EFE9FFE0319752
:1043A000F1F700C000000197F6CF0895A0E0B0E05B
:1043B000ECEDF1E20C941F2B5C017B01C42E890112
:1043C0008091250182FF88C0C091A302D091A402F0
:1043D000CA15DB0521F0A114B10409F07DC080915C
:1043E00025018B7F8093250181FD11C08091A10261
:1043F0009091A202A701481B590B81E02091230153
:10440000309124014217530718F480E001C081E085
:104410008170D82E80912501D0FA81F980932501F1
:10442000FE01FF2784E0F695E7958A95E1F79E0166
:104430002F703327EE0FFF1FE35AFD4F81E090E00E
:1044400002C0880F991F2A95E2F7DD2029F020810C
:104450003181822B932B06C08095909520813181EC
:10446000822393239183808380915C0281FF08C023
:104470008091250180618093250182E00E945A1D70
:1044800080915C0285FF08C0809125018062809345
:10449000250180E20E945A1DA8016D2DCE010E94C7
:1044A000BB21CC2031F08091980285FF02C086FFAD
:1044B0002BC080919B0290919C020E94CB21809105
:1044C000A3029091A4029C0130522115304308F4BC
:1044D00099270E94062512C0C5019052811590436C
:1044E00018F4C501992701C0C5010E9406258091D5
:1044F000A3029091A402A816B90611F40E94982173
:10450000F092A202E092A102CDB7DEB7EAE00C94ED
:104510003B2BA0E0B0E0EFE8F2E20C941E2BEC01A4
:10452000A62E8AE0982E2881222309F4A5C02130E6
:1045300009F041C08981813039F48E010E5F1F4F2F
:104540008A810E94651908C0823041F48E010E5F95
:104550001F4F8A810E94E318E80181C0833039F43B
:104560008E010E5F1F4F8A810E949A18F5CF84300A
:1045700011F0219674C02A81229680E090E030E00C
:10458000205331092A30310558F4989EA001999E94
:10459000500D1124C901840F951F21962881EFCF5A
:1045A000009709F45CC0EFE9FFE03197F1F700C034
:1045B00000000197F5CFE22FF0E0EE51FC4FB490F0
:1045C000822F86958695869590E0FC01EE52FC4FF1
:1045D000E4902770F12C022E02C0F594E7940A941F
:1045E000E2F7F1E0EF22FF24FC01EE53FC4FC49010
:1045F000D12C022E02C0D594C7940A94E2F731E080
:10460000C322DD24FC01EE54FC4F049110E002C0F3
:10461000159507952A95E2F701701127E114F10429
:1046200019F081EE0E94E318C114D10419F086EE4E
:104630000E94E3188B2D0E946519C114D10419F052
:1046400086EE0E949A18E114F10419F081EE0E949E
:104650009A180115110519F08CE20E94651921962E
:104660008A2D882309F45FCFEFE9FFE03197F1F756
:1046700000C000008150F5CFCDB7DEB7EBE00C9461
:104680003A2BEDE7F2E0128E138E8FEA90E09183E1
:10469000808385E0848F28E833E13383228322E31B
:1046A00030E0378B268B2DE730E0318F208F158E51
:1046B00025E030E0378F268F20E530E031A320A3BE
:1046C00082A30E948C280E94661810925A021092AF
:1046D0005902EAE5F2E080818460808360915902AA
:1046E00070915A0284E090E00E94932B0E9465280A
:1046F0000895A0E0B0E0EFE7F3E20C941D2BC0902A
:10470000A502D090A60281E090E09093A60280934B
:10471000A502812CE12CF12C912C00E010E0C0E0EE
:10472000D0E05701A00EB11EFE01EE0FFF1FEA0DF3
:10473000FB1DEE59FB4F259134914C2F692D882D8F
:104740000E9443212196C630D10571F7045F1F4FA7
:10475000939486E09812E3CF88E4E80EF11C8394EA
:1047600084E08812D9CF0E944123D092A602C09241
:10477000A502CDB7DEB7ECE00C94392B9C013A953D
:1047800021153F4130F5BC0166277270AC0144270A
:1047900054709C012227387094FF0FC090FF02C014
:1047A00080E101C080E0672B09F08062452B09F0B1
:1047B0008064232B79F080680895892F8170672B9E
:1047C00009F08260452B09F08460232B19F0886082
:1047D000089580E008958295982F937344E0949F04
:1047E000900111248C7C86958695282B822F8575C7
:1047F000880F2A7A2695822B0895A6E0B0E0E3E0A0
:10480000F4E20C94262B49835A8349815A819923D7
:1048100061F0222351F0CA010E94B215182F682FAF
:1048200089819A810E94221604C0CA010E94EE1555
:10483000182F69817A81812F0E94ED1B2696E3E073
:104840000C94422BFC01262F40815181628173819F
:10485000848195810E94FD230895ABE1B0E0E3E3FC
:10486000F4E20C94252B4E8B5F8B688F798F8A8FA7
:104870009B8F882349F080914F01909150010196C0
:104880009093500180934F018B8D811110925B02A8
:104890008E01015F1F4F87E0D8011D928A95E9F7CD
:1048A00086E0FE017696D80101900D928A95E1F797
:1048B00080915A0282FF28C080917F0290918002ED
:1048C000892B11F10E945D20209134023091350234
:1048D000821B930B20917F023091800282179307F5
:1048E00040F08091360282FB992790F981E0892778
:1048F00001C080E080FF03C082E00E94681D0E942A
:10490000AD1D81110E94261D8B89882321F061E055
:10491000C8010E94222487E0FE013F96DE0118961E
:1049200001900D928A95E1F7CE0108960E94C0167B
:1049300081112CC087E0FE013896DE0111960190AE
:104940000D928A95E1F76C85662301F12091F901BA
:1049500030E0C9010196877099274091320250E0FA
:104960008417950761F16D8397E0929FD001939F23
:10497000B00D1124A650BE4FFE01319601900D924C
:104980009A95E1F78093F9010E943C1E17E080910F
:1049900032029091F9018917F9F0189FC001112492
:1049A00086509E4F0E94C0168823B1F0809132023B
:1049B00090E001968770992780933202E8CF0E9499
:1049C00066181092F90110923202E2EFF1E087E0EE
:1049D000DF011D928A95E9F76B96E4E00C94412B78
:1049E0000E9466182FEF84E39CE0215080409040A5
:1049F000E1F700C000009AE088E10FB6F894A895AE
:104A0000809360000FBE90936000FFCFCF93DF9341
:104A1000EC010E949A18CE01805E9109089710F06F
:104A2000209731F4CE010E94BE230E94891805C050
:104A3000CE010E94BE230E947418DF91CF91089589
:104A4000CF93DF93EC01805E9109089710F02097D7
:104A500031F4CE010E94BE230E94901805C0CE0101
:104A60000E94BE230E947F188C2F0E94E318DF91C2
:104A7000CF910895AAE0B0E0E0E4F5E20C94172BA2
:104A800055E5452E51E0552E62EBE62E62E0F62EFE
:104A900065E471E0470110E020E030E066246394B3
:104AA000712C00E81301022E02C0220C331C0A9460
:104AB000E2F72E82922D90959F83EDE9F1E05A86E0
:104AC0004986AEE2B1E0BD83AC8380E090E0219AFC
:104AD000DB014C9140FF02C02E9A01C02E9841FF8D
:104AE00002C02A9A01C02A9842FF02C02B9A01C034
:104AF0002B984EE2C42E41E0D42EB1E3CB16B1E0A8
:104B0000DB06E1F0D601BD906D014B2D42954F7053
:104B100050E0DA019296BC91B887AB2DAF70BA2EF7
:104B2000D30102C0AA0FBB1FBA94E2F75D01A094A3
:104B3000B885AB22DA019296AC92DFCF2198299802
:104B4000AC81BD81DD90BD83AC834D2D42954F700E
:104B500050E0DA019296BC90BD2DBF70DB2ED301E0
:104B600002C0AA0FBB1FDA94E2F76D01CB28DA016D
:104B70009296CC92B6E8B0937A0000937B00409175
:104B80000001466040937C0040917A00406440936D
:104B90007A0040917A0046FDFCCF40917800D09099
:104BA000790050E05D29D0907A00AD2DAF77A093C9
:104BB0007A006401C80ED91ED6014D935C93B08073
:104BC000CB2CD12CC220D320A985BA85CD2841F089
:104BD000CD90DC904C155D0578F4BF81BB2209C0F7
:104BE0009496CD90DC909597C416D50628F4BE8196
:104BF000BB2AB08241E001C040E0142B31960C96F4
:104C000049855A85445F5F4F5A87498784329105A9
:104C100009F05DCF2F5F3F4F52E0450E511C82E0FF
:104C2000880E911C6F5F7F4F2630310509F03ACF17
:104C30008091FA029091FB029C012F5F3F4F8C32D2
:104C4000914029F03093FB022093FA0239C0109270
:104C5000FB021092FA0286ED882E82E0982E94E8EC
:104C6000C92E95E0D92E22E8A22E25E0B22E8E1470
:104C70009F0411F1612C712CF701E60DF71D818164
:104C80008F9380818F93DF92CF920E94D10322E095
:104C9000620E711C0F900F900F900F903CE0631606
:104CA000710451F7BF92AF920E94D1034CE0E40E21
:104CB000F11C0F900F90DBCF88E895E00E9438033D
:104CC000E090A401112349F081E08093FE020E944C
:104CD0005D209093FD028093FC028091FE02882368
:104CE00009F18091FC029091FD020E9442200597FB
:104CF000C8F08E2D90E0DC01A654BE4F7D0143E04C
:104D000050E06DE971E0CD010E94C22B892B41F08A
:104D100083E0EDE9F1E0D70101900D928A95E1F78A
:104D20001092FE020E94481BE091A401882309F41E
:104D300057C019821A821B82F0E09F0126543E4F11
:104D40007901809158028A3058F443E75AE1BE0154
:104D50006F5F7F4FC7010E94131B8823A9F00AC011
:104D60008091FF02909100030E944220843F914075
:104D700060F71CC048E95BE1BE016F5F7F4FC70170
:104D80000E94131B81116CC0809158028F3F19F053
:104D90008F5F80935802809158028A3008F462C075
:104DA0000E945D20909300038093FF028091050391
:104DB000882309F469C0FE01319683E0DF011D926A
:104DC0008A95E9F710920503E091A301F0E0E6541B
:104DD000FE4F89819A81AB8180839183A28354C0E5
:104DE000F0E0E654FE4F83E0ADE4B2E001900D92B6
:104DF0008A95E1F78DE492E00E94AA1080934C021C
:104E0000C0905002D0905102E0905202F0905302B4
:104E10008091010390910203A0910303B0910403D8
:104E2000C816D906EA06FB0679F1C0920103D092B2
:104E30000203E0920303F09204030E94481B8111D5
:104E400023C00E945120C61AD70AE80AF90AC09264
:104E50005101D0925201E0925301F092540114C0DA
:104E6000109258028091A30190E043E050E0BE010F
:104E70006F5F7F4F86549E4F0E94C22B21E020938C
:104E80000503892B09F0A0CF812F2A96E2E10C942B
:104E9000332BA0E0B0E0EFE4F7E20C941F2B44309A
:104EA000510508F46CC04091590241FBCC24C0F874
:104EB000D12CCC0CDD1C42FB882780F9C82FE0E008
:104EC000DE2FCC0FDD1FCC0FDD1FCC2ADD2A40FBEF
:104ED000EE24E0F8F12CEC28FD2843FBAA27A0F9EA
:104EE000B0E023E0AA0FBB1F2A95E1F7EA2AFB2ACC
:104EF00044FBEE27E0F9F0E034E0EE0FFF1F3A95B7
:104F0000E1F7EE29FF2945FB222720F930E055E0A3
:104F1000220F331F5A95E1F72E2B3F2B46FB882794
:104F200080F990E0E6E0880F991FEA95E1F7822B7F
:104F3000932B47FB442740F950E05695542F4427C4
:104F400057954795842B952B20915A02322F31701B
:104F5000132F00E0082B192B26952170B22EBB0CC5
:104F6000A12C0A291B29012E000C220B330BFB015B
:104F7000008311832283338380E090E002C08FEFAF
:104F80009FEFCDB7DEB7EAE00C943B2B80917D021A
:104F900090917E0290932401809323010895CF92F3
:104FA000DF92EF92FF924430510508F471C0FB018B
:104FB000C080D180E280F3800E94661880915902FF
:104FC000C0FA80F9B701A601769567955795479580
:104FD00040FB81F9B701A60122E0769567955795C8
:104FE00047952A95D1F740FB82F9B701A60133E036
:104FF00076956795579547953A95D1F740FB83F994
:10500000B701A601E4E07695679557954795EA952F
:10501000D1F740FB84F9B701A601F5E076956795D5
:1050200057954795FA95D1F740FB85F9B701A60149
:10503000A6E07695679557954795AA95D1F740FBD9
:1050400086F9B701A601B7E076956795579547951C
:10505000BA95D1F740FB87F98093590280915A02A3
:10506000D0FA80F999E0F694E794D794C7949A958A
:10507000D1F7C0FA81F980935A0260915902709178
:105080005A0284E090E00E94932B80E090E002C0FE
:105090008FEF9FEFFF90EF90DF90CF9008959C01EE
:1050A000CA01F9013296459154918417950750F041
:1050B000CB01F9013496659174910E94CF2B80E069
:1050C00090E008958FEF9FEF08950F931F93CF9374
:1050D000DF930DE712E0C9E4D1E0CE010E94572B27
:1050E000F80181938F012196CD36F1E0DF07A9F712
:1050F000C0E0D0E0FE01EC56FA4F85919491009704
:1051000011F0FC0109952C96C039D10599F7DF9172
:10511000CF911F910F9108950F931F93CF93DF931A
:105120000DE712E0C9E4D1E0CE010E94572BF8014F
:1051300061918F01681719F0CE010E94752B21969D
:10514000CD36F1E0DF0781F7DF91CF911F910F910D
:105150000895DA019C012E5F3F4FF901459154916A
:10516000F90125913491A217B30758F0FC01349648
:10517000859194910E94CF2B0E948C2880E090E032
:1051800008958FEF9FEF0895A6E0B0E0EAECF8E213
:105190000C94272B9093070380930603811520E23C
:1051A000920718F40E94062510C080EF89838A8335
:1051B0000E945D208160682F9C838B8349815A8186
:1051C0007C8181E090E00E942D242696E2E00C9400
:1051D000432BA6E0B0E0EFEEF8E20C94272B90937F
:1051E000070380930603811520E2920718F40E94BA
:1051F000202510C080EF89838A830E945D20816012
:10520000682F9C838B8349815A817C8181E091E066
:105210000E942D242696E2E00C94432B88E290E035
:105220000E94752B0895CF93C82F811102C06FEF94
:1052300001C061EC85E290E00E94752BC11102C0B3
:105240006FEF01C061E186E290E00E94752BC11111
:1052500002C06FEF01C06FE987E290E00E94752BFA
:10526000CF91089580E00E94132960E070E0CB01A7
:105270000E940E290E9479230E94332181E00E941E
:105280001329089585E290E00E94572B813C81F418
:1052900086E290E00E94572B813151F487E290E042
:1052A0000E94572B91E08F3909F090E0892F01C0BF
:1052B00080E0817008958EE14A9B02C08150E1F741
:1052C0004A9BFECF08955A9880E28A95F1F75A9A40
:1052D0000895FC012AE02A95F1F728E090E080E0AB
:1052E00031E040E14A95F1F7880F4A9B02C08160A6
:1052F000932700C0000040E14A95F1F7215089F75B
:1053000020E12A95F1F729B100C0000030E13A957B
:10531000F1F722FB222720F992272081920F908318
:105320000895A1E0B0E0E7E9F9E20C94232B19829B
:105330008C017C01E60EF11C0E151F0551F00E9438
:105340005B29CE0101960E946929F80181938F01A2
:10535000F3CF81E09981911180E02196E6E00C94F1
:105360003F2B529A5A9A089552985A9AEA9AE9E625
:10537000F0E080818F7C80830895615091E001C0CE
:10538000990F6A95EAF720E031E0992361F0492FFF
:10539000482319F05A9A232701C05A9840E24A95A7
:1053A000F1F79695F2CF222311F05A9A01C05A983C
:1053B00080E28A95F1F75A980895FF920F931F9310
:1053C000CF93DF93EC018C01060F111DC017D1079D
:1053D00041F0F9900E94632968E08F2D0E94BD2959
:1053E000F5CFCDB7DEB7E5E00C94402B1F920F92BE
:1053F0000FB60F9211240F931F932F933F934F9348
:105400005F936F937F938F939F93AF93BF93EF932C
:10541000FF93CF93DF931F92CDB7DEB719820E941F
:105420005B29CE0101960E946929082F06950695F1
:105430000695902F96959570202F2570920F292F05
:10544000237096959695920F877089135FC0898116
:1054500081115CC0043008F059C080E18A95F1F7F1
:105460005A9A529A82E08A95F1F700C05A9888E0D9
:10547000089F80011124D801A55FBE4F1696ED91BB
:10548000FC9117973097A9F0609143017091440106
:1054900014962D913C911597260F371F11968D91DB
:1054A0009C911297680F791F13964C9113978C91CA
:1054B0000995F801E55FFE4F6381662351F0809105
:1054C00043019091440124813581820F931F0E94F2
:1054D000DD290E94632980E18A95F1F75A98529854
:1054E0005A9A80E18A95F1F7F801E55FFE4F6081F5
:1054F000662351F0809143019091440121813281D2
:10550000820F931F0E9491290E945B290F90DF91C7
:10551000CF91FF91EF91BF91AF919F918F917F912B
:105520006F915F914F913F912F911F910F910F902C
:105530000FBE0F901F9018950F931F93CF93DF937B
:10554000843091050CF06DC0EC01F894529A5A9891
:1055500085E08A95F1F700009C2F969595702C2F89
:105560002570920F892F83709695969523E0CC0F26
:10557000DD1F2A95E1F7980F8E01092B0E94632900
:1055800084E08A95F1F700C068E0802F0E94BD2971
:1055900080E18A95F1F752985A9A4A9902C000C060
:1055A000FCCF87E090E04A9B08C0019721F4529A13
:1055B0005A9A789436C000C0F6CFFE01E55FFE4FE0
:1055C0006381662381F0809143019091440124819D
:1055D0003581820F931F0E949129811104C0529A34
:1055E0005A9A78941FC00E945B2980E28A95F1F74D
:1055F0005A98529A80E18A95F1F7C55FDE4F68812B
:10560000662351F0809143019091440129813A81B0
:10561000820F931F0E94DD290E946329789481E004
:1056200001C080E0DF91CF911F910F9108952F92DB
:105630003F924F925F926F927F928F929F92AF9222
:10564000BF92CF92DF92EF92FF920F931F93CF936F
:10565000DF93CDB7DEB7CA1BDB0B0FB6F894DEBF06
:105660000FBECDBF09942A88398848885F846E842C
:105670007D848C849B84AA84B984C884DF80EE8076
:10568000FD800C811B81AA81B981CE0FD11D0FB67F
:10569000F894DEBF0FBECDBFED010895FB01DC0124
:1056A00002C005900D9241505040D8F70895F999E5
:1056B000FECF92BD81BDF89A992780B50895A8E1E3
:1056C000B0E042E050E00C949B2BDC01A40FB51F2E
:1056D0004150504048F0CB01840F951F2E910E94FD
:1056E000762B41505040D0F70895262FF999FECFE0
:1056F00092BD81BDF89A019700B4021639F01FBA25
:1057000020BD0FB6F894FA9AF99A0FBE0895039641
:10571000272F0E94762B0E94752B252F0E94762B17
:10572000242F0C94762B0196272F0E94762B0C9415
:10573000752BDC01CB01FC01F999FECF06C0F2BD4F
:10574000E1BDF89A319600B40D9241505040B8F73F
:105750000895991B79E004C0991F961708F0961BCD
:10576000881F7A95C9F780950895EE0FFF1F059061
:10577000F491E02D099469279627692778278727D0
:1057800078270895FB01DC0104C08D9101908019F8
:1057900021F441505040C8F7881B990B0895FB0134
:1057A000DC0102C001900D9241505040D8F708959D
:1057B000DC0101C06D9341505040E0F70895F8942A
:0257C000FFCF19
:1057C2004001A11EF71F9F1EA01E01000000010044
:1057D20000000000000003010000000404000000BB
:1057E200000000AF0001FA3490B955D16A649466A2
:1057F200973632334422229C027A02580206031F51
:0C580200033F034C0201000305070200F5
:00000001FF
