:100000000C940D030C942A030C942A030C94072BD4
:100010000C942A030C942A030C942A030C942A03AC
:100020000C942A030C942A030C94D6140C941814E0
:100030000C94EB200C942A030C942A030C942A03AE
:100040000C942A030C942A030C942A030C942A037C
:100050000C942A030C949E200C942A030C942A03DB
:100060000C942A030C942A030C942A030C942A035C
:100070000C942A030C942A030C942A030C942A034C
:100080000C942A030C942A030C942A030C942A033C
:100090000C942A030C942A030C942A030C942A032C
:1000A0000C942A030C942A030C942A035A06CE06B5
:1000B00062062C06300666063306690674063E069E
:1000C000C4064206780646067C06A6064A06800650
:1000D000B00650068606900637066D063A0670068C
:1000E00055068B069C06BC06BE0628065E06D7068D
:1000F000FD060307F106F70609070F071507240891
:10010000240857085708350A350A350A350A0209FE
:10011000750987098709DA0FF70FFD0F041104111C
:1001200034104610591070107510A110C510F4103D
:10013000F71024124B1200144B1200149712BA122B
:100140000014BB13CB130A0025303862003A20009C
:1001500025303258000A722F632030313233343563
:1001600036370A00FD377A585A000004E6D6B446FE
:100170000200210116000000742FE5A3E0017500C4
:10018000B35D003D8889C65436C3174FE4F609DCD9
:100190009AD3C2AF4A42FAFF9B912032319266DA7B
:1001A000F168CA19D564E5CD43114E397475C06044
:1001B000C1B59A23323CCAB00FD2B89BB3EF7F8649
:1001C000FAE7427C220478D86C56308214D8A1CA4F
:1001D000A8EB7D6E605A96CEE0B8FAA262FFBBB57E
:1001E0004306F962BC5354099F2F56772BB9B66961
:1001F000DC6008DC86A52FD1A096019398B1356804
:100200000A5492C3327828B97E61A2B0F091DF041B
:10021000916F65C382F06449E83644FA0A198DDBB0
:10022000286A8FDAC130FB436A75A66EF542DB554A
:1002300062BD48CAB10000009AF89278D65F1C22CD
:100240000001CF01F602000019CC02BEB1C467FB69
:10025000020000000004595A0631FF0974A1010987
:1002600075150026FF009520750881020976150096
:1002700026FF00952075089102C00660FF0961A164
:10028000010962150026FF009520750881020963A7
:10029000150026FF00952075089102C0050109068A
:1002A000A101050719E029E7150025019508750149
:1002B00081029501750881010507190029FF1500C4
:1002C00026FF009506750881000508190129051506
:1002D000002501950575019102950175039101C0F5
:1002E0005B435D005B445D005B535D005B575D00FD
:1002F0005B525D0009026200030100A0FA090400DC
:10030000000103010100092111010001224400073D
:10031000058103080001090401000203000000092F
:10032000211101000122220007058203200001079C
:100330000503032000010904020002030000000974
:10034000211101000122220007058403200001077A
:100350000504032000011201000200000008EDFE68
:1003600001000001010203011C0376006900610025
:100370006C003A0066003600340063003200620010
:100380003300630000000E036D0069006E00690019
:10039000650063000000160367006F0072006F00C5
:1003A000700069006B0061007200690000000403C6
:1003B0000904000000000000000000000000000030
:1003C000000000000000000000000000000000002D
:1003D0000000000000007E0F00D4FFFFFFC70000F8
:1003E000007800000000000000002A2B2800000018
:1003F00000000000000000000000000000290000D4
:1004000000002C1E3420212224342627252E362DB0
:100410003738271E1F202122232425263333362E4A
:1004200037381F0405060708090A0B0C0D0E0F10BC
:100430001112131415161718191A1B1C1D2F313001
:10044000232D350405060708090A0B0C0D0E0F10A5
:100450001112131415161718191A1B1C1D2F3130E1
:10046000354C34003600370013001C0029380400D6
:100470001200080018000C002D41330014000D007C
:100480000E001B00E0000F00150006000A00090026
:10049000E6001600110017000B0007002C221D00BB
:1004A00019001A001000050028421E021F02200237
:1004B00021022202E7002B2104001D0006001B0080
:1004C000215200000000000000000000E6002702AA
:1004D000260252002402230200002A004F0051008D
:1004E00050004A002C224C0030002F0028004D0004
:1004F00023521E001F00200021002200E7002300DD
:1005000024002500260027002352E000E10000001F
:1005100000000000E600380238002B0030002F00F9
:100520000000E5002E003500310031020000E5003A
:10053000000035022E02280000001E021F022002C9
:100540002102220200000000000000000000000064
:1005500000003A003B003C003D003E00000030003F
:100560002F00250224022302000030022F02000087
:1005700031003102000043004200410040003F00D2
:1005800000000A00253464000A000100010039035C
:100590006029BA2900000200020035036029BA2947
:1005A0000000030001003A036029BA29000004009A
:1005B00002001F036029BA29D728050001003B0368
:1005C0006029BA2900000600020021036029BA2927
:1005D00000000700020037036029BA290000080064
:1005E00001003C036029BA290000120002003D030B
:1005F0006029BA290000130002003F036029BA29CC
:1006000000001400010041036029BA290000150010
:10061000000000005A28E028000011241FBECFEF80
:10062000DAE0DEBFCDBF11E0A0E0B1E0ECEDFCE52B
:1006300002C005900D92AC34B107D9F724E0ACE4C8
:10064000B1E001C01D92AC3DB207E1F70E94840AFF
:100650000C946C2E0C940000FF93EF93E0914C01EE
:10066000F0914D01309709F00995EF91FF910895B0
:10067000FC018591803011F0EFDFFBCF0895FF275B
:10068000E0E230E247FF0CC0419597FF09C0EDE280
:100690006095709580959095611D711D811D911DCE
:1006A00027FF02C0219530E350E2AA27660F771F8B
:1006B000881F991FAA1FA41710F0A41B63955A95B1
:1006C000A9F7AA3008F0A95FA05DAF93F395611573
:1006D00071058105910541F7ED3211F4EF93F39522
:1006E000F21718F43F93F395FBCF8F91B5DFFA958E
:1006F000E1F70895E991F9918591803021F08532F3
:1007000019F0AADFF9CF089520E0E8945591553209
:10071000C1F3503311F4689455915A3348F450534F
:1007200090F3220F022E220F220F200D250FF4CF5F
:100730000EF4219589919991533619F3533729F184
:10074000533559F1BC0188279927E8945C3621F488
:100750008991999168945591543639F446EF7EF019
:1007600077FF0DC08FEF9FEF0AC055374AE039F091
:10077000583540E121F0523642E009F00895FF93E8
:10078000EF937DDFEF91FF91B7CFFF93EF93FC01E4
:1007900081918030B9F360DFFBCFFF93EF9368DF87
:1007A000F1CFDF93CF93CDB7DEB72596A3DFCF91FF
:1007B000DF910895A4E0B0E0E0EEF3E00C942C2C7F
:1007C000FC012481222309F49BC67C0161E00E9484
:1007D000A4248C01F7018581882309F4C7C0C801CE
:1007E00097578038910508F0C1C0D02EFFE0F01770
:1007F00008F4C5C38FEF93E00E94682C8111BFC33A
:100800000DE611E0DD2071F0011524E0120709F476
:10081000B6C3C8010E94682C811101C0DA940F5F31
:100820001F4FF0CF19821A821B821C82AA24AA941D
:1008300068016FEFC61AD60AC8010E94682C898326
:100840001A82882309F49BC3813009F089C04801CA
:1008500072E0870E911CC6010E94682CB82E8A8314
:10086000882309F48CC38FEF8B0D833070F46801FB
:1008700083E0C80ED11CC4010E94682C8B838111B7
:1008800002C08601D5CF60E06CC08BEF8B0D83304A
:10089000C0F5380193E0690E711CC4010E94682CF8
:1008A0008B83811102C06301ECCF6801E4E0CE0EBE
:1008B000D11CC3010E94682C8C83882311F38B8187
:1008C0009C818130FFEF9F0718F0182F00E001C0D6
:1008D0008C0126E0B21669F067E0B61671F0C80127
:1008E0000E94FA2980913D0390913E030E944D227F
:1008F00004C0C8010E94FA29C4CFC8010E94D529AA
:10090000C0CF74E0B71611F06401BBCFC4010E94E0
:10091000682CB82E680184E0C80ED11CC80103966B
:100920000E94682CBB2009F42AC3882309F427C33A
:10093000282F30E021503109A29EA001A39E500D26
:1009400011248B2D90E00197840F951F019708F4D7
:1009500098CFEFE9FFE03197F1F700C00000F6CF44
:1009600065E0CE0101960E940B238BCF80913A0364
:1009700080FF45C10E94DF206C01F701858188233B
:10098000B1F18091250182FF08C020E532E040E00E
:10099000B60180E090E00E9458220431FCE71F0776
:1009A000A9F005312CE7120751F003316CE7160767
:1009B000A1F4809125018160809325010EC0809172
:1009C0002501982F909590FB80F903C08091250117
:1009D0008E7F809325010E941A22C80190528115B2
:1009E000904358F5109246031092450308C1013E0A
:1009F000110521F4809125018F7E06C0053E110569
:100A000031F4809125018F7D8093250116C0C801A6
:100A100090528115904388F48091250182FFEFC0A8
:100A200080913C0381FDEBC020E532E040E0B6015F
:100A300080E090E00E945822E2C08091250180FF72
:100A4000DEC0F70185810832110538F40E31110539
:100A5000B8F40430110578F4C5C00933110538F431
:100A60000D32110590F40B32110579F0BBC004363C
:100A7000110559F0B7C090913A0394FDB3C009C075
:100A800090913A0393FDAEC004C090913A0392FD59
:100A9000A9C0882309F49FC02091FE028091E3023F
:100AA000982F922B392F3D7F79F1109246031092A7
:100AB000450330913A0331FD27C0F80123E0F69554
:100AC000E7952A95E1F7EE71FF27E150FD4F980178
:100AD0002F70332781E090E002C0880F991F2A957C
:100AE000E2F7809590952081318182239323918331
:100AF0008083A70160E0C8010E943D228091E3024B
:100B00008D7F0E94B31D63C037E0F701A0E5B2E01E
:100B100001900D923A95E1F710925502109253020E
:100B20001092520240914503509146030417150755
:100B3000B1F530913A0335FF32C04091250141FFB4
:100B400002C036FF2CC04091430350914403B601CC
:100B5000641B750B6D37710510F521FF08C080917E
:100B6000250180618093250182E00E94DC1D809137
:100B7000FE0285FF08C080912501806280932501D7
:100B800080E20E94DC1D6091250166956170A701DD
:100B900080914503909146030E943D22F0C19695B5
:100BA00091702091250190FB21F9209325018D7FE3
:100BB0000E94B31D1093460300934503D092440353
:100BC000C09243038091250184608093250182E0D7
:100BD0000E94EA1DD4C1970140E0B601C8010E94FD
:100BE0005822CDC1882359F0109246031092450334
:100BF000F801E851FC47E730F10568F4EEC0F80170
:100C0000E851FC47E730F10508F4E7C0F7019581AA
:100C1000992309F414C110924B03C801905783978C
:100C200008F00CC184E090E00E94702C9093FC02CC
:100C30008093FB02F801E150F047E232F10520F425
:100C4000EA5AFF4F0C94422E8091FB028160ACC0A7
:100C50008091FC028860B4C08091FB028260A4C0D5
:100C60008091FB0220C08091FB0288609DC0809132
:100C7000FC021EC08091FC028260A2C08091FB0237
:100C8000806192C08091FB0280628EC08091FB02E5
:100C900080648AC00E94E8188091FB02806884C04A
:100CA0008091FB02886084607FC08091FC0282603A
:100CB000816086C08091FB028E7F76C08091FC02AD
:100CC000877F7EC08091FB028D7F6EC08091FB028A
:100CD00020C08091FB02877F67C08091FC021EC00C
:100CE0008091FC028D7F6CC08091FB028F7E5CC086
:100CF0008091FB028F7D58C08091FB028F7B54C096
:100D00000E94E8188091FB028F774EC08091FB0211
:100D1000877F8B7F49C08091FC028D7F8E7F50C082
:100D20008091FB0282FB222720F991E0922790FB21
:100D300082F990FB83F938C08091FC02982F90953E
:100D400091708E7F892B90FB81F93AC08091FB02D4
:100D500086FB222720F991E0922790FB86F924C098
:100D60000E94E8188091FB0287FB222720F991E07E
:100D7000922790FB87F918C061E001C060E08EE027
:100D800090E00E94862C1EC08091FB0284FB2227EB
:100D900020F991E0922790FB84F906C08091FB0234
:100DA000982F909590FB80F98093FB020BC0809167
:100DB000FC0283FB222720F991E0922790FB83F924
:100DC0008093FC026091FB027091FC0284E090E051
:100DD0000E94A42C0E94E818D2C0E858FF4F0C943F
:100DE000422E06E221EE41EE6AE17CE723C007E2F3
:100DF00025EE45EE6BE17CE71DC006E221EE40EEFC
:100E000068E17CE717C007E225EE44EE69E17CE784
:100E100011C006E221EE42EE6CE17CE70BC007E276
:100E200025EE46EE6DE17CE705C008E221E045EEE7
:100E30006EE17CE7C7010E944C21A1C091E0063120
:100E4000FCE71F0709F040C08091FE02282F2A7A94
:100E50003091390330FF04C0482F447409F020E07A
:100E600031FF04C0482F417109F020E032FF04C077
:100E7000482F487809F020E033FF02C0827261F405
:100E80009923A1F081E0211101C080E080934E01FF
:100E9000222331F065E305C0992341F010924E0101
:100EA00069E28CE892E00E9421210BC080914E0102
:100EB000882311F065E301C069E28CE892E00E94AA
:100EC00014210E94491E5BC007372CE7120711F45A
:100ED00081E005C008376CE7160771F482E09923BA
:100EE00019F00E940B1702C00E94FE1643E062E058
:100EF00081E00E94DC1643C0F7018581882309F454
:100F000050C00330FCE71F0729F148F401156CE7D6
:100F1000160791F001307CE7170711F142C00B353D
:100F20008CE7180741F10C359CE71907E1F00A3509
:100F30001C47B9F581E020C00E94E818FFEF24E3C8
:100F40006CE0F15020406040E1F700C000000E94DA
:100F50008D2015C06FEF7FEF80E090E00E94A42C01
:100F60000E9472250CC08091FC0282FB882780F9C8
:100F700091E0892701C080E00E94011E12C080918B
:100F8000D802877009F4BCC2F7018581882309F46F
:100F9000B7C28091FC0282FFB3C282E00E94EA1DC8
:100FA000AFC2F701858100811181882349F0C80112
:100FB0000E943416D82E682FC8010E94A41604C0BF
:100FC000C8010E947016D82EB8018D2D0E946F1C8A
:100FD0000E948C1CD82E092F982EF701B580C68050
:100FE000C2949FE0C9228091D8028770E9F0BB20AB
:100FF000D9F0802F807F803451F080E28D0D8830D1
:1010000098F0C11004C0802F807E803269F08091FA
:10101000FC0282FF09C082E00E94EA1D8091D80292
:101020008770AA24A3948111A12C802E82948FE032
:101030008822882D90E08C30910508F016C2FC01C2
:10104000E158FF4F0C94422E102F1F70802F807F8D
:1010500011F01295107FBB20B9F0112309F4E5C1FE
:1010600080E28D0D883010F0911006C08091FE0254
:10107000182B1093FE0205C08091FD02182B1093CF
:10108000FD020E94491ED1C18D2D0E941C19112301
:1010900009F4EBC180E28D0D883088F1992079F157
:1010A00010958091FD0218231093FD022BC0102F84
:1010B0001F70802F807F803211F01295107F992051
:1010C00029F0F1E09F1609F46BC076C08091FC0214
:1010D00082FD1BC0BB2069F0112339F08091FE0214
:1010E000182B1093FE020E94491E80E00E94651991
:1010F000BCC180E00E941C19112309F4B6C1812FE4
:101100000E94DC1D0E94491EB0C1BB2081F1CC2091
:1011100009F46AC021E0C21212C08091E302812367
:10112000181709F4A2C10E94DF209093E202809375
:10113000E1028091E302182B1093E30296C18091A3
:101140003B03823008F491C1C8128FC1812F0E94E5
:101150001219812F0E94C71D8091D502912F9823CB
:10116000191709F482C1182B1093D5027EC1CC2027
:1011700069F080913B03823008F477C161E0C612C8
:1011800074C18091FE02812309F46FC1812F0E94F6
:101190000B19812F0E94C71D812F0E94941E65C1CB
:1011A00080914103BB2021F08C1508F45EC11CC066
:1011B000C81608F05AC122C0BB20D1F0CC20A1F043
:1011C00020E0F701408151816281738184819581A2
:1011D0000E947F2480913C0381FD27C1F701868115
:1011E00080FF23C18F708683812F0E9412193DC119
:1011F000CC2021F0F9E39F1228C122C1812F0E9447
:101200000B1933C1802F8370A1F5B11032C14D2D60
:10121000429546954770440F440F2D2D2F7030E0B6
:10122000C901042E01C0880F0A94EAF7D4FE08C051
:101230002FE030E001C0220F4A95EAF7209501C067
:1012400020E0302F369536953370323069F040F417
:1012500040914702313019F0822B842302C0842B45
:10126000822B0E94171705C1282B809147028227E5
:10127000F8CFBB2019F0802F817001C0869588239C
:1012800009F4F7C04D2D429546954770440F440F21
:101290002D2D2F7030E0C901042E01C0880F0A9453
:1012A000EAF7D4FE08C02FE030E001C0220F4A95D3
:1012B000EAF7209501C020E0302F3695369533703F
:1012C000323051F070F440914802313019F0822BE5
:1012D000842308C0842B05C0282B809148028227D4
:1012E00001C0822B0E94D916C4C0102F1F70BB20D2
:1012F00039F0812F0E940B178D2D0E941219B9C051
:101300008D2D0E940B19812F0E94FE16B2C08D2DCB
:1013100022EF921639F1291538F060EF961659F040
:1013200071EF9716B9F17DC093EF991609F1E4EFCB
:101330009E1661F176C080914103BB2021F0C81652
:1013400008F093C003C08C1508F48FC0202F2F71B4
:1013500081E090E001C0880F2A95EAF79091480259
:10136000892711C0802F8F71BB2009F462C079C01A
:10137000BB2041F081E0902F9F7101C0880F9A95AA
:10138000EAF701C080E00E94D9166FC08091FC028C
:1013900082FD06C0802F8F71BB2009F462C049C056
:1013A00080913B03823038F1BB20B9F09091D80294
:1013B0009770943039F40E94E31D802F8F710E9442
:1013C000FE1652C0C81608F04FC0102F1F71812F93
:1013D0000E940B1763E0812F07C0C81640F00E94DF
:1013E000E31D64E0802F8F710E94181E3DC081E0D4
:1013F0000E94EA1D39C0BB2051F0102F1F71812FB0
:101400000E940B1763E0812F0E94181E2EC081E0FE
:101410000E94EA1DF1E0FC1540F582E00E94EA1D01
:1014200024C0BB2049F0CC2011F08D2D5FCE802F41
:101430008F710E940B1719C0CC2089F0893329F4D1
:1014400080913F039091400304C080913D039091AF
:101450003E030E944D228D2D0E941C1906C0802F34
:101460008F710E94FE1601C0A12C88EF880D843078
:1014700010F40E943B218D2D902F0E941A1781118C
:1014800005C01092500110924F011FC0BB2019F0EF
:10149000C110F7CF1AC0C110F4CF20E0F70140818E
:1014A000518162817381848195810E947F24809122
:1014B0003C0383FFE6CF80914F019091500102974A
:1014C00001F78D2D0E94E719DCCFAA20A9F08091A9
:1014D000D80280FD11C0F701158286958695869504
:1014E0000E940B17C7010E94DA038091D8028695EB
:1014F000869586950E94FE1660E0C7010E94A4248E
:101500002496EEE00C94482CAAE5B0E0EAE8FAE074
:101510000C94282C85B7806885BF85B7806885BF07
:1015200084B7877F84BF0FB6F894A8958091600038
:10153000886180936000109260000FBE90E080E8A8
:101540000FB6F89480936100909361000FBE86E21D
:101550009FE190934D0180934C010E9476290E9457
:101560005C140E947B148091E20084608093E2000E
:101570007894809173028823A1F01091E9001F7084
:101580009091EC00892F817090FD80E8182B1092CB
:10159000E9008091E80083FD0E9443111F701093C1
:1015A000E90082E084BD93E095BD9AEF97BD8093FA
:1015B0006E0010925101109252011092530110923C
:1015C00054010E94532A811102C00E94432A0E94A2
:1015D000ED1B80910101882311F090E001C093E0A0
:1015E0009093460283E0891B8093450255985D984D
:1015F000209828980E94ED1BCE010196AE014B5D0C
:101600005F4F3C0169E170E0A3E2B0E0FC0120E043
:1016100030E061937193B3A3A2A32F5F3F4F2630B5
:101620003105B9F70C964817590781F780910101E8
:1016300088E4F301A7EFB1E001900D928A95E1F7FC
:101640002998219A80E480930001AEE2B1E021E381
:1016500031E041E050E02A173B07B1F08D91E82FCF
:10166000E295EF70F0E061A18F708A0102C0000F77
:10167000111F8A95E2F7C801962F982B91A392A18A
:101680008095892382A3E7CFA1E3B1E024E331E091
:1016900041E050E02A173B0789F08D91E82FE29551
:1016A000EF70F0E061A18F708A0102C0000F111F7E
:1016B0008A95E2F7C801862B81A3ECCF219829985F
:1016C0006B961CAE1DAE1EAE1FAE6B976B968CADAF
:1016D0009DADAEADBFAD6B9700E010E046E0E42EEF
:1016E000F12CC801B7010E942E2E0E94BC25A0E05B
:1016F000B0E06B968CAF9DAFAEAFBFAF6B978AE09B
:1017000090E0A0E0B0E00097A105B10521F00197BD
:10171000A109B109F8CF0F5F1F4F0231110509F779
:1017200024E1A22EB12C36E0832E912C93EDC92E0C
:1017300091E0D92E760100E010E0C801B4010E94CA
:101740002E2E0E94BC25D7012D913C91820F931F14
:10175000F701819391937F018AE090E0A0E0B0E0EF
:101760000097A105B10521F00197A109B109F8CFB2
:101770000F5F1F4F0231110501F7F1E0AF1AB108F9
:10178000A9F6E5E5F1E020E530E0D6018D919D91E7
:101790006D018115B0E59B0720F4B9010E942E2E42
:1017A00001C06FEF60831682618362836383648309
:1017B0006583379601E0E33DF00739F78091010139
:1017C000882311F090E001C093E09093460283E0FB
:1017D000891B809345020E94CA1B811102C00E948E
:1017E000C52AEFE3F2E085E492E0ACE5B2E01192C5
:1017F0001D928E179F07D9F780E090E00E94702C11
:10180000863E9E4F21F40E94532A811166C066EEE7
:101810007EEF80E090E00E94A42C60E082E090E007
:101820000E94862C60E083E090E00E94862C10925B
:10183000470260E074E184E090E00E94A42C60E044
:1018400086E090E00E94862C6FEF87E090E00E9497
:10185000862C40E050E0BA0188E090E00E94982C8D
:1018600060E084E290E00E94862C60E087E190E0F6
:101870000E94862C60E08CE090E00E94862C60E064
:101880008DE090E00E94862C19821A821B821C82B5
:101890001D821E821F82188648E050E068E170E0D9
:1018A000C3010E94762C40E050E0BA0180E290E053
:1018B0000E94982C80E00E94242A0E94432A40E043
:1018C00050E0BA018FE090E00E94982C40E050E098
:1018D000BA0183E190E00E94982C82E090E00E949F
:1018E000682C8093490284E090E00E94702C9093D1
:1018F000FC028093FB020E9432268FE39CE9019751
:10190000F1F700C000000E94322680915C0280FF47
:1019100008C06FEF7FEF80E090E00E94A42C0E944F
:101920008D2083E090E00E94682C0E9417170E948F
:10193000CA1B811102C00E94C52A82E091E09093E7
:101940004D0380934C0388E1282E312C8091730243
:10195000853009F042C000E112E1809173028530C8
:1019600009F037C080917302843011F110924E0358
:1019700090E40FB6F894A895209260000FBE909363
:10198000600083B7817F846083BF83B7816083BF3A
:101990007894889583B78E7F83BF0FB6F894A89507
:1019A00080916000886180936000109260000FBE9B
:1019B00080917202882309F4D0CF0E943226ECE590
:1019C000F2E08191811129C4A2E0E236FA07C9F759
:1019D000C4CF0E94E8180E943B210E9432260AE4EC
:1019E000E02E02E0F02E20E532E0ACE5B2E0F701B7
:1019F00091918D9189272E173F0719F08823C1F304
:101A000005C0811103C00E94841D8BC080914902D2
:101A100081FD0BC00E94CA1B882E1CE5C12E12E05E
:101A2000D12E10E07724739436C085E591E00E94B2
:101A30003803FCE5AF2EF2E0BF2E00E010E0A0E599
:101A40008A2EA1E09A2EB8E4CB2EB1E0DB2E1F93B4
:101A50000F939F928F920E94D1038DE491E00E9498
:101A60003803F50181915F010E946D241F928F93CD
:101A7000DF92CF920E94D10386E491E00E94380366
:101A80000F5F1F4F0FB6F894DEBF0FBECDBF0630FD
:101A90001105E9F6BFCFD6019D906D01F701A08039
:101AA000A924B1F100E0BB24B3948A2D8B2151F11C
:101AB000882041F162960FAF629763961FAF6397DC
:101AC0000E94DF2065969FAF8EAF659766967FAECA
:101AD000669791E0892D8B2109F490E067969FAF7E
:101AE000679762964FAD629763965FAD6397649612
:101AF0006FAD649765967FAD659766968FAD669777
:101B00000E94AF240F5FBB0C063079F6D7019C9280
:101B10001F5FBFEFEB1AFB0A163009F0BCCF0E9423
:101B2000001C0E94CA1B882311F180913A0380FF98
:101B30001EC08091250182FF1AC00E94DF202091E3
:101B4000430330914403AC01421B530B209123010A
:101B5000309124014217530750F020E532E041E074
:101B6000BC0180914503909146030E9458220E9437
:101B70003B2190915702891721F0809357020E94D0
:101B8000D32080917302843009F0E0CE83E080930B
:101B9000E9008091E80082FFD9CE8091E80085FFBE
:101BA00021C00E94011681111BC000E210E0FE015D
:101BB00031967F0108C08091F100D7018D937D019E
:101BC0000150110969F08091E80085FDF4CF809102
:101BD000E8008B778093E8000E940116882399F330
:101BE00091E001C090E08091E8008B778093E8005D
:101BF000992309F4ABCE00916202109163028981AE
:101C00000115110561F08E3F09F0FEC28A81833013
:101C100008F4C4C18550833008F0F6C2BFC18B30D0
:101C200009F4A1C110F5853009F475C0B0F4823013
:101C3000D9F130F4813009F0E5C21A8289E04EC250
:101C4000833009F45BC0843009F0DCC24C816B81C5
:101C50008A810E94EC219D83FDC2873009F4D2C2A3
:101C600008F0D0C20E94FB23CFC2803109F4BAC071
:101C700078F48D3009F45CC008F458C0FE01319648
:101C80007F018E3009F458C08F3009F47EC0BAC28B
:101C9000823109F4ADC008F4A8C0833109F4D4C07E
:101CA0008E3F09F47BC1AEC28A81823009F4CBC277
:101CB000833051F0813009F0A5C20E94D3209B836C
:101CC0008C837D836E83A0C28091470390914803EB
:101CD000892B09F499C280915C028B8380915D020B
:101CE0008C8380915E028D8380915F028E838091D0
:101CF00060028F8380916102888786C28A818230E8
:101D000009F080C26B817C818D819E810E94482E6A
:101D10000E941F2A79C22D813E8132272327322734
:101D20004C816B818A810E94C5216EC280E15EC0B8
:101D300082E08A8383E9D2C10A811B8110270127AF
:101D40001027AC80B12CFDE1AF16B10408F05CC2E5
:101D50006701C80183599E4F96012E193F092A1524
:101D60003B0508F051C2033922E0120730F40E940B
:101D7000682CD60114968C9302C0F60114820F5F72
:101D80001F4FFFEFCF1ADF0AE4CF809147039091F6
:101D90004803892B09F438C20A811B8110270127C7
:101DA0001027CC80D12C2DE1C216D10408F02CC212
:101DB0005F01C80183599E4F95012E193F092C15CB
:101DC0003D0508F021C2033932E0130728F4D5019C
:101DD00014966C910E94862C0F5F1F4FBFEFAB1AB9
:101DE000BB0AE7CF0E94B5210FC284E08A830CC2F0
:101DF0000A811B81102701271027CC80D12CEDE10F
:101E0000CE16D10408F000C29E012F5F3F4F59014A
:101E10007901C801899697012A193B092C153D05BE
:101E200008F0F2C1003231E0130730F40E94682C50
:101E3000D70114968C9302C0F70114820F5F1F4FD5
:101E4000FFEFEF1AFF0AE5CF0A811B811027012758
:101E50001027CC80D12C2DE1C216D10408F0D4C1BA
:101E6000003231E0130708F0CFC180E291E0801B1F
:101E7000910B8C159D0508F4C7C1380149E2640E29
:101E8000711C8091470390914803DE0111965D011A
:101E9000892B11F075015EC000FF0FC0C801889644
:101EA0000E94682C90E0982F88272D81822B811525
:101EB0009C4731F48FEF8D8303C0E12CF12C03C0DC
:101EC000EE24E394F12CC8018C0D9D1D460180FF8A
:101ED0001BC0E1E08E1A910855E0452E512C4C0EA6
:101EE0005D1E480C591CC3018C0D9D1D0E94682C61
:101EF000D2012C9130E0322F2227282B21153C478C
:101F000019F48FEFF2018083F501EE0DFF1D2FEF25
:101F1000CF018A199B098815990508F0BBCF8481E8
:101F200090E0982F88273581832B81159C4711F4E9
:101F3000248325833296ECCF003241E0140728F445
:101F4000D70114966C910E94862C0F5F1F4FBFEF34
:101F5000EB1AFB0AC801899697012A193B092C152F
:101F60003D0550F351C18091470390914803892B5F
:101F700009F44AC140E250E0BE016F5F7F4F82E04A
:101F80000E943B20EFEFF1EE04E0E150F040004012
:101F9000E1F700C000000E948D2036C1EA818E2F3B
:101FA00090E08E30910508F02FC1FC01E557FF4FFE
:101FB0000C94422E88E0E6E2F1E0DE01A75BBF4F21
:101FC00001900D928A95E1F7FE01319680E2DF01E2
:101FD0001D928A95E9F786E0898388E0E85BFF4FE8
:101FE000DE01159601900D928A95E1F70DC184EFFF
:101FF00089831A821B821C8207C18C8190E0982FF2
:1020000088272B81820F911D092E000CAA0BBB0B78
:1020100035E0880F991FAA1FBB1F3A95D1F7AC0175
:10202000BD01405E5F4F6F4F7F4F481759076A07EA
:102030007B0708F4E9C0843F9105A105B10508F0CC
:10204000E3C0453F51056105710520F044EF50E0C4
:1020500060E070E0481B590BBC016C597E4FCE010B
:1020600001960E945F2CD0C040E250E06FEF70E01C
:10207000CE0101960E94652E8091470389830A83D1
:102080001B821C8282E08D838DE0E4C081E090E0C1
:10209000909363028093620282E390E090935B02EC
:1020A00080935A020E94DF20909359028093580235
:1020B000ABC00115110561F0809158029091590251
:1020C0000E94C42082E390E090935B0280935A02C6
:1020D0008091470389830A8380915A028B8394C03D
:1020E00010924803109247038FC00B811C8140E27D
:1020F00050E06FEF70E0CE0101960E94652E2AE855
:1021000035E0AAE1B6E080E090E0AC014E5F5F4FC1
:102110004132510508F078C0F901659174910617B4
:10212000170748F4E1E0F0E0EC0FFD1FE80FF91F9E
:1021300071836083CA01245F3F4FA217B30729F759
:1021400063C04B815C812AE136E08AE895E0FC01BE
:10215000659174914617570729F00C96281739078F
:10216000B1F750C0009709F44DC0FC013696259197
:1021700034912115310509F445C04FE150E0BE010D
:102180006E5F7F4FF90109953EC08B819C810AE803
:1021900015E0F801259134912817390739F0045FCB
:1021A0001F4FF6E00A311F07A1F72CC001151105DA
:1021B00049F1F8013896259134912115310511F135
:1021C0004CE150E0BE016B5F7F4FC801F9010995FA
:1021D0000097C9F4F8013A9685919491009711F00F
:1021E000FC01099580E00FC00E94C3230DC08B81C4
:1021F00081110AC0FE01319680E2DF011D928A95AD
:10220000E9F702C08FEF898340E250E0BE016F5FC3
:102210007F4F82E00E943B2099CB09BD19BD09B4D4
:1022200000FEFDCF8091D8008F7D8093D8008091F3
:10223000E00082608093E0008091E00081FDFCCFAF
:102240000E94E8188ACB88E290E00E94682C1B82EA
:102250001C821D828E83D8CFFC01AC014D5F5F4F85
:102260008FEF91E32191822728E030E087FF03C0C0
:10227000880F892701C0880F21503109B9F7E41769
:10228000F50781F70895AAE2B0E0E9E4F1E10C94E2
:10229000372CE5E7F2E08DE792E02091F100219301
:1022A0008E179F07D1F780917602833009F461C0C1
:1022B00030F4813071F0823009F49BC0B2C08A30B2
:1022C00009F487C08B3009F46CC0893009F0A9C0CB
:1022D00020C080917502813A09F0A3C08091E80086
:1022E000877F8093E8008091790290917A02892B10
:1022F00021F468E089E692E003C060E080E090E0CD
:1023000070E00E94DD1F8091E8008B778093E800E9
:1023100088C080917502813209F083C08091790272
:1023200090917A02892B09F07CC08091E800877F28
:102330008093E8008091E80082FD05C080917302DF
:102340008111F8CF6EC02091F3008091F20090E0EF
:10235000922B029731F48091F100813011F0863098
:1023600021F48091F100809368028091E8008B77DE
:1023700054C080917502813A09F053C0809179026E
:1023800090917A02892B09F04CC08091E800877FF8
:102390008093E8008091E80080FFFCCF80910A01E3
:1023A00037C0809175028132E1F580917902909178
:1023B0007A02892BB1F58091E800877F8093E8004D
:1023C0000E94891F8091770280930A010E94E81879
:1023D00028C080917502813221F58091E800877FC5
:1023E0008093E8000E94891F8091780280936702A1
:1023F00018C080917502813AA1F48091E800877F2E
:102400008093E8008091E80080FFFCCF8091670214
:102410008093F1008091E8008E778093E8000E941D
:10242000891F8091E80083FFEBC180917502909134
:102430007602492F50E04A30510508F0E1C1FA0117
:10244000E756FF4F0C94422E803821F0823809F075
:10245000D7C108C08091710290917202992389F0CE
:1024600082600FC0809179028F70873008F0C8C1F8
:102470008093E9008091EB0085FB882780F910921A
:10248000E9009091E800977F9093E8008093F10035
:102490001092F1007CC1282F2D7F09F0B1C1882353
:1024A00019F0823061F0ACC180917702813009F07F
:1024B000A7C1933009F080E0809372022EC0809112
:1024C000770281112AC0809179028F702FEF280F37
:1024D000263008F095C18093E9002091EB0020FFA1
:1024E0001CC0933021F48091EB00806214C0909165
:1024F000EB0090619093EB0021E030E0A90102C075
:10250000440F551F8A95E2F74093EA001092EA00C3
:102510008091EB0088608093EB001092E90080913D
:10252000E800877F8093E8000E94891F69C18111BC
:1025300067C1109177021F778091E3008078812B2B
:102540008093E3008091E800877F8093E8000E94F9
:10255000891F8091E80080FFFCCF8091E3008068B4
:102560008093E300111102C082E001C083E08093F8
:10257000730246C18058823008F042C12091770230
:10258000309178022C3D53E0350779F583E08A835A
:102590008AE289834FB7F894DE01139620E03EE08B
:1025A00051E2E32FF0E050935700E49120FF03C085
:1025B000E295EF703F5FEF708E2F90E0EA3010F001
:1025C000C79601C0C0968D939D932F5F243149F724
:1025D0004FBF8091E800877F8093E8006AE270E057
:1025E000CE0101960E94DD1FC0C0809179029091BA
:1025F0007A02432F552743305105B1F068F441303A
:10260000510509F40CC14230510509F0F9C082E6C8
:1026100090E0E4EFF2E057C04132510589F14232D7
:10262000510509F43CC0ECC0C901992781309105DE
:10263000B9F070F082309105D9F0039709F0E0C04D
:10264000E8E6F3E0E4918E2F90E0E8E6F3E038C0AE
:10265000EEEAF3E0E4918E2F90E0EEEAF3E030C092
:10266000E6E9F3E0E4918E2F90E0E6E9F3E028C09C
:10267000E6E8F3E0E4918E2F90E0E6E8F3E020C096
:102680008330910508F0BCC0880F991FFC01E35C02
:10269000FE4F0190F081E02D89E090E014C083307E
:1026A000910508F0ADC0FC01EE0FFF1FE95CFE4F85
:1026B0000190F081E02DDC01AC5CBE4F8C9190E08C
:1026C000009709F49DC02091E800277F2093E8003F
:1026D00020917B0230917C022817390708F4C90148
:1026E00040E0009789F120917302222309F43DC054
:1026F0002530D9F12091E80023FD37C02091E80072
:1027000022FD2FC02091E80020FFEBCF4091F30085
:102710002091F20030E0342B009759F02830310539
:1027200040F444914093F100319601972F5F3F4F61
:10273000F3CF41E02830310509F040E02091E80076
:102740002E772093E800CDCF4111CDCF0AC08091E4
:102750007302882351F0853041F08091E80083FDB9
:1027600004C08091E80082FFF2CF8091E8008B776F
:102770008093E80045C0803809F042C08091E800AD
:10278000877F8093E800809174028093F1008091AC
:10279000E8008E77C7CE811133C080917702909187
:1027A00078029927029764F58091E800877F8093EB
:1027B000E80010917702109374020E94891F111192
:1027C00006C08091E30087FD02C081E001C084E083
:1027D0008093730242E061EC81E00E94A81F42E214
:1027E00061EC82E00E94A81F42E260EC83E00E945C
:1027F000A81F42E261EC84E00E94A81F809173024E
:102800008091E80083FF10C08091E800877F80936B
:10281000E8008091EB0080628093EB0005C082E1CC
:1028200090E0E6E5F3E04FCFAA96E3E00C94532C5A
:102830001F920F920FB60F9211242F933F934F9335
:102840005F936F937F938F939F93AF93BF93CF9338
:10285000DF93EF93FF93C091E900CF708091EC007C
:10286000D82FD17080FDD0E81092E9008091F0005F
:10287000877F8093F00078940E9443111092E900C2
:102880008091F00088608093F000CD2BCF70C093D2
:10289000E900FF91EF91DF91CF91BF91AF919F91AF
:1028A0008F917F916F915F914F913F912F910F90F9
:1028B0000FBE0F901F901895E8EDF0E080818E7F9D
:1028C00080831092E2001092DA001092E100A0EEF4
:1028D000B0E08C9181608C9380818F77808319BC6C
:1028E000A7EDB0E08C918E7F8C9380818F7E80836A
:1028F000109266020895A0E0B0E0E1E8F4E10C94E3
:10290000322CC8EDD0E088818F7E8883E7EDF0E03F
:1029100080818160808384E082BF81E08093660251
:1029200088818E7F888302EE10E0F8011082109279
:10293000DA0081EEC82ED12CF601108288818F77C3
:10294000888388818068888388818F7D888319BC8B
:10295000109273021092740210927202109271021D
:1029600090EEE92EF12CF70180818B7F80838881A6
:102970008160888342E060E080E00E94A81FF60149
:1029800080818E7F8083F801808181608083808157
:1029900088608083F70180818E7F80838881806159
:1029A0008883CDB7DEB7E8E00C944E2C1F920F92CF
:1029B0000FB60F9211242F933F934F935F936F9312
:1029C0007F938F939F93AF93BF93EF93FF938091E8
:1029D000E10082FF49C08091E20082FF45C0809102
:1029E000E1008B7F8093E100209165022F5F822FB1
:1029F00062E30E94222E992319F02093650234C0CD
:102A00001092650280916402882371F180917302B3
:102A1000843041F58091E9008F702091EC00922F75
:102A2000917020FD90E8892B94E09093E9009091BB
:102A3000EB0090FF14C09091EE0097FF10C09091B2
:102A4000E80095FF03C01092F100F9CF9091E800E3
:102A500090FF05C09091E8009E779093E8008F70FA
:102A60008093E900109264028091DA0080FF32C006
:102A70008091D80080FF2EC08091DA008E7F8093F5
:102A8000DA008091D90080FF1CC080E189BD82E11D
:102A900089BD09B400FEFDCF81E08093730280EE12
:102AA00092E00E94380380916602811113C00E9457
:102AB0005C140E947B148091E20084608093E200A9
:102AC00009C019BC1092730284EE92E00E94380390
:102AD000109266028091E10080FF1BC08091E200AD
:102AE00080FF17C08091E2008E7F8093E20080918A
:102AF000E20080618093E2008091D8008062809340
:102B0000D80019BC85E08093730288EE92E00E94A1
:102B100038038091E10084FF34C08091E20084FF9B
:102B200030C080E189BD82E189BD09B400FEFDCFDE
:102B30008091D8008F7D8093D8008091E1008F7EB6
:102B40008093E1008091E2008F7E8093E20080918B
:102B5000E20081608093E20080917402882311F08A
:102B600084E007C08091E30087FD02C081E001C0DE
:102B700083E0809373028CEE92E00E943803809190
:102B800073028091E10083FF2BC08091E20083FFFC
:102B900027C08091E100877F8093E10082E08093ED
:102BA0007302109274028091E1008E7F8093E100A5
:102BB0008091E2008E7F8093E2008091E20080614C
:102BC0008093E20042E060E080E00E94A81F8091D4
:102BD000F00088608093F00080EF92E00E9438035C
:102BE000FF91EF91BF91AF919F918F917F916F91E5
:102BF0005F914F913F912F910F900FBE0F901F90BB
:102C000018952091E4003091E50095E64091EC00A4
:102C1000842F817040FF23C08091E80080FD1DC09B
:102C200080917302882399F0853099F08091EB00B0
:102C300085FD11C04091E4005091E500241735074F
:102C400029F3915011F09A01E1CF84E0089582E0D8
:102C5000089583E0089581E0089580E0089540910B
:102C6000E80042FFDDCF0895CF92DF92FF920F93ED
:102C70001F93CF93DF936C0100914802809147022C
:102C8000082BC3E0D0E010E0C8010C2E02C09595DF
:102C900087950A94E2F780FD04C02197A8F7F12CEC
:102CA00009C0FC2EB6018C2F0E946F1C0E948C1C48
:102CB000019799F38F2DDF91CF911F910F91FF9085
:102CC000DF90CF900895CF93DF93EC010E943416EC
:102CD000BE010E946F1C0E948C1CDF91CF91089551
:102CE000292F963078F5863068F590E036E0239FFE
:102CF000800D911D1124682F677023E096958795AC
:102D00002A95E1F7FC01EE0FFF1FE80FF91FE358CA
:102D1000FD4F40E050E080E0219130E0062E02C0FF
:102D2000369527950A94E2F721703327042E01C0C7
:102D3000220F0A94EAF7822B4F5F5F4F4330510511
:102D400059F7089580E00895292F963088F5863048
:102D500078F590E036E0239F800D911D1124282FF7
:102D6000277051E001C0550F2A95EAF723E09695A8
:102D700087952A95E1F7FC01EE0FFF1FE80FF91F79
:102D8000E358FD4F20E030E070E04081CB01022E9F
:102D900002C0969587950A94E2F781708195842701
:102DA0008523842781932F5F3F4F2330310569F7B7
:102DB00008958093480208959091480221E030E000
:102DC000F90101C0EE0F8A95EAF7D90102C0AA0FF6
:102DD000BB1F6A95E2F7BD016E2B01C0220F4A9519
:102DE000EAF7892F8623681303C0892F822B03C03B
:102DF0002095822F89230E94D916089521E030E082
:102E000001C0220F8A95EAF720958091480282231B
:102E10000E94D916089521E030E001C0220F8A9562
:102E2000EAF780914802822B0E94D9160895809378
:102E30004702089592959F70963079F010F4925061
:102E400001C09A50923068F4803F69F018F4883ECF
:102E500040F409C0843F29F406C0883E20F0813F39
:102E600011F080E0089581E00895FC01248122237F
:102E700039F0808191810E9463160E941A1708958B
:102E800080E00895A4E1B0E0E8E4F7E10C942D2C93
:102E90008C0186E0F801DE011F9601900D928A9563
:102EA000E1F7D80114969C9014971596EC9084E95C
:102EB000A82E82E0B82E80919802811122C099201C
:102EC00009F452C0EE2009F44CC0C8010E94351725
:102ED000F82E882309F445C087E0F801A4E9B2E0A0
:102EE00001900D928A95E1F780919802813031F43A
:102EF00080919402909195020E9463160E94C81ED0
:102F000062C1F80170808180C280D38060E084E972
:102F100092E00E94A424F0909902809196029091F0
:102F20009702FF2009F4F2C09601281B390B2D37B8
:102F3000310508F0A9C09920B9F080919A02382F84
:102F4000307F20919502D80111969C9111973323DF
:102F500071F0291709F468C0C8010E943517811162
:102F60006CC0C8010E94DA03FF24F3942CC129131A
:102F700014C0209194029C9129130FC0E1100DC040
:102F80008F70806180939A0284E992E00E94DA0354
:102F900080919A02F801868315C1E1103BC040E0A0
:102FA000682D872D0E949E1EE82E882329F080918F
:102FB0003C0380FDFCC006C17F86888A8F85988986
:102FC0000E946316292F22952F70243020F49F70C1
:102FD000223028F009C02A50223088F015C09923E9
:102FE00051F0811108C014C0992329F0D801169618
:102FF0009C91907F69F0805E883030F409C0803FFA
:1030000038F0815F833020F0C8010E94DA03EF2C92
:10301000FE2CD9C080919A02816080939A0280919F
:103020003C0381FDCFC0C3C020919402F801908180
:10303000291392CFE11090CF99C0EE2009F491CFDF
:1030400020919A02822F82958F7090E002978CF0E7
:10305000809194029091950299878887DB86CA8631
:10306000809198028C871D862E87CE0108960E943B
:10307000DA0387E0F801A4E9B2E001900D928A95A5
:10308000E1F70E94C81E70CF80919A02982F907F1E
:1030900039F484E992E00E94DA0387E0D5018FC019
:1030A000992009F461CF20919502F80191812913AB
:1030B0000CC0209194029081291307C0E11005C033
:1030C0008683C8010E94DA036CC0C8010E943517CC
:1030D000882309F446CFEE2009F443CF20919A02C9
:1030E000822F82958F7090E002971CF2809194025B
:1030F000909195029A838983DC82CB828091980299
:103100008D831E822F83CE010196B1CFC81AD90AB2
:10311000BDE7CB16D10408F044C0992009F424CFB0
:10312000FE2CEE2009F41DCF90919502F8018181CB
:10313000981329C0909194028081981324C0909193
:103140009A0290FD17C0892F82958F70282F30E04A
:103150002115310579F096832F30310541F08F5FCD
:10316000982F9295907F86818F70892B8683C801D6
:103170000E94DA0387E0F801A4E9B2E001900D9221
:103180008A95E1F720C0C8010E943517811171CFDF
:1031900080919A02816080939A02C8010E94DA03AA
:1031A00012C087E0D5011D928A95E9F70CC084E929
:1031B00092E00E94DA03E4E9F2E087E0DF011D9289
:1031C0008A95E9F7F12C8F2D6496EDE00C94492C4B
:1031D0001092FE0286E0EEE8F2E0DF011D928A9591
:1031E000E9F71092FD020E94491E0895882341F0DC
:1031F00080959091FD0289238093FD020E94491ED3
:103200000895882339F09091FD02892B8093FD0267
:103210000E94491E0895882321F00E94DC1D0E940F
:10322000491E0895882339F09091FE02892B8093DE
:10323000FE020E94491E0895882309F445C0682FA4
:10324000823869F40E943B2181FF3EC069E38CE82B
:1032500092E00E9421210E94491E69E322C0833826
:1032600069F40E943B2180FF2FC063E58CE892E067
:103270000E9421210E94491E63E513C0843869F42D
:103280000E943B2182FF20C067E48CE892E00E940C
:1032900021210E94491E67E404C08CEF860F813A09
:1032A00028F48CE892E00E9414210CC080E2860F82
:1032B000883050F4677081E001C0880F6A95EAF7A2
:1032C0000E94DC1D0E94491E0895CF93882309F4B3
:1032D0007CC0C82F8238B1F40E943B2181FD75C0AB
:1032E00069E38CE892E00E9421210E94491E2FEFA1
:1032F00087EE93E0215080409040E1F700C000004D
:1033000069E32FC08338B1F40E943B2180FD5DC08A
:1033100063E58CE892E00E9421210E94491E2FEF74
:1033200081EE94E0215080409040E1F700C0000021
:1033300063E517C08438D1F40E943B2182FD45C06B
:1033400067E48CE892E00E9421210E94491E2FEF41
:1033500081EE94E0215080409040E1F700C00000F1
:1033600067E48CE892E00E94142124C08CEF8C0F5B
:10337000813A80F4EEE8F2E084E992E02191C2170C
:10338000E1F08E179F07D1F76C2F8CE892E00E9436
:10339000212110C080E28C0F8830B8F4C77081E022
:1033A00090E001C0880FCA95EAF79091FE02892B40
:1033B0008093FE020E94491E08C06C2F8CE892E0A8
:1033C0000E9414210E94491EDFCFCF9108951F93C0
:1033D000CF93DF93182F893329F4C0913F03D09105
:1033E000400304C0C0913D03D0913E03812F0E9451
:1033F0006519209741F08FE99FE00197F1F700C030
:1034000000002197F6CF812F0E941C19DF91CF91E8
:103410001F9108959091FB0292FF10C041E0282F68
:103420002471243009F040E031E0282F2871283041
:1034300009F030E0431711F02CE0822793FF10C011
:1034400041E0282F2471243109F040E031E0282F99
:103450002871283109F030E0431711F02CE0822761
:103460003091FC0230FF10C051E0282F2171213033
:1034700009F050E041E0282F2871283009F040E0A1
:10348000541711F029E0822731FF10C041E0282FA6
:103490002171213109F040E031E0282F28712831D5
:1034A00009F030E0431711F029E0822794FD877E70
:1034B00008958238910569F1B0F48133910509F4DA
:1034C00075C048F48932910509F467C08A329105C4
:1034D00009F471C008958533910509F459C0893301
:1034E0009105B9F00895833E910589F138F4803E45
:1034F0009105D1F0823E910529F10895863E91050E
:10350000C9F1873E9105D9F1843E910509F06CC05F
:1035100027C02091FB0220FD57C021FD55C02091FE
:10352000FC0223FD5BC008958091FB0280FD48C032
:103530008091FC0280FF48C08091FB0284FD46C060
:1035400083EE51C08091FB0282FF3CC0F5CF809199
:10355000FB0282FD37C08091FC0280FD35C0ECCFBC
:103560008091FC0281FF36C08091FB0284FD2EC059
:1035700087EE39C08091FB0283FF2AC0F5CF80918E
:10358000FB0283FD25C08091FC0281FD23C0ECCFAE
:103590008091FB0285FD22C01FC08091FB0285FD4A
:1035A0001BC08091FC0283FF19C00AC08091FB02FE
:1035B00086FD16C017C08091FB0286FD13C010C0A7
:1035C00089E311C082EE0FC080EE0DC080E00BC019
:1035D00086EE09C084EE07C085E305C089E203C01A
:1035E0008AE201C081E390E00895EF92FF921F9379
:1035F000CF93DF9300D000D0CDB7DEB77B0180E062
:1036000090E00E94AD2B882309F463C040910E0125
:1036100050E04115510511F041E050E060910F017B
:103620007091100162517D4FCE0104960E945C2E74
:103630004091EA025091EB026091EC027091ED0230
:103640002FB7F89480914F0390915003A0915103AC
:10365000B09152032FBF841B950BA60BB70B84367A
:103660009105A105B10538F48FEE92E00E942C116E
:103670009C81891781F181E090E00E94AD2B182F89
:10368000882391F04091160150E04430510510F02C
:1036900043E050E0609117017091180162517D4F35
:1036A000CE0101960E945C2E8FEE92E00E942C11BA
:1036B00091E02C81281390E0192311F10E94D3206E
:1036C0006093EA027093EB028093EC029093ED0218
:1036D0000CC010E001C011E08091EF029091F00267
:1036E000A091F10289839A83AB83112349F08981E8
:1036F0009A81AB818093E7029093E802A093E9025C
:103700008091E7029091E802A091E902F70180839D
:103710009183A283812F0F900F900F900F90DF91D4
:10372000CF911F91FF90EF900895A0E0B0E0EBE9FA
:10373000FBE10C94302C7C015B016A018091FA0260
:103740008A3018F001E010E002C00AE010E0C1E0A9
:10375000D0E0B501C701F6010995811115C0219688
:103760000C171D0794F0CC9F9001CD9F300D300DAC
:10377000112480E090E045E34A95F1F700000196BE
:1037800082179307C1F7E5CF81E0CDB7DEB7EAE056
:103790000C944C2C8091E602811118C08091D800C5
:1037A00080618093D8008AE18A95F1F700C080910A
:1037B000D90080FD02C082E001C081E08093E60272
:1037C000823021F40E945C141092730281E0909187
:1037D000E602913009F080E0089584988C988FE893
:1037E00091E00197F1F700C000008FB182958170E0
:1037F000809301010E94CA1B81110E94C22A089570
:103800000F931F930E94CA1B882319F00E94D32094
:103810000EC00E94D32000915101109152012091BD
:10382000530130915401600F711F821F931F1F912C
:103830000F910895A4E0B0E0E0E2FCE10C94382C94
:103840004091F6025091F7026091F8027091F902EE
:103850002FB7F89480914F0390915003A09151039A
:10386000B09152032FBF841B950BA60BB70B843668
:103870009105A105B10570F10E94001CDC01CB018E
:103880000296A11DB11D89839A83AB83BC8380916D
:103890001C0190911D0182519D4F40911B0150E0F0
:1038A0004530510510F044E050E0BE016F5F7F4F9E
:1038B0000E945C2E82E090E00E94AD2B882359F09C
:1038C0000E94D3206093F6027093F7028093F8026F
:1038D0009093F90281E02496E2E00C94542C20911C
:1038E000620230916302232BA1F4703F39F4603FF0
:1038F00081F48091DA049091DB040895763048F4E5
:10390000663038F4843028F4462F672F0E94EC216B
:10391000089580E090E008951F93CF93DF930E9475
:10392000591AEC01C11582E5D807C8F5C11590E513
:10393000D90708F0BBC0C83ED105C0F4C03ED105D0
:1039400008F0DDC0C53AD10550F4C430D10508F007
:10395000D6C0219709F0D0C081E090E0D1C0CD3C25
:10396000D10508F4C9C0CE019065CAC0C11580E474
:10397000D80708F05AC0C11590E2D90708F0AFC0C7
:10398000C11581E0D80708F4B7C08D2F0E940A1A2C
:10399000182FCE0199270E94591A1F71ABC0C03849
:1039A00092E5D90720F5C03682E5D80708F061C056
:1039B000C03492E5D90708F04AC0C03282E5D80782
:1039C000F0F54C2F4695469590E2499FA0011124B1
:1039D000C37021E030E0C90102C0880F991FCA9569
:1039E000E2F7EA01C82BD92BCE019D6889C0C03C03
:1039F00092E5D90768F48C2F8F71C03AD24508F050
:103A00004CC090E0D82FCC27CE01846F906A78C04C
:103A1000C03E82E5D80708F06FC0CF71DD27DC2FEC
:103A2000CC27CE01806F906A6BC0CE0199270E948F
:103A3000591ACC27DF70D06A8C2B9D2B61C0CF71B7
:103A4000D0E0DC2FCC27CE01816F906A59C08C2F3B
:103A50008F718695869590E2899F90011124C3709D
:103A600081E090E002C0880F991FCA95E2F79C6838
:103A700011C08C2F8F718695869590E2899F900159
:103A80001124C37081E090E002C0880F991FCA958D
:103A9000E2F79A68822B932B33C00E940A1A8F7127
:103AA00090E0D82FCC27CE0190622AC08C2F8F7146
:103AB0000E940A1A95E0D695C7959A95E1F7CF70BE
:103AC000D0E0DC2FCC27282F30E084FF05C084E035
:103AD000220F331F8A95E1F7D069CE01DBCF8D2FFE
:103AE0008F710E940A1A182FCE0199270E94591A25
:103AF0001F719062912B04C080E090E001C0CE0164
:103B0000DF91CF911F910895A6E0B0E0EAE8FDE1D2
:103B10000C94362C0E94DF208C018091E40290915D
:103B2000E5020817190781F019821A820E94DF2026
:103B3000682F49815A81792F80E090E00E94AF245C
:103B40001093E5020093E4022696E4E00C94522CD4
:103B50008091E302882331F01092E3021092E20296
:103B60001092E1020895CF939091FC0292FF0DC054
:103B70009091E302981749F0C82F0E94DF2090939C
:103B8000E2028093E102C093E302CF910895909105
:103B9000E302292F282379F0809589238093E3027B
:103BA000882319F00E94DF2002C080E090E090930B
:103BB000E2028093E102089580959091FE028923AC
:103BC0008093FE0208951092D8021092D7021092AC
:103BD000D60208959091D802809589238093D802C7
:103BE000282F277069F4981759F09091FC0292FFE2
:103BF00007C08695869586950E94FE160E94E31D55
:103C000008959091FC0292FB222720F9281779F061
:103C100080FB92F99093FC026091FB027091FC0290
:103C200084E090E00E94A42C82E00E94EA1D0895A6
:103C30009091FC0292FF10C098E0899F900111249E
:103C4000262B2093D8020E940B170E94DF2090930E
:103C5000D7028093D60208950E940B170895809191
:103C6000210390912203892B89F00E94DF2020916B
:103C7000E1023091E202AC01421B530B81E0209142
:103C80002103309122034217530708F480E081702A
:103C900008959091FE028091FD02892B80938C0201
:103CA0008091E302882301F1809121039091220306
:103CB000892B29F00E942F1E81110E94A81D90912E
:103CC0008C028091E302892B80938C02EEE8F2E073
:103CD00097E080E0915029F021912223D9F38F5F62
:103CE000F9CF81110E94A81D48E050E069ED72E013
:103CF0008CE892E00E944F2E892BA9F088E0ECE836
:103D0000F2E0A9EDB2E001900D928A95E1F7E09121
:103D10004C03F0914D03309731F00280F381E02D98
:103D20008CE892E0099508959091D502292F2823D7
:103D300021F0809598239093D50208952091D40284
:103D400090919B0257E02917A9F030E0529FF001B3
:103D5000539FF00D1124E456FD4F7181761306C078
:103D60007081781303C07581741306C02F5F3F4FB5
:103D70002770E9CF80E0089581E008958091D40212
:103D800090919B02891719F08F5F8770FBCF089580
:103D9000CF93DF9380919A0282958F7009F04EC085
:103DA00080919902882309F449C08091D4024091FE
:103DB0009B025091950260919402C0919602D0911D
:103DC000970277E08417D1F190E0789FF001799F16
:103DD000F00D1124DF01A456BD4F14962C911497B9
:103DE000222349F111962C911197251324C02C916F
:103DF000261321C015962C91159721111CC01296DF
:103E00002D913C9113972C1B3D0B2D37310598F4C8
:103E100080919A028F70806180939A02EE55FD4FD7
:103E200080818F708061808384E992E00E94DA0350
:103E30000E94BE1E03C001968770C4CFDF91CF9150
:103E40000895089508958091680208959FB7F894A1
:103E5000109264029FBF90917302943009F057C092
:103E60009091E9009F703091EC00232F217030FD7C
:103E700020E8922B24E02093E9002091EB0020FF22
:103E800043C02091EE0027FF3FC02091530322231F
:103E900021F02091E80025FF37C01092530326E05F
:103EA0003091E80035FD15C030917302343061F572
:103EB0003091EB0035FD28C0215021F481E0809342
:103EC000530322C0EFE9FFE03197F1F700C0000093
:103ED000E7CF8093F1008091E80085FD0AC08091D2
:103EE000E80080FFFCCF8091E8008E778093E800A7
:103EF00006C08FB7F89421E0209364028FBF9F70B3
:103F00009093E90080E008959F709093E9008FEF0F
:103F100008958091750287FF11C08091E80082FDAD
:103F200005C0809173028111F8CF11C08091E80023
:103F30008B770BC080917302882349F08091E80051
:103F400080FFF8CF8091E8008E778093E800089595
:103F5000982F973068F59093E900981739F0709191
:103F6000EC002091ED005091F00003C0242F762F3B
:103F700050E021FD02C09F5FECCF3091EB003E7F0F
:103F80003093EB003091ED003D7F3093ED003091A8
:103F9000EB0031603093EB007093EC002093ED0068
:103FA0005093F0002091EE0027FDE5CF80E00895CA
:103FB0008F708093E90081E0089520917B02309119
:103FC0007C022617370748F06115710539F42091F6
:103FD000E8002E772093E80001C0B901FC0120E041
:103FE0006115710579F1809173028823F1F18530B3
:103FF000F1F18091E80083FD3CC08091E80082FDF2
:104000002EC08091E80080FFEBCF2091F3008091DB
:10401000F20090E0922B6115710551F08830910506
:1040200038F421912093F100615071090196F3CF8A
:1040300021E0089709F020E08091E8008E778093D6
:10404000E800CECF2111CFCF0AC080917302882320
:1040500061F0853061F08091E80083FD0AC08091B5
:10406000E80082FFF2CF80E0089582E0089583E0C7
:10407000089581E008950F931F93CF93DF938B01F1
:10408000EA0190917302943079F58F708093E90082
:104090008FEF9091E800815095FD06C095ED9A95BF
:1040A000F1F700008111F5CF8091E80085FF1CC079
:1040B0000E940116882361F08091E8008E7780933A
:1040C000E80012C0F80181918F018093F1002197DF
:1040D000209791F38091E80085FDF4CF8091E8006E
:1040E0008E778093E800E4CFDF91CF911F910F91FD
:1040F0000895CF93DF93EC0148E050E0BC0181E0EC
:104100000E943B2088E0FE01A9E6B2E001900D92FA
:104110008A95E1F7DF91CF91089587E797E790932C
:104120000108809300089AE088E10FB6F894A895FA
:10413000809360000FBE90936000FFCF78941F9231
:104140000F920FB60F9211248F939F93AF93BF934B
:1041500080914F0390915003A0915103B09152036D
:104160000196A11DB11D80934F0390935003A0931E
:104170005103B0935203BF91AF919F918F910F90D4
:104180000FBE0F901F9018959C014FB7F894809127
:104190004F0390915003A0915103B09152034FBF30
:1041A000821B930B08952FB7F89460914F03709181
:1041B000500380915103909152032FBF08952FB760
:1041C000F89480914F0390915003A0915103B091C6
:1041D00052032FBF08951F920F920FB60F92112412
:1041E0008F939F93AF93BF9380914E03811113C020
:1041F00080914F0390915003A0915103B0915203CD
:104200004196A11DB11D80934F0390935003A0933D
:104210005103B0935203BF91AF919F918F910F9033
:104220000FBE0F901F9018959C012A5F3F4FFC0115
:104230004281461301C01282019682179307B9F793
:1042400008959C01FC0132969FEF80E04191461752
:1042500089F09F3F19F4411101C0982F8F5F86307C
:10426000A9F79F3F39F0F901E90FF11D97FDFA9584
:104270006283089508950E94CA1B882359F0E09133
:104280004C03F0914D03309729F00190F081E02D1F
:104290000995089580E008950F931F93CF93DF93BE
:1042A000C42FD22FFC0185818823B1F040934B03AA
:1042B0000E94DF2090934A038093490380E28C0F91
:1042C000883008F04DC0C77081E001C0880FCA95E2
:1042D000EAF70E94121944C080914B03481330C082
:1042E0008091490390914A030E94C4208D37910523
:1042F00038F510E21D0FCD17B9F080E28C0F883031
:1043000040F4C77081E001C0880FCA95EAF70E94A7
:104310000B19183010F581E09D2F977001C0880FA0
:104320009A95EAF70E941219802F0E94E719183017
:10433000B8F4D77081E001C0880FDA95EAF70AC0B7
:1043400080E28C0F883060F4C77081E001C0880F74
:10435000CA95EAF70E940B1903C0802F0E94E71943
:10436000DF91CF911F910F910895CF93DF93CDE609
:10437000D1E060E0CE010E94862C2196C11584E038
:10438000D807B9F7DF91CF9108951F93CF93DF93AB
:10439000962F8430E8F46630D8F44630C8F4632FA2
:1043A000122FC42FD0E0CC0FDD1F2CE0929FC00D48
:1043B000D11D112498E4899FC00DD11D1124CE0177
:1043C00089960E94862C612FCE018A960E94862CA7
:1043D000DF91CF911F9108950F931F93CF93DF9398
:1043E000843008F56630F8F44630E8F4C42FD0E0A5
:1043F000CC0FDD1F2CE0629FC00DD11D112438E4CD
:10440000839FC00DD11D1124CE0189960E94682C76
:1044100090E0182F0027CE018A960E94682C980100
:10442000282BC90102C080E090E0DF91CF911F915D
:104430000F91089580912501877F809325019091A8
:10444000FD029D7F9093FD0284FF08C08F7E8093C4
:1044500025018091FE0282608093FE0280912501F9
:1044600085FF08C08F7D809325018091FE028062C8
:104470008093FE020E94491E0895662329F0209130
:10448000FD0222602093FD029C0130522115304331
:1044900008F499270E94A2250895009741F0EFE9BA
:1044A000FFE03197F1F700C000000197F6CF0895C3
:1044B000A0E0B0E0EEE5F2E20C94302C5C017B0170
:1044C000C42E89018091250182FF88C0C0914503D7
:1044D000D0914603CA15DB0521F0A114B10409F0FF
:1044E0007DC0809125018B7F8093250181FD11C0C6
:1044F0008091430390914403A701481B590B81E02D
:1045000020912301309124014217530718F480E0D1
:1045100001C081E08170D82E80912501D0FA81F907
:1045200080932501FE01FF2784E0F695E7958A95A3
:10453000E1F79E012F703327EE0FFF1FE150FD4F73
:1045400081E090E002C0880F991F2A95E2F7DD20F4
:1045500029F020813181822B932B06C08095909584
:104560002081318182239323918380838091FE0275
:1045700081FF08C08091250180618093250182E040
:104580000E94DC1D8091FE0285FF08C080912501FC
:1045900080628093250180E20E94DC1DA8016D2DC0
:1045A000CE010E943D22CC2031F080913A0385FF5C
:1045B00002C086FF2BC080913D0390913E030E9474
:1045C0004D2280914503909146039C013052211564
:1045D000304308F499270E94882512C0C5019052E3
:1045E0008115904318F4C501992701C0C5010E94A7
:1045F00088258091450390914603A816B90611F4C9
:104600000E941A22F0924403E0924303CDB7DEB732
:10461000EAE00C944C2CA0E0B0E0E1E1F3E20C9471
:104620002F2CEC01A62E8AE0982E2881222309F453
:10463000A5C0213009F041C08981813039F48E0153
:104640000E5F1F4F8A810E94E71908C0823041F433
:104650008E010E5F1F4F8A810E946519E80181C09B
:10466000833039F48E010E5F1F4F8A810E941C191E
:10467000F5CF843011F0219674C02A81229680E013
:1046800090E030E0205331092A30310558F4989EEB
:10469000A001999E500D1124C901840F951F2196E8
:1046A0002881EFCF009709F45CC0EFE9FFE0319774
:1046B000F1F700C000000197F5CFE22FF0E0EE51D6
:1046C000FC4FB490822F86958695869590E0FC01EC
:1046D000EE52FC4FE4902770F12C022E02C0F594AC
:1046E000E7940A94E2F7F1E0EF22FF24FC01EE5395
:1046F000FC4FC490D12C022E02C0D594C7940A94CA
:10470000E2F731E0C322DD24FC01EE54FC4F0491BA
:1047100010E002C0159507952A95E2F70170112760
:10472000E114F10419F081EE0E946519C114D1045D
:1047300019F086EE0E9465198B2D0E94E719C114AD
:10474000D10419F086EE0E941C19E114F10419F04D
:1047500081EE0E941C190115110519F08CE20E94CE
:10476000E71921968A2D882309F45FCFEFE9FFE04E
:104770003197F1F700C000008150F5CFCDB7DEB71B
:10478000EBE00C944B2CEFE1F3E0128E138E8FEAEA
:1047900090E09183808385E0848F28E833E1338340
:1047A000228322E330E0378B268B2DE730E0318FF8
:1047B000208F158E25E030E0378F268F20E530E002
:1047C00031A320A382A30E949D290E94E818109281
:1047D000FC021092FB02ECEFF2E0808184608083A7
:1047E0006091FB027091FC0284E090E00E94A42C96
:1047F0000E9476290895A0E0B0E0E1E0F4E20C9494
:104800002E2CC0904703D090480381E090E0909315
:10481000480380934703812CE12CF12C912C00E07C
:1048200010E0C0E0D0E05701A00EB11EFE01EE0F77
:10483000FF1FEA0DFB1DEE59FB4F259134914C2FC4
:10484000692D882D0E94C5212196C630D10571F7AA
:10485000045F1F4F939486E09812E3CF88E4E80E3C
:10486000F11C839484E08812D9CF0E94C323D09294
:104870004803C0924703CDB7DEB7ECE00C944A2C56
:104880009C013A9521153F4130F5BC0166277270B5
:10489000AC01442754709C012227387094FF0FC04C
:1048A00090FF02C080E101C080E0672B09F08062C8
:1048B000452B09F08064232B79F080680895892FB7
:1048C0008170672B09F08260452B09F08460232BEF
:1048D00019F08860089580E008958295982F937369
:1048E00044E0949F900111248C7C86958695282B1A
:1048F000822F8575880F2A7A2695822B0895A6E047
:10490000B0E0E5E8F4E20C94372C49835A834981FE
:104910005A81992361F0222351F0CA010E94341672
:10492000182F682F89819A810E94A41604C0CA0199
:104930000E947016182F69817A81812F0E946F1C46
:104940002696E3E00C94532CFC01262F40815181E4
:1049500062817381848195810E947F240895ABE1F7
:10496000B0E0E5EBF4E20C94362C4E8B5F8B688F55
:10497000798F8A8F9B8F882349F080914F01909186
:10498000500101969093500180934F018B8D8111BE
:104990001092FD028E01015F1F4F87E0D8011D922A
:1049A0008A95E9F786E0FE017696D80101900D928E
:1049B0008A95E1F78091FC0282FF28C08091210353
:1049C00090912203892B11F10E94DF202091D602C1
:1049D0003091D702821B930B209121033091220347
:1049E0008217930740F08091D80282FB992790F9B3
:1049F00081E0892701C080E080FF03C082E00E943F
:104A0000EA1D0E942F1E81110E94A81D8B898823F8
:104A100021F061E0C8010E94A42487E0FE013F96D6
:104A2000DE01189601900D928A95E1F7CE01089665
:104A30000E94421781112CC087E0FE013896DE01EA
:104A4000119601900D928A95E1F76C85662301F12C
:104A500020919B0230E0C90101968770992740910F
:104A6000D40250E08417950761F16D8397E0929F1F
:104A7000D001939FB00D1124A456BD4FFE01319675
:104A800001900D929A95E1F780939B020E94BE1EC1
:104A900017E08091D40290919B028917F9F0189F3A
:104AA000C001112484569D4F0E9442178823B1F003
:104AB0008091D40290E00196877099278093D40268
:104AC000E8CF0E94E81810929B021092D402E4E909
:104AD000F2E087E0DF011D928A95E9F76B96E4E04A
:104AE0000C94522C0E94E8182FEF84E39CE0215094
:104AF00080409040E1F700C000009AE088E10FB6E6
:104B0000F894A895809360000FBE90936000FFCF4B
:104B1000CF93DF93EC010E941C19CE01805E9109B6
:104B2000089710F0209731F4CE010E9440240E9493
:104B30000B1905C0CE010E9440240E94F618DF9197
:104B4000CF910895CF93DF93EC01805E9109089790
:104B500010F0209731F4CE010E9440240E941219D7
:104B600005C0CE010E9440240E9401198C2F0E9492
:104B70006519DF91CF910895CF93DF93219AE62FA6
:104B8000F0E0EB5BFE4F908190FF02C02E9A01C0D7
:104B90002E9891FF02C02A9A01C02A9892FF02C063
:104BA0002B9A01C02B98AEE2B1E061E371E0C1E065
:104BB000D0E06A177B0789F09D91E92FE295EF70AD
:104BC000F0E022A19F70AE0101C0440F9A95EAF770
:104BD000942F9095922392A3ECCFF8942198299842
:104BE000E82FF0E0E25DFE4F9081E92FE295EF7053
:104BF000F0E032A1292F2F7081E090E001C0880FF2
:104C00002A95EAF7832B82A386E880937A0080E8CE
:104C100080937B0080910001866080937C0080916E
:104C20007A00806480937A0080917A0086FDFCCFC0
:104C3000809178002091790090E0922B20917A0069
:104C40002F7720937A007894811524E0920728F436
:104C5000969587959695879502C08FEF90E0DF91A6
:104C6000CF910895A5E1B0E0E8E3F6E20C94282C9A
:104C700027EF31E03B872A8736E8A32E34E0B32EB6
:104C8000BE86AD8610E0212C312C81E090E0022C14
:104C900001C0880F0A94EAF7888B282F2095298B6A
:104CA0008FE392E09F838E832F86AD85BE85B98783
:104CB000A8872C868A849B8400E06F85802F0E94C1
:104CC000BC25BC01A885B9858D939C93EE81FF819D
:104CD0009081292F30E0022C02C0359527950A9447
:104CE000E2F720FF0AC0D4012D913C9162177307AF
:104CF00008F088C0B9899B231AC0EC856E2E712CF0
:104D000027E0269DF001279DF00D1124EB5AFE4F60
:104D10008081D40194962D913C919597280F311D57
:104D20002617370738F4B8899B2BEE81FF819083D3
:104D300081E069C080E090E00E94272D6B017C013A
:104D400021E1269DF001279DF00D1124EC5AFC4F26
:104D50008089882349F0C086D186E286F386C4869E
:104D6000D586E686F786108A31E1369DC001379DEB
:104D7000900D1124DC01AC5ABC4FBD83AC8314965A
:104D80004D905D906D907C90179718962D913D9168
:104D90004D915C911B97C301B2010E94B52D6A8BA6
:104DA0007B8B8C8B9D8BA3019201C701B6010E9466
:104DB000B52D9B01AC016A897B898C899D890E94F4
:104DC000BB2C2B013C01EC81FD812485358546857A
:104DD000578560817181828193810E94B52D9B01ED
:104DE000AC01C301B2010E94BB2CAC81BD811896FD
:104DF000CD92DD92ED92FC921B97FD016487758741
:104E00008687978780E0182B2E813F812F5F3F4F49
:104E10003F832E833C853D5F3C874CE0840E911C94
:104E20000F5F888599850C9699878887033009F0EC
:104E300044CF9FEF291A390AAA85BB851296BB87F2
:104E4000AA87ED85FE853296FE87ED87F6E02F1660
:104E5000310409F01ACF8091CE049091CF049C01C7
:104E60002F5F3F4F8C32914029F03093CF04209335
:104E7000CE0439C01092CF041092CE048AEA682E74
:104E800084E0782E94E8E92E95E0F92E22E8C22EEF
:104E900025E0D22E6A147B0411F1812C912CF501AE
:104EA000E80DF91D81818F9380818F93FF92EF929E
:104EB0000E94D103E2E08E0E911C0F900F900F9094
:104EC0000F90FCE08F16910451F7DF92CF920E9471
:104ED000D1032CE0A20EB11C0F900F90DBCF88E81D
:104EE00095E00E943803E0904602112349F081E0EA
:104EF0008093D2040E94DF209093D1048093D00449
:104F00008091D204882309F18091D0049091D1043A
:104F10000E94C4200597C8F08E2D90E0DC01A45AB1
:104F2000BD4F7D0143E050E06FE372E0CD010E9490
:104F30004F2E892B41F083E0EFE3F2E0D70101909F
:104F40000D928A95E1F71092D2040E94CA1BE0915B
:104F50004602882309F46AC019821A821B82F0E093
:104F60009F01245A3D4F79018091FA028A3058F40A
:104F700045EF5AE1BE016F5F7F4FC7010E94951B4D
:104F8000882349F10AC08091D3049091D4040E94EF
:104F9000C420843F914060F72FC04AE15CE1BE012C
:104FA0006F5F7F4FC7010E94951B8823A1F010926D
:104FB000FA028091450290E043E050E0BE016F5F4D
:104FC0007F4F845A9D4F0E944F2E21E02093D90499
:104FD000892B01F56AC08091FA028F3F19F08F5F2B
:104FE0008093FA028091FA028A3018F30E94DF203F
:104FF0009093D4048093D3048091D904882309F436
:1050000054C0FE01319683E0DF011D928A95E9F7D5
:105010001092D904E0914502F0E0E45AFD4F8981F5
:105020009A81AB8180839183A2833FC0F0E0E45AF0
:10503000FD4F83E0AFEEB2E001900D928A95E1F76B
:105040008FEE92E00E942C118093EE02C090F2024B
:10505000D090F302E090F402F090F5028091D50434
:105060009091D604A091D704B091D804C816D9065F
:10507000EA06FB06D1F0C092D504D092D604E092A5
:10508000D704F092D8040E94CA1B81110EC00E945E
:10509000D320C61AD70AE80AF90AC0925101D09261
:1050A0005201E0925301F0925401812F6596E2E1A2
:1050B0000C94442CA0E0B0E0E0E6F8E20C94302C34
:1050C0004430510508F46CC04091FB0241FBCC24F4
:1050D000C0F8D12CCC0CDD1C42FB882780F9C82FEE
:1050E000E0E0DE2FCC0FDD1FCC0FDD1FCC2ADD2A48
:1050F00040FBEE24E0F8F12CEC28FD2843FBAA2726
:10510000A0F9B0E023E0AA0FBB1F2A95E1F7EA2A35
:10511000FB2A44FBEE27E0F9F0E034E0EE0FFF1F3E
:105120003A95E1F7EE29FF2945FB222720F930E0E7
:1051300055E0220F331F5A95E1F72E2B3F2B46FBEC
:10514000882780F990E0E6E0880F991FEA95E1F75B
:10515000822B932B47FB442740F950E05695542F60
:10516000442757954795842B952B2091FC02322F8D
:105170003170132F00E0082B192B26952170B22EC9
:10518000BB0CA12C0A291B29012E000C220B330B6E
:10519000FB01008311832283338380E090E002C00F
:1051A0008FEF9FEFCDB7DEB7EAE00C944C2C8091E7
:1051B0001F0390912003909324018093230108956D
:1051C000CF92DF92EF92FF924430510508F471C004
:1051D000FB01C080D180E280F3800E94E8188091BA
:1051E000FB02C0FA80F9B701A6017695679557953D
:1051F000479540FB81F9B701A60122E076956795B6
:10520000579547952A95D1F740FB82F9B701A6013A
:1052100033E076956795579547953A95D1F740FBDA
:1052200083F9B701A601E4E0769567955795479510
:10523000EA95D1F740FB84F9B701A601F5E0769530
:10524000679557954795FA95D1F740FB85F9B701D2
:10525000A601A6E07695679557954795AA95D1F74B
:1052600040FB86F9B701A601B7E07695679557959B
:105270004795BA95D1F740FB87F98093FB0280915F
:10528000FC02D0FA80F999E0F694E794D794C79499
:105290009A95D1F7C0FA81F98093FC026091FB02E4
:1052A0007091FC0284E090E00E94A42C80E090E0E9
:1052B00002C08FEF9FEFFF90EF90DF90CF900895A7
:1052C0009C01CA01F90132964591549184179507C2
:1052D00050F0CB01F9013496659174910E945C2ED7
:1052E00080E090E008958FEF9FEF08950F931F9354
:1052F000CF93DF930FE113E0C9E4D1E0CE010E9428
:10530000682CF80181938F012196CD36F1E0DF07FB
:10531000A9F7C0E0D0E0FE01EC56FA4F85919491D8
:10532000009711F0FC0109952C96C039D10599F729
:10533000DF91CF911F910F9108950F931F93CF93FA
:10534000DF930FE113E0C9E4D1E0CE010E94682CA5
:10535000F80161918F01681719F0CE010E94862C27
:105360002196CD36F1E0DF0781F7DF91CF911F91D4
:105370000F910895DA019C012E5F3F4FF90145918D
:105380005491F90125913491A217B30758F0FC010B
:105390003496859194910E945C2E0E949D2980E014
:1053A00090E008958FEF9FEF0895A6E0B0E0EBED59
:1053B000F9E20C94382C9093DB048093DA04811585
:1053C00020E2920718F40E94882510C080EF89839C
:1053D0008A830E94DF208160682F9C838B834981B0
:1053E0005A817C8181E090E00E94AF242696E2E021
:1053F0000C94542CA6E0B0E0E0E0FAE20C94382CD7
:105400009093DB048093DA04811520E2920718F46C
:105410000E94A22510C080EF89838A830E94DF202A
:105420008160682F9C838B8349815A817C8181E0D4
:1054300091E00E94AF242696E2E00C94542C88E27E
:1054400090E00E94862C0895CF93C82F811102C04E
:105450006FEF01C065EE85E290E00E94862CC111DD
:1054600002C06FEF01C06CE086E290E00E94862CE3
:10547000C11102C06FEF01C06FEA87E290E00E94A5
:10548000862CCF91089580E00E94242A60E070E08D
:10549000CB010E941F2A0E94FB230E94B52181E0BC
:1054A0000E94242A089585E290E00E94682C853E9F
:1054B00081F486E290E00E94682C8C3051F487E2FF
:1054C00090E00E94682C91E08F3A09F090E0892FDB
:1054D00001C080E0817008958EE14A9B02C0815036
:1054E000E1F74A9BFECF08955A9880E28A95F1F73A
:1054F0005A9A0895FC012AE02A95F1F728E090E0F5
:1055000080E031E040E14A95F1F7880F4A9B02C004
:105510008160932700C0000040E14A95F1F72150D7
:1055200089F720E12A95F1F729B100C0000030E1A8
:105530003A95F1F722FB222720F992272081920F3A
:1055400090830895A1E0B0E0E8EAFAE20C94342CEC
:1055500019828C017C01E60EF11C0E151F0551F01D
:105560000E946C2ACE0101960E947A2AF80181934A
:105570008F01F3CF81E09981911180E02196E6E0DF
:105580000C94502C529A5A9A089552985A9AEA9A20
:10559000E9E6F0E080818F7C80830895615091E09E
:1055A00001C0990F6A95EAF720E031E0992361F094
:1055B000492F482319F05A9A232701C05A9840E2EC
:1055C0004A95F1F79695F2CF222311F05A9A01C02D
:1055D0005A9880E28A95F1F75A980895FF920F93AE
:1055E0001F93CF93DF93EC018C01060F111DC017A1
:1055F000D10741F0F9900E94742A68E08F2D0E9433
:10560000CE2AF5CFCDB7DEB7E5E00C94512C1F9232
:105610000F920FB60F9211240F931F932F933F9366
:105620004F935F936F937F938F939F93AF93BF93AA
:10563000EF93FF93CF93DF931F92CDB7DEB719821D
:105640000E946C2ACE0101960E947A2A082F0695A4
:1056500006950695902F96959570202F2570920FA0
:10566000292F237096959695920F877089135FC0A6
:10567000898181115CC0043008F059C080E18A95AD
:10568000F1F75A9A529A82E08A95F1F700C05A9837
:1056900088E0089F80011124D801A55FBE4F1696AF
:1056A000ED91FC9117973097A9F0609143017091AB
:1056B000440114962D913C911597260F371F119692
:1056C0008D919C911297680F791F13964C911397A7
:1056D0008C910995F801E55FFE4F6381662351F0D7
:1056E000809143019091440124813581820F931F61
:1056F0000E94EE2A0E94742A80E18A95F1F75A9856
:1057000052985A9A80E18A95F1F7F801E55FFE4FC9
:105710006081662351F08091430190914401218181
:105720003281820F931F0E94A22A0E946C2A0F903E
:10573000DF91CF91FF91EF91BF91AF919F918F91A9
:105740007F916F915F914F913F912F911F910F9199
:105750000F900FBE0F901F9018950F931F93CF932C
:10576000DF93843091050CF06DC0EC01F894529AEF
:105770005A9885E08A95F1F700009C2F96959570D0
:105780002C2F2570920F892F83709695969523E084
:10579000CC0FDD1F2A95E1F7980F8E01092B0E948F
:1057A000742A84E08A95F1F700C068E0802F0E9497
:1057B000CE2A80E18A95F1F752985A9A4A9902C006
:1057C00000C0FCCF87E090E04A9B08C0019721F41D
:1057D000529A5A9A789436C000C0F6CFFE01E55F1F
:1057E000FE4F6381662381F08091430190914401D3
:1057F00024813581820F931F0E94A22A811104C047
:10580000529A5A9A78941FC00E946C2A80E28A9514
:10581000F1F75A98529A80E18A95F1F7C55FDE4F09
:105820006881662351F08091430190914401298160
:105830003A81820F931F0E94EE2A0E94742A789464
:1058400081E001C080E0DF91CF911F910F91089519
:105850002F923F924F925F926F927F928F929F9280
:10586000AF92BF92CF92DF92EF92FF920F931F936E
:10587000CF93DF93CDB7DEB7CA1BDB0B0FB6F8941F
:10588000DEBF0FBECDBF09942A88398848885F845F
:105890006E847D848C849B84AA84B984C884DF80D0
:1058A000EE80FD800C811B81AA81B981CE0FD11DB4
:1058B0000FB6F894DEBF0FBECDBFED010895FB011A
:1058C000DC0102C005900D9241505040D8F7089578
:1058D000F999FECF92BD81BDF89A992780B50895B8
:1058E000A8E1B0E042E050E00C94AC2CDC01A40F45
:1058F000B51F4150504048F0CB01840F951F2E91A9
:105900000E94872C41505040D0F70895262FF999D6
:10591000FECF92BD81BDF89A019700B4021639F00E
:105920001FBA20BD0FB6F894FA9AF99A0FBE0895DF
:105930000396272F0E94872C0E94862C252F0E94D9
:10594000872C242F0C94872C0196272F0E94872CBC
:105950000C94862CDC01CB01FC01F999FECF06C02A
:10596000F2BDE1BDF89A319600B40D92415050401D
:10597000B8F708955058BB27AA270E94D22C0C9440
:105980007B2D0E946D2D38F00E94742D20F039F48B
:105990009F3F19F426F40C946A2D0EF4E095E7FB72
:1059A0000C94642DE92F0E948C2D58F3BA176207CE
:1059B00073078407950720F079F4A6F50C94AE2DB3
:1059C0000EF4E0950B2EBA2FA02D0B01B90190011A
:1059D0000C01CA01A0011124FF27591B99F0593F5E
:1059E00050F4503E68F11A16F040A22F232F342FA6
:1059F0004427585FF3CF469537952795A795F040F4
:105A00005395C9F77EF41F16BA0B620B730B840B08
:105A1000BAF09150A1F0FF0FBB1F661F771F881FC0
:105A2000C2F70EC0BA0F621F731F841F48F4879518
:105A300077956795B795F7959E3F08F0B0CF93950A
:105A4000880F08F09927EE0F979587950895E894A9
:105A500009C097FB3EF490958095709561957F4FB6
:105A60008F4F9F4F9923A9F0F92F96E9BB27939564
:105A7000F695879577956795B795F111F8CFFAF474
:105A8000BB0F11F460FF1BC06F5F7F4F8F4F9F4FA5
:105A900016C0882311F096E911C0772321F09EE803
:105AA000872F762F05C0662371F096E8862F70E069
:105AB00060E02AF09A95660F771F881FDAF7880F43
:105AC0009695879597F9089597F99F6780E870E014
:105AD00060E008959FEF80EC089500240A94161664
