:100000000C94B9010C94D6010C94D6010C94601A8E
:100010000C94D6010C94D6010C94D6010C94D60104
:100020000C94D6010C94D6010C94A2200C9474214B
:100030000C94DE180C94D6010C94D6010C94D601C5
:100040000C94D6010C94D6010C94D6010C94D601D4
:100050000C94D6010C9483190C94D6010C94D601FF
:100060000C94D6010C94D6010C94D6010C94D601B4
:100070000C94D6010C94D6010C94D6010C94D601A4
:100080000C94D6010C94D6010C94D6010C94D60194
:100090000C94D6010C94D6010C94D6010C94D60184
:1000A0000C94D6010C94D6010C94D6012B072B0787
:1000B000570757079C089C089C089C08AD07230815
:1000C000340834088916FB1691165B165F169516D0
:1000D00062169816A3166D16F1167116A7167516E8
:1000E000AB16D5167916AF16DF167F16B516BF16E6
:1000F00066169C1669169F168416BA16CB16EB1652
:10010000ED1657168D1604179E17A41792179817F9
:10011000AA17B017B617DC210322FB220322FB2209
:100120004F227222FB22C922D8220A002534640001
:100130000A001E001F002000210022001D001400E4
:100140001A000800150017001B0004001600070025
:1001500009000A00060027002600250024002300CD
:100160001100130012000C0018001C000500100004
:100170000F000E000D000B00190044454255473A90
:100180002064697361626C65642E0A0044454255BF
:10019000473A20656E61626C65642E0A000A00258C
:1001A000303258006C65645F7461736B3A20004FA5
:1001B0006E6573686F743A206163746976653A207E
:1001C00025640A000A0025303862003A20002530F4
:1001D0003258000A722F63203031323334353637CB
:1001E0000A0054617267657420636F6E6E65637494
:1001F00065640D0A005461726765742064697363F5
:100200006F6E6E65637465642C207468726F7474AD
:100210006C696E6720636F6E6E656374696F6E20C4
:10022000617474656D7074730D0A004661696C6564
:100230006420746F20657865637574652025730A82
:10024000000A002530325820006B6579626F6172B8
:10025000645F7265706F72743A2025303258207C6A
:10026000200073757370656E64696E67206B6579C5
:10027000626F6172640D0A005B575D005B535D0045
:100280005B525D005B445D005B435D000E036D00EF
:1002900069006E00690065006300000016036700D6
:1002A0006F0072006F00700069006B0061007200E7
:1002B000690000000403090409024200020100A0D1
:1002C000FA090400000103010100092111010001E4
:1002D000224400070581030800010904010002030C
:1002E00000000009211101000122220007058203FC
:1002F0002000010705020320000112010002000096
:100300000008EDFE01000001010200010631FF09B5
:1003100074A1010975150026FF009520750881025A
:100320000976150026FF00952075089102C0050189
:100330000906A101050719E029E71500250195081F
:10034000750181029501750881010507190029FFD2
:10035000150026FF0095067508810005081901297A
:10036000051500250195057501910295017503910B
:1003700001C011241FBECFEFDAE0DEBFCDBF11E018
:10038000A0E0B1E0EAEDF7E402C005900D92AE34D2
:10039000B107D9F722E0AEE4B1E001C01D92A23C62
:1003A000B207E1F70E94DF150C94EB230C940000D8
:1003B000FF93EF93E0914E01F0914F01309709F0D8
:1003C0000995EF91FF910895FC018591803011F01E
:1003D000EFDFFBCF0895FF27E0E230E247FF0CC0DC
:1003E000419597FF09C0EDE26095709580959095D5
:1003F000611D711D811D911D27FF02C0219530E3F4
:1004000050E2AA27660F771F881F991FAA1FA417FB
:1004100010F0A41B63955A95A9F7AA3008F0A95FBC
:10042000A05DAF93F395611571058105910541F7C5
:10043000ED3211F4EF93F395F21718F43F93F3951F
:10044000FBCF8F91B5DFFA95E1F70895E991F99126
:100450008591803021F0853219F0AADFF9CF089517
:1004600020E0E89455915532C1F3503311F468946B
:1004700055915A3348F4505390F3220F022E220F15
:10048000220F200D250FF4CF0EF42195899199911B
:10049000533619F3533729F1533559F1BC018827E5
:1004A0009927E8945C3621F4899199916894559143
:1004B000543639F446EF7EF077FF0DC08FEF9FEF93
:1004C0000AC055374AE039F0583540E121F052363C
:1004D00042E009F00895FF93EF937DDFEF91FF91E4
:1004E000B7CFFF93EF93FC0181918030B9F360DFC8
:1004F000FBCFFF93EF9368DFF1CFDF93CF93CDB7BF
:10050000DEB72596A3DFCF91DF910895FC0198E433
:10051000A8E9B1E001900D929A95E1F72998219A06
:1005200080E40E94811BA0E3B1E041E050E071E073
:10053000A333B707B1F08D91E82FE295EF70F0E0AB
:1005400021A18F70BA0102C0660F771F8A95E2F76A
:10055000CB01922F982B91A392A18095892382A3FE
:10056000E6CFA7E2B1E021E030E071E0AA32B707C0
:1005700089F08D91E82FE295EF70F0E041A18F7046
:10058000B90102C0660F771F8A95E2F7CB01842B71
:1005900081A3EBCF2198299880E090E00895219ADB
:1005A000E62FF0E0E65DFE4F908190FF02C02E9AAC
:1005B00001C02E9891FF02C02A9A01C02A9892FF8A
:1005C00002C02B9A01C02B98A0E3B1E061E070E07B
:1005D00091E0A333B90789F09D91E92FE295EF707F
:1005E000F0E022A19F70AB0101C0440F9A95EAF799
:1005F000942F9095922392A3EBCF21982998E82FDE
:10060000F0E0E05DFE4F9081E92FE295EF70F0E0C1
:1006100032A1292F2F7081E090E001C0880F2A9528
:10062000EAF7832B82A386EF0E94DC1B0895CF9309
:10063000DC015C91E42FF0E0852F90E0042E02C0F5
:10064000959587950A94E2F770E0C6E080FF1AC09E
:10065000C69FC001C79F900D1124E80FF91FEE0F30
:10066000FF1FE856FE4F808191812817390720F53A
:1006700021E030E001C0220F4A95EAF720952523BA
:100680002C9318C0C69FC001C79F900D1124E80F7E
:10069000F91FEE0FFF1FE454FE4F808191818217F6
:1006A000930750F481E090E001C0880F4A95EAF783
:1006B000852B8C9381E001C080E0CF910895A0E06C
:1006C000B0E0E5E6F3E00C9454235C0180E5C82E2D
:1006D00081E0D82E10E000E07601C0E0D0E0612F8C
:1006E0008C2F0E94CF02F701918380839C01412FC0
:1006F0006C2FC5018C0F9D1F0E941703082B21969C
:10070000FCE0EF0EF11CC330D10549F782E0C80EC2
:10071000D11C1F5F163001F7802FCDB7DEB7EAE09E
:100720000C947023A0E0B0E0E8E9F3E00C945623C9
:10073000C0E5D1E08CE2E82E81E0F82E9AE2C92EE5
:1007400091E0D92E81E0C437D807F1F000E010E045
:10075000FE01E00FF11F81818F9380818F93FF92C3
:10076000EF920E947D020E5F1F4F0F900F900F902F
:100770000F900C30110561F7DF92CF920E947D023D
:100780002C960F900F90DECFCDB7DEB7E8E00C943B
:1007900072230895A8E4B0E0E0EDF3E00C945A234E
:1007A00055985D98209828980E94BD139E012F5F50
:1007B0003F4FBE016B5D7F4FC901A8E7B0E002E883
:1007C00010E0F90140E050E0A193B19313A302A31C
:1007D0004F5F5F4F46305105B9F7245F3F4F2617F3
:1007E000370779F7209102010E9486028091020169
:1007F000811102C093E001C090E090939E0283E0DB
:10080000891B80939D020E94CF13C85BDF4FE4E0F9
:100810000C947623CF930E945F03C82F8091E00150
:100820009091E1019C012F5F3F4F8C32914029F064
:100830003093E1012093E0010AC01092E10110928F
:10084000E0010E94920380E391E00E94E4018C2F7A
:10085000CF910895CF9385EA92E00E940A04C82FB1
:1008600060919E0270E065557D4F282F43E085EA38
:1008700092E00E9466130E94EE128C2FCF91089591
:100880000E94970F08950E949A0F0895811112C037
:10089000663080F4463070F4E42FF0E086E0689F24
:1008A000E00DF11D1124EE0FFF1FEE5CFE4F859150
:1008B0009491089581E090E008950E94460408957F
:1008C00081E0089581E008950E94620408950E94E5
:1008D000640408950E946204089508950E946D04BE
:1008E0000895A6E0B0E0E7E7F4E00C945B234983C9
:1008F0005A839E833091E70189819A81311115C015
:100900003E81332359F0222349F00E944E0A182FCA
:10091000682F89819A810E942A0A03C00E943C0A9A
:10092000182F69817A81812F04C00E944E0A698143
:100930007A810E9424112696E3E00C947723FC012F
:10094000262F4081518162817381848195810E942B
:1009500071040895CF93DF93EC0161E00E949F043E
:10096000BE010E946704DF91CF910895CF93DF937A
:10097000EC0160E00E949F04BE010E946E04DF91C2
:10098000CF91089581E008950E94C2040895CF9305
:10099000C82F0E9401098C2F0E94C4042FEF84E30A
:1009A0009CE0215080409040E1F700C00000CF91D2
:1009B000089581E00E94C7040E94A919089580E06B
:1009C0000E94C7040E94BA1908950F931F93CF93F2
:1009D000DF938C0161E00E949F04EC01B8010E944A
:1009E0006A04882309F45BC0B801CE010E9486170F
:1009F000882309F454C0B801CE010E94331688231D
:100A000009F44DC0B801CE010E940916882309F4EB
:100A100046C0F80185818823E9F1C3308CE7D80707
:100A200079F158F4C130FCE7DF0761F1A0F4C1159A
:100A3000DC4781F50E94D90432C0CB35FCE7DF07E3
:100A400039F1CC358CE7D80701F1CA35DC4711F50F
:100A50000E949F0E1FC080916602C82FC095C17072
:100A6000C0FB80F980936602CC2329F08CE891E0EA
:100A70000E94E40114C08AE791E00E94E40110C0E2
:100A80000E94A70E0E94DF040AC00E94950E02C0B9
:100A90000E94A30EC8010E946004C82F01C0C0E0DC
:100AA0008C2FDF91CF911F910F9108950E94B7185D
:100AB0000E948F0508950E9493050E94C018089512
:100AC0008295982F937344E0949F900111248C7C1D
:100AD00086958695282B822F8575880F2A7A2695EC
:100AE000822B0895089581E008950895CF93DF93B0
:100AF000D82F0E947305C82F882319F08D2F0E94CC
:100B000075058C2FDF91CF9108950895CF93C82F4D
:100B10000E9472058C2F0E947605CF91089580E087
:100B20000E94860508950E94CE170E9486050895AA
:100B3000CF930E94CE17C82F8091E201C81789F188
:100B4000C093E2010E944C196093E3017093E401A9
:100B50008093E5019093E6018091660282FF1EC0BA
:100B600080FF04C084EA91E00E94E4018091660263
:100B700080FF0CC01F92CF938FE991E09F938F93DA
:100B80000E947D020F900F900F900F90809166024F
:100B900080FF04C08DE991E00E94E4018C2F0E9447
:100BA0008605CF910895ADE0B0E0E9EDF5E00C9455
:100BB0005C23488759876A877B878C879D8791113B
:100BC0000E94BD0DCE01019627E0FC0111922A95ED
:100BD000E9F726E0FE013896DC0101900D922A9596
:100BE000E1F72D8121110AC029813A814B815C8175
:100BF0006D817E818F810E94070D04C00E94AA042E
:100C00008111F2CF2D96E2E00C947823FC0124812F
:100C1000213021F4808191810E94800A0895CF9330
:100C2000882309F465C0C82F8238A1F40E94E21716
:100C300081FD5EC089E30E9478180E941F0E2FEF8D
:100C400087EE93E0215080409040E1F700C0000023
:100C500089E32BC08338A1F40E94E21780FD48C0CD
:100C600083E50E9478180E941F0E2FEF81EE94E01A
:100C7000215080409040E1F700C0000083E515C09E
:100C80008438B1F40E94E21782FD32C087E40E94EA
:100C900078180E941F0E2FEF81EE94E021508040C3
:100CA0009040E1F700C0000087E40E9480181EC059
:100CB0008CEF8C0F813A70F48C2F0E943D188823A2
:100CC00029F08C2F0E9480180E941F0E8C2F0E94EA
:100CD00078180CC080E28C0F883050F4C77081E027
:100CE00001C0880FCA95EAF70E94A00D0E941F0E4E
:100CF000CF9108958823E9F1823859F40E94E217D0
:100D000081FF37C089E30E9478180E941F0E89E393
:100D10001EC0833859F40E94E21780FF2AC083E581
:100D20000E9478180E941F0E83E511C0843859F480
:100D30000E94E21782FF1DC087E40E9478180E947B
:100D40001F0E87E404C09CEF980F913A18F40E949C
:100D500080180DC090E2980F983058F4877091E099
:100D600001C0990F8A95EAF7892F0E94A60D0E946B
:100D70001F0E08951F93CF93DF93182FEB010E944E
:100D80000F06209741F08FE99FE00197F1F700C02F
:100D900000002197F6CF812F0E947A06DF91CF9134
:100DA0001F910895893319F065E070E002C060E595
:100DB00070E00E94BA060895882321F00E94A00DD9
:100DC0000E941F0E0895882321F00E94A60D0E9404
:100DD0001F0E0895A0E0B0E0E0EFF6E00C9456237B
:100DE0007C01D62FC72FFC011581068102950F705B
:100DF0000E94960D8823F9F01123E9F08C2F807F53
:100E0000803461F080E28D0F8830A8F08C2F807ED6
:100E1000803221F4D23078F0002369F08091A4026E
:100E200082FF09C082E00E94550E0E94960D91E05B
:100E3000D82ED92601C0D12CCC2EC2948FE0C82246
:100E40008C2D90E08C30910508F076C1FC01EA5AB7
:100E5000FF4F0C9446238C2F807FCF70882311F096
:100E6000C295C07F112399F0CC2309F44CC180E2D4
:100E70008D0F883010F0D11104C08C2F0E94A00D6E
:100E800003C08C2F0E94B00D0E941F0E3CC18D2FFD
:100E90000E947A06CC2309F44FC180E28D0F88307E
:100EA00038F1DD2329F18C2F0E94B60D24C08C2F40
:100EB000807FCF70803211F0C295C07FDD2319F0A2
:100EC000D13099F13CC08091A40282FD17C011235A
:100ED00049F0CC2329F08C2F0E94A00D0E941F0EF8
:100EE00080E012C180E00E947A06CC2309F424C17C
:100EF0008C2F0E94A60D0E941F0E1EC1112349F0C7
:100F0000002309F1013009F017C18C2F0E94C70D91
:100F100013C1011111C18C2F0E94E3068C2F0E9476
:100F2000D30D8C2F0E94280E07C1112321F006300B
:100F300008F002C108C0053008F0FEC00AC0112345
:100F400031F00111E0C08C2F0E94DC06F5C00111C8
:100F5000E0C08C2F0E94E306EFC08C2F8370B1F5A8
:100F60001111EEC04D2F429546954770440F440F26
:100F70008D2F8F7090E09C01042E02C0220F331F32
:100F80000A94E2F7D4FF0AC08FE090E002C0880F15
:100F9000991F4A95E2F78095909502C080E090E015
:100FA000C695C695C370822B932BC23049F058F476
:100FB000C13019F00E945D09C3C00E945409C0C02D
:100FC0000E946609BDC00E945109BAC0112319F0E0
:100FD0008C2F817001C08695882309F4B1C04D2FF4
:100FE000429546954770440F440F8D2F8F7090E0C7
:100FF0009C01042E02C0220F331F0A94E2F7D4FF93
:101000000AC08FE090E002C0880F991F4A95E2F76E
:101010008095909502C080E090E0C695C695C3701B
:10102000822B932BC23049F058F4C13019F00E9442
:10103000C50986C00E94BC0983C00E94CE0980C039
:101040000E9472097DC0CF70112339F08C2F0E944D
:101050008A098D2F0E94DC0673C08D2F0E94E30643
:101060008C2F0E949A096CC0D23F21F128F4D03F06
:1010700041F0D13FC1F043C0D33F19F1D43F79F0E3
:101080003EC0112341F0053008F056C08C2F8F71FF
:101090000E94AC0951C0063008F04EC0F7CF8091D5
:1010A000A40282FD18C0112339F08C2F8F710E9489
:1010B0008A0942C01123C9F38C2F8F710E949A09AB
:1010C0003BC0112329F08C2F8F710E947E0934C000
:1010D0000E94790931C0112349F0CF718C2F0E94F1
:1010E0008A0963E08C2F0E94370E26C081E00E949F
:1010F000550E023008F182E00E94550E1DC01123EA
:1011000031F0002391F28D2F0E940F0615C00023AD
:1011100099F2D93341F4FFEF27EE83E0F1502040FC
:101120008040E1F704C0EFE1FEE43197F1F700C041
:1011300000008D2F0E947A0688EF8C0D843020F4F9
:101140000E94CE170E948605DD2089F00E94920D34
:1011500080FD0DC0F70115820E948C0D0E948A0946
:10116000C7010E94D4080E948C0D0E949A09CDB735
:10117000DEB7E8E00C9472230F931F93CF93DF93B5
:10118000EC01688179818D810E948B0A8C010E941B
:10119000D7090E944209B801CE010E94EA06DF91F8
:1011A000CF911F910F910895CF93DF93FC0124817C
:1011B0002223D1F0EC010E94E50481110FC00E94AE
:1011C000960D882389F08D81882371F08091A40287
:1011D00082FF0AC082E00E94550E06C0CE010E9426
:1011E000BC08CE010E94B604DF91CF9108950E9401
:1011F000BD0D0E941F0E08950E9488180E94F708D6
:1012000008950E94AD0D0E94FC08089592959F706C
:10121000963079F010F4925001C09A50923068F4F0
:10122000803F69F018F4883E40F409C0843F29F4F7
:1012300006C0883E20F0813F11F080E0089581E0F3
:101240000895FC012481222339F0808191810E943C
:10125000800A0E940609089580E00895A6E0B0E0A3
:10126000E4E3F9E00C945C232696E2E00C94782306
:10127000A7E0B0E0EEE3F9E00C945C232796E2E00F
:101280000C947823089508950E94430908950E94BC
:10129000440908950E9447099093FF018093FE013D
:1012A00008950E944A0908952091FE013091FF019E
:1012B000822B932B0E944A0908952091FE013091C0
:1012C000FF01822393230E944A0908952091FE0181
:1012D0003091FF01822793270E944A0908950E94B6
:1012E000430908950E946F099093FD018093FC01CA
:1012F000089580E090E00E947209089521E030E0B6
:10130000A90102C0440F551F8A95E2F7CA010E9445
:101310007209089521E030E002C0220F331F8A9540
:10132000E2F78091FC019091FD01822B932B0E94AA
:101330007209089521E030E002C0220F331F8A9520
:10134000E2F7209530958091FC019091FD01822378
:1013500093230E947209089521E030E002C0220F19
:10136000331F8A95E2F78091FC019091FD0182275D
:1013700093270E94720908952091FC013091FD018C
:10138000822B932B0E94720908952091FC013091C9
:10139000FD01822393230E94720908952091FC018C
:1013A0003091FD01822793270E94720908950895C4
:1013B000962F9770A1E001C0AA0F9A95EAF793E0E3
:1013C000769567959A95E1F7660F771F660F771FF9
:1013D000FA01E60FF71F40E050E0682F70E09081BF
:1013E0009B01042E02C0369527950A94E2F72170DE
:1013F000219529272A23292721934F5F5F4F4430C6
:10140000510569F70895FB01782F777023E09695D1
:1014100087952A95E1F7880F991F880F991FE80F84
:10142000F91F40E050E080E0219130E0072E02C03B
:10143000369527950A94E2F721703327042E01C0D0
:10144000220F0A94EAF7822B4F5F5F4F4430510519
:1014500059F70895282F963070F4863060F4862F5F
:10146000622F70E026E0929F600D711D112448EEFE
:1014700051E00E94D8090895963070F4863060F4E7
:10148000292F90E068EE71E036E0239F800D911DDA
:1014900011240E94030A089580E00895A0E0B0E0BE
:1014A000E4E5FAE00C9455237C010091FC011091D5
:1014B000FD018091FE019091FF01082B192BCFE0D7
:1014C000D0E0CC24C394D12CC6010C2E02C0880FCE
:1014D000991F0A94E2F780239123892B21F4219705
:1014E00098F7B12C07C0BC2EB7018C2F0E94301189
:1014F0000197A9F38B2DCDB7DEB7E9E00C947123EA
:10150000CF93DF93EC010E944E0ABE010E9430117E
:10151000DF91CF9108951F93CF93DF93EB019091CB
:10152000E701992321F0CB010E94800A13C0882390
:1015300049F0CB010E944E0A182F682FCE010E945D
:101540002A0A04C0CB010E943C0A182FBE01812F39
:101550000E943011DF91CF911F9108951F93CF9377
:10156000DF93C091000217E080910102C817A1F03B
:10157000D0E01C9FF0011D9FF00D1124EE5FFD4F88
:1015800020813181428153816481758186810E94ED
:1015900038092196C770E8CFDF91CF911F91089548
:1015A00020913A0230913B0240913C0250913D0221
:1015B00060913E0270913F02809140020E94380982
:1015C0000895CF93DF938091400282958F7009F048
:1015D0004EC080913F02882309F449C080910002E7
:1015E0004091010250913B0260913A02C0913C024D
:1015F000D0913D0277E08417D1F190E0789FF0011F
:10160000799FF00D1124DF01AE5FBD4F14962C9130
:101610001497222349F111962C911197251324C078
:101620002C91261321C015962C91159721111CC0C1
:1016300012962D913C9113972C1B3D0B2D373105A4
:1016400098F4809140028F70806180934002E85F3F
:10165000FD4F80818F70806180838AE392E00E94D9
:10166000D4080E94AE0A03C001968770C4CFDF91F0
:10167000CF910895209100029091010257E029171F
:10168000A9F030E0529FF001539FF00D1124EE5F5E
:10169000FD4F7181761306C07081781303C0758188
:1016A000741306C02F5F3F4F2770E9CF80E0089585
:1016B00081E00895A4E1B0E0E0E6FBE00C94522361
:1016C0008C0186E0F801DE011F9601900D928A954B
:1016D000E1F7D80114968C9114971596EC909AE343
:1016E000A92E92E0B92E90913E02911118C0882344
:1016F00009F486C1EE20D9F1C8010E942109F82E13
:101700008823A9F187E0F801D50101900D928A950F
:10171000E1F7C5010E9406060E94E10A6EC1F801C8
:10172000C080D18082809380F0903F0220913C0263
:1017300030913D02A401421B530BFF2009F400C16C
:101740004D37510508F0ACC0882309F45BC1809186
:101750004002282F207F90913B02222361F09D15AB
:1017600009F46DC0C8010E942109811170C0C8012F
:101770000E94D40845C19D1116C090913A029C1157
:1017800012C0E11010C08F708061809340020E94EF
:10179000D00A8AE392E00E94D40880914002D801E6
:1017A00016968C9317C0E11044C040E06D2D8C2D2F
:1017B0000E943A0BE82E882379F08AE392E00E9497
:1017C000D408EAE3F2E087E0DF011D928A95E9F7A9
:1017D0000E94D00AF12C16C1CF86D88A8F859889AD
:1017E0000E94800A292F22952F70243020F49F70A8
:1017F000223028F009C02A50223080F014C09923EA
:1018000049F0811107C013C0992321F0F801968196
:10181000907F69F0805E883030F409C0803F38F0F6
:10182000815F833020F0C8010E94D408EF2CFE2C89
:10183000E9C080914002816080934002CBCF9091BB
:101840003A029C118FCFE1108DCFD801A4C0EE20B9
:1018500009F48DCF20914002822F82958F7090E005
:1018600002978CF080913A0290913B029987888789
:101870009B868A8680913E028C871D862E87CE01AC
:1018800008960E94D40887E0F801AAE3B2E001902C
:101890000D928A95E1F70E94E10A0E94D00AB0C039
:1018A00090914002292F207F91F4682D9A8A898A8D
:1018B000A6017A899E2D0E942E098AE392E00E9459
:1018C000D40887E0F50111928A95E9F781CF882342
:1018D00009F498C080913B028D1110C080913A02AA
:1018E0008C110CC0E1100AC09683C8010E94D40874
:1018F00087E0F50111928A95E9F784C0C8010E943A
:101900002109882309F433CFEE2009F430CF209148
:101910004002822F82958F7090E002970CF4B3CF33
:1019200080913A0290913B029A8389839C828B82B8
:1019300080913E028D831E822F83CE010196A1CF1E
:101940004D37510508F04CC0882309F459C0FE2CCE
:10195000EE2009F40CCF80913B028D1133C08091B1
:101960003A028C112FC09091400290FD22C0892F25
:1019700082958F70282F30E021153105D1F0D801E4
:1019800096832F30310549F08F5F982F9295907F85
:1019900086818F70892B16968C93C8010E94D4087B
:1019A00087E0F801AAE3B2E001900D928A95E1F791
:1019B00024C087E0F801AAE3B2E001900D928A9575
:1019C000E1F720C0C8010E94210981115CCF8091FC
:1019D0004002816080934002C8010E94D40812C076
:1019E000682D9A8A898AA6017A899E2D0E942E09DD
:1019F00087E0F50111928A95E9F70E94D00A02C0AA
:101A0000FF24F3948F2D6496ECE00C946E23AEE0EB
:101A1000B0E0EDE0FDE00C945B23288739874A872E
:101A20005B876C877D878E87CE0108960E945A0B54
:101A3000882361F06C856623A9F1288539854A855C
:101A40005B857D858E850E9438092CC087E0FE016C
:101A50003896DE01119601900D928A95E1F76C851A
:101A6000662301F12091010230E0C90101968770DF
:101A700099274091000250E084179507E1F16D83AA
:101A800097E0929FD001939FB00D1124AE5FBD4FA0
:101A9000FE01319601900D929A95E1F78093010233
:101AA0000E94AE0A17E0809100029091010289170E
:101AB00079F1189FC00111248E5F9D4F0E945A0B2F
:101AC000882331F1E09100021E9FF0011124EE5FA6
:101AD000FD4F2081318142815381648175818681EE
:101AE0000E9438098091000290E001968770992742
:101AF00080930002D8CF0E94010910920102109237
:101B00000002EAE3F2E087E0DF011D928A95E9F73F
:101B10002E96E3E00C947723809149028695869572
:101B200086950895809149028770089590914902A1
:101B3000977081E009F480E008958091550208953E
:101B400090915502892B809355020895809590912C
:101B500055028923809355020895109255020895E5
:101B600090915402892B809354020895809590910E
:101B700054028923809354020895109254020895C8
:101B800008950E94C00D08950E94C10D089590917E
:101B90004B02292F2823821729F0982B90934B0270
:101BA0000E94C40D089590914B02292F282331F0F3
:101BB0008095892380934B020E94C40D08958091E3
:101BC0004B02882329F010924B0280E00E94C40D42
:101BD00008950F931F93CF93DF930091000110910D
:101BE0000101C091550280915402C82B80914B0293
:101BF000882331F0C82B0E942E1881110E94DF0D1E
:101C0000F801C083C0910001D091010148E050E08B
:101C100061E472E0CE010E948323892B59F088E0B1
:101C2000FE01A1E4B2E001900D928A95E1F7CE01A8
:101C30000E94E517DF91CF911F910F9108950E94A7
:101C4000E90D08950E94C00D08950E94220E089586
:101C500090914A02292F282331F08095892380937F
:101C60004A020E94250E08950E94C00D0895909189
:101C7000A40292FF11C098E0899F90011124262BA5
:101C8000209349020E948A0980914902869586958F
:101C900086950E94340E08950E948A090895109234
:101CA000490280E00E94340E089590914902809587
:101CB000892380934902282F277069F4981759F0D7
:101CC0009091A40292FF07C08695869586950E9402
:101CD0009A090E944F0E0895CF939091A40292FB0F
:101CE000222720F92817F9F0C82F892FC0FB82F985
:101CF0008093A4028091A3029091A4020E94C80E36
:101D000082E00E94550E8091660280FF0CC01F92F7
:101D1000CF938FEA91E09F938F930E947D020F9063
:101D20000F900F900F90CF9108958091A40282FBA5
:101D3000882780F991E089270E946C0E089581E040
:101D40000E946C0E089580E00E946C0E08956FEF63
:101D50007FEF80E090E00E94D523089580E090E03E
:101D60000E94A12321E0863E9E4F09F020E0822FB1
:101D7000089582E090E00E949923089583E090E026
:101D80000E949923089584E090E00E94A123089581
:101D9000BC0184E090E00E94D5230895AB01BC0112
:101DA0008FE090E00E94C9230895AB01BC0183E15C
:101DB00090E00E94C923089560E070E0CB010E948A
:101DC000D50E089560E070E0CB010E94CE0E0E9417
:101DD000DC0E0895A8E0B0E0E0EFFEE00C945C2398
:101DE00066EE7EEF80E090E00E94D52360E082E026
:101DF00090E00E94B72381E090E09093FF018093F0
:101E0000FE0161E083E090E00E94B72360E074E1AE
:101E100084E090E00E94D52360E086E090E00E949C
:101E2000B7236FEF87E090E00E94B72340E050E0D7
:101E3000BA0188E090E00E94C92360E084E290E06B
:101E40000E94B72360E087E190E00E94B72360E042
:101E50008CE090E00E94B72360E08DE090E00E946B
:101E6000B72319821A821B821C821D821E821F8246
:101E7000188648E050E068E170E0CE0101960E94CB
:101E8000A72340E050E0BA0180E290E00E94C9231D
:101E90000E94E20E2896E2E00C9478230E94EA0E5B
:101EA0000895682F8EE090E00E94B7230895A6E081
:101EB000B0E0EDE5FFE00C945A230E9440198C013C
:101EC00080915602909157020817190781F01982E4
:101ED0001A820E944019682F49815A81792F80E027
:101EE00090E00E94D3051093570200935602269665
:101EF000E4E00C9476230E94461260936202709391
:101F00006302809364029093650260935E02709313
:101F10005F028093600290936102089581E00895CA
:101F20000E94BA13089508950E94930F08950E9485
:101F3000930F08950E94930F08950E94930F0895A0
:101F400080E79DE10E94EC150E949D0F0E944304D2
:101F500008950E94940F0E94930F08950E947A1290
:101F60000E94850508950E9437190E9420120E9440
:101F7000BD130E9446130E94AE0F0E94F1150E94ED
:101F8000CF130E9440040895A6E0B0E0EAECFFE021
:101F90000C9453230E948E0F811103C00E94570F8F
:101FA00053C00E942A0488E5E82E82E0F82E6701DB
:101FB00000E0F60111916F01802F0E949812812795
:101FC0000F5F063019F08823A1F302C0882331F394
:101FD0008091660281FD0E949E120E94900FA82EA1
:101FE00010E099249394812F0E949812B82EF70143
:101FF000C080C82609F100E0DD24D3948C2D8D210A
:10200000A9F0AA2099F009831A830E9440199C83A1
:102010008B839D8291E08B2D8D2109F490E0498185
:102020005A816B817C818D810E94D3050F5FDD0C0D
:10203000063021F7F701B0821F5FFFEFEF1AFF0AAA
:10204000163089F60E947B0F0E94BA130E949805F1
:102050002696EBE00C946F231F93CF93DF930E949F
:102060003511EC01C11582E5D807C8F5C11590E519
:10207000D90708F0BBC0C83ED105C0F4C03ED105A9
:1020800008F0DDC0C53AD10550F4C430D10508F0E0
:10209000D6C0219709F0D0C081E090E0D1C0CD3CFE
:1020A000D10508F4C9C0CE019065CAC0C11580E44D
:1020B000D80708F05AC0C11590E2D90708F0AFC0A0
:1020C000C11581E0D80708F4B7C08D2F0E94D11147
:1020D000182FCE0199270E9435111F71ABC0C0384F
:1020E00092E5D90720F5C03682E5D80708F061C02F
:1020F000C03492E5D90708F04AC0C03282E5D8075B
:10210000F0F54C2F4695469590E2499FA001112489
:10211000C37021E030E0C90102C0880F991FCA9541
:10212000E2F7EA01C82BD92BCE019D6889C0C03CDB
:1021300092E5D90768F48C2F8F71C03AD24508F028
:102140004CC090E0D82FCC27CE01846F906A78C025
:10215000C03E82E5D80708F06FC0CF71DD27DC2FC5
:10216000CC27CE01806F906A6BC0CE0199270E9468
:102170003511CC27DF70D06A8C2B9D2B61C0CF71BD
:10218000D0E0DC2FCC27CE01816F906A59C08C2F14
:102190008F718695869590E2899F90011124C37076
:1021A00081E090E002C0880F991FCA95E2F79C6811
:1021B00011C08C2F8F718695869590E2899F900132
:1021C0001124C37081E090E002C0880F991FCA9566
:1021D000E2F79A68822B932B33C00E94D1118F7142
:1021E00090E0D82FCC27CE0190622AC08C2F8F711F
:1021F0000E94D11195E0D695C7959A95E1F7CF70D9
:10220000D0E0DC2FCC27282F30E084FF05C084E00D
:10221000220F331F8A95E1F7D069CE01DBCF8D2FD6
:102220008F710E94D111182FCE0199270E9435116C
:102230001F719062912B04C080E090E001C0CE013C
:10224000DF91CF911F910895763038F4663028F4ED
:10225000462F672F0E945D04089580E090E0089566
:102260000E9424110E942C1008958238910569F172
:10227000B0F48133910509F475C048F489329105B1
:1022800009F467C08A32910509F471C00895853355
:10229000910509F459C089339105B9F00895833E39
:1022A000910589F138F4803E9105D1F0823E910587
:1022B00029F10895863E9105C9F1873E9105D9F12E
:1022C000843E910509F06CC027C02091A30220FD37
:1022D00057C021FD55C02091A40223FD5BC0089585
:1022E0008091A30280FD48C08091A40280FF48C075
:1022F0008091A30284FD46C083EE51C08091A30269
:1023000082FF3CC0F5CF8091A30282FD37C080914F
:10231000A40280FD35C0ECCF8091A40281FF36C0BD
:102320008091A30284FD2EC087EE39C08091A30264
:1023300083FF2AC0F5CF8091A30283FD25C0809141
:10234000A40281FD23C0ECCF8091A30285FD22C0B1
:102350001FC08091A30285FD1BC08091A40283FF52
:1023600019C00AC08091A30286FD16C017C08091D3
:10237000A30286FD13C010C089E311C082EE0FC016
:1023800080EE0DC080E00BC086EE09C084EE07C071
:1023900085E305C089E203C08AE201C081E390E0E1
:1023A00008959091A30292FF10C041E0282F24715C
:1023B000243009F040E031E0282F2871283009F05E
:1023C00030E0431711F02CE0822793FF10C041E06A
:1023D000282F2471243109F040E031E0282F2871A2
:1023E000283109F030E0431711F02CE082273091BA
:1023F000A40230FF10C051E0282F2171213009F0D4
:1024000050E041E0282F2871283009F040E05417AF
:1024100011F029E0822731FF10C041E0282F2171FF
:10242000213109F040E031E0282F2871283109F0EE
:1024300030E0431711F029E0822794FD877E08954C
:1024400010929F021092A0021092A1021092A2027A
:102450000895CF92DF92EF92FF926B017C010E9470
:10246000BA1381110EC00E944C19C61AD70AE80A85
:10247000F90AC0929F02D092A002E092A102F092CB
:10248000A202FF90EF90DF90CF9008950F931F93DB
:102490000E94BA13882319F00E944C190EC00E94A2
:1024A0004C1900919F021091A0022091A10230913D
:1024B000A202600F711F821F931F1F910F91089539
:1024C0000E94A70E08950E942A048FE39CE90197B9
:1024D000F1F700C000000E942A0480E00E949812D8
:1024E00080FF04C00E9460120E94A91908950E94F2
:1024F000631208950E94AE0E811102C00E944E0F19
:102500000E94B90E809366020E94C30E9093A402AB
:102510008093A3020E9477120E94BE0E90E00E9458
:1025200051098091FC019091FD010E946F0908956D
:10253000E82FF0E0E555FD4F80810895A0E0B0E080
:10254000E4EAF2E10C94562383ED91E00E94E40169
:102550008BEAE82E82E0F82EC0E0D0E09EECC92E97
:1025600091E0D92E06EC11E0DF93CF93DF92CF926A
:102570000E947D028BEC91E00E94E401F7018191C1
:102580007F010E9460051F928F931F930F930E94FB
:102590007D0284EC91E00E94E40121968DB79EB704
:1025A00008960FB6F8949EBF0FBE8DBFC630D105FA
:1025B000D9F6CDB7DEB7E8E00C94722308950E94F7
:1025C000DE1208950E94DF1208950E94DE1208951F
:1025D0000E94E51208950E94C9030895A3E0B0E0A7
:1025E000E4EFF2E10C945A230E94BA1360919E0228
:1025F0008823D1F119821A821B82862F90E08E01E6
:102600000F5F1F4FB80185559D4F0E94DD13882332
:1026100089F080919D0290E043E050E0B80185553B
:102620009D4F0E94832321E020936702892B69F448
:1026300010E017C0809167028823D1F383E0F8018E
:1026400011928A95E9F710926702E0919D02F0E0FD
:10265000E555FD4F89819A81AB8180839183A28367
:1026600011E00E94E2120DC070E065557D4F80912F
:102670009D0290E085559D4F0E9478140E94EB12B8
:1026800010E0812F2396E4E00C94762380910201E0
:10269000811102C093E001C090E090939E0283E01C
:1026A000891B80939D020E94CA03E5EAF2E0ABEA2F
:1026B000B2E011921D9282E0EB3AF807D1F783E085
:1026C0000E9465130E94E81208950895EF92FF9208
:1026D0000F931F93CF93DF937C018B01C42F222391
:1026E00051F081E080936A020E9440199093690240
:1026F0008093680204C080916A02811102C080E068
:102700001AC080916802909169020E945819059739
:10271000B0F3D0E0AE01B701C8010E948323892B3A
:1027200039F0AE01B701C8010E94902381E001C0D9
:1027300080E010926A02CDB7DEB7E6E00C94742315
:1027400084988C988FE891E00197F1F700C0000021
:102750008FB1829581700895CF930E942D23C82F49
:10276000811102C00E9428238C2FCF91089580915F
:102770006E02089580916D0208950E94AC138093BB
:102780006D020E94A01380936E020E94B713809383
:1027900002010E94BA1381110E94271408950E9419
:1027A000BA13811102C00E942A14089581E0909109
:1027B0006F029A3008F080E00895EF92FF920F9335
:1027C0001F93CF938C017B01C0916F02CA3038F404
:1027D000B701C8010E947514811126C00AC08091FA
:1027E0006B0290916C020E945819843F914080F7CF
:1027F00019C080916F028F3F19F08F5F80936F0235
:1028000080916F028A30E0F00E94401990936C0230
:1028100080936B028091660280FF04C085EF91E097
:102820000E94E40180E00DC0CA3040F08091660251
:1028300080FF04C082EE91E00E94E40110926F02DA
:1028400081E0CF911F910F91FF90EF9008950E942A
:102850001B1A08950E941E1A0895A0E0B0E0E3E359
:10286000F4E10C9457237901C82F880FDD0B411533
:102870005105A9F0FE0193E0EE0FFF1F9A95E1F7D5
:10288000ED5FFE4F8181928180599D4F208130E024
:102890004217530708F49A01A9010E949023CE0120
:1028A0000E94061BD82E8823D1F001151105B9F01E
:1028B00083E0CC0FDD1F8A95E1F7FE01ED5FFE4F4F
:1028C000438150E00417150708F4A801CD5FDE4FDF
:1028D0006C817D8160597D4FC7010E9490238D2DB1
:1028E000CDB7DEB7E7E00C9473230E9480150895FE
:1028F0000E949B150895A4E0B0E0E1E8F4E10C9497
:102900005A23609183027091840280918502909194
:1029100086020E946719643671058105910528F1C8
:102920000E944612DC01CB010296A11DB11D8983D4
:102930009A83AB83BC8300E010E020E030E044E009
:1029400050E0BE016F5F7F4F82E00E942D14182F70
:10295000882361F00E944C19609383027093840273
:10296000809385029093860201C011E0812F249606
:10297000E4E00C947623A0E0B0E0E1ECF4E10C9408
:1029800052237C015B01942E852E69010E94D6138F
:10299000811103C001E010E002C00AE010E0C1E0D4
:1029A000D0E0B501C701F6010995811129C0219632
:1029B0000C171D078CF0CC9F9001CD9F300D300D72
:1029C000112480E090E045E34A95F1F7000001967C
:1029D00028173907C1F7E5CF90916602892F8170DA
:1029E00090FF0FC08F929F928BE292E09F938F9304
:1029F0000E947D020F900F900F900F9080E001C019
:102A000081E0CDB7DEB7ECE00C946E23A4E0B0E03B
:102A1000ECE0F5E10C9454235B01E0903301F0907D
:102A2000340101E010E09E012C5F3F4F40E050E098
:102A300060E070E080E00E942D14182F882309F4D4
:102A40003EC067018FEFC81AD80A60917F0270916B
:102A5000800280918102909182020E9467196436FF
:102A600071058105910518F103E010E09E012F5FCB
:102A70003F4F40E050E060E070E081E00E942D14A4
:102A8000182F63E070E0C6010E94F21591E02C81DE
:102A9000281390E0192329F10E944C1960937F02BA
:102AA0007093800280938102909382020FC063E052
:102AB00070E0C6010E94F2159C818913D5CFF70101
:102AC00081819281A38189839A83AB83112349F009
:102AD00089819A81AB8180937C0290937D02A0933F
:102AE0007E0280917C0290917D02A0917E02F50190
:102AF00080839183A283812F2496EAE00C94702333
:102B00000F931F93CF93DF93EC018B0126E035E108
:102B100045E351E00E94BB14882341F02BE734E1E8
:102B200042E451E0B801CE010E94BB14DF91CF9185
:102B30001F910F9108950F931F93CF93DF93C0912F
:102B40003301D0913401CE01019623E0FB01DC0179
:102B500001900D922A95E1F763E070E00E94F21572
:102B600088836C817D818E819F8100917802109194
:102B7000790220917A0230917B02601771078207F7
:102B8000930751F0609378027093790280937A02F0
:102B900090937B020E942912DF91CF911F910F9198
:102BA00008950E94ED1D0E94B30F0E94FA1D089522
:102BB0000E94FF1D0E94C40F0E94231E08950E94C0
:102BC000D7180E94D31D0E94A00F0E94D1150E9409
:102BD000D8150E94A90FFBCF90934F0180934E010F
:102BE00008950895FC01680F791F8FEF91E3E617B0
:102BF000F70771F02191822728E030E087FF03C0BA
:102C0000880F892701C0880F21503109B9F7EFCF0C
:102C10000895CF93DF9386319C4709F5EB010E941D
:102C20009D0D9D81992371F08A7A91E009F490E0DD
:102C300090938702811102C089E201C085E30E945E
:102C4000781809C080918702811102C089E201C011
:102C500085E30E9480180E941F0E80E001C081E081
:102C6000DF91CF910895CF93DF93FC01DB0115969F
:102C70008C91882309F4DDC09F0130572332310540
:102C800008F0D8C0EF010E94C30E9093A402809375
:102C9000A302FE01E150F047E232F10520F4EE59C3
:102CA000FF4F0C9446238091A3028160AAC08091BB
:102CB000A4028860B2C08091A3028260A2C0809109
:102CC000A30220C08091A30288609BC08091A402CF
:102CD0001EC08091A4028260A0C08091A302806186
:102CE00090C08091A30280628CC08091A302806416
:102CF00088C00E9401098091A302806882C08091EF
:102D0000A302886084607DC08091A402826081609B
:102D100084C08091A3028E7F74C08091A402877FBB
:102D20007CC08091A3028D7F6CC08091A30220C0E3
:102D30008091A302877F65C08091A4021EC080910C
:102D4000A4028D7F6AC08091A3028F7E5AC08091B9
:102D5000A3028F7D56C08091A3028F7B52C00E9438
:102D600001098091A3028F774CC08091A302877FD5
:102D70008B7F47C08091A4028D7F8E7F4EC0809153
:102D8000A30282FB222720F991E0922790FB82F98F
:102D900090FB83F936C08091A402982F9095917092
:102DA0008E7F892B90FB81F938C08091A30286FB2E
:102DB000222720F991E0922790FB86F922C00E94F9
:102DC00001098091A30287FB222720F991E0922735
:102DD00090FB87F916C081E001C080E00E94510F8E
:102DE0001EC08091A30284FB222720F991E0922744
:102DF00090FB84F906C08091A302982F909590FBD8
:102E000080F98093A3020BC08091A40283FB222748
:102E100020F991E0922790FB83F98093A40280919E
:102E2000A3029091A4020E94C80E0E94010980E0B2
:102E300001C081E0DF91CF9108950F931F93CF934D
:102E4000DF93C42FD22FFC0185818823B1F04093FA
:102E50008A020E944019909389028093880280E23E
:102E60008C0F883008F04DC0C77081E001C0880F1A
:102E7000CA95EAF70E94DC0644C080918A02481392
:102E800030C080918802909189020E9458198D3734
:102E9000910538F510E21D0FCD17B9F080E28C0FC7
:102EA000883040F4C77081E001C0880FCA95EAF706
:102EB0000E94E306183010F581E09D2F977001C045
:102EC000880F9A95EAF70E94DC06802F0E94D206AE
:102ED0001830B8F4D77081E001C0880FDA95EAF7AE
:102EE0000AC080E28C0F883060F4C77081E001C0B6
:102EF000880FCA95EAF70E94E30603C0802F0E945C
:102F0000D206DF91CF911F910F9108950F93FC018D
:102F1000E851FC47E730F10590F5CB01EC57FF4F46
:102F20000C94462306E221EE41EE6AE17CE723C0E1
:102F300007E225EE45EE6BE17CE71DC006E221EEDF
:102F400040EE68E17CE717C007E225EE44EE69E158
:102F50007CE711C006E221EE42EE6CE17CE70BC09B
:102F600007E225EE46EE6DE17CE705C008E221E0D0
:102F700045EE6EE17CE70E941D1780E008C0FB0172
:102F80008581882319F010928A0201C081E00F9197
:102F9000089590938D0280938C0208950E94BA1335
:102FA000811103C080918B020895E0918C02F09111
:102FB0008D02309729F00190F081E02D0995089558
:102FC00080E008950E94CE170895EF92FF921F931C
:102FD000CF93DF93E0918C02F0918D023097C1F195
:102FE000EC010280F381E02D09958091660282FF59
:102FF0002FC080FF0DC088811F928F9389E492E0DB
:103000009F938F930E947D020F900F900F900F90CF
:1030100016E083E4E82E82E0F82E8091660280FFBD
:103020000BC08A811F928F93FF92EF920E947D02C4
:103030000F900F900F900F90115021961111EDCF1E
:103040008091660280FF04C081E492E00E94E40166
:10305000DF91CF911F91FF90EF900895E0910001D3
:10306000F0910101329697E080E0915029F0219192
:103070002223D9F38F5FF9CF0895882371F020912F
:10308000000130910101F9013296285F3F4F919183
:10309000891729F0E217F307D1F780E0089581E05E
:1030A00008959C01FC0132969FEF80E04191461704
:1030B00089F09F3F19F4411101C0982F8F5F86302E
:1030C000A9F79F3F39F0F901E90FF11D97FDFA9536
:1030D0006283089508959C012A5F3F4FFC0142815D
:1030E000461301C01282019682179307B9F708951B
:1030F000682F80910001909101010E94511808955C
:10310000682F80910001909101010E946B18089531
:10311000E0910001F0910101329686E0DF011D92FD
:103120008A95E9F7089508950E949318089583E019
:1031300080938E020E9494180895811102C081E04C
:1031400001C082E080938E020E94941808950E942C
:103150009D18089581E080938E020E94941808952E
:103160000E94AA18089508950E94B31808950E9415
:10317000B41808950E94B31808950E94B3180895D2
:103180000E94B3180895CF930E94BD180E942A048C
:103190000E94BA18C0E08C2F0E949812811104C0BE
:1031A000CF5FC630C1F701C081E0CF91089585B7E8
:1031B000806885BF85B7806885BF08951F920F928C
:1031C0000FB60F9211248F939F93AF93BF9380916B
:1031D0008F02811113C08091B1029091B202A0912F
:1031E000B302B091B4024196A11DB11D8093B1020A
:1031F0009093B202A093B302B093B402BF91AF9187
:103200009F918F910F900FBE0F901F9018958091F6
:10321000B902843031F10E94560510928F0220E4E9
:1032200088E190E00FB6F894A895809360000FBEF7
:103230002093600083B7817F846083BF83B7816000
:1032400083BF7894889583B78E7F83BF0FB6F89439
:10325000A895809160008861809360001092600062
:103260000FBE08950E9401090E945B05089582E047
:1032700084BD93E095BD9AEF97BD80936E0008954D
:103280002FB7F8948091B1029091B202A091B3024D
:10329000B091B4022FBF08952FB7F8946091B10296
:1032A0007091B2028091B3029091B4022FBF089541
:1032B0009C014FB7F8948091B1029091B202A09115
:1032C000B302B091B4024FBF821B930B0895CF920B
:1032D000DF92EF92FF922FB7F894C090B102D09096
:1032E000B202E090B302F090B4022FBFA7019601A2
:1032F000261B370B480B590BCA01B901FF90EF9001
:10330000DF90CF90089578941F920F920FB60F928E
:1033100011248F939F93AF93BF938091B1029091AB
:10332000B202A091B302B091B4020196A11DB11DE9
:103330008093B1029093B202A093B302B093B4020F
:10334000BF91AF919F918F910F900FBE0F901F90E3
:10335000189587E797E790930108809300089AE013
:1033600088E10FB6F894A895809360000FBE909303
:103370006000FFCF9AE088E10FB6F894A89580939B
:1033800060000FBE90936000FFCF8EE14A9B02C0A9
:103390008150E1F74A9BFECF08955A9880E28A95C2
:1033A000F1F75A9A0895FC012AE02A95F1F728E0EE
:1033B00090E080E031E040E14A95F1F7880F4A9BC8
:1033C00002C08160932700C0000040E14A95F1F7F8
:1033D000215089F720E12A95F1F729B100C00000BA
:1033E00030E13A95F1F722FB222720F9922720813C
:1033F000920F90830895A1E0B0E0E1E0FAE10C942F
:10340000582319828C017C01E60EF11C0E151F0554
:1034100051F00E94C519CE0101960E94D319F801FE
:1034200081938F01F3CF81E09981911180E0219602
:10343000E6E00C947423529A5A9A089552985A9A34
:10344000EA9AE9E6F0E080818F7C808308956150FC
:1034500091E001C0990F6A95EAF720E031E09923E5
:1034600061F0492F482319F05A9A232701C05A982E
:1034700040E24A95F1F79695F2CF222311F05A9A3D
:1034800001C05A9880E28A95F1F75A980895FF9200
:103490000F931F93CF93DF93EC018C01060F111D47
:1034A000C017D10741F0F9900E94CD1968E08F2D27
:1034B0000E94271AF5CFCDB7DEB7E5E00C9475234F
:1034C0001F920F920FB60F9211240F931F932F93F9
:1034D0003F934F935F936F937F938F939F93AF939C
:1034E000BF93EF93FF93CF93DF931F92CDB7DEB7D8
:1034F00019820E94C519CE0101960E94D319082F86
:10350000069506950695902F96959570202F257017
:10351000920F292F237096959695920F8770891395
:103520005FC0898181115CC0043008F059C080E11E
:103530008A95F1F75A9A529A82E08A95F1F700C07B
:103540005A9888E0089F80011124D801AD5FBE4FD2
:103550001696ED91FC9117973097A9F06091330181
:103560007091340114962D913C911597260F371FB9
:1035700011968D919C911297680F791F13964C911B
:1035800013978C910995F801ED5FFE4F63816623D7
:1035900051F0809133019091340124813581820F63
:1035A000931F0E94471A0E94CD1980E18A95F1F776
:1035B0005A9852985A9A80E18A95F1F7F801ED5F8E
:1035C000FE4F6081662351F0809133019091340168
:1035D00021813281820F931F0E94FB190E94C5191D
:1035E0000F90DF91CF91FF91EF91BF91AF919F919C
:1035F0008F917F916F915F914F913F912F911F918B
:103600000F910F900FBE0F901F9018950F931F935F
:10361000CF93DF93843091050CF06DC0EC01F894EA
:10362000529A5A9885E08A95F1F700009C2F96955A
:1036300095702C2F2570920F892F837096959695F3
:1036400023E0CC0FDD1F2A95E1F7980F8E01092B9F
:103650000E94CD1984E08A95F1F700C068E0802FC0
:103660000E94271A80E18A95F1F752985A9A4A994E
:1036700002C000C0FCCF87E090E04A9B08C00197E1
:1036800021F4529A5A9A789436C000C0F6CFFE01BF
:10369000ED5FFE4F6381662381F08091330190914D
:1036A000340124813581820F931F0E94FB198111FF
:1036B00004C0529A5A9A78941FC00E94C51980E299
:1036C0008A95F1F75A98529A80E18A95F1F7CD5F81
:1036D000DE4F6881662351F080913301909134016F
:1036E00029813A81820F931F0E94471A0E94CD19A7
:1036F000789481E001C080E0DF91CF911F910F911C
:103700000895807C80931B010895873941F178F4F6
:10371000863349F130F4843321F1853331F584E285
:1037200008958439D1F0863901F581E20895843F06
:1037300071F030F4803FD9F0813FB9F481E0089511
:10374000863F49F030F0873F81F487E0089584E0B8
:10375000089585E0089586E0089580E2089582E264
:10376000089583E2089585E208958FE1089580E049
:10377000089596E890937A00982F907290689093AD
:103780007B008F7190911B01892B80937C0080912D
:103790007A00806480937A0080917A0086FDFCCF65
:1037A000809178002091790090917A009F77909392
:1037B0007A0090E0922B08950E94851B0E94B91B0D
:1037C000089580919B0208950895089508959B019E
:1037D0009091B9029430F1F48F708093E9008FEFEB
:1037E0009091E800815095FD06C095ED9A95F1F70E
:1037F00000008111F5CF8091E80085FF0BC0BA0170
:10380000C90140E050E00E949B1E8091E8008E7745
:103810008093E8000895CF93DF93EC0148E050E0F7
:10382000BC0181E00E94E71B88E0FE01A3E9B2E051
:1038300001900D928A95E1F7DF91CF91089588E884
:1038400092E00E94E4018091B802811109C00E94B7
:1038500026200E9483208091E20084608093E20011
:10386000089584E892E00E94E4011092B80208955D
:1038700080E892E00E94E4010E94B01808958CE76D
:1038800092E00E94E4016091B50281E0611101C003
:1038900080E00E949718089588E792E00E94E40172
:1038A0009091B90281E0943009F080E06091B50216
:1038B0000E949D180895209191022F5F822F62E34C
:1038C0000E943A23992319F02093910208951092AF
:1038D000910280919202882371F18091B902843023
:1038E00041F58091E9008F702091EC00922F91704A
:1038F00020FD90E8892B92E09093E9009091EB00F5
:1039000090FF14C09091EE0097FF10C09091E800D6
:1039100095FF03C01092F100F9CF9091E80090FF5D
:1039200005C09091E8009E779093E8008F70809397
:10393000E90010929202089542E061EC81E00E9459
:103940009F1F42E261EC82E00E949F1F9091B902AA
:1039500081E0943009F080E06091B5020E94A718E0
:1039600008958091BB02833009F461C030F4813046
:1039700071F0823009F49BC008958A3009F487C041
:103980008B3009F46CC0893009F0A9C020C0809147
:10399000BA02813A09F0A3C08091E800877F809342
:1039A000E8008091BE029091BF02892B21F468E06B
:1039B00083E992E003C060E080E090E070E00E9464
:1039C000E01E8091E8008B778093E8000895809155
:1039D000BA02813209F083C08091BE029091BF0289
:1039E000892B09F07CC08091E800877F8093E800F4
:1039F0008091E80082FD05C08091B9028111F8CF65
:103A00006EC02091F3008091F20090E0922B02971B
:103A100031F48091F100813011F0863021F48091F1
:103A2000F10080939B028091E8008B7754C08091D5
:103A3000BA02813A09F053C08091BE029091BF0250
:103A4000892B09F04CC08091E800877F8093E800C3
:103A50008091E80080FFFCCF8091260137C08091E3
:103A6000BA028132E1F58091BE029091BF02892BAA
:103A7000B1F58091E800877F8093E8000E94D41F11
:103A80008091BC02809326010E94010908958091D3
:103A9000BA02813221F58091E800877F8093E800A7
:103AA0000E94D41F8091BD0280939C020895809152
:103AB000BA02813AA1F48091E800877F8093E80000
:103AC0008091E80080FFFCCF80919C028093F10000
:103AD0008091E8008E778093E8000E94D41F0895BB
:103AE0009FB7F894109292029FBF9091B9029430C0
:103AF00009F057C09091E9009F703091EC00232F9E
:103B0000217030FD20E8922B22E02093E9002091E3
:103B1000EB0020FF43C02091EE0027FF3FC0209123
:103B20009002222321F02091E80025FF37C0109257
:103B3000900226E03091E80035FD15C03091B902C1
:103B4000343061F53091EB0035FD28C0215021F46F
:103B500081E08093900222C0EFE9FFE03197F1F716
:103B600000C00000E7CF8093F1008091E80085FD60
:103B70000AC08091E80080FFFCCF8091E8008E773A
:103B80008093E80006C08FB7F89421E0209392025A
:103B90008FBF9F709093E90080E008959F7090938D
:103BA000E9008FEF089584B7877F84BF0FB6F8943C
:103BB000A8958091600088618093600010926000F9
:103BC0000FBE90E080E80FB6F89480936100909368
:103BD00061000FBE0E94AA1808950E9426200E942C
:103BE0008320E2EEF0E080818460808378940E94FC
:103BF0000D2308958CE191E00E94C91708958091EA
:103C0000B9028530F9F48091660280FF0BC082E62C
:103C100092E00E94E40106C00E9407198091B70259
:103C2000811105C08091B9028530B1F309C00E94AD
:103C3000C3188823B9F30E94851E0E940109F2CFA0
:103C40000E943219089508959A014091C00250913E
:103C5000C1020E942C1E0895492F5527433051055B
:103C6000C9F060F44130510581F04230510509F04E
:103C700044C082E490E048EB52E043C04132510539
:103C8000E1F04232510549F138C082E190E04AEF5B
:103C900052E037C099278130910549F028F002970A
:103CA00061F5ECE8F2E005C0E4EBF2E002C0ECE91B
:103CB000F2E0849190E0AF0124C06115710541F0FC
:103CC00061307105D1F489E090E043EE52E019C013
:103CD00089E090E04AEC52E014C06115710541F0B2
:103CE0006130710551F482E290E04CE053E009C08C
:103CF00084E490E04EE253E004C080E090E040E0D5
:103D000050E0F90151834083089580E189BD82E14B
:103D100089BD09B400FEFDCF8091D8008F7D8093CE
:103D2000D8008091E00082608093E0008091E00004
:103D300081FDFCCF0895A0E0B0E0E1EAFEE10C9443
:103D40005623EC018B017A010E94F31F811133C0CD
:103D5000E114F10439F0F70180819181081B190BFE
:103D6000C80FD91FC12CD12C0115110519F1809153
:103D7000E80085FD16C08091E8008E778093E8000A
:103D8000E114F10449F0F70180819181C80ED91E38
:103D9000D182C08285E00FC00E94F31F882321F3E7
:103DA0000AC089918093F10001501109FFEFCF1AE9
:103DB000DF0ADACF80E0CDB7DEB7E8E00C947223FB
:103DC0002091C0023091C1022617370748F06115D3
:103DD000710539F42091E8002E772093E80001C0A6
:103DE000B901FC0120E06115710579F18091B902FA
:103DF0008823F1F18530F1F18091E80083FD3CC02A
:103E00008091E80082FD2EC08091E80080FFEBCF1A
:103E10002091F3008091F20090E0922B61157105E2
:103E200051F08830910538F421912093F1006150D0
:103E300071090196F3CF21E0089709F020E0809105
:103E4000E8008E778093E800CECF2111CFCF0AC053
:103E50008091B902882361F0853061F08091E8009B
:103E600083FD0AC08091E80082FFF2CF80E00895D0
:103E700082E0089583E0089581E008952091C002D2
:103E80003091C1022617370748F06115710539F4E2
:103E90002091E8002E772093E80001C0B901FC01D1
:103EA00020E06115710591F18091B902882309F430
:103EB00040C0853009F43FC08091E80083FD3DC0DB
:103EC0008091E80082FD2FC08091E80080FFE9CF5B
:103ED0002091F3008091F20090E0922B6115710522
:103EE00059F08830910540F424912093F1003196E7
:103EF000615071090196F2CF21E0089709F020E0A6
:103F00008091E8008E778093E800CBCF2111CCCF51
:103F10000AC08091B902882361F0853061F08091F8
:103F2000E80083FD0AC08091E80082FFF2CF80E0C4
:103F3000089582E0089583E0089581E00895982F20
:103F4000973068F59093E900981739F07091EC007C
:103F50002091ED005091F00003C0242F762F50E007
:103F600021FD02C09F5FECCF3091EB003E7F30938C
:103F7000EB003091ED003D7F3093ED003091EB0090
:103F800031603093EB007093EC002093ED00509380
:103F9000F0002091EE0027FDE5CF80E008958F70BE
:103FA0008093E90081E008958091BA0287FF11C0F3
:103FB0008091E80082FD05C08091B9028111F8CF9F
:103FC00011C08091E8008B770BC08091B9028823E3
:103FD00049F08091E80080FFF8CF8091E8008E776B
:103FE0008093E80008952091E4003091E50095E683
:103FF0004091EC00842F817040FF23C08091E80045
:1040000080FD1DC08091B902882399F0853099F018
:104010008091EB0085FD11C04091E4005091E500D6
:104020002417350729F3915011F09A01E1CF84E06C
:10403000089582E0089583E0089581E0089580E086
:1040400008954091E80042FFDDCF08950E94952039
:104050000E949D20E0EEF0E0808181608083E8EDA9
:10406000F0E080818F77808319BCA7EDB0E08C9160
:104070008E7F8C9380818F7E80831092B80208950A
:104080000F931F93CF93DF930E9495200E949D2052
:10409000C8EDD0E088818F778883888180688883A5
:1040A00088818F7D888319BC1092B9021092B50265
:1040B0001092B7021092B60200EE10E0F801808173
:1040C0008B7F808388818160888342E060E080E02C
:1040D0000E949F1FE1EEF0E080818E7F8083E2EE00
:1040E000F0E0808181608083808188608083F80136
:1040F00080818E7F8083888180618883DF91CF91EA
:104100001F910F910895E8EDF0E080818F7E80830C
:10411000E7EDF0E080818160808384E082BF81E010
:104120008093B8020E9440200895E8EDF0E080817D
:104130008E7F80831092E20008951092DA00109230
:10414000E10008951F920F920FB60F9211242F9342
:104150003F934F935F936F937F938F939F93AF930F
:10416000BF93EF93FF938091E10082FF0BC080919A
:10417000E20082FF07C08091E1008B7F8093E10025
:104180000E945B1C8091DA0080FF1FC08091D800E4
:1041900080FF1BC08091DA008E7F8093DA008091CF
:1041A000D90080FF0DC080E189BD82E189BD09B4DD
:1041B00000FEFDCF81E08093B9020E941F1C05C064
:1041C00019BC1092B9020E94311C8091E10080FF5D
:1041D00019C08091E20080FF15C08091E2008E7FBF
:1041E0008093E2008091E20080618093E200809100
:1041F000D80080628093D80019BC85E08093B90212
:104200000E943F1C8091E10084FF30C08091E20059
:1042100084FF2CC080E189BD82E189BD09B400FE24
:10422000FDCF8091D8008F7D8093D8008091E100F0
:104230008F7E8093E1008091E2008F7E8093E20088
:104240008091E20081608093E2008091B502882332
:1042500011F084E007C08091E30087FD02C081E097
:1042600001C083E08093B9020E944C1C8091E10060
:1042700083FF29C08091E20083FF25C08091E10087
:10428000877F8093E10082E08093B9021092B502AB
:104290008091E1008E7F8093E1008091E2008E7F2B
:1042A0008093E2008091E20080618093E20042E02E
:1042B00060E080E00E949F1F8091F0008860809302
:1042C000F0000E94381CFF91EF91BF91AF919F9138
:1042D0008F917F916F915F914F913F912F910F90AF
:1042E0000FBE0F901F9018951F920F920FB60F924E
:1042F00011242F933F934F935F936F937F938F93EB
:104300009F93AF93BF93CF93DF93EF93FF93C091AE
:10431000E900CF708091EC00D82FD17080FDD0E8FB
:104320001092E9008091F000877F8093F0007894EC
:104330000E94B8211092E9008091F000886080937B
:10434000F000CD2BCF70C093E900FF91EF91DF918A
:10435000CF91BF91AF919F918F917F916F915F911D
:104360004F913F912F910F900FBE0F901F90189576
:10437000AAE2B0E0EEEBF1E20C945B23EAEBF2E0B0
:104380008091F100819322E0E23CF207C9F70E949C
:10439000B11C8091E80083FF2EC18091BA029091F8
:1043A000BB02492F50E04A30510508F024C1FA0100
:1043B000E557FF4F0C944623803821F0823809F0EE
:1043C0001AC108C08091B6029091B702992389F072
:1043D00082600FC08091BE028F70873008F00BC1E1
:1043E0008093E9008091EB0085FB882780F910928B
:1043F000E9009091E800977F9093E8008093F100A6
:104400001092F100D1C0282F2D7F09F0F4C088232D
:1044100019F0823061F0EFC08091BC02813009F068
:10442000EAC0933009F080E08093B7022EC08091FB
:10443000BC0281112AC08091BE028F702FEF280F1D
:10444000263008F0D8C08093E9002091EB0020FFCF
:104450001CC0933021F48091EB00806214C09091D5
:10446000EB0090619093EB0021E030E0A90102C0E5
:10447000440F551F8A95E2F74093EA001092EA0034
:104480008091EB0088608093EB001092E9008091AE
:10449000E800877F8093E8000E94D41FACC08111A0
:1044A000AAC01091BC021F778091E3008078812B15
:1044B0008093E3008091E800877F8093E8000E946A
:1044C000D41F8091E80080FFFCCF8091E3008068DA
:1044D0008093E300111102C082E001C083E0809369
:1044E000B90289C08058823008F085C08091BC0232
:1044F0009091BD028C3D53E0950779F583E08A8366
:104500008AE289834FB7F894DE01139620E03EE0FB
:1045100051E2E32FF0E050935700E49120FF03C0F5
:10452000E295EF703F5FEF708E2F90E0EA3010F071
:10453000C79601C0C0968D939D932F5F243149F794
:104540004FBF8091E800877F8093E8006AE270E0C7
:10455000CE0101960E94E01E16C06091BE027091CD
:10456000BF02AE014F5F5F4F0E94241EBC01892B2A
:1045700009F441C09091E800977F9093E800898109
:104580009A810E943E1F8091E8008B778093E8001B
:1045900032C0803881F58091E800877F8093E80001
:1045A0008091B5028093F1008091E8008E7772CF00
:1045B000811121C08091BC029091BD029927029780
:1045C000D4F48091E800877F8093E8008091BC025A
:1045D0008093B5020E94D41F8091B502811106C05C
:1045E0008091E30087FD02C081E001C084E08093F8
:1045F000B9020E949C1C8091E80083FF0AC0809150
:10460000E800877F8093E8008091EB0080628093D0
:10461000EB00AA96E3E00C947723CF938091B90244
:104620008823A1F0C091E900CF709091EC00892F10
:10463000817090FD80E8C82B1092E9008091E8001D
:1046400083FD0E94B821CF70C093E900CF910895F7
:104650000E9426201092B9020895E8EDF0E08081D2
:10466000806180838AE18A95F1F700C08091D9004A
:1046700081700895991B79E004C0991F961708F07E
:10468000961B881F7A95C9F780950895EE0FFF1F36
:104690000590F491E02D09942F923F924F925F92F2
:1046A0006F927F928F929F92AF92BF92CF92DF9242
:1046B000EF92FF920F931F93CF93DF93CDB7DEB7A7
:1046C000CA1BDB0B0FB6F894DEBF0FBECDBF09943B
:1046D0002A88398848885F846E847D848C849B8492
:1046E000AA84B984C884DF80EE80FD800C811B81A0
:1046F000AA81B981CE0FD11D0FB6F894DEBF0FBECF
:10470000CDBFED010895FB01DC0104C08D91019046
:10471000801921F441505040C8F7881B990B089527
:10472000FB01DC0102C001900D9241505040D8F7CE
:104730000895F999FECF92BD81BDF89A992780B569
:104740000895A8E1B0E042E050E00C94DD23DC01E4
:10475000A40FB51F4150504048F0CB01840F951F66
:104760002E910E94B82341505040D0F70895262F33
:10477000F999FECF92BD81BDF89A019700B4021657
:1047800039F01FBA20BD0FB6F894FA9AF99A0FBE05
:1047900008950396272F0E94B8230E94B723252F40
:1047A0000E94B823242F0C94B8230196272F0E942F
:1047B000B8230C94B723DC01CB01FC01F999FECF9F
:1047C00006C0F2BDE1BDF89A319600B40D92415099
:0A47D0005040B8F70895F894FFCFA9
:1047DA004C0201000000010000000000000003017B
:1047EA00000000040400000000000040E11B0B1C54
:1047FA00E41BE51BE61B0136323301000305070201
:10480A009466977002736C6176655F6D6174726904
:0E481A00780073796E635F74696D65720000DB
:00000001FF
