:100000000C9425020C9442020C9442020C94D01AD7
:100010000C9442020C9442020C9442020C94420250
:100020000C9442020C9442020C9412210C94E42190
:100030000C944E190C9442020C9442020C9442020D
:100040000C9442020C9442020C9442020C94420220
:100050000C9442020C94F3190C9442020C94420248
:100060000C9442020C9442020C9442020C94420200
:100070000C9442020C9442020C9442020C944202F0
:100080000C9442020C9442020C9442020C944202E0
:100090000C9442020C9442020C9442020C944202D0
:1000A0000C9442020C9442020C9442029B079B0760
:1000B000C707C7070C090C090C090C091D08930890
:1000C000A408A408F9166B170117CB16CF1605174D
:1000D000D21608171317DD166117E1161717E51664
:1000E0001B174517E9161F174F17EF1625172F1760
:1000F000D6160C17D9160F17F4162A173B175B17CD
:100100005D17C716FD1674170E1814180218081874
:100110001A18201826184C2273226B2373226B2383
:10012000BF22E2226B23392348230A0025346400CE
:100130000A0014001A0008001500170029380400EE
:100140001600070009000A002D411D001B000600D3
:1001500019000500E200130012000C0018001C003A
:100160002B2133000F000E000D000B002C22380055
:100170003700360010001100284229231600130012
:1001800000002B00E7002B2104001D0006001B00CF
:10019000215200000000000000000000E6002702DD
:1001A000260252002402230200002A004F005100C0
:1001B00050004A002C224C0030002F0028004D0037
:1001C00023521E001F00200021002200E700230010
:1001D00024002500260027002352E000E100000053
:1001E00000000000E600380238002B0030002F002D
:1001F0000000E5002E003500310031020000E5006E
:10020000000035022E02280000001E021F022002FC
:100210002102220200000000000000000000000097
:1002200000003A003B003C003D003E000000300072
:100230002F00250224022302000030022F020000BA
:1002400031003102000043004200410040003F0005
:10025000000044454255473A2064697361626C6509
:10026000642E0A0044454255473A20656E61626C2F
:1002700065642E0A000A0025303258006C65645F00
:100280007461736B3A20004F6E6573686F743A2027
:100290006163746976653A2025640A000A00253096
:1002A0003862003A200025303258000A722F63204D
:1002B00030313233343536370A0054617267657431
:1002C00020636F6E6E65637465640D0A005461721D
:1002D00067657420646973636F6E6E6563746564CB
:1002E0002C207468726F74746C696E6720636F6E13
:1002F0006E656374696F6E20617474656D7074737C
:100300000D0A004661696C656420746F206578652C
:10031000637574652025730A000A00253032582061
:10032000006B6579626F6172645F7265706F727481
:100330003A2025303258207C200073757370656E2A
:1003400064696E67206B6579626F6172640D0A0083
:100350005B575D005B535D005B525D005B445D007D
:100360005B435D000E036D0069006E00690065006F
:1003700063000000160367006F0072006F007000DA
:1003800069006B0061007200690000000403090449
:1003900009024200020100A0FA0904000001030161
:1003A0000100092111010001224400070581030811
:1003B00000010904010002030000000921110100ED
:1003C0000122220007058203200001070502032005
:1003D00000011201000200000008EDFE0100000112
:1003E000010200010631FF0974A1010975150026FB
:1003F000FF009520750881020976150026FF0095FB
:100400002075089102C005010906A101050719E040
:1004100029E71500250195087501810295017508E8
:1004200081010507190029FF150026FF00950675B3
:100430000881000508190129051500250195057594
:10044000019102950175039101C011241FBECFEFE8
:10045000DAE0DEBFCDBF11E0A0E0B1E0EAEBF8E406
:1004600002C005900D92AE34B107D9F722E0AEE498
:10047000B1E001C01D92A23CB207E1F70E944F1605
:100480000C945B240C940000FF93EF93E0914E01D9
:10049000F0914F01309709F00995EF91FF91089580
:1004A000FC018591803011F0EFDFFBCF0895FF272D
:1004B000E0E230E247FF0CC0419597FF09C0EDE252
:1004C0006095709580959095611D711D811D911DA0
:1004D00027FF02C0219530E350E2AA27660F771F5D
:1004E000881F991FAA1FA41710F0A41B63955A9583
:1004F000A9F7AA3008F0A95FA05DAF93F395611545
:1005000071058105910541F7ED3211F4EF93F395F3
:10051000F21718F43F93F395FBCF8F91B5DFFA955F
:10052000E1F70895E991F9918591803021F08532C4
:1005300019F0AADFF9CF089520E0E89455915532DB
:10054000C1F3503311F4689455915A3348F4505321
:1005500090F3220F022E220F220F200D250FF4CF31
:100560000EF4219589919991533619F3533729F156
:10057000533559F1BC0188279927E8945C3621F45A
:100580008991999168945591543639F446EF7EF0EB
:1005900077FF0DC08FEF9FEF0AC055374AE039F063
:1005A000583540E121F0523642E009F00895FF93BA
:1005B000EF937DDFEF91FF91B7CFFF93EF93FC01B6
:1005C00081918030B9F360DFFBCFFF93EF9368DF59
:1005D000F1CFDF93CF93CDB7DEB72596A3DFCF91D1
:1005E000DF910895FC0198E4A8E9B1E001900D9233
:1005F0009A95E1F72998219A80E40E94F11BA0E3E3
:10060000B1E041E050E071E0A333B707B1F08D9164
:10061000E82FE295EF70F0E021A18F70BA0102C0DF
:10062000660F771F8A95E2F7CB01922F982B91A343
:1006300092A18095892382A3E6CFA7E2B1E021E0D1
:1006400030E071E0AA32B70789F08D91E82FE2958A
:10065000EF70F0E041A18F70B90102C0660F771F03
:100660008A95E2F7CB01842B81A3EBCF21982998BF
:1006700080E090E00895219AE62FF0E0E65DFE4FDD
:10068000908190FF02C02E9A01C02E9891FF02C067
:100690002A9A01C02A9892FF02C02B9A01C02B9877
:1006A000A0E3B1E061E070E091E0A333B90789F025
:1006B0009D91E92FE295EF70F0E022A19F70AB01D0
:1006C00001C0440F9A95EAF7942F9095922392A334
:1006D000EBCF21982998E82FF0E0E05DFE4F908164
:1006E000E92FE295EF70F0E032A1292F2F7081E021
:1006F00090E001C0880F2A95EAF7832B82A386EF4A
:100700000E944C1C0895CF93DC015C91E42FF0E033
:10071000852F90E0042E02C0959587950A94E2F704
:1007200070E0C6E080FF1AC0C69FC001C79F900D51
:100730001124E80FF91FEE0FFF1FE856FE4F8081CE
:1007400091812817390720F521E030E001C0220F00
:100750004A95EAF7209525232C9318C0C69FC0011F
:10076000C79F900D1124E80FF91FEE0FFF1FE454EF
:10077000FE4F808191818217930750F481E090E0D1
:1007800001C0880F4A95EAF7852B8C9381E001C060
:1007900080E0CF910895A0E0B0E0E1EDF3E00C94AB
:1007A000C4235C0180E5C82E81E0D82E10E000E073
:1007B0007601C0E0D0E0612F8C2F0E943B03F7014F
:1007C000918380839C01412F6C2FC5018C0F9D1F4D
:1007D0000E948303082B2196FCE0EF0EF11CC3302E
:1007E000D10549F782E0C80ED11C1F5F163001F712
:1007F000802FCDB7DEB7EAE00C94E023A0E0B0E0B4
:10080000E4E0F4E00C94C623C0E5D1E08CE2E82EED
:1008100081E0F82E9AE2C92E91E0D92E81E0C4370A
:10082000D807F1F000E010E0FE01E00FF11F818138
:100830008F9380818F93FF92EF920E94E9020E5F67
:100840001F4F0F900F900F900F900C30110561F714
:10085000DF92CF920E94E9022C960F900F90DECF8C
:10086000CDB7DEB7E8E00C94E2230895A8E4B0E049
:10087000ECE3F4E00C94CA2355985D9820982898EE
:100880000E942D149E012F5F3F4FBE016B5D7F4F75
:10089000C901A8E7B0E002E810E0F90140E050E04B
:1008A000A193B19313A302A34F5F5F4F463051054D
:1008B000B9F7245F3F4F2617370779F720910201D8
:1008C0000E94F20280910201811102C093E001C0F6
:1008D00090E090939E0283E0891B80939D020E948A
:1008E0003F14C85BDF4FE4E00C94E623CF930E94F3
:1008F000CB03C82F8091E0019091E1019C012F5F13
:100900003F4F8C32914029F03093E1012093E00178
:100910000AC01092E1011092E0010E94FE0380E300
:1009200091E00E9450028C2FCF910895CF9385EAD9
:1009300092E00E947604C82F60919E0270E0655597
:100940007D4F282F43E085EA92E00E94D6130E9453
:100950005E138C2FCF9108950E94071008950E9476
:100960000A1008958430B0F46630A0F4463090F454
:1009700094E2899FF001112486E0689FE00DF11D4B
:100980001124E40FF11DEE0FFF1FEE5CFE4F859169
:100990009491089581E090E008950E94B204089532
:1009A00081E0089581E008950E94D20408950E9494
:1009B000D40408950E94D204089508950E94DD048D
:1009C0000895A6E0B0E0E7EEF4E00C94CB23498371
:1009D0005A839E833091E70189819A81311115C034
:1009E0003E81332359F0222349F00E94BE0A182F7A
:1009F000682F89819A810E949A0A03C00E94AC0ADA
:100A0000182F69817A81812F04C00E94BE0A6981F2
:100A10007A810E9494112696E3E00C94E723FC016E
:100A2000262F4081518162817381848195810E944A
:100A3000E1040895CF93DF93EC0161E00E940F057C
:100A4000BE010E94D704DF91CF910895CF93DF9329
:100A5000EC0160E00E940F05BE010E94DE04DF9100
:100A6000CF91089581E008950E9432050895CF93B3
:100A7000C82F0E9471098C2F0E9434052FEF84E348
:100A80009CE0215080409040E1F700C00000CF91F1
:100A9000089581E00E9437050E94191A089580E0A8
:100AA0000E9437050E942A1A08950F931F93CF932F
:100AB000DF938C0161E00E940F05EC01B8010E94F8
:100AC000DA04882309F45BC0B801CE010E94F6174E
:100AD000882309F454C0B801CE010E94A3168823CC
:100AE00009F44DC0B801CE010E947916882309F49B
:100AF00046C0F80185818823E9F1C3308CE7D80727
:100B000079F158F4C130FCE7DF0761F1A0F4C115B9
:100B1000DC4781F50E94490532C0CB35FCE7DF0791
:100B200039F1CC358CE7D80701F1CA35DC4711F52E
:100B30000E940F0F1FC080916602C82FC095C17020
:100B4000C0FB80F980936602CC2329F084E692E012
:100B50000E94500214C082E592E00E94500210C030
:100B60000E94170F0E944F050AC00E94050F02C085
:100B70000E94130FC8010E94D004C82F01C0C0E01A
:100B80008C2FDF91CF911F910F9108950E9427190B
:100B90000E94FF0508950E9403060E9430190895DF
:100BA0008295982F937344E0949F900111248C7C3C
:100BB00086958695282B822F8575880F2A7A26950B
:100BC000822B0895089581E008950895CF93DF93CF
:100BD000D82F0E94E305C82F882319F08D2F0E947B
:100BE000E5058C2FDF91CF9108950895CF93C82FFD
:100BF0000E94E2058C2F0E94E605CF91089580E0C7
:100C00000E94F60508950E943E180E94F605089578
:100C1000CF930E943E18C82F8091E201C81789F136
:100C2000C093E2010E94BC196093E3017093E40158
:100C30008093E5019093E6018091660282FF1EC0D9
:100C400080FF04C08CE792E00E945002809166020F
:100C500080FF0CC01F92CF9387E792E09F938F9302
:100C60000E94E9020F900F900F900F908091660202
:100C700080FF04C085E792E00E9450028C2F0E9402
:100C8000F605CF910895ADE0B0E0E9E4F6E00C940C
:100C9000CC23488759876A877B878C879D879111EA
:100CA0000E942D0ECE01019627E0FC0111922A959B
:100CB000E9F726E0FE013896DC0101900D922A95B5
:100CC000E1F72D8121110AC029813A814B815C8194
:100CD0006D817E818F810E94770D04C00E941A056C
:100CE0008111F2CF2D96E2E00C94E823FC012481DF
:100CF000213021F4808191810E94F00A0895CF93E0
:100D0000882309F465C0C82F8238A1F40E945218C4
:100D100081FD5EC089E30E94E8180E948F0E2FEFCC
:100D200087EE93E0215080409040E1F700C0000042
:100D300089E32BC08338A1F40E94521880FD48C07B
:100D400083E50E94E8180E948F0E2FEF81EE94E059
:100D5000215080409040E1F700C0000083E515C0BD
:100D60008438B1F40E94521882FD32C087E40E9498
:100D7000E8180E948F0E2FEF81EE94E02150804002
:100D80009040E1F700C0000087E40E94F0181EC008
:100D90008CEF8C0F813A70F48C2F0E94AD18882351
:100DA00029F08C2F0E94F0180E948F0E8C2F0E9429
:100DB000E8180CC080E28C0F883050F4C77081E0D6
:100DC00001C0880FCA95EAF70E94100E0E948F0E8C
:100DD000CF9108958823E9F1823859F40E9452187E
:100DE00081FF37C089E30E94E8180E948F0E89E3D3
:100DF0001EC0833859F40E94521880FF2AC083E530
:100E00000E94E8180E948F0E83E511C0843859F4BF
:100E10000E94521882FF1DC087E40E94E8180E94B9
:100E20008F0E87E404C09CEF980F913A18F40E944B
:100E3000F0180DC090E2980F983058F4877091E048
:100E400001C0990F8A95EAF7892F0E94160E0E9419
:100E50008F0E08951F93CF93DF93182FEB010E94FD
:100E60007F06209741F08FE99FE00197F1F700C0DE
:100E700000002197F6CF812F0E94EA06DF91CF91E3
:100E80001F910895893319F065E070E002C060E5B4
:100E900070E00E942A070895882321F00E94100E16
:100EA0000E948F0E0895882321F00E94160E0E9442
:100EB0008F0E0895A0E0B0E0E0E6F7E00C94C623C2
:100EC0007C01D62FC72FFC011581068102950F707A
:100ED0000E94060E8823F9F01123E9F08C2F807F01
:100EE000803461F080E28D0F8830A8F08C2F807EF6
:100EF000803221F4D23078F0002369F08091A4028E
:100F000082FF09C082E00E94C50E0E94060E91E099
:100F1000D82ED92601C0D12CCC2EC2948FE0C82265
:100F20008C2D90E08C30910508F076C1FC01EA5AD6
:100F3000FF4F0C94B6238C2F807FCF70882311F045
:100F4000C295C07F112399F0CC2309F44CC180E2F3
:100F50008D0F883010F0D11104C08C2F0E94100E1C
:100F600003C08C2F0E94200E0E948F0E3CC18D2F3B
:100F70000E94EA06CC2309F44FC180E28D0F88302D
:100F800038F1DD2329F18C2F0E94260E24C08C2FEE
:100F9000807FCF70803211F0C295C07FDD2319F0C1
:100FA000D13099F13CC08091A40282FD17C0112379
:100FB00049F0CC2329F08C2F0E94100E0E948F0E36
:100FC00080E012C180E00E94EA06CC2309F424C12B
:100FD0008C2F0E94160E0E948F0E1EC1112349F005
:100FE000002309F1013009F017C18C2F0E94370E40
:100FF00013C1011111C18C2F0E9453078C2F0E9425
:10100000430E8C2F0E94980E07C1112321F0063049
:1010100008F002C108C0053008F0FEC00AC0112364
:1010200031F00111E0C08C2F0E944C07F5C0011176
:10103000E0C08C2F0E945307EFC08C2F8370B1F556
:101040001111EEC04D2F429546954770440F440F45
:101050008D2F8F7090E09C01042E02C0220F331F51
:101060000A94E2F7D4FF0AC08FE090E002C0880F34
:10107000991F4A95E2F78095909502C080E090E034
:10108000C695C695C370822B932BC23049F058F495
:10109000C13019F00E94CD09C3C00E94C409C0C06C
:1010A0000E94D609BDC00E94C109BAC0112319F01F
:1010B0008C2F817001C08695882309F4B1C04D2F13
:1010C000429546954770440F440F8D2F8F7090E0E6
:1010D0009C01042E02C0220F331F0A94E2F7D4FFB2
:1010E0000AC08FE090E002C0880F991F4A95E2F78E
:1010F0008095909502C080E090E0C695C695C3703B
:10110000822B932BC23049F058F4C13019F00E9461
:10111000350A86C00E942C0A83C00E943E0A80C005
:101120000E94E2097DC0CF70112339F08C2F0E94FC
:10113000FA098D2F0E944C0773C08D2F0E94530710
:101140008C2F0E940A0A6CC0D23F21F128F4D03FB4
:1011500041F0D13FC1F043C0D33F19F1D43F79F002
:101160003EC0112341F0053008F056C08C2F8F711E
:101170000E941C0A51C0063008F04EC0F7CF809183
:10118000A40282FD18C0112339F08C2F8F710E94A8
:10119000FA0942C01123C9F38C2F8F710E940A0AE9
:1011A0003BC0112329F08C2F8F710E94EE0934C0AF
:1011B0000E94E90931C0112349F0CF718C2F0E94A0
:1011C000FA0963E08C2F0E94A70E26C081E00E94DE
:1011D000C50E023008F182E00E94C50E1DC0112329
:1011E00031F0002391F28D2F0E947F0615C000235D
:1011F00099F2D93341F4FFEF27EE83E0F15020401C
:101200008040E1F704C0EFE1FEE43197F1F700C060
:1012100000008D2F0E94EA0688EF8C0D843020F4A8
:101220000E943E180E94F605DD2089F00E94020E01
:1012300080FD0DC0F70115820E94FC0D0E94FA0985
:10124000C7010E9444090E94FC0D0E940A0ACDB702
:10125000DEB7E8E00C94E2230F931F93CF93DF9364
:10126000EC01688179818D810E94FB0A8C010E94CA
:10127000470A0E94B209B801CE010E945A07DF91C5
:10128000CF911F910F910895CF93DF93FC0124819B
:101290002223D1F0EC010E94550581110FC00E945C
:1012A000060E882389F08D81882371F08091A40235
:1012B00082FF0AC082E00E94C50E06C0CE010E94D5
:1012C0002C09CE010E942605DF91CF9108950E943E
:1012D0002D0E0E948F0E08950E94F8180E94670933
:1012E00008950E941D0E0E946C09089592959F70AA
:1012F000963079F010F4925001C09A50923068F410
:10130000803F69F018F4883E40F409C0843F29F416
:1013100006C0883E20F0813F11F080E0089581E012
:101320000895FC012481222339F0808191810E945B
:10133000F00A0E947609089580E00895A6E0B0E0E2
:10134000E4EAF9E00C94CC232696E2E00C94E8233E
:10135000A7E0B0E0EEEAF9E00C94CC232796E2E0B7
:101360000C94E823089508950E94B30908950E94FB
:10137000B40908950E94B7099093FF018093FE017C
:1013800008950E94BA0908952091FE013091FF014D
:10139000822B932B0E94BA0908952091FE0130916F
:1013A000FF01822393230E94BA0908952091FE0130
:1013B0003091FF01822793270E94BA0908950E9465
:1013C000B30908950E94DF099093FD018093FC0109
:1013D000089580E090E00E94E209089521E030E065
:1013E000A90102C0440F551F8A95E2F7CA010E9465
:1013F000E209089521E030E002C0220F331F8A95F0
:10140000E2F78091FC019091FD01822B932B0E94C9
:10141000E209089521E030E002C0220F331F8A95CF
:10142000E2F7209530958091FC019091FD01822397
:1014300093230E94E209089521E030E002C0220FC8
:10144000331F8A95E2F78091FC019091FD0182277C
:1014500093270E94E20908952091FC013091FD013B
:10146000822B932B0E94E20908952091FC01309178
:10147000FD01822393230E94E20908952091FC013B
:101480003091FD01822793270E94E2090895089573
:10149000962F9770A1E001C0AA0F9A95EAF793E002
:1014A000769567959A95E1F7660F771F660F771F18
:1014B000FA01E60FF71F40E050E0682F70E09081DE
:1014C0009B01042E02C0369527950A94E2F72170FD
:1014D000219529272A23292721934F5F5F4F4430E5
:1014E000510569F70895FB01782F777023E09695F1
:1014F00087952A95E1F7880F991F880F991FE80FA4
:10150000F91F40E050E080E0219130E0072E02C05A
:10151000369527950A94E2F721703327042E01C0EF
:10152000220F0A94EAF7822B4F5F5F4F4430510538
:1015300059F70895282F963070F4863060F4862F7E
:10154000622F70E026E0929F600D711D112448EE1D
:1015500051E00E94480A0895963070F4863060F495
:10156000292F90E068EE71E036E0239F800D911DF9
:1015700011240E94730A089580E00895A0E0B0E06D
:10158000E4ECFAE00C94C5237C010091FC0110917D
:10159000FD018091FE019091FF01082B192BCFE0F6
:1015A000D0E0CC24C394D12CC6010C2E02C0880FED
:1015B000991F0A94E2F780239123892B21F4219724
:1015C00098F7B12C07C0BC2EB7018C2F0E94A01138
:1015D0000197A9F38B2DCDB7DEB7E9E00C94E12399
:1015E000CF93DF93EC010E94BE0ABE010E94A011BE
:1015F000DF91CF9108951F93CF93DF93EB019091EB
:10160000E701992321F0CB010E94F00A13C088233F
:1016100049F0CB010E94BE0A182F682FCE010E940C
:101620009A0A04C0CB010E94AC0A182FBE01812F78
:101630000E94A011DF91CF911F9108951F93CF9326
:10164000DF93C091000217E080910102C817A1F05A
:10165000D0E01C9FF0011D9FF00D1124EE5FFD4FA7
:1016600020813181428153816481758186810E940C
:10167000A8092196C770E8CFDF91CF911F910895F7
:1016800020913A0230913B0240913C0250913D0240
:1016900060913E0270913F02809140020E94A80931
:1016A0000895CF93DF938091400282958F7009F067
:1016B0004EC080913F02882309F449C08091000206
:1016C0004091010250913B0260913A02C0913C026C
:1016D000D0913D0277E08417D1F190E0789FF0013E
:1016E000799FF00D1124DF01AE5FBD4F14962C9150
:1016F0001497222349F111962C911197251324C098
:101700002C91261321C015962C91159721111CC0E0
:1017100012962D913C9113972C1B3D0B2D373105C3
:1017200098F4809140028F70806180934002E85F5E
:10173000FD4F80818F70806180838AE392E00E94F8
:1017400044090E941E0B03C001968770C4CFDF912D
:10175000CF910895209100029091010257E029173E
:10176000A9F030E0529FF001539FF00D1124EE5F7D
:10177000FD4F7181761306C07081781303C07581A7
:10178000741306C02F5F3F4F2770E9CF80E00895A4
:1017900081E00895A4E1B0E0E0EDFBE00C94C22309
:1017A0008C0186E0F801DE011F9601900D928A956A
:1017B000E1F7D80114968C9114971596EC909AE362
:1017C000A92E92E0B92E90913E02911118C0882363
:1017D00009F486C1EE20D9F1C8010E949109F82EC2
:1017E0008823A9F187E0F801D50101900D928A952F
:1017F000E1F7C5010E9476060E94510B6EC1F80107
:10180000C080D18082809380F0903F0220913C0282
:1018100030913D02A401421B530BFF2009F400C18B
:101820004D37510508F0ACC0882309F45BC18091A5
:101830004002282F207F90913B02222361F09D15CA
:1018400009F46DC0C8010E949109811170C0C801DE
:101850000E94440945C19D1116C090913A029C1105
:1018600012C0E11010C08F708061809340020E940E
:10187000400B8AE392E00E94440980914002D80123
:1018800016968C9317C0E11044C040E06D2D8C2D4E
:101890000E94AA0BE82E882379F08AE392E00E9446
:1018A0004409EAE3F2E087E0DF011D928A95E9F757
:1018B0000E94400BF12C16C1CF86D88A8F8598895B
:1018C0000E94F00A292F22952F70243020F49F7057
:1018D000223028F009C02A50223080F014C0992309
:1018E00049F0811107C013C0992321F0F8019681B6
:1018F000907F69F0805E883030F409C0803F38F016
:10190000815F833020F0C8010E944409EF2CFE2C37
:10191000E9C080914002816080934002CBCF9091DA
:101920003A029C118FCFE1108DCFD801A4C0EE20D8
:1019300009F48DCF20914002822F82958F7090E024
:1019400002978CF080913A0290913B0299878887A8
:101950009B868A8680913E028C871D862E87CE01CB
:1019600008960E94440987E0F801AAE3B2E00190DA
:101970000D928A95E1F70E94510B0E94400BB0C076
:1019800090914002292F207F91F4682D9A8A898AAC
:10199000A6017A899E2D0E949E098AE392E00E9408
:1019A000440987E0F50111928A95E9F781CF8823F0
:1019B00009F498C080913B028D1110C080913A02C9
:1019C0008C110CC0E1100AC09683C8010E94440922
:1019D00087E0F50111928A95E9F784C0C8010E9459
:1019E0009109882309F433CFEE2009F430CF2091F8
:1019F0004002822F82958F7090E002970CF4B3CF53
:101A000080913A0290913B029A8389839C828B82D7
:101A100080913E028D831E822F83CE010196A1CF3D
:101A20004D37510508F04CC0882309F459C0FE2CED
:101A3000EE2009F40CCF80913B028D1133C08091D0
:101A40003A028C112FC09091400290FD22C0892F44
:101A500082958F70282F30E021153105D1F0D80103
:101A600096832F30310549F08F5F982F9295907FA4
:101A700086818F70892B16968C93C8010E94440929
:101A800087E0F801AAE3B2E001900D928A95E1F7B0
:101A900024C087E0F801AAE3B2E001900D928A9594
:101AA000E1F720C0C8010E94910981115CCF8091AB
:101AB0004002816080934002C8010E94440912C024
:101AC000682D9A8A898AA6017A899E2D0E949E098C
:101AD00087E0F50111928A95E9F70E94400B02C058
:101AE000FF24F3948F2D6496ECE00C94DE23AEE09B
:101AF000B0E0EDE7FDE00C94CB23288739874A87D7
:101B00005B876C877D878E87CE0108960E94CA0B03
:101B1000882361F06C856623A9F1288539854A857B
:101B20005B857D858E850E94A8092CC087E0FE011B
:101B30003896DE01119601900D928A95E1F76C8539
:101B4000662301F12091010230E0C90101968770FE
:101B500099274091000250E084179507E1F16D83C9
:101B600097E0929FD001939FB00D1124AE5FBD4FBF
:101B7000FE01319601900D929A95E1F78093010252
:101B80000E941E0B17E080910002909101028917BC
:101B900079F1189FC00111248E5F9D4F0E94CA0BDE
:101BA000882331F1E09100021E9FF0011124EE5FC5
:101BB000FD4F20813181428153816481758186810D
:101BC0000E94A8098091000290E0019687709927F1
:101BD00080930002D8CF0E947109109201021092E6
:101BE0000002EAE3F2E087E0DF011D928A95E9F75F
:101BF0002E96E3E00C94E723809149028695869522
:101C000086950895809149028770089590914902C0
:101C1000977081E009F480E008958091550208955D
:101C200090915502892B809355020895809590914B
:101C30005502892380935502089510925502089504
:101C400090915402892B809354020895809590912D
:101C500054028923809354020895109254020895E7
:101C600008950E94300E08950E94310E08959091BB
:101C70004B02292F2823821729F0982B90934B028F
:101C80000E94340E089590914B02292F282331F0A1
:101C90008095892380934B020E94340E0895809191
:101CA0004B02882329F010924B0280E00E94340EF0
:101CB00008950F931F93CF93DF930091000110912C
:101CC0000101C091550280915402C82B80914B02B2
:101CD000882331F0C82B0E949E1881110E944F0E5C
:101CE000F801C083C0910001D091010148E050E0AB
:101CF00061E472E0CE010E94F323892B59F088E061
:101D0000FE01A1E4B2E001900D928A95E1F7CE01C7
:101D10000E945518DF91CF911F910F9108950E9455
:101D2000590E08950E94300E08950E94920E089553
:101D300090914A02292F282331F08095892380939E
:101D40004A020E94950E08950E94300E08959091C7
:101D5000A40292FF11C098E0899F90011124262BC4
:101D6000209349020E94FA0980914902869586953E
:101D700086950E94A40E08950E94FA090895109273
:101D8000490280E00E94A40E089590914902809536
:101D9000892380934902282F277069F4981759F0F6
:101DA0009091A40292FF07C08695869586950E9421
:101DB0000A0A0E94BF0E0895CF939091A40292FB4D
:101DC000222720F92817F9F0C82F892FC0FB82F9A4
:101DD0008093A4028091A3029091A4020E94380FE4
:101DE00082E00E94C50E8091660280FF0CC01F92A7
:101DF000CF9387E892E09F938F930E94E9020F9020
:101E00000F900F900F90CF9108958091A40282FBC4
:101E1000882780F991E089270E94DC0E089581E0EF
:101E20000E94DC0E089580E00E94DC0E08956FEFA2
:101E30007FEF80E090E00E944524089580E090E0EC
:101E40000E94112421E0863E9E4F09F020E0822F5F
:101E5000089582E090E00E940924089583E090E0D4
:101E60000E940924089584E090E00E9411240895BE
:101E7000BC0184E090E00E9445240895AB01BC01C0
:101E80008FE090E00E9439240895AB01BC0183E10A
:101E900090E00E943924089560E070E0CB010E9438
:101EA000450F089560E070E0CB010E943E0F0E9454
:101EB0004C0F0895A8E0B0E0E0E6FFE00C94CC23DE
:101EC00066EE7EEF80E090E00E94452460E082E0D4
:101ED00090E00E94272481E090E09093FF0180939E
:101EE000FE0161E083E090E00E94272460E074E15D
:101EF00084E090E00E94452460E086E090E00E944B
:101F000027246FEF87E090E00E94272440E050E014
:101F1000BA0188E090E00E94392460E084E290E019
:101F20000E94272460E087E190E00E94272460E07F
:101F30008CE090E00E94272460E08DE090E00E9419
:101F4000272419821A821B821C821D821E821F82F4
:101F5000188648E050E068E170E0CE0101960E94EA
:101F6000172440E050E0BA0180E290E00E9439245A
:101F70000E94520F2896E2E00C94E8230E945A0F28
:101F80000895682F8EE090E00E9427240895A6E02F
:101F9000B0E0EDECFFE00C94CA230E94B0198C0174
:101FA00080915602909157020817190781F0198203
:101FB0001A820E94B019682F49815A81792F80E0D6
:101FC00090E00E9443061093570200935602269613
:101FD000E4E00C94E6230E94B612609362027093D0
:101FE0006302809364029093650260935E02709333
:101FF0005F028093600290936102089581E00895EA
:102000000E942A14089508950E94031008950E94C2
:10201000031008950E94031008950E94031008956C
:1020200080EE9DE10E945C160E940D100E94AF049C
:1020300008950E9404100E94031008950E94EA125D
:102040000E94F50508950E94A7190E9490120E940F
:102050002D140E94B6130E941E100E9461160E9449
:102060003F140E94AC040895A6E0B0E0EAE3F0E17A
:102070000C94C3230E94FE0F811103C00E94C70F5E
:1020800053C00E94960488E5E82E82E0F82E67018E
:1020900000E0F60111916F01802F0E940813812743
:1020A0000F5F063019F08823A1F302C0882331F3B3
:1020B0008091660281FD0E940E130E940010A82EDE
:1020C00010E099249394812F0E940813B82EF701F1
:1020D000C080C82609F100E0DD24D3948C2D8D2129
:1020E000A9F0AA2099F009831A830E94B0199C8351
:1020F0008B839D8291E08B2D8D2109F490E04981A5
:102100005A816B817C818D810E9443060F5FDD0CBB
:10211000063021F7F701B0821F5FFFEFEF1AFF0AC9
:10212000163089F60E94EB0F0E942A140E940806BE
:102130002696EBE00C94DF231F93CF93DF930E944E
:10214000A511EC01C11582E5D807C8F5C11590E5C8
:10215000D90708F0BBC0C83ED105C0F4C03ED105C8
:1021600008F0DDC0C53AD10550F4C430D10508F0FF
:10217000D6C0219709F0D0C081E090E0D1C0CD3C1D
:10218000D10508F4C9C0CE019065CAC0C11580E46C
:10219000D80708F05AC0C11590E2D90708F0AFC0BF
:1021A000C11581E0D80708F4B7C08D2F0E944112F5
:1021B000182FCE0199270E94A5111F71ABC0C038FE
:1021C00092E5D90720F5C03682E5D80708F061C04E
:1021D000C03492E5D90708F04AC0C03282E5D8077A
:1021E000F0F54C2F4695469590E2499FA0011124A9
:1021F000C37021E030E0C90102C0880F991FCA9561
:10220000E2F7EA01C82BD92BCE019D6889C0C03CFA
:1022100092E5D90768F48C2F8F71C03AD24508F047
:102220004CC090E0D82FCC27CE01846F906A78C044
:10223000C03E82E5D80708F06FC0CF71DD27DC2FE4
:10224000CC27CE01806F906A6BC0CE0199270E9487
:10225000A511CC27DF70D06A8C2B9D2B61C0CF716C
:10226000D0E0DC2FCC27CE01816F906A59C08C2F33
:102270008F718695869590E2899F90011124C37095
:1022800081E090E002C0880F991FCA95E2F79C6830
:1022900011C08C2F8F718695869590E2899F900151
:1022A0001124C37081E090E002C0880F991FCA9585
:1022B000E2F79A68822B932B33C00E9441128F71F0
:1022C00090E0D82FCC27CE0190622AC08C2F8F713E
:1022D0000E94411295E0D695C7959A95E1F7CF7087
:1022E000D0E0DC2FCC27282F30E084FF05C084E02D
:1022F000220F331F8A95E1F7D069CE01DBCF8D2FF6
:102300008F710E944112182FCE0199270E94A511AA
:102310001F719062912B04C080E090E001C0CE015B
:10232000DF91CF911F910895763038F4663028F40C
:10233000462F672F0E94CD04089580E090E0089515
:102340000E9494110E949C1008958238910569F1B1
:10235000B0F48133910509F475C048F489329105D0
:1023600009F467C08A32910509F471C00895853374
:10237000910509F459C089339105B9F00895833E58
:10238000910589F138F4803E9105D1F0823E9105A6
:1023900029F10895863E9105C9F1873E9105D9F14D
:1023A000843E910509F06CC027C02091A30220FD56
:1023B00057C021FD55C02091A40223FD5BC00895A4
:1023C0008091A30280FD48C08091A40280FF48C094
:1023D0008091A30284FD46C083EE51C08091A30288
:1023E00082FF3CC0F5CF8091A30282FD37C080916F
:1023F000A40280FD35C0ECCF8091A40281FF36C0DD
:102400008091A30284FD2EC087EE39C08091A30283
:1024100083FF2AC0F5CF8091A30283FD25C0809160
:10242000A40281FD23C0ECCF8091A30285FD22C0D0
:102430001FC08091A30285FD1BC08091A40283FF71
:1024400019C00AC08091A30286FD16C017C08091F2
:10245000A30286FD13C010C089E311C082EE0FC035
:1024600080EE0DC080E00BC086EE09C084EE07C090
:1024700085E305C089E203C08AE201C081E390E000
:1024800008959091A30292FF10C041E0282F24717B
:10249000243009F040E031E0282F2871283009F07D
:1024A00030E0431711F02CE0822793FF10C041E089
:1024B000282F2471243109F040E031E0282F2871C1
:1024C000283109F030E0431711F02CE082273091D9
:1024D000A40230FF10C051E0282F2171213009F0F3
:1024E00050E041E0282F2871283009F040E05417CF
:1024F00011F029E0822731FF10C041E0282F21711F
:10250000213109F040E031E0282F2871283109F00D
:1025100030E0431711F029E0822794FD877E08956B
:1025200010929F021092A0021092A1021092A20299
:102530000895CF92DF92EF92FF926B017C010E948F
:102540002A1481110EC00E94BC19C61AD70AE80AC3
:10255000F90AC0929F02D092A002E092A102F092EA
:10256000A202FF90EF90DF90CF9008950F931F93FA
:102570000E942A14882319F00E94BC190EC00E94E0
:10258000BC1900919F021091A0022091A1023091EC
:10259000A202600F711F821F931F1F910F91089558
:1025A0000E94170F08950E9496048FE39CE90197FB
:1025B000F1F700C000000E94960480E00E9408131A
:1025C00080FF04C00E94D0120E94191A08950E9430
:1025D000D31208950E941E0F811102C00E94BE0FE7
:1025E0000E94290F809366020E94330F9093A402E9
:1025F0008093A3020E94E7120E942E0F90E00E9497
:10260000C1098091FC019091FD010E94DF090895AC
:10261000E82FF0E0E555FD4F80810895A0E0B0E09F
:10262000E4E1F3E10C94C6238BEA92E00E945002AD
:102630008BEAE82E82E0F82EC0E0D0E096EAC92EC0
:1026400092E0D92E0EE912E0DF93CF93DF92CF9282
:102650000E94E90283EA92E00E945002F701819110
:102660007F010E94D0051F928F931F930F930E94AA
:10267000E9028CE992E00E94500221968DB79EB744
:1026800008960FB6F8949EBF0FBE8DBFC630D10519
:10269000D9F6CDB7DEB7E8E00C94E22308950E94A6
:1026A0004E1308950E944F1308950E944E130895EB
:1026B0000E94551308950E9435040895A3E0B0E0E8
:1026C000E4E6F3E10C94CA230E942A1460919E026E
:1026D0008823D1F119821A821B82862F90E08E0105
:1026E0000F5F1F4FB80185559D4F0E944D148823E1
:1026F00089F080919D0290E043E050E0B80185555B
:102700009D4F0E94F32321E020936702892B69F4F7
:1027100010E017C0809167028823D1F383E0F801AD
:1027200011928A95E9F710926702E0919D02F0E01C
:10273000E555FD4F89819A81AB8180839183A28386
:1027400011E00E9452130DC070E065557D4F8091DD
:102750009D0290E085559D4F0E94E8140E945B13F6
:1027600010E0812F2396E4E00C94E623809102018F
:10277000811102C093E001C090E090939E0283E03B
:10278000891B80939D020E943604E5EAF2E0ABEAE1
:10279000B2E011921D9282E0EB3AF807D1F783E0A4
:1027A0000E94D5130E94581308950895EF92FF9246
:1027B0000F931F93CF93DF937C018B01C42F2223B0
:1027C00051F081E080936A020E94B01990936902EF
:1027D0008093680204C080916A02811102C080E087
:1027E0001AC080916802909169020E94C8190597E9
:1027F000B0F3D0E0AE01B701C8010E94F323892BEA
:1028000039F0AE01B701C8010E94002481E001C087
:1028100080E010926A02CDB7DEB7E6E00C94E423C4
:1028200084988C988FE891E00197F1F700C0000040
:102830008FB1829581700895CF930E949D23C82FF8
:10284000811102C00E9498238C2FCF91089580910E
:102850006E02089580916D0208950E941C14809369
:102860006D020E94101480936E020E9427148093C0
:1028700002010E942A1481110E94971408950E9457
:102880002A14811102C00E949A14089581E0909147
:102890006F029A3008F080E00895EF92FF920F9354
:1028A0001F93CF938C017B01C0916F02CA3038F423
:1028B000B701C8010E94E514811126C00AC08091A9
:1028C0006B0290916C020E94C819843F914080F77E
:1028D00019C080916F028F3F19F08F5F80936F0254
:1028E00080916F028A30E0F00E94B01990936C02E0
:1028F00080936B028091660280FF04C08DEC92E0B1
:102900000E94500280E00DC0CA3040F08091660203
:1029100080FF04C08AEB92E00E94500210926F0286
:1029200081E0CF911F910F91FF90EF9008950E9449
:102930008B1A08950E948E1A0895A0E0B0E0E3EA91
:10294000F4E10C94C7237901C82F880FDD0B4115E2
:102950005105A9F0FE0193E0EE0FFF1F9A95E1F7F4
:10296000ED5FFE4F8181928180599D4F208130E043
:102970004217530708F49A01A9010E940024CE01CE
:102980000E94761BD82E8823D1F001151105B9F0CD
:1029900083E0CC0FDD1F8A95E1F7FE01ED5FFE4F6E
:1029A000438150E00417150708F4A801CD5FDE4FFE
:1029B0006C817D8160597D4FC7010E9400248D2D5F
:1029C000CDB7DEB7E7E00C94E3230E94F01508953D
:1029D0000E940B160895A4E0B0E0E1EFF4E10C943E
:1029E000CA23609183027091840280918502909144
:1029F00086020E94D719643671058105910528F178
:102A00000E94B612DC01CB010296A11DB11D898383
:102A10009A83AB83BC8300E010E020E030E044E028
:102A200050E0BE016F5F7F4F82E00E949D14182F1F
:102A3000882361F00E94BC19609383027093840222
:102A4000809385029093860201C011E0812F249625
:102A5000E4E00C94E623A0E0B0E0E1E3F5E10C94BF
:102A6000C2237C015B01942E852E69010E944614CD
:102A7000811103C001E010E002C00AE010E0C1E0F3
:102A8000D0E0B501C701F6010995811129C0219651
:102A90000C171D078CF0CC9F9001CD9F300D300D91
:102AA000112480E090E045E34A95F1F7000001969B
:102AB00028173907C1F7E5CF90916602892F8170F9
:102AC00090FF0FC08F929F9283E093E09F938F932C
:102AD0000E94E9020F900F900F900F9080E001C0CC
:102AE00081E0CDB7DEB7ECE00C94DE23A4E0B0E0EB
:102AF000ECE7F5E10C94C4235B01E0903301F09026
:102B0000340101E010E09E012C5F3F4F40E050E0B7
:102B100060E070E080E00E949D14182F882309F483
:102B20003EC067018FEFC81AD80A60917F0270918A
:102B3000800280918102909182020E94D7196436AE
:102B400071058105910518F103E010E09E012F5FEA
:102B50003F4F40E050E060E070E081E00E949D1453
:102B6000182F63E070E0C6010E94621691E02C818C
:102B7000281390E0192329F10E94BC1960937F0269
:102B80007093800280938102909382020FC063E071
:102B900070E0C6010E9462169C818913D5CFF701AF
:102BA00081819281A38189839A83AB83112349F028
:102BB00089819A81AB8180937C0290937D02A0935E
:102BC0007E0280917C0290917D02A0917E02F501AF
:102BD00080839183A283812F2496EAE00C94E023E2
:102BE0000F931F93CF93DF93EC018B0126E735E121
:102BF00045E351E00E942B15882341F02BEE34E190
:102C000042E451E0B801CE010E942B15DF91CF9133
:102C10001F910F9108950F931F93CF93DF93C0914E
:102C20003301D0913401CE01019623E0FB01DC0198
:102C300001900D922A95E1F763E070E00E94621620
:102C400088836C817D818E819F81009178021091B3
:102C5000790220917A0230917B0260177107820716
:102C6000930751F0609378027093790280937A020F
:102C700090937B020E949912DF91CF911F910F9147
:102C800008950E945D1E0E9423100E946A1E0895EE
:102C90000E946F1E0E9434100E94931E08950E948D
:102CA00047190E94431E0E9410100E9441160E9464
:102CB00048160E941910FBCF90934F0180934E014C
:102CC00008950895FC01680F791F8FEF91E3E617CF
:102CD000F70771F02191822728E030E087FF03C0D9
:102CE000880F892701C0880F21503109B9F7EFCF2C
:102CF0000895CF93DF9386319C4709F5EB010E943D
:102D00000D0E9D81992371F08A7A91E009F490E08B
:102D100090938702811102C089E201C085E30E947D
:102D2000E81809C080918702811102C089E201C0C0
:102D300085E30E94F0180E948F0E80E001C081E0C0
:102D4000DF91CF910895CF93DF93FC01DB011596BE
:102D50008C91882309F4DDC09F013057233231055F
:102D600008F0D8C0EF010E94330F9093A402809323
:102D7000A302FE01E150F047E232F10520F4EE59E2
:102D8000FF4F0C94B6238091A3028160AAC080916A
:102D9000A4028860B2C08091A3028260A2C0809128
:102DA000A30220C08091A30288609BC08091A402EE
:102DB0001EC08091A4028260A0C08091A3028061A5
:102DC00090C08091A30280628CC08091A302806435
:102DD00088C00E9471098091A302806882C080919E
:102DE000A302886084607DC08091A40282608160BB
:102DF00084C08091A3028E7F74C08091A402877FDB
:102E00007CC08091A3028D7F6CC08091A30220C002
:102E10008091A302877F65C08091A4021EC080912B
:102E2000A4028D7F6AC08091A3028F7E5AC08091D8
:102E3000A3028F7D56C08091A3028F7B52C00E9457
:102E400071098091A3028F774CC08091A302877F84
:102E50008B7F47C08091A4028D7F8E7F4EC0809172
:102E6000A30282FB222720F991E0922790FB82F9AE
:102E700090FB83F936C08091A402982F90959170B1
:102E80008E7F892B90FB81F938C08091A30286FB4D
:102E9000222720F991E0922790FB86F922C00E9418
:102EA00071098091A30287FB222720F991E09227E4
:102EB00090FB87F916C081E001C080E00E94C10F3D
:102EC0001EC08091A30284FB222720F991E0922763
:102ED00090FB84F906C08091A302982F909590FBF7
:102EE00080F98093A3020BC08091A40283FB222768
:102EF00020F991E0922790FB83F98093A4028091BE
:102F0000A3029091A4020E94380F0E94710980E0F0
:102F100001C081E0DF91CF9108950F931F93CF936C
:102F2000DF93C42FD22FFC0185818823B1F0409319
:102F30008A020E94B019909389028093880280E2ED
:102F40008C0F883008F04DC0C77081E001C0880F39
:102F5000CA95EAF70E944C0744C080918A02481340
:102F600030C080918802909189020E94C8198D37E3
:102F7000910538F510E21D0FCD17B9F080E28C0FE6
:102F8000883040F4C77081E001C0880FCA95EAF725
:102F90000E945307183010F581E09D2F977001C0F3
:102FA000880F9A95EAF70E944C07802F0E944207EB
:102FB0001830B8F4D77081E001C0880FDA95EAF7CD
:102FC0000AC080E28C0F883060F4C77081E001C0D5
:102FD000880FCA95EAF70E94530703C0802F0E940A
:102FE0004207DF91CF911F910F9108950F93FC013C
:102FF000E851FC47E730F10590F5CB01EC57FF4F66
:103000000C94B62306E221EE41EE6AE17CE723C090
:1030100007E225EE45EE6BE17CE71DC006E221EEFE
:1030200040EE68E17CE717C007E225EE44EE69E177
:103030007CE711C006E221EE42EE6CE17CE70BC0BA
:1030400007E225EE46EE6DE17CE705C008E221E0EF
:1030500045EE6EE17CE70E948D1780E008C0FB0121
:103060008581882319F010928A0201C081E00F91B6
:10307000089590938D0280938C0208950E942A14E3
:10308000811103C080918B020895E0918C02F09130
:103090008D02309729F00190F081E02D0995089577
:1030A00080E008950E943E180895EF92FF921F93CA
:1030B000CF93DF93E0918C02F0918D023097C1F1B4
:1030C000EC010280F381E02D09958091660282FF78
:1030D0002FC080FF0DC088811F928F9381E293E003
:1030E0009F938F930E94E9020F900F900F900F9083
:1030F00016E08BE1E82E83E0F82E8091660280FFD7
:103100000BC08A811F928F93FF92EF920E94E90277
:103110000F900F900F900F90115021961111EDCF3D
:103120008091660280FF04C089E193E00E94500212
:10313000DF91CF911F91FF90EF900895E0910001F2
:10314000F0910101329697E080E0915029F02191B1
:103150002223D9F38F5FF9CF0895882371F020914E
:10316000000130910101F9013296285F3F4F9191A2
:10317000891729F0E217F307D1F780E0089581E07D
:1031800008959C01FC0132969FEF80E04191461723
:1031900089F09F3F19F4411101C0982F8F5F86304D
:1031A000A9F79F3F39F0F901E90FF11D97FDFA9555
:1031B0006283089508959C012A5F3F4FFC0142817C
:1031C000461301C01282019682179307B9F708953A
:1031D000682F80910001909101010E94C11808950B
:1031E000682F80910001909101010E94DB180895E1
:1031F000E0910001F0910101329686E0DF011D921D
:103200008A95E9F7089508950E940319089583E0C7
:1032100080938E020E9404190895811102C081E0FA
:1032200001C082E080938E020E94041908950E94DA
:103230000D19089581E080938E020E94041908956B
:103240000E941A19089508950E94231908950E9452
:10325000241908950E94231908950E94231908959E
:103260000E9423190895CF930E942D190E9496045D
:103270000E942A19C0E08C2F0E940813811104C0FB
:10328000CF5FC630C1F701C081E0CF91089585B707
:10329000806885BF85B7806885BF08951F920F92AB
:1032A0000FB60F9211248F939F93AF93BF9380918A
:1032B0008F02811113C08091B1029091B202A0914E
:1032C000B302B091B4024196A11DB11D8093B10229
:1032D0009093B202A093B302B093B402BF91AF91A6
:1032E0009F918F910F900FBE0F901F901895809116
:1032F000B902843031F10E94C60510928F0220E499
:1033000088E190E00FB6F894A895809360000FBE16
:103310002093600083B7817F846083BF83B781601F
:1033200083BF7894889583B78E7F83BF0FB6F89458
:10333000A895809160008861809360001092600081
:103340000FBE08950E9471090E94CB05089582E086
:1033500084BD93E095BD9AEF97BD80936E0008956C
:103360002FB7F8948091B1029091B202A091B3026C
:10337000B091B4022FBF08952FB7F8946091B102B5
:103380007091B2028091B3029091B4022FBF089560
:103390009C014FB7F8948091B1029091B202A09134
:1033A000B302B091B4024FBF821B930B0895CF922A
:1033B000DF92EF92FF922FB7F894C090B102D090B5
:1033C000B202E090B302F090B4022FBFA7019601C1
:1033D000261B370B480B590BCA01B901FF90EF9020
:1033E000DF90CF90089578941F920F920FB60F92AE
:1033F00011248F939F93AF93BF938091B1029091CB
:10340000B202A091B302B091B4020196A11DB11D08
:103410008093B1029093B202A093B302B093B4022E
:10342000BF91AF919F918F910F900FBE0F901F9002
:10343000189587E797E790930108809300089AE032
:1034400088E10FB6F894A895809360000FBE909322
:103450006000FFCF9AE088E10FB6F894A8958093BA
:1034600060000FBE90936000FFCF8EE14A9B02C0C8
:103470008150E1F74A9BFECF08955A9880E28A95E1
:10348000F1F75A9A0895FC012AE02A95F1F728E00D
:1034900090E080E031E040E14A95F1F7880F4A9BE7
:1034A00002C08160932700C0000040E14A95F1F717
:1034B000215089F720E12A95F1F729B100C00000D9
:1034C00030E13A95F1F722FB222720F9922720815B
:1034D000920F90830895A1E0B0E0E1E7FAE10C9447
:1034E000C82319828C017C01E60EF11C0E151F0504
:1034F00051F00E94351ACE0101960E94431AF8013C
:1035000081938F01F3CF81E09981911180E0219621
:10351000E6E00C94E423529A5A9A089552985A9AE3
:10352000EA9AE9E6F0E080818F7C8083089561501B
:1035300091E001C0990F6A95EAF720E031E0992304
:1035400061F0492F482319F05A9A232701C05A984D
:1035500040E24A95F1F79695F2CF222311F05A9A5C
:1035600001C05A9880E28A95F1F75A980895FF921F
:103570000F931F93CF93DF93EC018C01060F111D66
:10358000C017D10741F0F9900E943D1A68E08F2DD5
:103590000E94971AF5CFCDB7DEB7E5E00C94E5238E
:1035A0001F920F920FB60F9211240F931F932F9318
:1035B0003F934F935F936F937F938F939F93AF93BB
:1035C000BF93EF93FF93CF93DF931F92CDB7DEB7F7
:1035D00019820E94351ACE0101960E94431A082FC3
:1035E000069506950695902F96959570202F257037
:1035F000920F292F237096959695920F87708913B5
:103600005FC0898181115CC0043008F059C080E13D
:103610008A95F1F75A9A529A82E08A95F1F700C09A
:103620005A9888E0089F80011124D801AD5FBE4FF1
:103630001696ED91FC9117973097A9F060913301A0
:103640007091340114962D913C911597260F371FD8
:1036500011968D919C911297680F791F13964C913A
:1036600013978C910995F801ED5FFE4F63816623F6
:1036700051F0809133019091340124813581820F82
:10368000931F0E94B71A0E943D1A80E18A95F1F7B4
:103690005A9852985A9A80E18A95F1F7F801ED5FAD
:1036A000FE4F6081662351F0809133019091340187
:1036B00021813281820F931F0E946B1A0E94351A5A
:1036C0000F90DF91CF91FF91EF91BF91AF919F91BB
:1036D0008F917F916F915F914F913F912F911F91AA
:1036E0000F910F900FBE0F901F9018950F931F937F
:1036F000CF93DF93843091050CF06DC0EC01F8940A
:10370000529A5A9885E08A95F1F700009C2F969579
:1037100095702C2F2570920F892F83709695969512
:1037200023E0CC0FDD1F2A95E1F7980F8E01092BBE
:103730000E943D1A84E08A95F1F700C068E0802F6E
:103740000E94971A80E18A95F1F752985A9A4A99FD
:1037500002C000C0FCCF87E090E04A9B08C0019700
:1037600021F4529A5A9A789436C000C0F6CFFE01DE
:10377000ED5FFE4F6381662381F08091330190916C
:10378000340124813581820F931F0E946B1A8111AD
:1037900004C0529A5A9A78941FC00E94351A80E247
:1037A0008A95F1F75A98529A80E18A95F1F7CD5FA0
:1037B000DE4F6881662351F080913301909134018E
:1037C00029813A81820F931F0E94B71A0E943D1AE5
:1037D000789481E001C080E0DF91CF911F910F913B
:1037E0000895807C80931B010895873941F178F416
:1037F000863349F130F4843321F1853331F584E2A5
:1038000008958439D1F0863901F581E20895843F25
:1038100071F030F4803FD9F0813FB9F481E0089530
:10382000863F49F030F0873F81F487E0089584E0D7
:10383000089585E0089586E0089580E2089582E283
:10384000089583E2089585E208958FE1089580E068
:10385000089596E890937A00982F907290689093CC
:103860007B008F7190911B01892B80937C0080914C
:103870007A00806480937A0080917A0086FDFCCF84
:10388000809178002091790090917A009F779093B1
:103890007A0090E0922B08950E94F51B0E94291C4B
:1038A000089580919B0208950895089508959B01BD
:1038B0009091B9029430F1F48F708093E9008FEF0A
:1038C0009091E800815095FD06C095ED9A95F1F72D
:1038D00000008111F5CF8091E80085FF0BC0BA018F
:1038E000C90140E050E00E940B1F8091E8008E77F4
:1038F0008093E8000895CF93DF93EC0148E050E017
:10390000BC0181E00E94571C88E0FE01A3E9B2E0FF
:1039100001900D928A95E1F7DF91CF91089580E6AD
:1039200093E00E9450028091B802811109C00E9468
:1039300096200E94F3208091E20084608093E20050
:1039400008958CE593E00E9450021092B802089509
:1039500088E593E00E9450020E942019089584E5B2
:1039600093E00E9450026091B50281E0611101C0B4
:1039700080E00E940719089580E593E00E945002BC
:103980009091B90281E0943009F080E06091B50235
:103990000E940D190895209191022F5F822F62E3FA
:1039A0000E94AA23992319F020939102089510925E
:1039B000910280919202882371F18091B902843042
:1039C00041F58091E9008F702091EC00922F917069
:1039D00020FD90E8892B92E09093E9009091EB0014
:1039E00090FF14C09091EE0097FF10C09091E800F6
:1039F00095FF03C01092F100F9CF9091E80090FF7D
:103A000005C09091E8009E779093E8008F708093B6
:103A1000E90010929202089542E061EC81E00E9478
:103A20000F2042E261EC82E00E940F209091B902E7
:103A300081E0943009F080E06091B5020E9417198E
:103A400008958091BB02833009F461C030F4813065
:103A500071F0823009F49BC008958A3009F487C060
:103A60008B3009F46CC0893009F0A9C020C0809166
:103A7000BA02813A09F0A3C08091E800877F809361
:103A8000E8008091BE029091BF02892B21F468E08A
:103A900083E992E003C060E080E090E070E00E9483
:103AA000501F8091E8008B778093E8000895809103
:103AB000BA02813209F083C08091BE029091BF02A8
:103AC000892B09F07CC08091E800877F8093E80013
:103AD0008091E80082FD05C08091B9028111F8CF84
:103AE0006EC02091F3008091F20090E0922B02973B
:103AF00031F48091F100813011F0863021F4809111
:103B0000F10080939B028091E8008B7754C08091F4
:103B1000BA02813A09F053C08091BE029091BF026F
:103B2000892B09F04CC08091E800877F8093E800E2
:103B30008091E80080FFFCCF8091260137C0809102
:103B4000BA028132E1F58091BE029091BF02892BC9
:103B5000B1F58091E800877F8093E8000E944420BF
:103B60008091BC02809326010E9471090895809182
:103B7000BA02813221F58091E800877F8093E800C6
:103B80000E9444208091BD0280939C020895809100
:103B9000BA02813AA1F48091E800877F8093E8001F
:103BA0008091E80080FFFCCF80919C028093F1001F
:103BB0008091E8008E778093E8000E944420089569
:103BC0009FB7F894109292029FBF9091B9029430DF
:103BD00009F057C09091E9009F703091EC00232FBD
:103BE000217030FD20E8922B22E02093E900209103
:103BF000EB0020FF43C02091EE0027FF3FC0209143
:103C00009002222321F02091E80025FF37C0109276
:103C1000900226E03091E80035FD15C03091B902E0
:103C2000343061F53091EB0035FD28C0215021F48E
:103C300081E08093900222C0EFE9FFE03197F1F735
:103C400000C00000E7CF8093F1008091E80085FD7F
:103C50000AC08091E80080FFFCCF8091E8008E7759
:103C60008093E80006C08FB7F89421E02093920279
:103C70008FBF9F709093E90080E008959F709093AC
:103C8000E9008FEF089584B7877F84BF0FB6F8945B
:103C9000A895809160008861809360001092600018
:103CA0000FBE90E080E80FB6F89480936100909387
:103CB00061000FBE0E941A1908950E9496200E946A
:103CC000F320E2EEF0E080818460808378940E94AB
:103CD0007D2308958CE191E00E9439180895809128
:103CE000B9028530F9F48091660280FF0BC08AE347
:103CF00093E00E94500206C00E9477198091B7029B
:103D0000811105C08091B9028530B1F309C00E94CC
:103D100033198823B9F30E94F51E0E947109F2CF6E
:103D20000E94A219089508959A014091C0025091ED
:103D3000C1020E949C1E0895492F5527433051050A
:103D4000C9F060F44130510581F04230510509F06D
:103D500044C082E490E040E953E043C04132510561
:103D6000E1F04232510549F138C082E190E042ED84
:103D700053E037C099278130910549F028F0029728
:103D800061F5E4E6F3E005C0ECE8F3E002C0E4E747
:103D9000F3E0849190E0AF0124C06115710541F01A
:103DA00061307105D1F489E090E04BEB53E019C02C
:103DB00089E090E042EA53E014C06115710541F0DA
:103DC0006130710551F482E290E044EE53E009C0A5
:103DD00084E490E046E054E004C080E090E040E0FD
:103DE00050E0F90151834083089580E189BD82E16B
:103DF00089BD09B400FEFDCF8091D8008F7D8093EE
:103E0000D8008091E00082608093E0008091E00023
:103E100081FDFCCF0895A0E0B0E0E1E1FFE10C946A
:103E2000C623EC018B017A010E946320811133C00B
:103E3000E114F10439F0F70180819181081B190B1D
:103E4000C80FD91FC12CD12C0115110519F1809172
:103E5000E80085FD16C08091E8008E778093E80029
:103E6000E114F10449F0F70180819181C80ED91E57
:103E7000D182C08285E00FC00E946320882321F395
:103E80000AC089918093F10001501109FFEFCF1A08
:103E9000DF0ADACF80E0CDB7DEB7E8E00C94E223AA
:103EA0002091C0023091C1022617370748F06115F2
:103EB000710539F42091E8002E772093E80001C0C5
:103EC000B901FC0120E06115710579F18091B90219
:103ED0008823F1F18530F1F18091E80083FD3CC049
:103EE0008091E80082FD2EC08091E80080FFEBCF3A
:103EF0002091F3008091F20090E0922B6115710502
:103F000051F08830910538F421912093F1006150EF
:103F100071090196F3CF21E0089709F020E0809124
:103F2000E8008E778093E800CECF2111CFCF0AC072
:103F30008091B902882361F0853061F08091E800BA
:103F400083FD0AC08091E80082FFF2CF80E00895EF
:103F500082E0089583E0089581E008952091C002F1
:103F60003091C1022617370748F06115710539F401
:103F70002091E8002E772093E80001C0B901FC01F0
:103F800020E06115710591F18091B902882309F44F
:103F900040C0853009F43FC08091E80083FD3DC0FA
:103FA0008091E80082FD2FC08091E80080FFE9CF7A
:103FB0002091F3008091F20090E0922B6115710541
:103FC00059F08830910540F424912093F100319606
:103FD000615071090196F2CF21E0089709F020E0C5
:103FE0008091E8008E778093E800CBCF2111CCCF71
:103FF0000AC08091B902882361F0853061F0809118
:10400000E80083FD0AC08091E80082FFF2CF80E0E3
:10401000089582E0089583E0089581E00895982F3F
:10402000973068F59093E900981739F07091EC009B
:104030002091ED005091F00003C0242F762F50E026
:1040400021FD02C09F5FECCF3091EB003E7F3093AB
:10405000EB003091ED003D7F3093ED003091EB00AF
:1040600031603093EB007093EC002093ED0050939F
:10407000F0002091EE0027FDE5CF80E008958F70DD
:104080008093E90081E008958091BA0287FF11C012
:104090008091E80082FD05C08091B9028111F8CFBE
:1040A00011C08091E8008B770BC08091B902882302
:1040B00049F08091E80080FFF8CF8091E8008E778A
:1040C0008093E80008952091E4003091E50095E6A2
:1040D0004091EC00842F817040FF23C08091E80064
:1040E00080FD1DC08091B902882399F0853099F038
:1040F0008091EB0085FD11C04091E4005091E500F6
:104100002417350729F3915011F09A01E1CF84E08B
:10411000089582E0089583E0089581E0089580E0A5
:1041200008954091E80042FFDDCF08950E940521E7
:104130000E940D21E0EEF0E0808181608083E8ED57
:10414000F0E080818F77808319BCA7EDB0E08C917F
:104150008E7F8C9380818F7E80831092B802089529
:104160000F931F93CF93DF930E9405210E940D218F
:10417000C8EDD0E088818F778883888180688883C4
:1041800088818F7D888319BC1092B9021092B50284
:104190001092B7021092B60200EE10E0F801808192
:1041A0008B7F808388818160888342E060E080E04B
:1041B0000E940F20E1EEF0E080818E7F8083E2EEAE
:1041C000F0E0808181608083808188608083F80155
:1041D00080818E7F8083888180618883DF91CF9109
:1041E0001F910F910895E8EDF0E080818F7E80832C
:1041F000E7EDF0E080818160808384E082BF81E030
:104200008093B8020E94B0200895E8EDF0E080812C
:104210008E7F80831092E20008951092DA0010924F
:10422000E10008951F920F920FB60F9211242F9361
:104230003F934F935F936F937F938F939F93AF932E
:10424000BF93EF93FF938091E10082FF0BC08091B9
:10425000E20082FF07C08091E1008B7F8093E10044
:104260000E94CB1C8091DA0080FF1FC08091D80093
:1042700080FF1BC08091DA008E7F8093DA008091EE
:10428000D90080FF0DC080E189BD82E189BD09B4FC
:1042900000FEFDCF81E08093B9020E948F1C05C013
:1042A00019BC1092B9020E94A11C8091E10080FF0C
:1042B00019C08091E20080FF15C08091E2008E7FDE
:1042C0008093E2008091E20080618093E20080911F
:1042D000D80080628093D80019BC85E08093B90231
:1042E0000E94AF1C8091E10084FF30C08091E20009
:1042F00084FF2CC080E189BD82E189BD09B400FE44
:10430000FDCF8091D8008F7D8093D8008091E1000F
:104310008F7E8093E1008091E2008F7E8093E200A7
:104320008091E20081608093E2008091B502882351
:1043300011F084E007C08091E30087FD02C081E0B6
:1043400001C083E08093B9020E94BC1C8091E1000F
:1043500083FF29C08091E20083FF25C08091E100A6
:10436000877F8093E10082E08093B9021092B502CA
:104370008091E1008E7F8093E1008091E2008E7F4A
:104380008093E2008091E20080618093E20042E04D
:1043900060E080E00E940F208091F00088608093B0
:1043A000F0000E94A81CFF91EF91BF91AF919F91E7
:1043B0008F917F916F915F914F913F912F910F90CE
:1043C0000FBE0F901F9018951F920F920FB60F926D
:1043D00011242F933F934F935F936F937F938F930A
:1043E0009F93AF93BF93CF93DF93EF93FF93C091CE
:1043F000E900CF708091EC00D82FD17080FDD0E81B
:104400001092E9008091F000877F8093F00078940B
:104410000E9428221092E9008091F0008860809329
:10442000F000CD2BCF70C093E900FF91EF91DF91A9
:10443000CF91BF91AF919F918F917F916F915F913C
:104440004F913F912F910F900FBE0F901F90189595
:10445000AAE2B0E0EEE2F2E20C94CB23EAEBF2E067
:104460008091F100819322E0E23CF207C9F70E94BB
:10447000211D8091E80083FF2EC18091BA029091A6
:10448000BB02492F50E04A30510508F024C1FA011F
:10449000E557FF4F0C94B623803821F0823809F09D
:1044A0001AC108C08091B6029091B702992389F091
:1044B00082600FC08091BE028F70873008F00BC100
:1044C0008093E9008091EB0085FB882780F91092AA
:1044D000E9009091E800977F9093E8008093F100C5
:1044E0001092F100D1C0282F2D7F09F0F4C088234D
:1044F00019F0823061F0EFC08091BC02813009F088
:10450000EAC0933009F080E08093B7022EC080911A
:10451000BC0281112AC08091BE028F702FEF280F3C
:10452000263008F0D8C08093E9002091EB0020FFEE
:104530001CC0933021F48091EB00806214C09091F4
:10454000EB0090619093EB0021E030E0A90102C004
:10455000440F551F8A95E2F74093EA001092EA0053
:104560008091EB0088608093EB001092E9008091CD
:10457000E800877F8093E8000E944420ACC081114E
:10458000AAC01091BC021F778091E3008078812B34
:104590008093E3008091E800877F8093E8000E9489
:1045A00044208091E80080FFFCCF8091E300806888
:1045B0008093E300111102C082E001C083E0809388
:1045C000B90289C08058823008F085C08091BC0251
:1045D0009091BD028C3D53E0950779F583E08A8385
:1045E0008AE289834FB7F894DE01139620E03EE01B
:1045F00051E2E32FF0E050935700E49120FF03C015
:10460000E295EF703F5FEF708E2F90E0EA3010F090
:10461000C79601C0C0968D939D932F5F243149F7B3
:104620004FBF8091E800877F8093E8006AE270E0E6
:10463000CE0101960E94501F16C06091BE0270917B
:10464000BF02AE014F5F5F4F0E94941EBC01892BD9
:1046500009F441C09091E800977F9093E800898128
:104660009A810E94AE1F8091E8008B778093E800CA
:1046700032C0803881F58091E800877F8093E80020
:104680008091B5028093F1008091E8008E7772CF1F
:10469000811121C08091BC029091BD02992702979F
:1046A000D4F48091E800877F8093E8008091BC0279
:1046B0008093B5020E9444208091B502811106C00A
:1046C0008091E30087FD02C081E001C084E0809317
:1046D000B9020E940C1D8091E80083FF0AC08091FE
:1046E000E800877F8093E8008091EB0080628093F0
:1046F000EB00AA96E3E00C94E723CF938091B902F4
:104700008823A1F0C091E900CF709091EC00892F2F
:10471000817090FD80E8C82B1092E9008091E8003C
:1047200083FD0E942822CF70C093E900CF910895A5
:104730000E9496201092B9020895E8EDF0E0808181
:10474000806180838AE18A95F1F700C08091D90069
:1047500081700895991B79E004C0991F961708F09D
:10476000961B881F7A95C9F780950895EE0FFF1F55
:104770000590F491E02D09942F923F924F925F9211
:104780006F927F928F929F92AF92BF92CF92DF9261
:10479000EF92FF920F931F93CF93DF93CDB7DEB7C6
:1047A000CA1BDB0B0FB6F894DEBF0FBECDBF09945A
:1047B0002A88398848885F846E847D848C849B84B1
:1047C000AA84B984C884DF80EE80FD800C811B81BF
:1047D000AA81B981CE0FD11D0FB6F894DEBF0FBEEE
:1047E000CDBFED010895FB01DC0104C08D91019066
:1047F000801921F441505040C8F7881B990B089547
:10480000FB01DC0102C001900D9241505040D8F7ED
:104810000895F999FECF92BD81BDF89A992780B588
:104820000895A8E1B0E042E050E00C944D24DC0192
:10483000A40FB51F4150504048F0CB01840F951F85
:104840002E910E94282441505040D0F70895262FE1
:10485000F999FECF92BD81BDF89A019700B4021676
:1048600039F01FBA20BD0FB6F894FA9AF99A0FBE24
:1048700008950396272F0E9428240E942724252F7D
:104880000E942824242F0C9428240196272F0E946C
:1048900028240C942724DC01CB01FC01F999FECFDC
:1048A00006C0F2BDE1BDF89A319600B40D924150B8
:0A48B0005040B8F70895F894FFCFC8
:1048BA004C0201000000010000000000000003019A
:1048CA00000000040400000000000040511C7B1C92
:1048DA00541C551C561C01363233010003050702CD
:1048EA009466977002736C6176655F6D6174726924
:0E48FA00780073796E635F74696D65720000FB
:00000001FF
